:100000000C947C000C94A4000C94A4000C94A40008
:100010000C94A4000C94A4000C94A4000C948701EC
:100020000C94A4000C94A4000C94A4000C94A400C0
:100030000C94A4000C94A4000C94A4000C94A400B0
:100040000C9450030C94A4000C942F020C940902FD
:100050000C94A4000C94A4000C94A4000C94A40090
:100060000C94A4000C94A400850DE70D210E870EBE
:100070001D0F4D0F5A0F970F0010A6101C101F10C8
:10008000A6106D10A610A610A610A610A610A610F9
:10009000A610A610A610A010A410020000000025B3
:1000A0000028002B0000000000240027002A000484
:1000B000040404040404040202020202020303030F
:1000C0000303030102040810204080010204081009
:1000D000200102040810200000000023002600294F
:1000E00000000000080002010000030407000000F7
:1000F000000000000000B61011241FBECFEFD8E0B2
:10010000DEBFCDBF22E0A6E1B1E001C01D92AC335D
:10011000B207E1F711E0A0E0B1E0E8E8F2E202C0E6
:1001200005900D92A631B107D9F710E0CCE7D0E0E9
:1001300004C02197FE010E943011CB37D107C9F7C7
:100140000E942F0C0C9442110C940000CF92DF926D
:10015000EF92FF920F931F93CF93DF936C017A017D
:100160008B01C0E0D0E0CE15DF0589F0D8016D919C
:100170008D01D601ED91FC910190F081E02DC60139
:100180000995892B11F47E0102C02196ECCFC7019D
:10019000DF91CF911F910F91FF90EF90DF90CF9063
:1001A0000895089580E090E00895FC01538D448DFA
:1001B000252F30E0842F90E0821B930B541710F012
:1001C000CF96089501970895FC01918D828D98171F
:1001D00061F0828DDF01A80FB11D5D968C91928D2B
:1001E0009F5F9F73928F90E008958FEF9FEF089528
:1001F000FC01918D828D981731F0828DE80FF11DF1
:10020000858D90E008958FEF9FEF0895FC01918D0B
:10021000228D892F90E0805C9F4F821B91098F7304
:100220009927089581E991E00E94060121E0892B38
:1002300009F420E0822F08950E943D11EF92FF9271
:100240000F931F93CF93DF93EC0181E0888F9B8DF9
:100250008C8D981305C0E889F989808185FD24C0BB
:10026000F62E0B8D10E00F5F1F4F0F731127E02E3E
:100270008C8DE8120CC00FB607FCFACFE889F9891B
:10028000808185FFF5CFCE010E949002F1CF8B8D4A
:10029000FE01E80FF11DE35AFF4FF0820B8FEA8950
:1002A000FB898081806207C0EE89FF896083E889CD
:1002B000F98980818064808381E090E0DF91CF9133
:1002C0001F910F91FF90EF900895CF93DF93EC0172
:1002D000888D8823C9F0EA89FB89808185FD05C066
:1002E000A889B9898C9186FD0FC00FB607FCF5CFA0
:1002F000808185FFF2CFA889B9898C9185FFEDCFE8
:10030000CE010E949002E7CFDF91CF9108951F9216
:100310000F920FB60F9211242F933F934F935F9339
:100320006F937F938F939F93AF93BF93EF93FF93BD
:100330008091190190911A01A0911B01B0911C01AB
:10034000892B8A2B8B2B59F180911801E091160192
:10035000F0911701908189278083809119019091F4
:100360001A01A0911B01B0911C01181619061A065A
:100370001B060CF03DC08091190190911A01A091CB
:100380001B01B0911C010197A109B10980931901CA
:1003900090931A01A0931B01B0931C0129C0809176
:1003A0000001EAE9F0E0E4919FEF90930001E13071
:1003B000B9F098F0E230C9F4909170009D7F90936D
:1003C000700091E09093B0009091B100987F94609C
:1003D0009093B1001092B30008C010926E0005C057
:1003E00090916F009D7F90936F0060E00E94DA0211
:1003F000FF91EF91BF91AF919F918F917F916F91FD
:100400005F914F913F912F910F900FBE0F901F90D2
:1004100018951F920F920FB60F9211242F933F93AE
:100420004F935F936F937F938F939F93AF93BF93FC
:10043000EF93FF9381E991E00E949002FF91EF9189
:10044000BF91AF919F918F917F916F915F914F91EC
:100450003F912F910F900FBE0F901F9018951F92F4
:100460000F920FB60F9211242F938F939F93EF93B8
:10047000FF93E091A101F091A2018081E091A70199
:10048000F091A80182FD12C090818091AA018F5F36
:100490008F732091AB01821751F0E091AA01F0E037
:1004A000EF56FE4F958F8093AA0101C08081FF9186
:1004B000EF919F918F912F910F900FBE0F901F90F2
:1004C000189580E090E0892B29F00E94120181119B
:1004D0000C94000008953FB7F89480918D0190919D
:1004E0008E01A0918F01B091900126B5A89B05C007
:1004F0002F3F19F00196A11DB11D3FBFBA2FA92FA3
:10050000982F8827820F911DA11DB11DBC01CD011F
:1005100043E0660F771F881F991F4A95D1F708950A
:10052000FC01848DDF01A80FB11DA35ABF4F2C9190
:10053000848D90E001968F739927848FA689B7895F
:100540002C93A089B1898C9180648C93938D848D38
:10055000981306C00288F389E02D80818F7D808307
:100560000895833081F028F4813099F08230A1F031
:1005700008958730A9F08830B9F08430D1F48091A3
:1005800080008F7D03C0809180008F7780938000F2
:10059000089584B58F7702C084B58F7D84BD08959A
:1005A0008091B0008F7703C08091B0008F7D8093E1
:1005B000B00008951F93CF93DF93282F30E0F90107
:1005C000EF51FF4F8491F901ED53FF4FD491F901A1
:1005D000E155FF4FC491CC23C9F0162F81110E9421
:1005E000B102EC2FF0E0EE0FFF1FE556FF4FA59193
:1005F000B4918FB7F894111105C09C91ED2FE0953F
:10060000E92302C0EC91ED2BEC938FBFDF91CF91EA
:100610001F9108958F929F92AF92BF92CF92DF92D7
:10062000EF92FF926B017C010E946B024B015C0117
:10063000C114D104E104F104F1F00E946B02DC0169
:10064000CB0188199909AA09BB09883E9340A105E5
:10065000B10570F321E0C21AD108E108F10888EE73
:10066000880E83E0981EA11CB11CC114D104E104C2
:10067000F10419F7DDCFFF90EF90DF90CF90BF909E
:10068000AF909F908F9008952FB7F8946091890153
:1006900070918A0180918B0190918C012FBF0895F8
:1006A0001F920F920FB60F9211242F933F938F93A7
:1006B0009F93AF93BF938091890190918A01A091FC
:1006C0008B01B0918C013091880126E0230F2D37EA
:1006D00020F40296A11DB11D05C029E8230F039641
:1006E000A11DB11D209388018093890190938A01F7
:1006F000A0938B01B0938C0180918D0190918E011C
:10070000A0918F01B09190010196A11DB11D809320
:100710008D0190938E01A0938F01B0939001BF91B2
:10072000AF919F918F913F912F910F900FBE0F909E
:100730001F90189580918701882361F09FB7F894E6
:100740002091870180918601213019F48DBB9FBFD4
:1007500008958FBF08958EBD00000DB407FEFDCF34
:100760008EB5089520918701222379F02FB7F89450
:1007700030918701313039F43DB3309386013DB378
:100780003DBB2FBF02C0209386018CBD9DBD089547
:100790009FB7F89480918501882319F08150809348
:1007A000850180918501811105C08CB58F7B8CBD41
:1007B000109287019FBF0895CF93CFB7F89480918F
:1007C0008501811124C0E9EBF0E08491EDECF0E0CB
:1007D0009491E82FF0E0EE0FFF1FEB55FF4FA5912E
:1007E000B491EC91E92321F461E08AE00E94DA02FD
:1007F0008AE00E947E088CB580618CBD8CB58064D7
:100800008CBD8DE00E947E088BE00E947E08809166
:1008100085018F5F80938501CFBFCF91089582E0DE
:1008200080930201EFE2F1E08EE18E0F11928E13C0
:10083000FDCFEDE4F1E080E28E0F11928E13FDCF3B
:100840000895FF920F931F93CF93DF938C01F62EA1
:10085000C0E0D0E06F2DCE01800F911F0E94F110FB
:100860002196C330D105B1F7DF91CF911F910F9140
:10087000FF9008952F923F924F925F926F927F92D6
:100880008F929F92AF92BF92CF92DF92EF92FF92A0
:100890000F931F93CF93DF9300D000D01F92CDB75B
:1008A000DEB78C01F62E84E00E947E0883E00E9471
:1008B0007E082801012E000C6608770820E43FE13D
:1008C000D8010E94361128EE33E040E050E00E944B
:1008D0000E1129833A831A018F2D90E09D838C831A
:1008E00000E010E03AE9832E30E0932E42EBE42E54
:1008F00040E0F42E56ECC52E50E0D52E5C0191E080
:10090000A91AB1088C819D810817190709F415C12E
:1009100061E084E00E94DA0280910001833019F4E2
:10092000F401949172C08F3F09F0F5C083E0809389
:100930000001F40194919F3F09F4EDC0913009F159
:10094000923009F440C0911160C014BC15BC84B54C
:10095000826084BD85B5816085BDF7018491E82FF3
:10096000F0E0EE0FFF1FE556FF4F859194919093B5
:100970007C0180937B01F601849180937A0190E061
:1009800046C01092800010928100809181008860A2
:100990008093810080918100816080938100F701C4
:1009A0008491E82FF0E0EE0FFF1FE556FF4F859191
:1009B00094919093790180937801F60184918093CA
:1009C000770191E024C01092B0001092B1008091A4
:1009D000B00082608093B0008091B100816080930C
:1009E000B100F7018491E82FF0E0EE0FFF1FE5560C
:1009F000FF4F859194919093170180931601F60112
:100A000084918093180192E002C097FD84C083E036
:100A10009B830E947E089B81992319F09230E9F410
:100A20000CC085B5887F826085BD41145104610486
:100A30007104C1F12CE730E02BC08091B100887FB8
:100A400082608093B100411451046104710491F7F4
:100A50004FEF5FEFBA012CE74FC0913071F48091F6
:100A60008100887F8160809381004114510461047A
:100A7000710459F127EE33E00BC0411451046104B5
:100A80007104C1F727EE33E04FEF5FEFBA0103C007
:100A900049815A81B1019130E9F0923069F19111A7
:100AA0003AC004C04FEF5FEFBA012CE727BD409377
:100AB000810150938201609383017093840180913E
:100AC0006E00826080936E0026C04FEF5FEFBA0128
:100AD00027EE33E0309389002093880040937D0116
:100AE00050937E0160937F017093800180916F002D
:100AF000826080936F000FC02093B3004093190170
:100B000050931A0160931B0170931C018091700037
:100B1000826080937000C301B2010E940A0360E00A
:100B200084E00E94DA020A151B0524F4C301B20115
:100B30000E940A030F5F1F4FE5CE0F900F900F909A
:100B40000F900F90DF91CF911F910F91FF90EF9039
:100B5000DF90CF90BF90AF909F908F907F906F90DD
:100B60005F904F903F902F90089561E08CE291E06C
:100B70000C943A04EF92FF920F931F93CF93DF935D
:100B8000D82FC62F6EEF81E991E00E941E01D0930D
:100B90002F018EEF8C0F80933001CF3108F0CEE122
:100BA0000FE211E07801D02F8E2D801B8C1740F4BE
:100BB000F70161917F0181E991E00E941E01F4CF6C
:100BC00060E0802F8D1B8C1728F4F80181918F0134
:100BD000680FF7CF81E991E00E941E01DF91CF916C
:100BE0001F910F91FF90EF900C940F0490910201D0
:100BF000E92FF0E0E15DFE4F80839D3161F4862FA7
:100C000060911D01605E0E94BA0580911D018F5F99
:100C100080931D0108959F5F909302010895CF93E3
:100C2000C82F63E084E690E00E943A04CC2391F060
:100C300088E780932E010E940F0460912E018C2F73
:100C40000E94F6056091020180912E010E94BA0572
:100C500010921D01CF9108950F931F93CF93DF93AF
:100C60008C010E94E910C82FC80101960E94E9106A
:100C7000D82FC81789F00E5F1F4FC8010E94E910D6
:100C8000C81751F0C8010E94E910C82FD81721F0E9
:100C900084E00E940F06C0E08C2FDF91CF911F915E
:100CA0000F910895CF92EF920F931F93CF93DF93FD
:100CB000CDB7DEB763970FB6F894DEBF0FBECDBFDA
:100CC00092E19B8B90E399838A83AE014D5F5F4FE6
:100CD00062E0CE0101960E94EC0881110FC0CC2485
:100CE000C394E12C00E010E09E012D5E3F4FAE0169
:100CF0004F5F5F4F64E0CA010E942909809376012B
:100D0000882329F083E00E940F0680E00BC0AEE14B
:100D1000B1E0FE01319680E18E0F91919D938E138B
:100D2000FCCF81E063960FB6F894DEBF0FBECDBF57
:100D3000DF91CF911F910F91EF90CF900895AF92D7
:100D4000BF92CF92EF92FF920F931F93CF93DF93B7
:100D5000CDB7DEB76A970FB6F894DEBF0FBECDBF32
:100D60005C01F62E892B09F444C082EA8B8B6C8BD4
:100D7000F50180819181A281B3818D8B9E8BAF8B98
:100D8000B88F86E0FE017396DE01119601900D92F8
:100D90008A95E1F7AE01495F5F4F66E0CE010196AB
:100DA0000E94EC08811121C082E18A8F198EC12C2A
:100DB000E12C8E01075E1F4F9E01265E3F4FAE0164
:100DC0004F5F5F4F68E0CA010E94290981110DC081
:100DD0008A8D813061F4898D91E0843059F4898164
:100DE0008A3009F490E0919505C0982F03C091E0F6
:100DF00001C096E090937601992311F082E023C020
:100E000082E18B8B80E38983FA82AE014D5F5F4F75
:100E100062E0CE0101960E94EC0881110FC0CC2443
:100E2000C394E12C00E010E09E012D5E3F4FAE0127
:100E30004F5F5F4F64E0CA010E94290980937601E9
:100E4000882321F083E00E940F0619C03981309376
:100E50001E012A8120931F018B81809320019C8198
:100E600090932101F5014081341309C0318123138E
:100E700006C02281821303C081E02381921380E0A7
:100E80006A960FB6F894DEBF0FBECDBFDF91CF914B
:100E90001F910F91FF90EF90CF90BF90AF9008956A
:100EA000AF92BF92CF92DF92EF92FF920F931F9378
:100EB000CF93DF9383E680932E010E940F040E945C
:100EC000DC030E94B90B0E94720B882309F4D5C081
:100ED0000E94390A882309F4D0C083E00E94520698
:100EE000882309F4CAC0809120018E3311F482E86E
:100EF00005C08D3611F482EE01C088E280930301B3
:100F000084E00E945206882309F4B7C060912E0144
:100F100080911E010E94F60560912E0180911F01B3
:100F20000E94F60585E00E945206882309F4A5C0B8
:100F300010911E01C0901F01D12CE12CF12CFE2C30
:100F4000ED2CDC2CCC2480912001C80ED11CE11C9E
:100F5000F11CFE2CED2CDC2CCC2480912101C80E40
:100F6000D11CE11CF11CC6E08EE191E0D4E0D80F69
:100F70008C2F0E945206882309F47FC03EE1A32EE5
:100F800031E0B32E60912E01F50181915F010E9445
:100F9000F605DA11F7CFC73011F0C7E0E9CFC8E0A6
:100FA00001E0010F8FE191E0D3E0D80F80910301C0
:100FB000C81750F48C2F0E945206882309F45DC094
:100FC00080911E0181111EC06091020180912E014D
:100FD0000E94BA0510921D010E94C80380916D0104
:100FE000813009F04AC061E084E190E0DF91CF9167
:100FF0001F910F91FF90EF90DF90CF90BF90AF9037
:101000000C943A0460912E010E94F60540911F0154
:1010100050E060E070E0762F652F542F44278091D8
:101020002001480F511D611D711D762F652F542F12
:10103000442780912101480F511D611D711DC41667
:10104000D506E606F70650F460912E01812F0E9426
:10105000F6058FE1A82E81E0B82E04C060912E0124
:10106000802FF5CF60912E01F50181915F010E94E3
:10107000F605DA11F7CFCF5F99CFDF91CF911F91AE
:101080000F91FF90EF90DF90CF90BF90AF900895B9
:10109000CF92DF92FF920F931F93CF93DF931F9214
:1010A000CDB7DEB7082F162F83E590E079830E9435
:1010B000B20360E080913A020E94DA0282E10E946B
:1010C000AB03F12EC12E7981D72E8C2D8F1980176D
:1010D00030F4F60181916F010E94AB03F6CF61E01D
:1010E00080913A020E94DA020F90DF91CF911F9116
:1010F0000F91FF90DF90CF900C949A0390E0FC0149
:10110000ED53FF4F2491FC01E155FF4F849188235B
:1011100099F090E0880F991FFC01EB55FF4FA591C6
:10112000B491FC01E556FF4F859194918FB7F894E7
:10113000EC91E22BEC938FBF08950F931F93CF9305
:10114000C82F83E590E00E94B2030EE212E060E057
:10115000F80184850E94DA028C2F8E7780680E94C5
:10116000AB0380E00E94AB03C82F61E0F8018485E7
:101170000E94DA020E949A038C2FCF911F910F9147
:1011800008950F931F93CF93DF93082F162F83E5B6
:1011900090E00E94B203CEE2D2E060E08C850E9433
:1011A000DA02802F8E770E94AB03812F0E94AB035F
:1011B00061E08C850E94DA02DF91CF911F910F913F
:1011C0000C949A03CF93C82F0E949D08682F6068E3
:1011D0008C2FCF910C94C108EF92FF920F931F9325
:1011E000CF93DF937C01C62F8A0160E082E00E94EA
:1011F000C10864E08AE00E94C10884E10E94E2081C
:10120000B7018C2F0E94480863E082E00E94C10869
:10121000C8E8D3E18AE00E949D0882FD04C02197BE
:10122000C9F783E00FC060E082E00E94C10884E457
:101230000E949D08F801808382E40E949D08F801C5
:10124000818380E0DF91CF911F910F91FF90EF900C
:1012500008952F923F924F925F926F927F928F925A
:101260009F92AF92BF92CF92DF92EF92FF920F9335
:101270001F93CF93DF9300D0CDB7DEB72C01D62ECE
:101280005A01490138010115110519F0F801908141
:1012900001C090E0192FF0E1EF9E100D112460E0E5
:1012A00082E00E94C1086FE788E00E94C10884E1E3
:1012B0000E94E208B2018D2D0E944808612F8AE148
:1012C0000E94C1086CE082E00E94C1088AE10E948D
:1012D000E20800ED17E088E00E949D08982F9073C7
:1012E00031F480FDA8C001501109A9F7A4C08CE019
:1012F0000E949D08082F837109F09FC0A114B104BA
:1013000009F466C08114910409F462C084E10E946A
:101310009D08F82EF40180818F1508F490C0F082AA
:10132000FF2009F44BC083E590E00E94B20360E027
:1013300080913A020E94DA02FA9482E90E94AB0399
:10134000DA2C150144244394512C822D8D198F15CC
:1013500028F581111AC0EE20C1F08E2D10E08830E2
:1013600048F49201082E01C0220F0A94EAF7122BCA
:101370008F5FF5CF82E90E94AB03212F2095F50105
:10138000908192238123892B04C082E90E94AB03C0
:10139000F1018083FFEF2F1A3F0AD7CFC5018F0DD0
:1013A000911D7C0180E00E94AB03F701808361E026
:1013B00080913A020E94DA020E949A0388E10E9418
:1013C0009D088770F82E6114710411F0F301808379
:1013D00003FD37C0A114B104B1F18114910499F156
:1013E000CC2089F1F4016081613021F4F4E0FF1236
:1013F00003C01FC0623010F487E026C0F110FCCF9C
:101400006250AE014F5F5F4FC5010E94EC08811131
:101410001BC0F4018081A80EB11CF50132979081A8
:1014200089819813E9CF319690818A819813E4CF0E
:101430000AC08FEF09C083E007C081E005C084E0E7
:1014400003C082E001C080E00F900F90DF91CF9148
:101450001F910F91FF90EF90DF90CF90BF90AF90D2
:101460009F908F907F906F905F904F903F902F90C4
:1014700008953F924F925F926F927F928F929F92C8
:10148000AF92BF92CF92DF92EF92FF920F931F9392
:10149000CF93DF93CDB7DEB72B970FB6F894DEBFAF
:1014A0000FBECDBF8CE10E949D08682F6F778CE145
:1014B0000E94C108FF24F394AA24A394B12C22E033
:1014C000F21651F033E0F31661F041E0F412E8C097
:1014D00083E98983712C09C085E98983E3E07E2E45
:1014E00004C087E9898376E0772ED12C47E0642E0B
:1014F00050E7552E63E0462E80E2D8121BC05A8278
:101500009C818B8189279D8189279E8189278F8353
:10151000AE01485F5F4F67E0CE0101960E94EC0884
:101520008111C2C01B864A86FE0137964F0129E011
:10153000322E1FC09D2D97709B872D2D25952595AB
:10154000259582E0820F392FF0E18F9F300D112415
:101550003A8331E0911101C030E0332E380E8824F7
:101560008394912C8C0E9D1E880E911C862D821BBF
:101570008A87EB846E2D6295607F6E0D8AE10E94F2
:10158000C108C12C8E01055F1F4F9E01265F3F4F92
:10159000A401632DCE0101960E942909823089F5AC
:1015A0008CE10E949D0885FD79C08F7109F480E26D
:1015B000282F30E04D2DDD0C550B421753070CF052
:1015C0006FC0D82EC9010197877099272595259559
:1015D000259531E0320F21E0009709F420E0230F38
:1015E000E1E0F0E0EC0FFD1FE20FF11D950102C0FC
:1015F000220F331F8A95E2F7C9019081892B8083DE
:101600007BCF811151C030E2D31619F030E2D32ED6
:1016100076CF8B81883819F433E023E002C032E0C2
:1016200024E080E090E0672D70E0FC01E60FF71FFA
:10163000E25DFD4F432F480FA1E0B0E0AC0FBD1FAE
:10164000A40FB11D4C9141830196821770F38A85D6
:10165000833041F58B85811125C0AE014D5F5F4F11
:1016600061E0C4010E94EC0881111EC09B81F4015D
:10167000818198131BC09C818281981317C080813F
:1016800082FF02C0F3941BCF809339028F2D880F05
:10169000F80EF394F0922E0290E009C092E007C099
:1016A00095E005C091E003C0982F01C097E081E06C
:1016B000911180E02B960FB6F894DEBF0FBECDBF20
:1016C000DF91CF911F910F91FF90EF90DF90CF901E
:1016D000BF90AF909F908F907F906F905F904F9052
:1016E0003F900895CF92EF920F931F93CF93DF9384
:1016F00000D000D01F92CDB7DEB782E08D8386E2A6
:101700008C838CE10E949D08682F6F778CE10E948A
:10171000C10887E08B83C12CE12C8E010D5F1F4F28
:101720009E012B5F3F4FAE014F5F5F4F61E0CE01E7
:1017300004960E942909811109C08D81823029F403
:1017400081E09B81911102C006C081E091E082306E
:1017500019F090E001C091E0892F0F900F900F9049
:101760000F900F90DF91CF911F910F91EF90CF903D
:101770000895CF93DF9380913A020E947E0861E042
:1017800080913A020E94DA0280913B020E947E0818
:1017900020913B0230E0F901EF51FF4F8491F901B4
:1017A000ED53FF4FD491F901E155FF4FC491CC2384
:1017B00071F081110E94B102EC2FF0E0EE0FFF1FDB
:1017C000E952FF4FA591B491EC91ED23A9F561E0A9
:1017D00080913B020E94DA0261E070E080E090E0DC
:1017E0000E940A0360E884E50E94C10866E486E579
:1017F0000E94C10863E088E50E94C10868EE8AE59E
:101800000E94C10860E48AE20E94C1086DE382E29E
:101810000E94C10860E78CE40E94C10888E20E942F
:101820009D08982F93709330B9F0682F636088E219
:10183000DF91CF910C94C1086FE082E00E94C10853
:1018400061E070E080E090E00E940A0382E00E9484
:101850009D0884FDFBCFC6CFDF91CF910895CF9334
:10186000DF93CDB7DEB768970FB6F894DEBF0FBE33
:10187000CDBF789484B5826084BD84B5816084BD19
:1018800085B5826085BD85B5816085BD80916E001E
:10189000816080936E00109281008091810082604F
:1018A000809381008091810081608093810080918C
:1018B00080008160809380008091B100846080937B
:1018C000B1008091B00081608093B00080917A0077
:1018D000846080937A0080917A00826080937A009D
:1018E00080917A008E7F80937A0080917A00806860
:1018F00080937A001092C100E091A101F091A201C1
:1019000082E08083E0919D01F0919E011082E09140
:101910009F01F091A00187E680831092A901E091D8
:10192000A501F091A60186E08083E091A301F091EA
:10193000A401808180618083E091A301F091A401E2
:10194000808188608083E091A301F091A40180816F
:1019500080688083E091A301F091A40180818F7D54
:1019600080838AE090E0A0E0B0E0809395019093BE
:101970009601A0939701B093980182E593E00E94AD
:101980002C0680936F0185E593E00E942C068093DE
:10199000700188E593E00E942C06809371018BE52D
:1019A00093E00E942C0680936E0186E693E00E94ED
:1019B0002C0680936D018EE191E044E0D42ED80E88
:1019C00080916D018130B1F40E9444030091720155
:1019D000109173012091740130917501DC01CB01EC
:1019E000801B910BA20BB30B813D9740A105B10564
:1019F00008F0AFC381E991E00E94060118161906AC
:101A00000CF0A4C30E940F040DE411E00E944403F3
:101A10006093990170939A0180939B0190939C012C
:101A2000E0919101F09192010284F385E02D81E92A
:101A300091E0099597FD0EC0F80181938F01F1E0C7
:101A40000D361F0719F780914F018D5F8D3100F121
:101A50008FE11EC00E9444038090990190909A01EA
:101A6000A0909B01B0909C01DC01CB0188199909E1
:101A7000AA09BB098090950190909601A0909701CA
:101A8000B090980188159905AA05BB0548F2DBCFEF
:101A900090E0482F50E0BA0161507109292F30E0E1
:101AA000261737075CF4F901E15DFE4FD901A35B0E
:101AB000BE4F11962C9120839F5FF0CF81506FE233
:101AC00071E0FB0190E02E2F261B281718F42191BE
:101AD000920FF9CF80914D018E3F31F4FA01E35B13
:101AE000FE4F8081891711F081E02BC3E0914E01F8
:101AF0008E2F90E0FC01E154F109E931F10508F085
:101B000025C3EC5CFF4F0C9430110E94DC030E9453
:101B1000B90B0E94720B882309F418C30E94390A7A
:101B2000882309F413C31D868AEF8E878FEF8F8772
:101B300087E6888B64E0CE010D960E949F0688237D
:101B400009F404C319861A861B861C8680916F01CE
:101B50008987809170018A87809171018B8765E008
:101B6000CE0109960E949F06882309F4EFC21D82C8
:101B70001E821F821886809132018D8380913101EF
:101B80008E83809133018F8366E0CE0105960E949B
:101B90009F06882309F4DAC219821A821B821C82EA
:101BA000809134018983809135018A838091360147
:101BB0008B8367E0CE0101960E949F06882309F47B
:101BC000C5C263E084EF91E00E943A04B6C20E946D
:101BD000DC030E94B90B0E94720B882309F4B6C281
:101BE0000E94390A882309F4B1C219868BEF8A87CB
:101BF0008FEF8B8787E68C8764E0CE0109960E9481
:101C00009F06882309F4A2C21D821E821F821886A5
:101C100080916F018D83809170018E83809171011D
:101C20008F8365E0CE0105960E949F06882309F404
:101C30008DC219821A821B821C8280913101898394
:101C400064C00E94DC030E94B90B0E94720B8823BF
:101C500009F47CC20E94390A882309F477C21986E4
:101C60008EEF8A878FEF8B8787E68C8764E0CE01C3
:101C700009960E949F06882309F468C21D821E826D
:101C80001F821886809134018D83809135018E8367
:101C9000809136018F8365E0CE0105960E949F06F4
:101CA000882309F453C26091310160936F018091E0
:101CB0003201809370018091330180937101809192
:101CC000370180936E0182E593E00E9421046091C8
:101CD000320185E593E00E9421046091330188E59B
:101CE00093E00E942104609137018BE593E00E940C
:101CF000210480916F018983809170018A83809192
:101D000071018B8380916E018C8366E00EC20E940C
:101D1000DC030E94B90B0E94720B882309F416C2DF
:101D20000E94390A882309F411C283E00E945206F6
:101D3000882309F40BC2809120018E3329F482E8B4
:101D40008093030185E00BC08D3629F488ED8093E4
:101D5000030186E004C088E28093030183E080935E
:101D600001018FEF8D8B8E8B8F8B888F14E000910C
:101D70000301101750F4612FCE0145960E949F0673
:101D8000882309F4E3C11F5FF2CF198A1A8A1B8ADC
:101D90001C8A14E0101750F4612FCE0141960E9466
:101DA0009F06882309F4D2C11F5FF4CF87E6888B92
:101DB000809131018D87809132018E878091010160
:101DC0008F8764E0CE010D960E949F06882309F458
:101DD000BDC1809133018987809134018A878091C8
:101DE00035018B87809136018C8765E0CE0109969D
:101DF0000E949F06882309F4A9C1809137018D8331
:101E0000809138018E83809139018F8380913A01CE
:101E1000888766E0CE0105960E949F06882309F414
:101E200095C180913B01898380913C018A83809197
:101E30003D018B8380913E012DC00E94DC030E94F6
:101E4000B90B0E94720B882309F480C10E94390AE1
:101E5000882309F47BC1809131018D838091320107
:101E60008E83809133018F8380913401888766E06F
:101E7000CE0105960E949F06882309F467C18091D0
:101E800035018983809136018A83809137018B8364
:101E9000809138018C8367E048C186E680932E01EB
:101EA0000E940F0466E687E60E94F6056091020133
:101EB00086E6BDC00E94DC030E94B90B0E94720B33
:101EC000882309F443C10E94390A882309F43EC1DA
:101ED00083E00E945206882309F438C180912001D2
:101EE0008E3309F033C18FEF8D878E878F87888B74
:101EF00014E0612FCE010D960E949F06882309F4FD
:101F000025C11F5F1238A9F719861A861B861C8601
:101F100014E0612FCE0109960E949F06882309F4E0
:101F200015C11F5F1238A9F71D828DEFE4C081E64D
:101F300080932E010E940F040E94DC030E94B90BC3
:101F40000E94720B882309F401C10E94390A882378
:101F500009F4FCC084E00E945206882309F4F6C00C
:101F600010912E01612F80E00E94F605612F809173
:101F70001E010E94F60535E0C32E80910301C816AC
:101F800008F0A2C08C2D0E945206882309F4DEC0FE
:101F90000C2D10E00550110995E0000F111F9A95C6
:101FA000E1F72EE1A22E21E0B22EE12CF12CF50179
:101FB000808190E00E2C02C0959587950A94E2F7F7
:101FC00080FF0EC090902E01692DC701800F911FD8
:101FD000892F0E94F605692D8E2D800F0E94F6052F
:101FE000FFEFEF1AFF0A28E0E216F10401F78FEF86
:101FF000A81AB80A085F1F4FDA10D7CFC394BDCF15
:1020000089E680932E016091310160936D0186E62F
:1020100093E00E9421040E940F0410912E01612F71
:1020200080916D010E94F60560910201812F0E944E
:10203000BA0510921D018AC00E94500787C085E62C
:1020400080932E010E940F040E94DC030E94B90BB2
:102050000E94720B882309F479C00E94390A8823F0
:1020600009F474C083E00E945206882309F46EC00C
:10207000809120018E3311F482E805C08D3611F471
:1020800080EE01C088E28093030114E08091030197
:102090001817D0F4812F0E945206882309F456C0E5
:1020A00000912E01602F812F0E94F6058EE1E82E0F
:1020B00081E0F82E602FF70181917F010E94F605E3
:1020C000DE10F8CF1F5FE2CF6091020180912E01F8
:1020D0000E94BA0510921D0130C00E94DC030E94CC
:1020E000B90B0E94720B882389F10E94390A882358
:1020F00069F11D828CEF8E838FEF8F8387E688874F
:1021000064E0CE0105960E949F068823F9F01982AB
:102110001A821B821C8280916F01898380917001D9
:102120008A83809171018B8365E0CE0101960E94C4
:102130009F06882359F00E94B5050E94C80306C077
:1021400080E00E940F0602C00E94B5050E94610255
:1021500037CC0E94440360937201709373018093A3
:102160007401909375010E94500744CCE1E9F1E0BD
:102170001382128288EE93E0A0E0B0E0848395831E
:10218000A683B78388E091E09183808385EC90E01B
:102190009587848784EC90E09787868780EC90E031
:1021A000918B808B81EC90E0938B828B82EC90E022
:1021B000958B848B86EC90E0978B868B118E128E9C
:1021C000138E148EEEE2F2E08AE0848789E0858740
:1021D0000895F999FECF92BD81BDF89A992780B5EF
:1021E0000895262FF999FECF1FBA92BD81BD20BD5B
:1021F0000FB6F894FA9AF99A0FBE01960895A29F25
:10220000B001B39FC001A39F700D811D1124911DCA
:10221000B29F700D811D1124911D0895A1E21A2E07
:10222000AA1BBB1BFD010DC0AA1FBB1FEE1FFF1F7A
:10223000A217B307E407F50720F0A21BB30BE40BCA
:10224000F50B661F771F881F991F1A9469F7609511
:102250007095809590959B01AC01BD01CF010895CB
:10226000EE0FFF1F0590F491E02D09940E94FF10DE
:10227000B7FF0895821B930B089581E090E0F894D6
:082280000C944211F894FFCF09
:10228800FFD50282000000001E01A600D5006501EE
:062298000601E400F8005D
:107E0000112484B714BE83FF04C09091FE089F33F1
:107E100008F4282E8D7029F080E0C9D0E0E0FF271B
:107E2000099400D01F92CDB7DEB785E08093810022
:107E300082E08093C00088E18093C10086E0809357
:107E4000C20080E18093C4008EE0B1D0259A26E084
:107E500080E39CEF31E0909385008093840036BBF3
:107E6000B09BFECF1D9AA8952150A9F7812C912C8B
:107E700093E0F92EEE24E39425E0D22E31E1C32ED7
:107E80008AD0813479F487D0898397D089818238E8
:107E900011F482E005C0813811F486E001C083E06E
:107EA00073D06FC0823411F484E103C0853419F4B7
:107EB00085E08BD066C0853541F46DD0882E6BD0BF
:107EC000912C982A880C991C5BC0863521F484E09B
:107ED0007CD080E0E5CF843609F036C05CD05BD042
:107EE000B82E59D0A82E00E011E055D0F8018193AA
:107EF0008F01BE12FACF61D0F5E4AF1201C0FFCFFF
:107F0000F401F7BEE89507B600FCFDCFB401A0E090
:107F1000B1E02C911296AD0141505109FA018081D6
:107F200030E0382BFB010901E7BEE89511246E5FB4
:107F30007F4FBA12EECFF401D7BEE89507B600FC2A
:107F4000FDCFC7BEE8951DC0843769F424D023D087
:107F5000B82E21D032D08401F80185918F0114D040
:107F6000BA94D1F70EC0853739F427D08EE10CD002
:107F700085E90AD08FE094CF813511F488E017D0DD
:107F80001CD080E101D07CCF9091C00095FFFCCF48
:107F90008093C60008958091C00087FFFCCF809138
:107FA000C00084FD01C0A8958091C6000895E0E658
:107FB000F0E098E1908380830895EDDF803219F03E
:107FC00088E0F5DFFFCF84E1DFCFCF93C82FE3DF79
:087FD000C150E9F7CF91F1CF98
:027FFE00020679
:0400000300007E007B
:00000001FF
