:100000000C947C000C94A4000C94A4000C94A40008
:100010000C94A4000C94A4000C94A4000C94A906C5
:100020000C94A4000C94A4000C94A4000C94A400C0
:100030000C94A4000C94A4000C94A4000C94A400B0
:100040000C948B020C94A4000C94C6010C94A00197
:100050000C94A4000C94A4000C94A4000C94A40090
:100060000C94A4000C94A400790CDB0C150D7B0DF2
:10007000110E410E520E8F0E3E103E10F90EB70FAC
:100080003E1005103E103E103E103E103E103E1039
:100090003E103E103E1038103C10020000000025BB
:1000A0000028002B0000000000240027002A000484
:1000B000040404040404040202020202020303030F
:1000C0000303030102040810204080010204081009
:1000D000200102040810200000000023002600294F
:1000E00000000000080002010000030407000000F7
:1000F000000000000000411011241FBECFEFD8E027
:10010000DEBFCDBF22E0A6E1B1E001C01D92A73362
:10011000B207E1F711E0A0E0B1E0EEE9F1E202C0E0
:1001200005900D92A631B107D9F710E0CCE7D0E0E9
:1001300004C02197FE010E94BB10CB37D107C9F73D
:100140000E942B0B0C94CD100C940000089580E0BD
:1001500090E00895FC01538D448D252F30E0842FCD
:1001600090E0821B930B541710F0CF9608950197DF
:100170000895FC01918D828D981761F0828DDF01C9
:10018000A80FB11D5D968C91928D9F5F9F73928F8A
:1001900090E008958FEF9FEF0895FC01918D828D7F
:1001A000981731F0828DE80FF11D858D90E008954C
:1001B0008FEF9FEF0895FC01918D228D892F90E0A4
:1001C000805C9F4F821B91098F7399270895FC01D2
:1001D000848DDF01A80FB11DA35ABF4F2C91848DD0
:1001E00090E001968F739927848FA689B7892C9305
:1001F000A089B1898C9180648C93938D848D9813A0
:1002000006C00288F389E02D80818F7D8083089568
:10021000EF92FF920F931F93CF93DF93EC0181E056
:10022000888F9B8D8C8D981305C0E889F989808112
:1002300085FD24C0F62E0B8D10E00F5F1F4F0F734E
:100240001127E02E8C8DE8120CC00FB607FCFACFF8
:10025000E889F989808185FFF5CFCE010E94E7000A
:10026000F1CF8B8DFE01E80FF11DE35AFF4FF082B5
:100270000B8FEA89FB898081806207C0EE89FF8944
:100280006083E889F98980818064808381E090E0DF
:10029000DF91CF911F910F91FF90EF900895CF9331
:1002A000DF93EC01888D8823C9F0EA89FB8980817E
:1002B00085FD05C0A889B9898C9186FD0FC00FB650
:1002C00007FCF5CF808185FFF2CFA889B9898C9191
:1002D00085FFEDCFCE010E94E700E7CFDF91CF9100
:1002E000089580E090E0892B29F00E949D068111FD
:1002F0000C94000008953FB7F894809129019091E3
:100300002A01A0912B01B0912C0126B5A89B05C014
:100310002F3F19F00196A11DB11D3FBFBA2FA92F84
:10032000982F8827820F911DA11DB11DBC01CD0101
:1003300043E0660F771F881F991F4A95D1F70895EC
:100340001F920F920FB60F9211242F933F934F934A
:100350005F936F937F938F939F93AF93BF93EF932D
:10036000FF938CE891E00E94E700FF91EF91BF912D
:10037000AF919F918F917F916F915F914F913F913D
:100380002F910F900FBE0F901F9018951F920F92F4
:100390000FB60F9211242F938F939F93EF93FF9398
:1003A000E0919C01F0919D018081E091A201F0918A
:1003B000A30182FD12C090818091A5018F5F8F7390
:1003C0002091A601821751F0E091A501F0E0E457D9
:1003D000FE4F958F8093A50101C08081FF91EF9121
:1003E0009F918F912F910F900FBE0F901F90189596
:1003F000833081F028F4813099F08230A1F00895A3
:100400008730A9F08830B9F08430D1F48091800031
:100410008F7D03C0809180008F7780938000089546
:1004200084B58F7702C084B58F7D84BD0895809197
:10043000B0008F7703C08091B0008F7D8093B000B3
:1004400008951F93CF93DF93282F30E0F901EF51E8
:10045000FF4F8491F901ED53FF4FD491F901E1551C
:10046000FF4FC491CC23C9F0162F81110E94F801CF
:10047000EC2FF0E0EE0FFF1FE556FF4FA591B49172
:100480008FB7F894111105C09C91ED2FE095E923E9
:1004900002C0EC91ED2BEC938FBFDF91CF911F91B8
:1004A00008958F929F92AF92BF92CF92DF92EF9278
:1004B000FF926B017C010E947B014B015C01C11426
:1004C000D104E104F104F1F00E947B01DC01CB01D5
:1004D00088199909AA09BB09883E9340A105B1056D
:1004E00070F321E0C21AD108E108F10888EE880E05
:1004F00083E0981EA11CB11CC114D104E104F104D5
:1005000019F7DDCFFF90EF90DF90CF90BF90AF90C5
:100510009F908F9008951F920F920FB60F92112403
:100520002F933F938F939F93AF93BF9380914601F7
:1005300090914701A0914801B09149013091280163
:1005400026E0230F2D3720F40296A11DB11D05C012
:1005500029E8230F0396A11DB11D20932801809344
:10056000460190934701A0934801B09349018091BF
:10057000290190912A01A0912B01B0912C010196A3
:10058000A11DB11D8093290190932A01A0932B01F5
:10059000B0932C01BF91AF919F918F913F912F917B
:1005A0000F900FBE0F901F90189580912701882300
:1005B00061F09FB7F89420912701809126012130A6
:1005C00019F48DBB9FBF08958FBF08958EBD0000A5
:1005D0000DB407FEFDCF8EB508952091270122238B
:1005E00079F02FB7F89430912701313039F43DB3C9
:1005F000309326013DB33DBB2FBF02C0209326019F
:100600008CBD9DBD08959FB7F894809125018823E6
:1006100019F081508093250180912501811105C039
:100620008CB58F7B8CBD109227019FBF0895CF930F
:10063000CFB7F89480912501811124C0E9EBF0E057
:100640008491EDECF0E09491E82FF0E0EE0FFF1FC5
:10065000EB55FF4FA591B491EC91E92321F461E0B2
:100660008AE00E9421028AE00E9461078CB58061C5
:100670008CBD8CB580648CBD8DE00E9461078BE0E1
:100680000E946107809125018F5F80932501CFBF74
:10069000CF91089582E080930201EAE4F1E08EE1D7
:1006A0008E0F11928E13FDCFE8E6F1E080E28E0FFF
:1006B00011928E13FDCF08952F923F924F925F9229
:1006C0006F927F928F929F92AF92BF92CF92DF9262
:1006D000EF92FF920F931F93CF93DF9300D000D040
:1006E0001F92CDB7DEB78C01F62E84E00E94610721
:1006F00083E00E9461072801012E000C660877083C
:1007000020E43FE1D8010E94C11028EE33E040E030
:1007100050E00E94991029833A831A018F2D90E0AE
:100720009D838C8300E010E03AE9832E30E0932E25
:1007300042EBE42E40E0F42E56ECC52E50E0D52ED0
:100740005C0191E0A91AB1088C819D8108171907F5
:1007500009F415C161E084E00E942102809100014A
:10076000833019F4F401949172C08F3F09F0F5C001
:1007700083E080930001F40194919F3F09F4EDC060
:10078000913009F1923009F440C0911160C014BC5D
:1007900015BC84B5826084BD85B5816085BDF701D7
:1007A0008491E82FF0E0EE0FFF1FE556FF4F859193
:1007B000949190931C0180931B01F6018491809386
:1007C0001A0190E046C01092800010928100809142
:1007D0008100886080938100809181008160809396
:1007E0008100F7018491E82FF0E0EE0FFF1FE5563E
:1007F000FF4F859194919093190180931801F60110
:1008000084918093170191E024C01092B00010925F
:10081000B1008091B00082608093B0008091B100FF
:1008200081608093B100F7018491E82FF0E0EE0F32
:10083000FF1FE556FF4F8591949190932E01809371
:100840002D01F601849180932F0192E002C097FD63
:1008500084C083E09B830E9461079B81992319F0E8
:100860009230E9F40CC085B5887F826085BD411463
:10087000510461047104C1F12CE730E02BC0809178
:10088000B100887F82608093B100411451046104FB
:10089000710491F74FEF5FEFBA012CE74FC0913031
:1008A00071F480918100887F816080938100411480
:1008B00051046104710459F127EE33E00BC0411477
:1008C000510461047104C1F727EE33E04FEF5FEF8D
:1008D000BA0103C049815A81B1019130E9F09230E7
:1008E00069F191113AC004C04FEF5FEFBA012CE7F4
:1008F00027BD4093210150932201609323017093FF
:10090000240180916E00826080936E0026C04FEFBC
:100910005FEFBA0127EE33E030938900209388001F
:1009200040931D0150931E0160931F01709320019D
:1009300080916F00826080936F000FC02093B3009E
:100940004093300150933101609332017093330131
:1009500080917000826080937000C301B2010E9498
:10096000510260E084E00E9421020A151B0524F474
:10097000C301B2010E9451020F5F1F4FE5CE0F90DD
:100980000F900F900F900F90DF91CF911F910F91CB
:10099000FF90EF90DF90CF90BF90AF909F908F909F
:1009A0007F906F905F904F903F902F90089561E0FF
:1009B00088EC90E00C945C03EF92FF920F931F93EE
:1009C000CF93DF93D82FC62F6EEF8CE891E00E9473
:1009D0000801D0934A018EEF8C0F80934B01CF31E9
:1009E00008F0CEE10AE411E07801D02F8E2D801BB3
:1009F0008C1740F4F70161917F018CE891E00E942F
:100A00000801F4CF60E0802F8D1B8C1728F4F801CB
:100A100081918F01680FF7CF8CE891E00E94080167
:100A2000DF91CF911F910F91FF90EF900C944A03AB
:100A300090910201E92FF0E0E65BFE4F80839D314B
:100A400061F4862F60913401605E0E94DC04809125
:100A500034018F5F8093340108959F5F909302016A
:100A60000895CF93C82F63E082E390E00E945C0377
:100A7000CC2391F088E7809345010E944A0360915E
:100A800045018C2F0E94180560910201809145015B
:100A90000E94DC0410923401CF9108950F931F93AC
:100AA000CF93DF938C010E947410C82FC801019668
:100AB0000E947410D82FC81789F00E5F1F4FC8010D
:100AC0000E947410C81751F0C8010E947410C82FFA
:100AD000D81721F084E00E943105C0E08C2FDF910F
:100AE000CF911F910F910895CF92EF920F931F9383
:100AF000CF93DF93CDB7DEB763970FB6F894DEBF21
:100B00000FBECDBF92E19B8B90E399838A83AE01A8
:100B10004D5F5F4F62E0CE0101960E94CF078111C9
:100B20000FC0CC24C394E12C00E010E09E012D5EA8
:100B30003F4FAE014F5F5F4F64E0CA010E940C0857
:100B400080931601882329F083E00E94310580E01C
:100B50000BC0A5E3B1E0FE01319680E18E0F9191CB
:100B60009D938E13FCCF81E063960FB6F894DEBFA1
:100B70000FBECDBFDF91CF911F910F91EF90CF901E
:100B80000895AF92BF92CF92EF92FF920F931F936F
:100B9000CF93DF93CDB7DEB76A970FB6F894DEBF79
:100BA0000FBECDBF5C01F62E892B09F444C082EA4A
:100BB0008B8B6C8BF50180819181A281B3818D8BB0
:100BC0009E8BAF8BB88F86E0FE017396DE01119687
:100BD00001900D928A95E1F7AE01495F5F4F66E0A3
:100BE000CE0101960E94CF07811121C082E18A8F38
:100BF000198EC12CE12C8E01075E1F4F9E01265ECF
:100C00003F4FAE014F5F5F4F68E0CA010E940C0882
:100C100081110DC08A8D813061F4898D91E084301D
:100C200059F489818A3009F490E0919505C0982F94
:100C300003C091E001C096E090931601992311F052
:100C400082E023C082E18B8B80E38983FA82AE014C
:100C50004D5F5F4F62E0CE0101960E94CF07811188
:100C60000FC0CC24C394E12C00E010E09E012D5E67
:100C70003F4FAE014F5F5F4F64E0CA010E940C0816
:100C800080931601882321F083E00E94310519C06A
:100C90003981309335012A81209336018B818093ED
:100CA00037019C8190933801F5014081341309C0CC
:100CB0003181231306C02281821303C081E0238186
:100CC000921380E06A960FB6F894DEBF0FBECDBFD8
:100CD000DF91CF911F910F91FF90EF90CF90BF9038
:100CE000AF900895CF92DF92EF92FF920F931F93F0
:100CF000CF93DF936C017A018B01C0E0D0E0CE1579
:100D0000DF0589F0D8016D918D01D601ED91FC913F
:100D10000190F081E02DC6010995892B11F47E0127
:100D200002C02196ECCFC701DF91CF911F910F91A7
:100D3000FF90EF90DF90CF9008958CE891E00E94B3
:100D4000DB0021E0892B09F420E0822F08950E9426
:100D5000C8101F920F920FB60F9211242F933F933A
:100D60004F935F936F937F938F939F93AF93BF93B3
:100D7000EF93FF938091300190913101A091320166
:100D8000B0913301892B8A2B8B2B59F180912F0144
:100D9000E0912D01F0912E0190818927808380912F
:100DA000300190913101A0913201B09133011816B8
:100DB00019061A061B060CF03DC080913001909177
:100DC0003101A0913201B09133010197A109B1091C
:100DD0008093300190933101A0933201B09333019D
:100DE00029C080910001EAE9F0E0E4919FEF90933F
:100DF0000001E130B9F098F0E230C9F49091700050
:100E00009D7F9093700091E09093B0009091B1001D
:100E1000987F94609093B1001092B30008C0109234
:100E20006E0005C090916F009D7F90936F0060E011
:100E30000E942102FF91EF91BF91AF919F918F91FD
:100E40007F916F915F914F913F912F910F900FBEC6
:100E50000F901F901895CF92DF92FF920F931F93E0
:100E6000CF93DF931F92CDB7DEB7082F162F83E500
:100E700090E079830E94ED0260E0809135020E944B
:100E8000210282E10E94E602F12EC12E7981D72E45
:100E90008C2D8F19801730F4F60181916F010E941B
:100EA000E602F6CF61E0809135020E9421020F90A8
:100EB000DF91CF911F910F91FF90DF90CF900C9415
:100EC000D50290E0FC01ED53FF4F2491FC01E15568
:100ED000FF4F8491882399F090E0880F991FFC01BF
:100EE000EB55FF4FA591B491FC01E556FF4F85915D
:100EF00094918FB7F894EC91E22BEC938FBF089507
:100F00000F931F93CF93C82F83E590E00E94ED02CB
:100F100009E212E060E0F80184850E9421028C2F32
:100F20008E7780680E94E60280E00E94E602C82F69
:100F300061E0F80184850E9421020E94D5028C2F75
:100F4000CF911F910F9108950F931F93CF93DF932C
:100F5000082F162F83E590E00E94ED02C9E2D2E04F
:100F600060E08C850E942102802F8E770E94E6022D
:100F7000812F0E94E60261E08C850E942102DF91B0
:100F8000CF911F910F910C94D502CF93C82F0E943F
:100F90008007682F60688C2FCF910C94A407EF9284
:100FA000FF920F931F93CF93DF937C01C62F8A018B
:100FB00060E082E00E94A40764E08AE00E94A40747
:100FC00084E10E94C507B7018C2F0E942B0763E0C4
:100FD00082E00E94A407C8E8D3E18AE00E9480076B
:100FE00082FD04C02197C9F783E00FC060E082E072
:100FF0000E94A40784E40E948007F801808382E4B1
:101000000E948007F801818380E0DF91CF911F91DA
:101010000F91FF90EF9008952F923F924F925F9221
:101020006F927F928F929F92AF92BF92CF92DF92F8
:10103000EF92FF920F931F93CF93DF9300D0CDB722
:10104000DEB72C01D62E5A014901380101151105D0
:1010500019F0F801908101C090E0192FF0E1EF9EA6
:10106000100D112460E082E00E94A4076FE788E081
:101070000E94A40784E10E94C507B2018D2D0E9441
:101080002B07612F8AE10E94A4076CE082E00E9496
:10109000A4078AE10E94C50700ED17E088E00E94DE
:1010A0008007982F907331F480FDA8C0015011097A
:1010B000A9F7A4C08CE00E948007082F837109F073
:1010C0009FC0A114B10409F466C08114910409F40D
:1010D00062C084E10E948007F82EF40180818F15A0
:1010E00008F490C0F082FF2009F44BC083E590E043
:1010F0000E94ED0260E0809135020E942102FA9484
:1011000082E90E94E602DA2C150144244394512C12
:10111000822D8D198F1528F581111AC0EE20C1F08E
:101120008E2D10E0883048F49201082E01C0220F65
:101130000A94EAF7122B8F5FF5CF82E90E94E6024C
:10114000212F2095F501908192238123892B04C0C2
:1011500082E90E94E602F1018083FFEF2F1A3F0A25
:10116000D7CFC5018F0D911D7C0180E00E94E60262
:10117000F701808361E0809135020E9421020E9484
:10118000D50288E10E9480078770F82E61147104EF
:1011900011F0F301808303FD37C0A114B104B1F154
:1011A0008114910499F1CC2089F1F40160816130BE
:1011B00021F4F4E0FF1203C01FC0623010F487E096
:1011C00026C0F110FCCF6250AE014F5F5F4FC501EA
:1011D0000E94CF0781111BC0F4018081A80EB11CB1
:1011E000F5013297908189819813E9CF31969081EA
:1011F0008A819813E4CF0AC08FEF09C083E007C04B
:1012000081E005C084E003C082E001C080E00F906F
:101210000F90DF91CF911F910F91FF90EF90DF9092
:10122000CF90BF90AF909F908F907F906F905F9086
:101230004F903F902F9008953F924F925F926F9200
:101240007F928F929F92AF92BF92CF92DF92EF9256
:10125000FF920F931F93CF93DF93CDB7DEB72B97FA
:101260000FB6F894DEBF0FBECDBF8CE10E948007A1
:10127000682F6F778CE10E94A407FF24F394AA24BF
:10128000A394B12C22E0F21651F033E0F31661F092
:1012900041E0F412E8C083E98983712C09C085E933
:1012A0008983E3E07E2E04C087E9898376E0772E88
:1012B000D12C47E0642E50E7552E63E0462E80E2A5
:1012C000D8121BC05A829C818B8189279D818927D6
:1012D0009E8189278F83AE01485F5F4F67E0CE0113
:1012E00001960E94CF078111C2C01B864A86FE016B
:1012F00037964F0129E0322E1FC09D2D97709B8796
:101300002D2D25952595259582E0820F392FF0E129
:101310008F9F300D11243A8331E0911101C030E0EC
:10132000332E380E88248394912C8C0E9D1E880EAB
:10133000911C862D821B8A87EB846E2D6295607FBF
:101340006E0D8AE10E94A407C12C8E01055F1F4F1C
:101350009E01265F3F4FA401632DCE0101960E949E
:101360000C08823089F58CE10E94800785FD79C0E8
:101370008F7109F480E2282F30E04D2DDD0C550BE4
:10138000421753070CF06FC0D82EC9010197877020
:10139000992725952595259531E0320F21E0009775
:1013A00009F420E0230FE1E0F0E0EC0FFD1FE20F75
:1013B000F11D950102C0220F331F8A95E2F7C90182
:1013C0009081892B80837BCF811151C030E2D3166D
:1013D00019F030E2D32E76CF8B81883819F433E0C0
:1013E00023E002C032E024E080E090E0672D70E06E
:1013F000FC01E60FF71FE75DFD4F432F480FA1E00B
:10140000B0E0AC0FBD1FA40FB11D4C9141830196FC
:10141000821770F38A85833041F58B85811125C051
:10142000AE014D5F5F4F61E0C4010E94CF078111A3
:101430001EC09B81F401818198131BC09C81828115
:10144000981317C0808182FF02C0F3941BCF809352
:1014500034028F2D880FF80EF394F092290290E059
:1014600009C092E007C095E005C091E003C0982F45
:1014700001C097E081E0911180E02B960FB6F894BF
:10148000DEBF0FBECDBFDF91CF911F910F91FF90B7
:10149000EF90DF90CF90BF90AF909F908F907F9014
:1014A0006F905F904F903F900895CF92EF920F937F
:1014B0001F93CF93DF9300D000D01F92CDB7DEB73C
:1014C00082E08D8386E28C838CE10E948007682F06
:1014D0006F778CE10E94A40787E08B83C12CE12CFD
:1014E0008E010D5F1F4F9E012B5F3F4FAE014F5F7F
:1014F0005F4F61E0CE0104960E940C08811109C083
:101500008D81823029F481E09B81911102C006C057
:1015100081E091E0823019F090E001C091E0892FE4
:101520000F900F900F900F900F90DF91CF911F9120
:101530000F91EF90CF900895CF93DF938091350274
:101540000E94610761E0809135020E942102809132
:1015500036020E9461072091360230E0F901EF5116
:10156000FF4F8491F901ED53FF4FD491F901E155FB
:10157000FF4FC491CC2371F081110E94F801EC2F30
:10158000F0E0EE0FFF1FE952FF4FA591B491EC91EF
:10159000ED23A9F561E0809136020E94210261E00D
:1015A00070E080E090E00E94510260E884E50E94D3
:1015B000A40766E486E50E94A40763E088E50E942C
:1015C000A40768EE8AE50E94A40760E48AE20E940C
:1015D000A4076DE382E20E94A40760E78CE40E9406
:1015E000A40788E20E948007982F93709330B9F087
:1015F000682F636088E2DF91CF910C94A4076FE0BD
:1016000082E00E94A40761E070E080E090E00E9428
:10161000510282E00E94800784FDFBCFC6CFDF919C
:10162000CF910895FF920F931F93CF93DF938C0177
:10163000F62EC0E0D0E06F2DCE01800F911F0E94EA
:101640007C102196C330D105B1F7DF91CF911F9166
:101650000F91FF900895CF93DF93CDB7DEB76897D2
:101660000FB6F894DEBF0FBECDBF789484B582600C
:1016700084BD84B5816084BD85B5826085BD85B536
:10168000816085BD80916E00816080936E001092B4
:10169000810080918100826080938100809181002F
:1016A00081608093810080918000816080938000C0
:1016B0008091B10084608093B1008091B00081601E
:1016C0008093B00080917A00846080937A0080914A
:1016D0007A00826080937A0080917A008E7F809376
:1016E0007A0080917A00806880937A001092C1001D
:1016F000E0919C01F0919D0182E08083E09198014E
:10170000F09199011082E0919A01F0919B0187E696
:1017100080831092A401E091A001F091A10186E0E4
:101720008083E0919E01F0919F01808180618083A0
:10173000E0919E01F0919F01808188608083E0911B
:101740009E01F0919F01808180688083E0919E01DD
:10175000F0919F0180818F7D80838AE090E0A0E0FE
:10176000B0E08093900190939101A0939201B09387
:10177000930182E593E00E944E058093890185E5FF
:1017800093E00E944E0580938A0188E593E00E94D1
:101790004E0580938B018BE593E00E944E0580936C
:1017A000880185E391E014E0180F86E391E0A3E05F
:1017B000AA2EA80E8CE891E00E94DB0018161906EC
:1017C0000CF05CC40E944A03F8E6EF2EF1E0FF2E15
:1017D0002FB7F8948091460190914701A09148015C
:1017E000B09149012FBF8093940190939501A093EC
:1017F0009601B0939701E0918C01F0918D010284E4
:10180000F385E02D8CE891E0099597FD0FC0F70175
:1018100081937F01F8E8EF16F1E0FF06C9F68091A9
:101820006A018D5F8D3140F18FE126C02FB7F894AA
:101830008091460190914701A0914801B0914901E2
:101840002FBF409194015091950160919601709144
:101850009701841B950BA60BB70B409190015091FB
:101860009101609192017091930184179507A607E9
:10187000B70708F4C0CFD3CF90E0482F50E0BA01AB
:1018800061507109292F30E0261737075CF4F90100
:10189000E65BFE4FD901A859BE4F11962C912083CB
:1018A0009F5FF0CF81506AE471E0FB0190E02E2F42
:1018B000261B281718F42191920FF9CF8091680107
:1018C0008E3F31F4FA01E859FE4F8081891711F0FB
:1018D00081E0CFC3E09169018E2F90E0FC01E154DB
:1018E000F109E931F10508F0C9C3EC5CFF4F0C9434
:1018F000BB100E9417030E949C0A0E94550A88236D
:1019000009F4BCC30E941C09882309F4B7C31D86CF
:101910008AEF8E878FEF8F8787E6888B64E0CE0112
:101920000D960E94C105882309F4A8C319861A865A
:101930001B861C8680918901898780918A018A870C
:1019400080918B018B8765E0CE0109960E94C105CD
:10195000882309F493C31D821E821F8218868091FA
:101960004D018D8380914C018E8380914E018F8338
:1019700066E0CE0105960E94C105882309F47EC366
:1019800019821A821B821C8280914F018983809167
:1019900050018A83809151018B8367E0CE010196CB
:1019A0000E94C105882309F469C363E084EF91E0D4
:1019B0000E945C035AC30E9417030E949C0A0E9463
:1019C000550A882309F45AC30E941C09882309F484
:1019D00055C319868BEF8A878FEF8B8787E68C87B5
:1019E00064E0CE0109960E94C105882309F446C32C
:1019F0001D821E821F821886809189018D838091AD
:101A00008A018E8380918B018F8365E0CE010596DC
:101A10000E94C105882309F431C319821A821B82EE
:101A20001C8280914C01898364C00E9417030E942C
:101A30009C0A0E94550A882309F420C30E941C09AD
:101A4000882309F41BC319868EEF8A878FEF8B8753
:101A500087E68C8764E0CE0109960E94C105882341
:101A600009F40CC31D821E821F82188680914F01CB
:101A70008D83809150018E83809151018F8365E029
:101A8000CE0105960E94C105882309F4F7C2609132
:101A90004C016093890180914D0180938A0180916E
:101AA0004E0180938B01809152018093880182E5E1
:101AB00093E00E94120B60914D0185E593E00E9436
:101AC000120B60914E0188E593E00E94120B609129
:101AD00052018BE593E00E94120B8091890189836A
:101AE00080918A018A8380918B018B838091880108
:101AF0008C8366E0B2C20E9417030E949C0A0E9477
:101B0000550A882309F4BAC20E941C09882309F4E3
:101B1000B5C283E00E947405882309F4AFC28091A6
:101B200037018E3329F482E88093030185E00BC0EE
:101B30008D3629F488ED8093030186E004C088E2A5
:101B40008093030183E0809301018FEF8D8B8E8B57
:101B50008F8B888F04E0F09003010F1550F4602FF5
:101B6000CE0145960E94C105882309F487C20F5F04
:101B7000F2CF198A1A8A1B8A1C8A04E00F1550F4C6
:101B8000602FCE0141960E94C105882309F476C2D8
:101B90000F5FF4CF87E6888B80914C018D87809111
:101BA0004D018E87809101018F8764E0CE010D96F3
:101BB0000E94C105882309F461C280914E01898782
:101BC00080914F018A87809150018B8780915101CC
:101BD0008C8765E0CE0109960E94C105882309F42F
:101BE0004DC2809152018D83809153018E838091EB
:101BF00054018F8380915501888766E0CE01059658
:101C00000E94C105882309F439C280915601898355
:101C1000809157018A83809158018B83809159016B
:101C20002DC00E9417030E949C0A0E94550A882317
:101C300009F424C20E941C09882309F41FC2809160
:101C40004C018D8380914D018E8380914E018F8355
:101C500080914F01888766E0CE0105960E94C105FC
:101C6000882309F40BC2809150018983809151012E
:101C70008A83809152018B83809153018C8367E02A
:101C8000ECC186E6809345010E944A0366E687E63A
:101C90000E9418056091020186E60E94DC04109201
:101CA0003401ECC10E9417030E949C0A0E94550A4D
:101CB000882309F4E3C10E941C09882309F4DEC1CA
:101CC00083E00E947405882309F4D8C1809137010C
:101CD0008E3309F0D3C18FEF8D878E878F87888BE6
:101CE00004E0602FCE010D960E94C105882309F4FF
:101CF000C5C10F5F0238A9F719861A861B861C8694
:101D000004E0602FCE0109960E94C105882309F4E2
:101D1000B5C10F5F0238A9F71D828DEF84C181E63E
:101D2000809345010E944A030E9417030E949C0A67
:101D30000E94550A882309F4A1C10E941C09882326
:101D400009F49CC184E00E947405882309F496C1BB
:101D500000914501602F80E00E941805602F80915E
:101D600035010E94180505E080910301081708F06D
:101D700043C1802F0E947405882309F47FC1E02E9F
:101D8000F12C85E0E81AF10875E0EE0CFF1C7A955D
:101D9000E1F7E5E38E2EE1E09E2EC12CD12CF4017B
:101DA000808190E00C2C02C0959587950A94E2F70B
:101DB00080FF0EC0B09045016B2DC6018E0D9F1D9A
:101DC000892F0E9418056B2D8C2D8E0D0E941805F1
:101DD000FFEFCF1ADF0A88E0C816D10401F7EFEF52
:101DE0008E1A9E0AF8E0EF0EF11C1811D6CF0F5F85
:101DF000BBCF83E6809345010E944A030E941703EC
:101E00000E949C0A0E94550A882309F437C10E9447
:101E10001C09882309F432C183E00E9474058823D9
:101E200009F42CC1809137018E3311F482E805C08A
:101E30008D3611F482EE01C088E28093030184E0C4
:101E40000E947405882309F419C100914501602F8F
:101E5000809135010E941805602F809136010E9403
:101E6000180585E00E947405882309F407C1709065
:101E70003501C0903601D12CE12CF12CFE2CED2C3B
:101E8000DC2CCC2480913701C80ED11CE11CF11C44
:101E9000FE2CED2CDC2CCC2480913801C80ED11CFA
:101EA000E11CF11C06E0802F0E947405882309F4D0
:101EB000E5C045E3842E41E0942E60914501F40194
:101EC00081914F010E9418051811F7CF073011F0CA
:101ED00007E0E9CF08E066246394670C8091030172
:101EE000081708F089C0802F0E947405882309F420
:101EF000C5C080913501882309F47EC0B0904501AA
:101F00006B2D0E9418054091360150E060E070E0B2
:101F1000762F652F542F442780913701480F511D8C
:101F2000611D711D762F652F542F44278091380134
:101F3000480F511D611D711DC416D506E606F70632
:101F400048F46B2D872D0E94180596E3892E91E0A9
:101F5000992E03C06B2D862DF6CF6B2DF401819148
:101F60004F010E941805A810F8CF0F5FB7CF85E684
:101F7000809345010E944A030E9417030E949C0A15
:101F80000E94550A882309F479C00E941C098823FD
:101F900009F474C083E00E947405882309F46EC0BC
:101FA000809137018E3311F482E805C08D3611F42B
:101FB00080EE01C088E28093030104E08091030178
:101FC0000817D0F4802F0E947405882309F456C0A6
:101FD000D09045016D2D802F0E94180585E3E82ED5
:101FE00081E0F82E6D2DF70181917F010E94180587
:101FF0001E11F8CF0F5FE2CF609102018091450181
:102000000E94DC041092340130C00E9417030E9429
:102010009C0A0E94550A882389F10E941C09882382
:1020200069F11D828CEF8E838FEF8F8387E688871F
:1020300064E0CE0105960E94C1058823F9F019825B
:102040001A821B821C8280918901898380918A0176
:102050008A8380918B018B8365E0CE0101960E947B
:10206000C105882359F00E94D7040E94030306C0CB
:1020700080E00E94310502C00E94D7040E947101D5
:1020800099CBECE8F1E01382128288EE93E0A0E0B5
:10209000B0E084839583A683B78388E091E0918341
:1020A000808385EC90E09587848784EC90E0978727
:1020B000868780EC90E0918B808B81EC90E0938B15
:1020C000828B82EC90E0958B848B86EC90E0978BF2
:1020D000868B118E128E138E148EE9E2F2E08AE066
:1020E000848789E085870895F999FECF92BD81BDE7
:1020F000F89A992780B50895262FF999FECF1FBA2F
:1021000092BD81BD20BD0FB6F894FA9AF99A0FBE20
:1021100001960895A29FB001B39FC001A39F700DC7
:10212000811D1124911DB29F700D811D1124911DDF
:102130000895A1E21A2EAA1BBB1BFD010DC0AA1F08
:10214000BB1FEE1FFF1FA217B307E407F50720F020
:10215000A21BB30BE40BF50B661F771F881F991F9B
:102160001A9469F760957095809590959B01AC01E4
:10217000BD01CF010895EE0FFF1F0590F491E02DF2
:1021800009940E948A10B7FF0895821B930B08954B
:0E21900081E090E0F8940C94CD10F894FFCF0D
:10219E00FFD502820000000008017206AA004F015E
:0621AE00DB00B900CD00CA
:00000001FF
