:100000000C9469000C9491000C9491000C94910054
:100010000C9491000C9491000C9409080C946B02C0
:100020000C9491000C9491000C9491000C9491000C
:100030000C9491000C9491000C9491000C949100FC
:100040000C9427030C9491000C94E0010C94BA01D9
:100050000C9491000C9491000C9491000C949100DC
:100060000C949F030C9491000000000023002600D4
:10007000290000000008000201000003040700003E
:10008000000000000000021F1C1F1E1F1E1F1F1E5D
:100090001F1E1F00000000250028002B000000008C
:1000A00000240027002A00040404040404040402B9
:1000B0000202020202030303030303010204081005
:1000C00020408001020408102001020408102000D2
:1000D000641411241FBECFEFD8E0DEBFCDBF11E006
:1000E000A0E0B1E0E4E4FAE202C005900D92AE3285
:1000F000B107D9F722E0AEE2B1E001C01D92AD3EFA
:10010000B207E1F710E0C9E6D0E004C02197FE0194
:100110000E941515C836D107C9F70E94D50C0C945A
:1001200020150C940000CF92DF92EF92FF920F9374
:100130001F93CF93DF936C017A018B01C0E0D0E075
:10014000CE15DF0589F0D8016D918D01D601ED91B5
:10015000FC910190F081E02DC6010995892B11F4E5
:100160007E0102C02196ECCFC701DF91CF911F9194
:100170000F91FF90EF90DF90CF9008953FB7F894E4
:100180008091AE019091AF01A091B001B091B10109
:1001900026B5A89B05C02F3F19F00196A11DB11DE2
:1001A0003FBFBA2FA92F982F8827820F911DA11D1D
:1001B000B11DBC01CD0143E0660F771F881F991F59
:1001C0004A95D1F7089585ED8093BC0010921002F6
:1001D000809110028091BC0084FF06C080911002C3
:1001E0008F5F80931002F4CF109211020895409116
:1001F0008301262F30E0240F311D21323105DCF43C
:10020000209111022430C9F4FC0180E090E08617AF
:1002100058F4309183012191DC01AF59BE4FA30FF7
:10022000B11D2C930196F3CF80918301680F6093E9
:10023000830180E0089581E0089582E008950895A3
:10024000E091BA018091B901E81730F4F0E0E5548B
:10025000FE4F808190E008958FEF9FEF0895909179
:10026000BA018091B901981750F4E92FF0E0E554F4
:10027000FE4F208130E09F5F9093BA0102C02FEFC4
:100280003FEFC90108958091B90190E02091BA0132
:10029000821B91090895CF92DF92EF92FF920F9304
:1002A0001F93CF93DF937C01262F972F8A01809194
:1002B0001202882391F0C62FD72F6E01C40ED51ECF
:1002C000CC15DD0571F06991D701ED91FC9101909C
:1002D000F081E02DC7010995F3CF642F822F0E9492
:1002E000F700C801DF91CF911F910F91FF90EF9020
:1002F000DF90CF900895CF93DF931F92CDB7DEB7F5
:100300006983209112022223D1F0209135022032FC
:1003100040F021E030E0FC013383228380E090E074
:1003200015C080911302E82FF0E0EC5EFD4F99813B
:1003300090838F5F809313028093350205C061E044
:10034000CE0101960E94F70081E090E00F90DF91CE
:10035000CF910895089580E090E008950E941B15C4
:1003600086E392E00E946E0821E0892B09F420E0E8
:10037000822F08951F920F920FB60F9211242F9380
:100380003F934F935F936F937F938F939F93AF931D
:10039000BF93EF93FF9386E392E00E944B0CFF9193
:1003A000EF91BF91AF919F918F917F916F915F91ED
:1003B0004F913F912F910F900FBE0F901F90189566
:1003C0001F920F920FB60F9211242F938F939F932A
:1003D000EF93FF93E0914602F09147028081E09114
:1003E0004C02F0914D0282FD12C0908180914F022B
:1003F0008F5F8F7320915002821751F0E0914F026E
:10040000F0E0EA5CFD4F958F80934F0201C0808140
:10041000FF91EF919F918F912F910F900FBE0F90B1
:100420001F901895833081F028F4813099F0823044
:10043000A1F008958730A9F08830B9F08430D1F464
:10044000809180008F7D03C0809180008F778093A2
:100450008000089584B58F7702C084B58F7D84BDF8
:1004600008958091B0008F7703C08091B0008F7D98
:100470008093B00008951F93CF93DF93282F30E02F
:10048000F901EE58FF4F8491F901E554FF4FD491E3
:10049000F901E955FF4FC491CC23C9F0162F811102
:1004A0000E941202EC2FF0E0EE0FFF1FED56FF4FFF
:1004B000A591B4918FB7F894111105C09C91ED2FBF
:1004C000E095E92302C0EC91ED2BEC938FBFDF9117
:1004D000CF911F9108951F920F920FB60F92112482
:1004E0002F933F934F935F936F937F938F939F933C
:1004F000AF93BF93EF93FF938091B5019091B601B5
:10050000A091B701B091B801892B8A2B8B2B59F19F
:100510008091B401E091B201F091B30190818927FB
:1005200080838091B5019091B601A091B701B091FF
:10053000B801181619061A061B060CF03DC080916A
:10054000B5019091B601A091B701B091B8010197A2
:10055000A109B1098093B5019093B601A093B701A9
:10056000B093B80129C080910901E6E8F0E0E49178
:100570009FEF90930901E130B9F098F0E230C9F4AF
:10058000909170009D7F9093700091E09093B000E7
:100590009091B100987F94609093B1001092B30055
:1005A00008C010926E0005C090916F009D7F9093DF
:1005B0006F0060E00E943B02FF91EF91BF91AF910D
:1005C0009F918F917F916F915F914F913F912F916B
:1005D0000F900FBE0F901F9018958F929F92AF9221
:1005E000BF92CF92DF92EF92FF926B017C010E944B
:1005F000BE004B015C01C114D104E104F104F1F02F
:100600000E94BE00DC01CB0188199909AA09BB0927
:10061000883E9340A105B10570F321E0C21AD108CC
:10062000E108F10888EE880E83E0981EA11CB11C39
:10063000C114D104E104F10419F7DDCFFF90EF906C
:10064000DF90CF90BF90AF909F908F9008951F92B2
:100650000F920FB60F9211242F933F938F939F9376
:10066000AF93BF938091AA019091AB01A091AC018F
:10067000B091AD013091A90126E0230F2D3720F470
:100680000296A11DB11D05C029E8230F0396A11DE7
:10069000B11D2093A9018093AA019093AB01A0936F
:1006A000AC01B093AD018091AE019091AF01A091EA
:1006B000B001B091B1010196A11DB11D8093AE01B1
:1006C0009093AF01A093B001B093B101BF91AF91EE
:1006D0009F918F913F912F910F900FBE0F901F9080
:1006E000189580912E01882361F09FB7F89420918E
:1006F0002E018091A801213019F48DBB9FBF089570
:100700008FBF08958EBD00000DB407FEFDCF8EB5DE
:10071000089520912E01222379F02FB7F89430917B
:100720002E01313039F43DB33093A8013DB33DBBC8
:100730002FBF02C02093A8018CBD9DBD08951F92BC
:100740000F920FB60F9211242F933F934F935F9305
:100750006F937F938F939F93AF93BF93EF93FF9389
:100760008091B900887F803609F49CC068F5883292
:1007700009F45BC090F4803109F454C038F4882344
:1007800009F4F6C0883009F44DC0F6C0883109F488
:100790004CC0803209F45DC0EFC0803409F468C0F9
:1007A00048F4803309F455C0883309F0E5C08093DC
:1007B0000E02D8C0803509F44FC0883509F45DC0F9
:1007C000883409F0D9C0D6C0883909F4C7C0A8F464
:1007D000883709F467C038F4883609F463C0803775
:1007E00009F460C0C9C0883809F4B8C0803909F478
:1007F0005FC0803809F0C0C05BC0803B09F486C090
:1008000038F4803A09F466C0883A09F47FC0B4C06D
:10081000803C09F4A7C0883C09F4A4C0883B09F4D3
:100820008AC0AAC08091EB0110C090910D02809106
:100830000C02981770F5E0910D0281E08E0F809305
:100840000D02F0E0E451FE4F80818093BB0085EC07
:1008500086C080930E028EC0E0910D0281E08E0F63
:1008600080930D028091BB00F0E0E451FE4F808345
:1008700090910D0280910C026EC0E0910D0281E01A
:100880008E0F80930D028091BB00F0E0E451FE4F8B
:10089000808380910F0281116DC081E08093EA0115
:1008A00084EA61C083E0809311021092A701CFCF48
:1008B0008091A701803208F051C0E091A70181E04A
:1008C0008E0F8093A7018091BB00F0E0E957FE4FA7
:1008D0008083BDCF85EC8093BC0010921102809183
:1008E000A701803230F4E091A701F0E0E957FE4F14
:1008F00010826091A70170E0E0918501F09186017E
:1009000087E891E009951092A70136C084E08093B2
:1009100011021092840110928301E0918101F09103
:100920008201099580918301811105C081E0809346
:10093000830110926101E091840181E08E0F809328
:100940008401F0E0EF59FE4F80818093BB009091CD
:10095000840180918301981708F479CF85E880930A
:10096000BC000AC085EC8093BC001092110204C048
:1009700010920E020E94E300FF91EF91BF91AF91A0
:100980009F918F917F916F915F914F913F912F91A7
:100990000F900FBE0F901F9018950C94A314CF9238
:1009A000EF920F931F93CF93DF93CDB7DEB763978B
:1009B0000FB6F894DEBF0FBECDBF92E19B8B90E3E4
:1009C00099838A83AE014D5F5F4F62E0CE0101964D
:1009D0000E94120981110FC0CC24C394E12C00E0C5
:1009E00010E09E012D5E3F4FAE014F5F5F4F64E010
:1009F000CA010E9450098093600181110CC0AFE2CE
:100A0000B1E0FE01319680E18E0F91919D938E139E
:100A1000FCCF81E001C080E063960FB6F894DEBFA2
:100A20000FBECDBFDF91CF911F910F91EF90CF906F
:100A30000895CF92DF92FF920F931F93CF93DF938E
:100A4000D82FD695D69552E0F52EDF1104C08D2F04
:100A5000880F880F7EC00D2F10E0CF2CD12C98016D
:100A60002C0D3D1D35952795C22FCC0FCC0F8C2F0B
:100A70000E94CF04811109C010920001109201015F
:100A8000109202011092030164C080912F0188230B
:100A900009F455C090913301911110C08093000169
:100AA0008091300180930101809131018093020196
:100AB000809132018093030181E03FC08091370132
:100AC000811110C090930001809134018093010145
:100AD000809135018093020180913601809303015A
:100AE00082E02BC090913B019923C1F090930001CB
:100AF00080913C018093010180913D01809302012E
:100B000080913E0180930301C8018C199D0997FDD6
:100B1000019695958795FD2EF81A97CF8093000141
:100B20008091380180930101809139018093020105
:100B300080913A018093030183E08C0F0AC0C801C1
:100B40008C199D0997FD019695958795DF2DD80FF6
:100B50007CCFDF91CF911F910F91FF90DF90CF90CD
:100B60000895AF92BF92CF92EF92FF920F931F938F
:100B7000CF93DF93CDB7DEB76A970FB6F894DEBF99
:100B80000FBECDBF5C01F62E892B09F444C082EA6A
:100B90008B8B6C8BF50180819181A281B3818D8BD0
:100BA0009E8BAF8BB88F86E0FE017396DE011196A7
:100BB00001900D928A95E1F7AE01495F5F4F66E0C3
:100BC000CE0101960E941209811121C082E18A8F13
:100BD000198EC12CE12C8E01075E1F4F9E01265EEF
:100BE0003F4FAE014F5F5F4F68E0CA010E9450095E
:100BF00081110DC08A8D813061F4898D91E084303E
:100C000059F489818A3009F490E0919505C0982FB4
:100C100003C091E001C096E09093600191112FC054
:100C200082E18B8B80E38983FA82AE014D5F5F4F57
:100C300062E0CE0101960E94120981110FC0CC24FE
:100C4000C394E12C00E010E09E012D5E3F4FAE0109
:100C50004F5F5F4F64E0CA010E94500980936001BA
:100C600081110DC0D501FE01319684E08E0F2D91CA
:100C70009191291304C08E13FACF81E001C080E066
:100C80006A960FB6F894DEBF0FBECDBFDF91CF914D
:100C90001F910F91FF90EF90CF90BF90AF9008956C
:100CA0002F923F924F925F926F927F928F929F927C
:100CB000AF92BF92CF92DF92EF92FF920F931F936A
:100CC000CF93DF9300D000D01F92CDB7DEB78C0159
:100CD000F62E84E00E94620A83E00E94620A2801E4
:100CE000612C712C9801A0E4BFE10E94FB1428EE56
:100CF00033E040E050E00E94D91429833A831A017E
:100D00008F2D90E09D838C8300E010E036E8832EE9
:100D100030E0932E4AEAE42E40E0F42E5EEBC52E3E
:100D200050E0D52E5C0191E0A91AB1088C819D811B
:100D30000817190709F417C161E084E00E943B021B
:100D400080910901833019F4F401949172C08F3FAE
:100D500009F0F5C083E080930901F40194919F3F6D
:100D600009F4EDC0913009F1923009F440C09111BD
:100D700060C014BC15BC84B5826084BD85B581603B
:100D800085BDF7018491E82FF0E0EE0FFF1FED56CF
:100D9000FF4F859194919093570180935601F601EE
:100DA00084918093550190E046C01092800010928B
:100DB0008100809181008860809381008091810012
:100DC000816080938100F7018491E82FF0E0EE0FBD
:100DD000FF1FED56FF4F859194919093540180939E
:100DE0005301F60184918093520191E024C0109246
:100DF000B0001092B1008091B00082608093B0008A
:100E00008091B10081608093B100F7018491E82F57
:100E1000F0E0EE0FFF1FED56FF4F859194919093F8
:100E2000B3018093B201F60184918093B40192E002
:100E300002C097FD84C083E09B830E94620A9B816D
:100E4000992319F09230E9F40CC085B5887F82604F
:100E500085BD4114510461047104C1F12CE730E0F7
:100E60002BC08091B100887F82608093B1004114D3
:100E700051046104710491F74FEF5FEFBA012CE761
:100E80004FC0913071F480918100887F81608093A0
:100E90008100411451046104710459F127EE33E0DB
:100EA0000BC04114510461047104C1F727EE33E013
:100EB0004FEF5FEFBA0103C049815A81B101913010
:100EC000E9F0923069F191113AC004C04FEF5FEF41
:100ED000BA012CE727BD40935C0150935D016093FC
:100EE0005E0170935F0180916E00826080936E005E
:100EF00026C04FEF5FEFBA0127EE33E03093890051
:100F000020938800409358015093590160935A01EF
:100F100070935B0180916F00826080936F000FC0BF
:100F20002093B3004093B5015093B6016093B7018D
:100F30007093B80180917000826080937000C3014B
:100F4000B2010E94ED02A89560E084E00E943B029D
:100F50000A151B052CF4C301B2010E94ED02A895ED
:100F60000F5F1F4FE3CE0F900F900F900F900F90D9
:100F7000DF91CF911F910F91FF90EF90DF90CF9075
:100F8000BF90AF909F908F907F906F905F904F90A9
:100F90003F902F9008950F931F93CF93DF938C0171
:100FA0000E94CD04C82FC80101960E94CD04D82FFD
:100FB000C81739F0C80102960E94CD04C81303C0B7
:100FC0000AC08C2F08C0D81731F062E082E390E0AD
:100FD0000E94500680E0DF91CF911F910F910895FC
:100FE000FF920F931F93CF93DF938C01F62EC0E0F7
:100FF000D0E06F2DCE01800F911F0E94AB1421967F
:10100000C330D105B1F7DF91CF911F910F91FF90C0
:1010100008951F920F920FB60F9211242F933F93B2
:101020004F935F936F937F938F939F93AF93BF93F0
:10103000EF93FF930FB6F894A895809160008861B4
:1010400080936000109260000FBE80913F0181117B
:1010500003C0E0E0F0E00995FF91EF91BF91AF91FF
:101060009F918F917F916F915F914F913F912F91C0
:101070000F900FBE0F901F901895FC01538D448D5B
:10108000252F30E0842F90E0821B930B541710F033
:10109000CF96089501970895FC01918D828D981740
:1010A00061F0828DDF01A80FB11D5D968C91928D4C
:1010B0009F5F9F73928F90E008958FEF9FEF089549
:1010C000FC01918D828D981731F0828DE80FF11D12
:1010D000858D90E008958FEF9FEF0895FC01918D2D
:1010E000228D892F90E0805C9F4F821B91098F7326
:1010F0009927089580E090E0892B29F00E94B001A3
:1011000081110C9400000895CF92DF92FF920F930B
:101110001F93CF93DF931F92CDB7DEB7082F162F03
:1011200083E590E079830E94890360E08091EB027F
:101130000E943B0282E10E948203F12EC12E79813E
:10114000D72E8C2D8F19801730F4F60181916F0105
:101150000E948203F6CF61E08091EB020E943B0285
:101160000F90DF91CF911F910F91FF90DF90CF9063
:101170000C9471030F931F93CF93C82F83E590E0D6
:101180000E9489030FED12E060E0F80184850E945F
:101190003B028C2F8E7780680E94820380E00E9441
:1011A0008203C82F61E0F80184850E943B020E94FF
:1011B00071038C2FCF911F910F9108950F931F935F
:1011C000CF93DF93082F162F83E590E00E948903C9
:1011D000CFEDD2E060E08C850E943B02802F8E77BD
:1011E0000E948203812F0E94820361E08C850E940D
:1011F0003B02DF91CF911F910F910C9471031F93CC
:10120000CF93DF931F92CDB7DEB7182F69830E946B
:10121000BA086981682B812F0F90DF91CF911F91C0
:101220000C94DE08EF92FF920F931F93CF93DF93FE
:101230007C01C62F8A0160E082E00E94DE0864E043
:101240008AE00E94DE0860E884E10E94FF08B7019E
:101250008C2F0E94840863E082E00E94DE08C8E8C8
:10126000D3E18AE00E94BA0882FD04C02197C9F741
:1012700083E00FC060E082E00E94DE0884E40E9408
:10128000BA08F801808382E40E94BA08F8018183D9
:1012900080E0DF91CF911F910F91FF90EF90089523
:1012A0002F923F924F925F926F927F928F929F9276
:1012B000AF92BF92CF92DF92EF92FF920F931F9364
:1012C000CF93DF9300D0CDB7DEB72C01D62E5A01D5
:1012D000490138010115110519F0F801908101C08B
:1012E00090E0192FF0E1EF9E100D112460E082E0F4
:1012F0000E94DE086FE788E00E94DE0860E884E173
:101300000E94FF08B2018D2D0E948408612F8AE19E
:101310000E94DE086CE082E00E94DE0860E88AE15C
:101320000E94FF0800ED17E088E00E94BA08982F9D
:10133000907331F480FDA8C001501109A9F7A4C031
:101340008CE00E94BA08082F837109F09FC0A11495
:10135000B10409F466C08114910409F462C084E107
:101360000E94BA08F82EF40180818F1508F490C00D
:10137000F082FF2009F44BC083E590E00E948903CE
:1013800060E08091EB020E943B02FA9482E90E94A5
:101390008203DA2C150144244394512C822D8D199B
:1013A0008F1528F581111AC0EE20C1F08E2D10E0A6
:1013B000883048F49201082E01C0220F0A94EAF7FF
:1013C000122B8F5FF5CF82E90E948203212F209597
:1013D000F501908192238123892B04C082E90E9428
:1013E0008203F1018083FFEF2F1A3F0AD7CFC50197
:1013F0008F0D911D7C0180E00E948203F7018083A4
:1014000061E08091EB020E943B020E94710388E13F
:101410000E94BA088770F82E6114710411F0F3016C
:10142000808303FD37C0A114B104B1F1811491048C
:1014300099F1CC2089F1F4016081613021F4F4E06C
:10144000FF1203C01FC0623010F487E026C0F11005
:10145000FCCF6250AE014F5F5F4FC5010E94120981
:1014600081111BC0F4018081A80EB11CF5013297D7
:10147000908189819813E9CF319690818A81981360
:10148000E4CF0AC08FEF09C083E007C081E005C048
:1014900084E003C082E001C080E00F900F90DF91F4
:1014A000CF911F910F91FF90EF90DF90CF90BF9061
:1014B000AF909F908F907F906F905F904F903F90F4
:1014C0002F90089590E0FC01E554FF4F2491FC011A
:1014D000E955FF4F8491882399F090E0880F991F78
:1014E000FC01E356FF4FA591B491FC01ED56FF4F6F
:1014F000859194918FB7F894EC91E22BEC938FBF88
:101500000895482F2091350290913402213208F03D
:101510005DC0109210028091100280911102882308
:1015200031F0309110023F5F30931002F4CF32E07F
:101530003093110240930F023FEF30930E0210924E
:101540000D0220930C02A4E1B2E04CEE51E0FA014E
:101550003E2F341B321718F43D913193F9CF10927E
:10156000EB012091EB01990F922B9093EB0190915D
:10157000EA01913061F41092EA019091EB019093AD
:10158000BB009091BC0093FDF8CF95EC01C095EEA7
:101590009093BC0010921002909110029091110251
:1015A000923031F4909110029F5F90931002F4CF2B
:1015B00090910E029F3F79F080910E02803241F0AF
:1015C00080910E02803331F084E005C081E003C0D9
:1015D00082E001C083E01092130210923502109253
:1015E00012020895CF92DF92EF92FF920F931F9312
:1015F000CF93DF93CDB7DEB727970FB6F894DEBF52
:101600000FBECDBF81E08093120288E68093340242
:10161000109213021092350260E083ED92E00E9476
:101620007B0181E00E94810A1092100280911002D9
:1016300080911102882331F0809110028F5F809396
:101640001002F4CF81E08093110280930F029FEF8C
:1016500090930E0210920D0296E090930C028093EC
:10166000EB018091EB01806D8093EB018091EA01A9
:10167000813061F41092EA018091EB018093BB000C
:101680008091BC0083FDF8CF85EC01C085EE80938E
:10169000BC001092100280911002809111028130E2
:1016A00031F4809110028F5F80931002F4CF80910B
:1016B0000D02873018F480910D0201C087E0ACEE76
:1016C000B1E02BEB31E0F9019E2F921B981718F433
:1016D0009D919193F9CF1092BA018093B9019E0127
:1016E0002F5F3F4F790100E010E083ED92E00E9410
:1016F0002F01982F9F70153079F484FB222720F951
:10170000220F322F330F330F230F920F9E83082F98
:10171000001F0027001F08C082958F703AE0839F4A
:10172000900D1124F70190831F5FFFEFEF1AFF0A5E
:101730001730D9F63F81832F90E0013019F48053A0
:10174000984F02C08459984F69816093DB011A81D8
:101750001093DC010B810093DD012D812093DE01CC
:101760007E817093DF019093E1018093E0014C81D1
:101770004093E2013093E501803D37E0930708F4A0
:101780005CC0DC01A05DB74030E0A90141505109C7
:10179000E7E8F0E021E02E1B322F3E0F371728F448
:1017A0003491430F511D3196F7CF733038F09D01BE
:1017B00023703327232B11F44F5F5F4FEDE6F1E0E9
:1017C000AE9F9001AF9F300DBE9F300D11248D5CF8
:1017D00097409595879595958795820F931F9A01C8
:1017E000280F391F862F90E0A0E0B0E06C017D014A
:1017F00040E8C41A4CEBD40A42E9E40A47ECF40A84
:10180000A8E1B0E00E94FB149B01AC01200F311D48
:10181000411D511DACE3B0E00E940A159B01AC01D3
:10182000210F311D411D511D0E940A15DC01CB0104
:101830008C0D9D1DAE1DBF1D03C080E090E0DC013E
:101840008093E6019093E701A093E801B093E9014A
:1018500027960FB6F894DEBF0FBECDBFDF91CF91B4
:101860001F910F91FF90EF90DF90CF9008951F93FD
:10187000CF93DF931F92CDB7DEB7182F69830E94F5
:10188000BA08698160956823812F0F90DF91CF910D
:101890001F910C94DE08FC01848DDF01A80FB11D9F
:1018A000A35ABF4F2C91848D90E001968F73992796
:1018B000848FA689B7892C93A089B1898C91806483
:1018C0008C93938D848D981306C00288F389E02D44
:1018D00080818F7D80830895EF92FF920F931F93F5
:1018E000CF93DF93EC0181E0888F9B8D8C8D9813D3
:1018F00005C0E889F989808185FD24C0F62E0B8D0D
:1019000010E00F5F1F4F0F731127E02E8C8DE81230
:101910000CC00FB607FCFACFE889F989808185FFF2
:10192000F5CFCE010E944B0CF1CF8B8DFE01E80F5D
:10193000F11DE35AFF4FF0820B8FEA89FB8980810A
:10194000806207C0EE89FF896083E889F989808118
:101950008064808381E090E0DF91CF911F910F91AF
:10196000FF90EF900895CF93DF93EC01888D88234B
:10197000C9F0EA89FB89808185FD05C0A889B989FC
:101980008C9186FD0FC00FB607FCF5CF808185FFD7
:10199000F2CFA889B9898C9185FFEDCFCE010E9445
:1019A0004B0CE7CFDF91CF910895CF93DF93CDB765
:1019B000DEB7AA970FB6F894DEBF0FBECDBF7894FE
:1019C00084B5826084BD84B5816084BD85B5826044
:1019D00085BD85B5816085BD80916E0081608093F5
:1019E0006E0010928100809181008260809381005E
:1019F000809181008160809381008091800081606E
:101A0000809380008091B10084608093B1008091C8
:101A1000B00081608093B00080917A0084608093F0
:101A20007A0080917A00826080937A0080917A00B7
:101A30008E7F80937A0080917A00806880937A000C
:101A40001092C10085E00E94620A61E085E00E9478
:101A50003B0261E070E080E090E00E94ED0281E0F6
:101A60008093120288E6809334021092130210923F
:101A700035026EE083ED92E00E947B0164E083ED2D
:101A800092E00E947B0181E00E94810A0E94F20A9A
:101A900060E085E00E943B028091E0019091E101CD
:101AA000813E97402CF463E082E390E00E94500670
:101AB00083B7817F846083BF80E293E00E94CB077D
:101AC0008093480184E893E00E94CB0791E0811164
:101AD00001C090E090934C0182E593E00E94CB0717
:101AE000182F8093490185E593E00E94CB078093EE
:101AF0004A0188E593E00E94CB0780934B018BE578
:101B000093E00E94CB07809344011F3F41F4109261
:101B1000440110924B0110924A01109249018091A8
:101B20004401982F937029F440E851E561E070E09A
:101B300016C0913029F440E05CE86AE070E00FC024
:101B4000923049F41092050110920601109207019B
:101B5000109208010CC041E050E060E070E040935A
:101B6000050150930601609307017093080182FFFD
:101B700004C091E09093460102C01092460183FF99
:101B800003C091E09093470184FF03C091E09093DC
:101B90004501982F907E807C11F480E702C0892F48
:101BA000880F8093040168E873E180E090E00E9470
:101BB000ED0261E088EE93E00E9450065E011AE0BB
:101BC000A10EB11C662477246A187B087AA669A640
:101BD00064EB262E6BE2362E61E1462E512C9EE000
:101BE00088E10FB6F894A895809360000FBE90939B
:101BF000600080915101882351F180914D019091B5
:101C00004E01A0914F01B09150010196A11DB11D4F
:101C100080934D0190934E01A0934F01B0935001DA
:101C200040910501509106016091070170910801F2
:101C3000481759076A077B0750F410925101109218
:101C40004D0110924E0110924F01109250011FB79A
:101C5000F89480914001811124C0E1EBF0E084917F
:101C6000E5ECF0E09491E82FF0E0EE0FFF1FE35673
:101C7000FF4FA591B491EC91E92321F461E08AE052
:101C80000E943B028AE00E94620A8CB580618CBD92
:101C90008CB580648CBD8DE00E94620A8BE00E944E
:101CA000620A809140018F5F809340011FBF809145
:101CB000EB020E94620A61E08091EB020E943B020B
:101CC0008091EC020E94620A2091EC0230E0F9015E
:101CD000EE58FF4F8491F901E554FF4F1491F9013B
:101CE000E955FF4FF490FF2079F081110E94120214
:101CF000EF2DF0E0EE0FFF1FE859FF4FA591B491D3
:101D0000EC911E2309F0C7C561E08091EC020E94AE
:101D10003B0261E070E080E090E00E94ED0260E84C
:101D200084E50E94DE0866E486E50E94DE0863E042
:101D300088E50E94DE0868EE8AE50E94DE0860E41D
:101D40008AE20E94DE086DE382E20E94DE0860E71C
:101D50008CE40E94DE0888E20E94BA08982F9370F3
:101D6000933029F0682F636088E20E94DE081091AA
:101D700004018CE40E94BA088077811749F060E77B
:101D80008CE40E94370C612F60778CE40E94FF087E
:101D900082E08E8786E28AA360E88CE10E94370C9D
:101DA00087E08A87C12CE12C85019E01225F3F4F8D
:101DB000AE014F5F5F4F61E0CE0182960E945009F5
:101DC000811108C08E85823009F0EDC48A858111A9
:101DD000EAC403C0823009F0E6C460E88CE10E94E6
:101DE000370C83E98983DD24D394712CF12C90E79F
:101DF000692E00E2802EF8101DC06A829C818B81C2
:101E000089279D8189279E8189278F83AE01485F1D
:101E10005F4F67E0CE0101960E9412098111DEC07A
:101E20001E8613E0912E9A868E01095F1F4F48018E
:101E300099E027C08F2D877887FF03C08150886F76
:101E40008F5F8E872F2DF7FE02C027E02F0D25957F
:101E50002595259532E0320F982F10E1319F900D96
:101E600011249A8391E0811101C090E0930F88249E
:101E70008394912C8C0E9D1E830E911C87E0821BF7
:101E80008A87EE846E2D6295607F6E0D8AE19CA339
:101E90000E94DE08C12C8E01025F1F4F9501A40134
:101EA0009CA1692FCE0101960E945009823091F5C4
:101EB0008CE10E94BA0885FD76C48F7109F480E236
:101EC000282F30E04F2DFF0C550B421753070CF015
:101ED0006AC4F82EC9010197877099272595259521
:101EE000259531E0320F21E0009709F420E0230F1F
:101EF000E1E0F0E0EC0FFD1FE20FF11D21E030E02A
:101F000002C0220F331F8A95E2F7C9019081892B05
:101F100080836FCF811162C030E2F31619F080E246
:101F2000F82E6BCF8B81883819F453E043E002C060
:101F300052E044E080E090E0272D30E0FC01E20F29
:101F4000F31FE152FD4F652F680FA1E0B0E0AC0F29
:101F5000BD1FA60FB11D6C9161830196841770F3AC
:101F60008A85833009F01FC48E8581111CC4AE019F
:101F70004D5F5F4F61E0C4010E94120981112EC0C4
:101F80009B81D40111968C91119798130CC49C815C
:101F900012968C911297981306C48C9182FF15C0EB
:101FA000D394B2E0DB1205C085E9898333E0732E58
:101FB0001DCFE3E0DE1205C087E9898326E0722E9B
:101FC00015CFF1E0DF12EFC30CCF8093EA028D2D25
:101FD000880FD80ED394D092DF0202C08111E3C3E0
:101FE00061E085E00E943B0261E070E080E090E00B
:101FF0000E94ED020E94F20A60E085E00E943B022E
:1020000080914C01882309F466C010924C0160E075
:1020100084E893E00E94F00799E288E10FB6F89413
:10202000A895809360000FBE90936000A89584E00F
:102030000E94620A61E084E00E943B0268E873E16A
:1020400080E090E00E94ED021AE0C12CD12C7601D4
:102050000EE480917A00806880937A0000937C007F
:102060006BE470E080E090E00E94ED0280917A00E5
:10207000806480937A0080917A0086FDFCCF209165
:1020800078008091790030E0382B032E000C440B4F
:10209000550BC201B1010E94D914C20ED31EE41E19
:1020A000F51E1150B1F608E1C01609E7D006E104AB
:1020B000F10420F465E082E390E003C061E084EF86
:1020C00091E00E94500660E084E00E943B02A895E7
:1020D000E0E0F0E0099584E00E94CF04882309F451
:1020E00062C3809131018F3F09F088C18091300136
:1020F0002091340190913501409149013091330193
:10210000431308C030914A01321304C020914B019F
:10211000291711F064E0AFC08A3F09F08CC08091AC
:1021200037018093DF018091380190E08053984F10
:102130009093E1018093E001809139018093DE0169
:1021400080913B018093DD0180913C018093DC0113
:1021500080913D018093DB011E8E1F8E18A219A273
:1021600064E0CE014E960E94B105882309F41BC39A
:1021700061E085E00E943B0261E070E080E090E079
:102180000E94ED027091DB016091DC015091DD0154
:102190003091DE012091DF018091E0019091E10119
:1021A0004091E201813DF7E09F071CF0805D10E85F
:1021B00002C08C5610E079836A835B834C833D8335
:1021C0002E838F8381E08093120288E6809334020D
:1021D000109213021092350260E083ED92E00E94AB
:1021E0007B019E012F5F3F4F490100E0AAE0FA2EDC
:1021F000F40180816F2D0E94B91430E1839F900D0E
:1022000011249083053019F48E81810F8E834FEF56
:10221000841A940A608183ED92E00E947B010F5F33
:10222000073031F781E00E94810A60E085E00E947A
:102230003B0263E0DBC08B3F09F5109137011A8E3A
:102240001B8E1C8E1D8E64E0CE014A960E94B10545
:10225000882309F4A8C2112369F0809148018117ED
:1022600039F010934801612F80E293E00E94F0075B
:1022700065E0BCC066E082E390E0A7C18C3F09F056
:1022800054C01E8A1F8A188E198E64E0CE014696AD
:102290000E94B105882309F486C21092490160E0CA
:1022A00082E593E00E94F00710924A0160E085E524
:1022B00093E00E94F00710924B0160E088E593E004
:1022C0000E94F00780914501882329F060E08BE5AA
:1022D00093E00E94F00781E080934C016FEF84E867
:1022E00093E00E94F00764E084EF91E00E945006C2
:1022F00000E010E0F4E6EF2EF12CC801B7010E94D7
:10230000C514892B09F4A89560E0C8010E94AB149C
:1023100065E070E080E090E00E94ED020F5F1F4FEB
:102320000E3EF2E01F0749F765C08D3F79F519822F
:102330001A821B821C8280914801898364E0CE014D
:1023400001960E94B105882309F42DC2C9A4DAA41C
:1023500015E004E00A0DA8957501C7018C0D9D1DBF
:102360000E94CD04D7018D937D010A13F6CF612F12
:10237000C5010E94B105882309F415C21F5FB4E0AE
:10238000CB0ED11C123839F766E073C08E3F09F0CE
:102390000AC2609137016093490182E593E00E948F
:1023A000F0076091380160934A0185E593E00E944F
:1023B000F0076091390160934B0188E593E00E943A
:1023C000F00760913A01609344018BE593E00E942D
:1023D000F0071A8A1B8A1C8A1D8A64E0CE01429685
:1023E0000E94B105882309F4DEC162E084EF91E028
:1023F0000E945006E0E0F0E00995D5C11091480137
:10240000193F09F08DC06AE00E94B914953039F087
:10241000933039F0963009F0C6C108ED03C002E8E8
:1024200001C008E29091430180912F01981324C0CC
:10243000909142018091300198131EC0809141011A
:102440008823D1F088E00E94CF04882309F4ABC12F
:1024500080912F01811110C08091300181110CC039
:1024600080913101811108C080913201811104C035
:1024700061E084EF91E0A9C01092410180912F01A9
:1024800080934301809130018093420184E00E9457
:10249000620A61E084E00E943B028FEF8E878F87A3
:1024A000888B898B18E0A895612FCE010E960E942B
:1024B000B105882309F477C11F5F1013F4CF1A8682
:1024C0001B861C861D861150A895612FC5010E9490
:1024D000B105882309F467C111501830A8F780911D
:1024E000E6019091E7012091E8013091E9013983FB
:1024F0002A839B838C8365E0CE0101960E94B105FF
:10250000882309F450C160E084E00E943B0261E04E
:1025100088EC90E00E94500681E08093410143C125
:10252000183F09F055C0811102C063E04CC0809192
:10253000330190E0A0E0B0E0BA2FA92F982F8827B0
:1025400020913401820F911DA11DB11DBA2FA92F19
:10255000982F882720913501820F911DA11DB11D53
:10256000209136014091E6015091E7016091E80128
:102570007091E901421B510961097109BA2FA92F14
:10258000982F88273A014B01681A790A8A0A9B0A10
:1025900001EA601605E2700606E28006910428F65C
:1025A00017E088E00E94CF04882309F4FCC0115092
:1025B000C1F7EFE2F1E080E18E0F91919111B5CF7B
:1025C0008E13FBCF61E088EC90E00E945006EBC0D8
:1025D00090914701992309F43FC040913301309114
:1025E000340120913501909136016091E0017091A4
:1025F000E101613E774084F150E060E070E0762FC9
:10260000652F542F4427430F511D611D711D762FD7
:10261000652F542F4427420F511D611D711DC0901D
:10262000E601D090E701E090E801F090E901C91AD5
:10263000D108E108F1086624742E852E962EC6185E
:10264000D708E808F90801EAC01605E2D00606E254
:10265000E006F10408F0A7C01092000180902F015D
:10266000912C982C882490913001890E911C811412
:10267000910409F498C06AE00E94B914953029F4D5
:1026800080E80E9419052FE70EC0933029F488E2F4
:102690000E94190527E207C0963009F084C080EE39
:1026A0000E9419052FED882309F47DC09091000147
:1026B000191709F4DDCE281708F475C020914601DA
:1026C000222361F0883021F4103F09F06CC0F8C07B
:1026D000953F09F468C0103F09F465C0412F50E0F0
:1026E00060E070E0342F2227112700274091E60197
:1026F0005091E7016091E8017091E9017727400F5F
:10270000511F621F731F79836A835B834C83682F19
:10271000CE0101960E94B105882309F444C061E00E
:1027200088EC90E00E945006C40101978F399F40C9
:10273000E0F4840143E0169507954A95E1F7C80156
:102740000E94CD0427E08222992441E050E060E01D
:1027500070E004C0440F551F661F771F8A94D2F79C
:10276000682F642BC8010E94AB1481E08093510153
:1027700010924D0110924E0110924F011092500193
:102780009FB7F89480914001882319F0815080937D
:10279000400180914001811105C08CB58F7B8CBDBB
:1027A00010922E019FBF8091050190910601A0918A
:1027B0000701B09108010097A105B10519F4109225
:1027C000510107C00197A105B10519F481E080937B
:1027D00051010091510181E080933F0110E0812F70
:1027E0000E94620A60E0812F0E943B021F5F143149
:1027F000B1F710927A00002309F45DC014BE88E19D
:102800008093600084E480936000A895F89483B777
:10281000816083BF80E685BF80E485BF789488951A
:1028200083B78E7F83BF10923F0180914C01882334
:1028300079F103E09924939488E1C82E91E6D92E8A
:1028400020E6E22E30E4F32E90923F0110E0812F3B
:102850000E94620A60E0812F0E943B021F5F1431D8
:10286000B1F710927A0014BEC0926000D09260005E
:10287000A895F89483B7816083BFE5BEF5BE7894D0
:10288000889583B78E7F83BF10923F010150E1F698
:102890000E947A08A4C96FE082E00E94DE0861E02D
:1028A00070E080E090E00E94ED0282E00E94BA08B1
:1028B00084FDFBCF34CA88E18093600086E4A3CF17
:1028C000953F09F00BCF6FCFE6E3F2E0138212825F
:1028D00088EE93E0A0E0B0E084839583A683B7837D
:1028E0002EE031E03183208325EC30E035872487EA
:1028F00024EC30E03787268720EC30E0318B208BCA
:1029000021EC30E0338B228B22EC30E0358B248BB2
:1029100026EC30E0378B268B118E128E138E148EA0
:10292000E3EDF2E01382128284839583A683B7835A
:1029300080E291E091838083EFEDF2E08AE084878A
:1029400089E085870895F999FECF92BD81BDF89AF7
:10295000992780B50895262FF999FECF1FBA92BD09
:1029600081BD20BD0FB6F894FA9AF99A0FBE019670
:102970000895991B79E004C0991F961708F0961BDB
:10298000881F7A95C9F780950895AA1BBB1B51E152
:1029900007C0AA1FBB1FA617B70710F0A61BB70BCF
:1029A000881F991F5A95A9F780959095BC01CD0174
:1029B0000895A1E21A2EAA1BBB1BFD010DC0AA1F80
:1029C000BB1FEE1FFF1FA217B307E407F50720F098
:1029D000A21BB30BE40BF50B661F771F881F991F13
:1029E0001A9469F760957095809590959B01AC015C
:1029F000BD01CF010895A29FB001B39FC001A39F65
:102A0000700D811D1124911DB29F700D811D112427
:102A1000911D08950E94FB14A59F900DB49F900DE9
:102A2000A49F800D911D11240895EE0FFF1F0590A6
:102A3000F491E02D099481E090E0F8940C94201535
:042A4000F894FFCF38
:102A4400FF0000007080510100FF000000006C0CCA
:102A540093003D08B30C6E084C08600800000000A9
:0E2A64007B014B01AB011F0143012F0120013B
:00000001FF
