:100000000C9469000C9491000C9491000C94910054
:100010000C9491000C9491000C9409080C946B02C0
:100020000C9491000C9491000C9491000C9491000C
:100030000C9491000C9491000C9491000C949100FC
:100040000C9427030C9491000C94E0010C94BA01D9
:100050000C9491000C9491000C9491000C949100DC
:100060000C949F030C9491000000000023002600D4
:10007000290000000008000201000003040700003E
:100080000000000000000200000000250028002BF6
:100090000000000000240027002A000404040404D7
:1000A0000404040202020202020303030303030125
:1000B00002040810204080010204081020010204FC
:1000C0000810201F1C1F1E1F1E1F1F1E1F1E1F008B
:1000D000791411241FBECFEFD8E0DEBFCDBF11E0F1
:1000E000A0E0B1E0EEE6FAE202C005900D92AE3279
:1000F000B107D9F722E0AEE2B1E001C01D92A13F05
:10010000B207E1F710E0C9E6D0E004C02197FE0194
:100110000E942A15C836D107C9F70E94B50C0C9465
:1001200035150C940000CF92DF92EF92FF920F935F
:100130001F93CF93DF936C017A018B01C0E0D0E075
:10014000CE15DF0589F0D8016D918D01D601ED91B5
:10015000FC910190F081E02DC6010995892B11F4E5
:100160007E0102C02196ECCFC701DF91CF911F9194
:100170000F91FF90EF90DF90CF9008953FB7F894E4
:100180008091B2019091B301A091B401B091B501F9
:1001900026B5A89B05C02F3F19F00196A11DB11DE2
:1001A0003FBFBA2FA92F982F8827820F911DA11D1D
:1001B000B11DBC01CD0143E0660F771F881F991F59
:1001C0004A95D1F7089585ED8093BC001092E30124
:1001D0008091E3018091BC0084FF06C08091E3011F
:1001E0008F5F8093E301F4CF1092E4010895409172
:1001F0008701262F30E0240F311D21323105DCF438
:100200002091E4012430C9F4FC0180E090E08617DD
:1002100058F4309187012191DC01AB59BE4FA30FF7
:10022000B11D2C930196F3CF80918701680F6093E5
:10023000870180E0089581E0089582E0089508959F
:10024000E091C1028091C002E81730F4F0E0EE5373
:10025000FD4F808190E008958FEF9FEF089590917A
:10026000C1028091C002981750F4E92FF0E0EE53DC
:10027000FD4F208130E09F5F9093C10202C02FEFBD
:100280003FEFC90108958091C00290E02091C10222
:10029000821B91090895CF92DF92EF92FF920F9304
:1002A0001F93CF93DF937C01262F972F8A01809194
:1002B000E501882391F0C62FD72F6E01C40ED51EFD
:1002C000CC15DD0571F06991D701ED91FC9101909C
:1002D000F081E02DC7010995F3CF642F822F0E9492
:1002E000F700C801DF91CF911F910F91FF90EF9020
:1002F000DF90CF900895CF93DF931F92CDB7DEB7F5
:1003000069832091E5012223D1F020910802203257
:1003100040F021E030E0FC013383228380E090E074
:1003200015C08091E601E82FF0E0E951FE4F998178
:1003300090838F5F8093E6018093080205C061E09F
:10034000CE0101960E94F70081E090E00F90DF91CE
:10035000CF910895089580E090E008950E943015AF
:1003600089E092E00E94D00A21E0892B09F420E084
:10037000822F08951F920F920FB60F9211242F9380
:100380003F934F935F936F937F938F939F93AF931D
:10039000BF93EF93FF9389E092E00E942B0CFF91B3
:1003A000EF91BF91AF919F918F917F916F915F91ED
:1003B0004F913F912F910F900FBE0F901F90189566
:1003C0001F920F920FB60F9211242F938F939F932A
:1003D000EF93FF93E0911902F0911A028081E0916E
:1003E0001F02F091200282FD12C0908180912202B2
:1003F0008F5F8F7320912302821751F0E0912202C8
:10040000F0E0E75FFD4F958F8093220201C080816D
:10041000FF91EF919F918F912F910F900FBE0F90B1
:100420001F901895833081F028F4813099F0823044
:10043000A1F008958730A9F08830B9F08430D1F464
:10044000809180008F7D03C0809180008F778093A2
:100450008000089584B58F7702C084B58F7D84BDF8
:1004600008958091B0008F7703C08091B0008F7D98
:100470008093B00008951F93CF93DF93282F30E02F
:10048000F901EE58FF4F8491F901E155FF4FD491E6
:10049000F901E556FF4FC491CC23C9F0162F811105
:1004A0000E941202EC2FF0E0EE0FFF1FE957FF4F02
:1004B000A591B4918FB7F894111105C09C91ED2FBF
:1004C000E095E92302C0EC91ED2BEC938FBFDF9117
:1004D000CF911F9108951F920F920FB60F92112482
:1004E0002F933F934F935F936F937F938F939F933C
:1004F000AF93BF93EF93FF938091B9019091BA01AD
:10050000A091BB01B091BC01892B8A2B8B2B59F197
:100510008091B801E091B601F091B70190818927EF
:1005200080838091B9019091BA01A091BB01B091F3
:10053000BC01181619061A061B060CF03DC0809166
:10054000B9019091BA01A091BB01B091BC01019792
:10055000A109B1098093B9019093BA01A093BB019D
:10056000B093BC0129C080910801E6E8F0E0E49175
:100570009FEF90930801E130B9F098F0E230C9F4B0
:10058000909170009D7F9093700091E09093B000E7
:100590009091B100987F94609093B1001092B30055
:1005A00008C010926E0005C090916F009D7F9093DF
:1005B0006F0060E00E943B02FF91EF91BF91AF910D
:1005C0009F918F917F916F915F914F913F912F916B
:1005D0000F900FBE0F901F9018958F929F92AF9221
:1005E000BF92CF92DF92EF92FF926B017C010E944B
:1005F000BE004B015C01C114D104E104F104F1F02F
:100600000E94BE00DC01CB0188199909AA09BB0927
:10061000883E9340A105B10570F321E0C21AD108CC
:10062000E108F10888EE880E83E0981EA11CB11C39
:10063000C114D104E104F10419F7DDCFFF90EF906C
:10064000DF90CF90BF90AF909F908F9008951F92B2
:100650000F920FB60F9211242F933F938F939F9376
:10066000AF93BF938091AE019091AF01A091B00183
:10067000B091B1013091AD0126E0230F2D3720F468
:100680000296A11DB11D05C029E8230F0396A11DE7
:10069000B11D2093AD018093AE019093AF01A09363
:1006A000B001B093B1018091B2019091B301A091DA
:1006B000B401B091B5010196A11DB11D8093B201A5
:1006C0009093B301A093B401B093B501BF91AF91E2
:1006D0009F918F913F912F910F900FBE0F901F9080
:1006E000189580912E01882361F09FB7F89420918E
:1006F0002E018091AC01213019F48DBB9FBF08956C
:100700008FBF08958EBD00000DB407FEFDCF8EB5DE
:10071000089520912E01222379F02FB7F89430917B
:100720002E01313039F43DB33093AC013DB33DBBC4
:100730002FBF02C02093AC018CBD9DBD08951F92B8
:100740000F920FB60F9211242F933F934F935F9305
:100750006F937F938F939F93AF93BF93EF93FF9389
:100760008091B900887F803609F49CC068F5883292
:1007700009F45BC090F4803109F454C038F4882344
:1007800009F4F6C0883009F44DC0F6C0883109F488
:100790004CC0803209F45DC0EFC0803409F468C0F9
:1007A00048F4803309F455C0883309F0E5C08093DC
:1007B000E101D8C0803509F44FC0883509F45DC027
:1007C000883409F0D9C0D6C0883909F4C7C0A8F464
:1007D000883709F467C038F4883609F463C0803775
:1007E00009F460C0C9C0883809F4B8C0803909F478
:1007F0005FC0803809F0C0C05BC0803B09F486C090
:1008000038F4803A09F466C0883A09F47FC0B4C06D
:10081000803C09F4A7C0883C09F4A4C0883B09F4D3
:100820008AC0AAC08091BE0110C09091E001809161
:10083000DF01981770F5E091E00181E08E0F809361
:10084000E001F0E0E154FE4F80818093BB0085EC35
:1008500086C08093E1018EC0E091E00181E08E0FBF
:100860008093E0018091BB00F0E0E154FE4F808373
:100870009091E0018091DF016EC0E091E00181E0A4
:100880008E0F8093E0018091BB00F0E0E154FE4FB9
:1008900080838091E20181116DC081E08093BD0170
:1008A00084EA61C083E08093E4011092AB01CFCF72
:1008B0008091AB01803208F051C0E091AB0181E042
:1008C0008E0F8093AB018091BB00F0E0E557FE4FA7
:1008D0008083BDCF85EC8093BC001092E4018091B1
:1008E000AB01803230F4E091AB01F0E0E557FE4F10
:1008F00010826091AB0170E0E0918901F0918A0172
:100900008BE891E009951092AB0136C084E08093AA
:10091000E4011092880110928701E0918501F09125
:100920008601099580918701811105C081E080933E
:10093000870110926501E091880181E08E0F80931C
:100940008801F0E0EB59FE4F80818093BB009091CD
:10095000880180918701981708F479CF85E8809302
:10096000BC000AC085EC8093BC001092E40104C076
:100970001092E1010E94E300FF91EF91BF91AF91CE
:100980009F918F917F916F915F914F913F912F91A7
:100990000F900FBE0F901F9018950C94B814CF9223
:1009A000EF920F931F93CF93DF93CDB7DEB763978B
:1009B0000FB6F894DEBF0FBECDBF92E19B8B90E3E4
:1009C00099838A83AE014D5F5F4F62E0CE0101964D
:1009D0000E94C20881110FC0CC24C394E12C00E016
:1009E00010E09E012D5E3F4FAE014F5F5F4F64E010
:1009F000CA010E94FF088093640181110CC0AFE21C
:100A0000B1E0FE01319680E18E0F91919D938E139E
:100A1000FCCF81E001C080E063960FB6F894DEBFA2
:100A20000FBECDBFDF91CF911F910F91EF90CF906F
:100A30000895CF92DF92FF920F931F93CF93DF938E
:100A4000D82FD695D69552E0F52EDF1104C08D2F04
:100A5000880F880F7EC00D2F10E0CF2CD12C98016D
:100A60002C0D3D1D35952795C22FCC0FCC0F8C2F0B
:100A70000E94CF04811109C010920001109201015F
:100A8000109202011092030164C080912F0188230B
:100A900009F455C090913301911110C08093000169
:100AA0008091300180930101809131018093020196
:100AB000809132018093030181E03FC08091370132
:100AC000811110C090930001809134018093010145
:100AD000809135018093020180913601809303015A
:100AE00082E02BC090913B019923C1F090930001CB
:100AF00080913C018093010180913D01809302012E
:100B000080913E0180930301C8018C199D0997FDD6
:100B1000019695958795FD2EF81A97CF8093000141
:100B20008091380180930101809139018093020105
:100B300080913A018093030183E08C0F0AC0C801C1
:100B40008C199D0997FD019695958795DF2DD80FF6
:100B50007CCFDF91CF911F910F91FF90DF90CF90CD
:100B60000895AF92BF92CF92EF92FF920F931F938F
:100B7000CF93DF93CDB7DEB76A970FB6F894DEBF99
:100B80000FBECDBF5C01F62E892B09F444C082EA6A
:100B90008B8B6C8BF50180819181A281B3818D8BD0
:100BA0009E8BAF8BB88F86E0FE017396DE011196A7
:100BB00001900D928A95E1F7AE01495F5F4F66E0C3
:100BC000CE0101960E94C208811121C082E18A8F64
:100BD000198EC12CE12C8E01075E1F4F9E01265EEF
:100BE0003F4FAE014F5F5F4F68E0CA010E94FF08B0
:100BF00081110DC08A8D813061F4898D91E084303E
:100C000059F489818A3009F490E0919505C0982FB4
:100C100003C091E001C096E09093640191112FC050
:100C200082E18B8B80E38983FA82AE014D5F5F4F57
:100C300062E0CE0101960E94C20881110FC0CC244F
:100C4000C394E12C00E010E09E012D5E3F4FAE0109
:100C50004F5F5F4F64E0CA010E94FF088093640108
:100C600081110DC0D501FE01319684E08E0F2D91CA
:100C70009191291304C08E13FACF81E001C080E066
:100C80006A960FB6F894DEBF0FBECDBFDF91CF914D
:100C90001F910F91FF90EF90CF90BF90AF9008956C
:100CA0002F923F924F925F926F927F928F929F927C
:100CB000AF92BF92CF92DF92EF92FF920F931F936A
:100CC000CF93DF9300D000D01F92CDB7DEB78C0159
:100CD000F62E84E00E940F0A83E00E940F0A28018A
:100CE000612C712C9801A0E4BFE10E94101528EE40
:100CF00033E040E050E00E94EE1429833A831A0169
:100D00008F2D90E09D838C8300E010E036E8832EE9
:100D100030E0932E4EE9E42E40E0F42E52EBC52E47
:100D200050E0D52E5C0191E0A91AB1088C819D811B
:100D30000817190709F417C161E084E00E943B021B
:100D400080910801833019F4F401949172C08F3FAF
:100D500009F0F5C083E080930801F40194919F3F6E
:100D600009F4EDC0913009F1923009F440C09111BD
:100D700060C014BC15BC84B5826084BD85B581603B
:100D800085BDF7018491E82FF0E0EE0FFF1FE957D2
:100D9000FF4F8591949190935B0180935A01F601E6
:100DA00084918093590190E046C010928000109287
:100DB0008100809181008860809381008091810012
:100DC000816080938100F7018491E82FF0E0EE0FBD
:100DD000FF1FE957FF4F859194919093580180939D
:100DE0005701F60184918093560191E024C010923E
:100DF000B0001092B1008091B00082608093B0008A
:100E00008091B10081608093B100F7018491E82F57
:100E1000F0E0EE0FFF1FE957FF4F859194919093FB
:100E2000B7018093B601F60184918093B80192E0F6
:100E300002C097FD84C083E09B830E940F0A9B81C0
:100E4000992319F09230E9F40CC085B5887F82604F
:100E500085BD4114510461047104C1F12CE730E0F7
:100E60002BC08091B100887F82608093B1004114D3
:100E700051046104710491F74FEF5FEFBA012CE761
:100E80004FC0913071F480918100887F81608093A0
:100E90008100411451046104710459F127EE33E0DB
:100EA0000BC04114510461047104C1F727EE33E013
:100EB0004FEF5FEFBA0103C049815A81B101913010
:100EC000E9F0923069F191113AC004C04FEF5FEF41
:100ED000BA012CE727BD40936001509361016093F4
:100EE00062017093630180916E00826080936E0056
:100EF00026C04FEF5FEFBA0127EE33E03093890051
:100F00002093880040935C0150935D0160935E01E3
:100F100070935F0180916F00826080936F000FC0BB
:100F20002093B3004093B9015093BA016093BB0181
:100F30007093BC0180917000826080937000C30147
:100F4000B2010E94ED02A89560E084E00E943B029D
:100F50000A151B052CF4C301B2010E94ED02A895ED
:100F60000F5F1F4FE3CE0F900F900F900F900F90D9
:100F7000DF91CF911F910F91FF90EF90DF90CF9075
:100F8000BF90AF909F908F907F906F905F904F90A9
:100F90003F902F9008950F931F93CF93DF938C0171
:100FA0000E94CD04C82FC80101960E94CD04D82FFD
:100FB000C81739F0C80102960E94CD04C81303C0B7
:100FC0000AC08C2F08C0D81731F062E082E390E0AD
:100FD0000E94500680E0DF91CF911F910F910895FC
:100FE000FF920F931F93CF93DF938C01F62EC0E0F7
:100FF000D0E06F2DCE01800F911F0E94C01421966A
:10100000C330D105B1F7DF91CF911F910F91FF90C0
:1010100008951F920F920FB60F9211242F933F93B2
:101020004F935F936F937F938F939F93AF93BF93F0
:10103000EF93FF930FB6F894A895809160008861B4
:1010400080936000109260000FBE80913F0181117B
:1010500003C0E0E0F0E00995FF91EF91BF91AF91FF
:101060009F918F917F916F915F914F913F912F91C0
:101070000F900FBE0F901F901895CF92DF92FF92A6
:101080000F931F93CF93DF931F92CDB7DEB7082F37
:10109000162F83E590E079830E94890360E08091B8
:1010A000BE020E943B0282E10E948203F12EC12E09
:1010B0007981D72E8C2D8F19801730F4F60181910C
:1010C0006F010E948203F6CF61E08091BE020E9410
:1010D0003B020F90DF91CF911F910F91FF90DF9016
:1010E000CF900C9471030F931F93CF93C82F83E578
:1010F00090E00E94890302EB12E060E0F801848531
:101100000E943B028C2F8E7780680E94820380E0D1
:101110000E948203C82F61E0F80184850E943B028F
:101120000E9471038C2FCF911F910F9108950F93FF
:101130001F93CF93DF93082F162F83E590E00E9433
:101140008903C2EBD2E060E08C850E943B02802FD5
:101150008E770E948203812F0E94820361E08C853A
:101160000E943B02DF91CF911F910F910C9471036C
:10117000CF93C82F0E947308682F60688C2FCF917F
:101180000C949708EF92FF920F931F93CF93DF93E6
:101190007C01C62F8A0160E082E00E94970864E02B
:1011A0008AE00E94970884E10E94B808B7018C2F5A
:1011B0000E943D0863E082E00E949708C8E8D3E1FE
:1011C0008AE00E94730882FD04C02197C9F783E07A
:1011D0000FC060E082E00E94970884E40E947308D8
:1011E000F801808382E40E947308F801818380E023
:1011F000DF91CF911F910F91FF90EF9008952F9263
:101200003F924F925F926F927F928F929F92AF9296
:10121000BF92CF92DF92EF92FF920F931F93CF93E3
:10122000DF9300D0CDB7DEB72C01D62E5A0149018D
:1012300038010115110519F0F801908101C090E005
:10124000192FF0E1EF9E100D112460E082E00E9462
:1012500097086FE788E00E94970884E10E94B80829
:10126000B2018D2D0E943D08612F8AE10E949708EE
:101270006CE082E00E9497088AE10E94B80800EDC5
:1012800017E088E00E947308982F907331F480FD76
:10129000A8C001501109A9F7A4C08CE00E947308EE
:1012A000082F837109F09FC0A114B10409F466C02E
:1012B0008114910409F462C084E10E947308F82E3D
:1012C000F40180818F1508F490C0F082FF2009F4AA
:1012D0004BC083E590E00E94890360E08091BE02EC
:1012E0000E943B02FA9482E90E948203DA2C1501E3
:1012F00044244394512C822D8D198F1528F581118A
:101300001AC0EE20C1F08E2D10E0883048F4920112
:10131000082E01C0220F0A94EAF7122B8F5FF5CF37
:1013200082E90E948203212F2095F501908192236A
:101330008123892B04C082E90E948203F10180830A
:10134000FFEF2F1A3F0AD7CFC5018F0D911D7C01EA
:1013500080E00E948203F701808361E08091BE02F9
:101360000E943B020E94710388E10E94730887700B
:10137000F82E6114710411F0F301808303FD37C06E
:10138000A114B104B1F18114910499F1CC2089F137
:10139000F4016081613021F4F4E0FF1203C01FC04A
:1013A000623010F487E026C0F110FCCF6250AE012D
:1013B0004F5F5F4FC5010E94C20881111BC0F4013D
:1013C0008081A80EB11CF501329790818981981314
:1013D000E9CF319690818A819813E4CF0AC08FEFCC
:1013E00009C083E007C081E005C084E003C082E05B
:1013F00001C080E00F900F90DF91CF911F910F916E
:10140000FF90EF90DF90CF90BF90AF909F908F9024
:101410007F906F905F904F903F902F90089590E055
:10142000FC01E155FF4F2491FC01E556FF4F8491EB
:10143000882399F090E0880F991FFC01EF56FF4F29
:10144000A591B491FC01E957FF4F859194918FB715
:10145000F894EC91E22BEC938FBF0895482F2091E4
:10146000080290910702213208F05DC01092E3015A
:101470008091E3018091E401882331F03091E30110
:101480003F5F3093E301F4CF32E03093E4014093C7
:10149000E2013FEF3093E1011092E0012093DF0180
:1014A000A7EEB1E04FEB51E0FA013E2F341B3217AB
:1014B00018F43D913193F9CF1092BE012091BE01F5
:1014C000990F922B9093BE019091BD01913061F4E0
:1014D0001092BD019091BE019093BB009091BC0011
:1014E00093FDF8CF95EC01C095EE9093BC0010925F
:1014F000E3019091E3019091E401923031F49091F5
:10150000E3019F5F9093E301F4CF9091E1019F3F4E
:1015100079F08091E101803241F08091E1018033E6
:1015200031F084E005C081E003C082E001C083E0C7
:101530001092E601109208021092E5010895FC0154
:10154000538D448D252F30E0842F90E0821B930B28
:10155000541710F0CF96089501970895FC01918DCE
:10156000828D981761F0828DDF01A80FB11D5D9605
:101570008C91928D9F5F9F73928F90E008958FEF73
:101580009FEF0895FC01918D828D981731F0828D27
:10159000E80FF11D858D90E008958FEF9FEF08957E
:1015A000FC01918D228D892F90E0805C9F4F821BE2
:1015B00091098F739927089580E090E0892B29F095
:1015C0000E94B00181110C9400000895CF92DF9227
:1015D000EF92FF920F931F93CF93DF93CDB7DEB7B8
:1015E00027970FB6F894DEBF0FBECDBF81E0809382
:1015F000E50188E6809307021092E6011092080246
:1016000060E086EA92E00E947B0181E00E942E0A5F
:101610001092E3018091E3018091E401882331F08D
:101620008091E3018F5F8093E301F4CF81E08093A9
:10163000E4018093E2019FEF9093E1011092E001B9
:1016400096E09093DF018093BE018091BE01806D92
:101650008093BE018091BD01813061F41092BD0183
:101660008091BE018093BB008091BC0083FDF8CFC8
:1016700085EC01C085EE8093BC001092E30180915F
:10168000E3018091E401813031F48091E3018F5FC7
:101690008093E301F4CF8091E001873018F48091CA
:1016A000E00101C087E0AFEBB1E022EC32E0F901EC
:1016B0009E2F921B981718F49D919193F9CF109239
:1016C000C1028093C0029E012F5F3F4F790100E06D
:1016D00010E086EA92E00E942F01982F9F7015304B
:1016E00079F484FB222720F9220F322F330F330F96
:1016F000230F920F9E83082F001F0027001F08C092
:1017000082958F703AE0839F900D1124F7019083AA
:101710001F5FFFEFEF1AFF0A1730D9F63F81832FC3
:1017200090E0013019F48053984F02C08459984FCB
:1017300069816093E2021A811093E3020B810093A6
:10174000E4022D812093E5027E817093E60290935E
:10175000E8028093E7024C814093E9023093EC0267
:10176000803D37E0930708F45CC0DC01A05DB74022
:1017700030E0A90141505109E3ECF0E021E02E1BDB
:10178000322F3E0F371728F43491430F511D3196F5
:10179000F7CF733038F09D0123703327232B11F4DA
:1017A0004F5F5F4FEDE6F1E0AE9F9001AF9F300DD0
:1017B000BE9F300D11248D5C97409595879595952A
:1017C0008795820F931F9A01280F391F862F90E06B
:1017D000A0E0B0E06C017D0140E8C41A4CEBD40AF3
:1017E00042E9E40A47ECF40AA8E1B0E00E941015CF
:1017F0009B01AC01200F311D411D511DACE3B0E038
:101800000E941F159B01AC01210F311D411D511D6F
:101810000E941F15DC01CB018C0D9D1DAE1DBF1D4F
:1018200003C080E090E0DC018093ED029093EE0233
:10183000A093EF02B093F00227960FB6F894DEBFA4
:101840000FBECDBFDF91CF911F910F91FF90EF9011
:10185000DF90CF900895FC01848DDF01A80FB11DAA
:10186000A35ABF4F2C91848D90E001968F739927D6
:10187000848FA689B7892C93A089B1898C918064C3
:101880008C93938D848D981306C00288F389E02D84
:1018900080818F7D80830895EF92FF920F931F9335
:1018A000CF93DF93EC0181E0888F9B8D8C8D981313
:1018B00005C0E889F989808185FD24C0F62E0B8D4D
:1018C00010E00F5F1F4F0F731127E02E8C8DE81271
:1018D0000CC00FB607FCFACFE889F989808185FF33
:1018E000F5CFCE010E942B0CF1CF8B8DFE01E80FBE
:1018F000F11DE35AFF4FF0820B8FEA89FB8980814B
:10190000806207C0EE89FF896083E889F989808158
:101910008064808381E090E0DF91CF911F910F91EF
:10192000FF90EF900895CF93DF93EC01888D88238B
:10193000C9F0EA89FB89808185FD05C0A889B9893C
:101940008C9186FD0FC00FB607FCF5CF808185FF17
:10195000F2CFA889B9898C9185FFEDCFCE010E9485
:101960002B0CE7CFDF91CF910895CF93DF93CDB7C5
:10197000DEB7AA970FB6F894DEBF0FBECDBF78943E
:1019800084B5826084BD84B5816084BD85B5826084
:1019900085BD85B5816085BD80916E008160809335
:1019A0006E0010928100809181008260809381009E
:1019B00080918100816080938100809180008160AE
:1019C000809380008091B10084608093B100809109
:1019D000B00081608093B00080917A008460809331
:1019E0007A0080917A00826080937A0080917A00F8
:1019F0008E7F80937A0080917A00806880937A004D
:101A00001092C10085E00E940F0A61E085E00E940B
:101A10003B0261E070E080E090E00E94ED0281E036
:101A20008093E50188E6809307021092E601109208
:101A300008026EE086EA92E00E947B0164E086EA9A
:101A400092E00E947B0181E00E942E0A0E94E60A39
:101A500060E085E00E943B028091E7029091E802FD
:101A6000813E97402CF463E082E390E00E945006B0
:101A700083B7817F846083BF80E293E00E94CB07BD
:101A800080934C0184E893E00E94CB0791E08111A0
:101A900001C090E09093500182E593E00E94CB0753
:101AA000182F80934D0185E593E00E94CB0780932A
:101AB0004E0188E593E00E94CB0780934F018BE5B0
:101AC00093E00E94CB07809344011F3F41F41092A2
:101AD000440110924F0110924E0110924D018091DD
:101AE0004401982F937029F440E851E561E070E0DB
:101AF00016C0913029F440E05CE86AE070E00FC065
:101B0000923049F4109204011092050110920601DE
:101B1000109207010CC041E050E060E070E040939B
:101B2000040150930501609306017093070182FF41
:101B300004C091E09093460102C01092460183FFD9
:101B400003C091E090934B01982F907349F4109249
:101B50004701109248011092490110924A011CC09D
:101B6000903129F443E050E060E070E00DC0903225
:101B700029F444E050E060E070E006C0903361F486
:101B800045E050E060E070E0409347015093480129
:101B90006093490170934A0186FF03C081E08093FE
:101BA000450168E873E180E090E00E94ED0261E0A9
:101BB00088EE93E00E9450065E011AE0A10EB11C6F
:101BC000662477246A187B087AA669A664EB262E19
:101BD0006BE2362E61E1462E512C9EE088E10FB675
:101BE000F894A895809360000FBE90936000809158
:101BF0005501882351F18091510190915201A0919A
:101C00005301B09154010196A11DB11D8093510162
:101C100090935201A0935301B09354014091040159
:101C2000509105016091060170910701481759070D
:101C30006A077B0750F410925501109251011092DF
:101C4000520110925301109254011FB7F8948091E1
:101C50004001811124C0E5EAF0E08491E9EBF0E075
:101C60009491E82FF0E0EE0FFF1FEF56FF4FA59184
:101C7000B491EC91E92321F461E08AE00E943B02F7
:101C80008AE00E940F0A8CB580618CBD8CB580649F
:101C90008CBD8DE00E940F0A8BE00E940F0A80919C
:101CA00040018F5F809340011FBF8091BE020E9460
:101CB0000F0A61E08091BE020E943B028091BF0248
:101CC0000E940F0A2091BF0230E0F901EE58FF4F49
:101CD0008491F901E155FF4F1491F901E556FF4F49
:101CE000F490FF2079F081110E941202EF2DF0E0B4
:101CF000EE0FFF1FE859FF4FA591B491EC911E2301
:101D000009F0DEC561E08091BF020E943B0261E004
:101D100070E080E090E00E94ED0260E884E50E94BF
:101D2000970866E486E50E94970863E088E50E94CC
:101D3000970868EE8AE50E94970860E48AE20E94AC
:101D400097086DE382E20E94970860E78CE40E94A6
:101D5000970888E20E947308982F9370933029F0B7
:101D6000682F636088E20E94970882E08E8786E28F
:101D70008AA38CE10E947308682F6F778CE10E9420
:101D8000970887E08A87C12CE12C85019E01225F9C
:101D90003F4FAE014F5F5F4F61E0CE0182960E94E0
:101DA000FF08811108C08E85823009F011C58A852F
:101DB00081110EC503C0823009F00AC58CE10E9472
:101DC0007308682F6F778CE10E94970883E98983F5
:101DD000DD24D394712CF12C90E7692E00E2802E43
:101DE000F8101DC06A829C818B8189279D8189277B
:101DF0009E8189278F83AE01485F5F4F67E0CE01E8
:101E000001960E94C2088111DEC01E8613E0912E49
:101E10009A868E01095F1F4F480199E027C08F2DD8
:101E2000877887FF03C08150886F8F5F8E872F2D43
:101E3000F7FE02C027E02F0D25952595259532E068
:101E4000320F982F10E1319F900D11249A8391E069
:101E5000811101C090E0930F88248394912C8C0E03
:101E60009D1E830E911C87E0821B8A87EE846E2D57
:101E70006295607F6E0D8AE19CA30E949708C12C39
:101E80008E01025F1F4F9501A4019CA1692FCE0115
:101E900001960E94FF08823091F58CE10E94730840
:101EA00085FD96C48F7109F480E2282F30E04F2D14
:101EB000FF0C550B421753070CF08AC4F82EC901CA
:101EC00001978770992725952595259531E0320F43
:101ED00021E0009709F420E0230FE1E0F0E0EC0FAF
:101EE000FD1FE20FF11D21E030E002C0220F331F81
:101EF0008A95E2F7C9019081892B80836FCF811188
:101F000062C030E2F31619F080E2F82E6BCF8B81BD
:101F1000883819F453E043E002C052E044E080E026
:101F200090E0272D30E0FC01E20FF31FEE54FD4F4F
:101F3000652F680FA1E0B0E0AC0FBD1FA60FB11D6B
:101F40006C9161830196841770F38A85833009F060
:101F50003FC48E8581113CC4AE014D5F5F4F61E08F
:101F6000C4010E94C20881112EC09B81D401119628
:101F70008C91119798132CC49C8112968C91129776
:101F8000981326C48C9182FF15C0D394B2E0DB1263
:101F900005C085E9898333E0732E1DCFE3E0DE12AF
:101FA00005C087E9898326E0722E15CFF1E0DF12A4
:101FB0000FC40CCF8093BD028D2D880FD80ED39403
:101FC000D092B20202C0811103C461E085E00E9498
:101FD0003B0261E070E080E090E00E94ED020E9430
:101FE000E60A60E085E00E943B0280915001882370
:101FF00009F466C01092500160E084E893E00E940A
:10200000F00799E288E10FB6F894A89580936000F4
:102010000FBE90936000A89584E00E940F0A61E0D3
:1020200084E00E943B0268E873E180E090E00E9457
:10203000ED021AE0C12CD12C76010EE480917A00D9
:10204000806880937A0000937C006BE470E080E00D
:1020500090E00E94ED0280917A00806480937A0083
:1020600080917A0086FDFCCF2091780080917900E4
:1020700030E0382B032E000C440B550BC201B1018C
:102080000E94EE14C20ED31EE41EF51E1150B1F6CE
:1020900008E1C01609E7D006E104F10420F465E088
:1020A00082E390E003C061E084EF91E00E9450067B
:1020B00060E084E00E943B02A895E0E0F0E0099532
:1020C00084E00E94CF04882309F482C38091310107
:1020D0008F3F09F088C180913001209134019091A7
:1020E000350140914D0130913301431308C03091C7
:1020F0004E01321304C020914F01291711F064E002
:10210000AFC08A3F09F08CC0809137018093E6020E
:102110008091380190E08053984F9093E80280932B
:10212000E702809139018093E50280913B01809321
:10213000E40280913C018093E30280913D01809311
:10214000E2021E8E1F8E18A219A264E0CE014E96E6
:102150000E94B105882309F43BC361E085E00E9439
:102160003B0261E070E080E090E00E94ED0270913F
:10217000E2026091E3025091E4023091E502209185
:10218000E6028091E7029091E8024091E902813DE8
:10219000F7E09F071CF0805D10E802C08C5610E04D
:1021A00079836A835B834C833D832E838F8381E0B5
:1021B0008093E50188E6809307021092E601109271
:1021C000080260E086EA92E00E947B019E012F5F98
:1021D0003F4F490100E0AAE0FA2EF40180816F2D03
:1021E0000E94CE1430E1839F900D1124908305301E
:1021F00019F48E81810F8E834FEF841A940A6081C7
:1022000086EA92E00E947B010F5F073031F781E0A0
:102210000E942E0A60E085E00E943B0263E0DBC082
:102220008B3F09F5109137011A8E1B8E1C8E1D8E67
:1022300064E0CE014A960E94B105882309F4C8C221
:10224000112369F080914C01811739F010934C01F2
:10225000612F80E293E00E94F00765E0BCC066E079
:1022600082E390E0A7C18C3F09F054C01E8A1F8A08
:10227000188E198E64E0CE0146960E94B10588231F
:1022800009F4A6C210924D0160E082E593E00E943D
:10229000F00710924E0160E085E593E00E94F007A0
:1022A00010924F0160E088E593E00E94F007809172
:1022B0004501882329F060E08BE593E00E94F00758
:1022C00081E0809350016FEF84E893E00E94F00773
:1022D00064E084EF91E00E94500600E010E0F4E634
:1022E000EF2EF12CC801B7010E94DA14892B09F4F2
:1022F000A89560E0C8010E94C01465E070E080E02D
:1023000090E00E94ED020F5F1F4F0E3EF2E01F07AC
:1023100049F765C08D3F79F519821A821B821C82AC
:1023200080914C01898364E0CE0101960E94B10541
:10233000882309F44DC2C9A4DAA415E004E00A0D0B
:10234000A8957501C7018C0D9D1D0E94CD04D70174
:102350008D937D010A13F6CF612FC5010E94B1054F
:10236000882309F435C21F5FB4E0CB0ED11C1238AC
:1023700039F766E073C08E3F09F02AC260913701D9
:1023800060934D0182E593E00E94F007609138016F
:1023900060934E0185E593E00E94F007609139015A
:1023A00060934F0188E593E00E94F00760913A0145
:1023B000609344018BE593E00E94F0071A8A1B8A20
:1023C0001C8A1D8A64E0CE0142960E94B1058823D2
:1023D00009F4FEC162E084EF91E00E945006E0E063
:1023E000F0E00995F5C110914C01193F09F08DC03D
:1023F0006AE00E94CE14953039F0933039F096306F
:1024000009F0E6C108ED03C002E801C008E29091BE
:10241000430180912F01981324C090914201809133
:10242000300198131EC0809141018823D1F088E0CB
:102430000E94CF04882309F4CBC180912F01811120
:1024400010C08091300181110CC080913101811147
:1024500008C080913201811104C061E084EF91E0F5
:10246000A9C01092410180912F0180934301809176
:1024700030018093420184E00E940F0A61E084E011
:102480000E943B028FEF8E878F87888B898B18E0A5
:10249000A895612FCE010E960E94B105882309F4FC
:1024A00097C11F5F1013F4CF1A861B861C861D86EA
:1024B0001150A895612FC5010E94B105882309F428
:1024C00087C111501830A8F78091ED029091EE026B
:1024D0002091EF023091F00239832A839B838C8311
:1024E00065E0CE0101960E94B105882309F470C110
:1024F00060E084E00E943B0261E088EC90E00E9492
:10250000500681E08093410163C1183F09F055C036
:10251000811102C063E04CC08091330190E0A0E0E3
:10252000B0E0BA2FA92F982F882720913401820F6D
:10253000911DA11DB11DBA2FA92F982F8827209179
:102540003501820F911DA11DB11D209136014091D1
:10255000ED025091EE026091EF027091F002421B89
:10256000510961097109BA2FA92F982F88273A01BB
:102570004B01681A790A8A0A9B0A01EA601605E289
:10258000700606E28006910428F617E088E00E94B3
:10259000CF04882309F41CC11150C1F7EFE2F1E028
:1025A00080E18E0F91919111B5CF8E13FBCF61E039
:1025B00088EC90E00E9450060BC190914B0199234A
:1025C00009F43FC04091330130913401209135012D
:1025D000909136016091E7027091E802613E774088
:1025E00084F150E060E070E0762F652F542F44278F
:1025F000430F511D611D711D762F652F542F4427E8
:10260000420F511D611D711DC090ED02D090EE0270
:10261000E090EF02F090F002C91AD108E108F10849
:102620006624742E852E962EC618D708E808F90859
:1026300001EAC01605E2D00606E2E006F10408F061
:10264000C7C01092000180902F01912C982C8824F3
:1026500090913001890E911C8114910409F4B8C045
:102660006AE00E94CE144091470150914801609168
:10267000490170914A01433051056105710529F402
:1026800088E20E94190597E223C044305105610594
:10269000710539F4943098F088E40E94190597E4A4
:1026A00017C0453051056105710539F4963029F49C
:1026B00080E80E9419059FE70BC09530C9F393305D
:1026C000F9F2963009F084C080EE0E9419059FED62
:1026D000882309F47DC020910001121709F4BDCEB2
:1026E000981708F475C090914601992361F08830DD
:1026F00021F4103F09F06CC0F8C0253F09F468C010
:10270000103F09F465C0412F50E060E070E0342FC5
:102710002227112700274091ED025091EE0260918F
:10272000EF027091F0027727400F511F621F731F55
:1027300079836A835B834C83682FCE0101960E9464
:10274000B105882309F444C061E088EC90E00E9460
:102750005006C40101978F399F40E0F4840143E0A3
:10276000169507954A95E1F7C8010E94CD0427E028
:102770008222992441E050E060E070E004C0440F00
:10278000551F661F771F8A94D2F7682F642BC801E4
:102790000E94C01481E08093550110925101109263
:1027A000520110925301109254019FB7F8948091F6
:1027B0004001882319F081508093400180914001AD
:1027C000811105C08CB58F7B8CBD10922E019FBFEF
:1027D0008091040190910501A0910601B09107013B
:1027E0000097A105B10519F41092550107C0019792
:1027F000A105B10519F481E08093550100915501BF
:1028000081E080933F0110E0812F0E940F0A60E079
:10281000812F0E943B021F5F1431B1F710927A00A2
:10282000002309F45DC014BE88E18093600084E455
:1028300080936000A895F89483B7816083BF80E699
:1028400085BF80E485BF7894889583B78E7F83BFEA
:1028500010923F0180915001882379F103E099247F
:10286000939488E1C82E91E6D92E20E6E22E30E43A
:10287000F32E90923F0110E0812F0E940F0A60E03A
:10288000812F0E943B021F5F1431B1F710927A0032
:1028900014BEC0926000D0926000A895F89483B7EF
:1028A000816083BFE5BEF5BE7894889583B78E7F3F
:1028B00083BF10923F010150E1F60E94DC0A8DC9EE
:1028C0006FE082E00E94970861E070E080E090E0B5
:1028D0000E94ED0282E00E94730884FDFBCF1DCAB6
:1028E00088E18093600086E4A3CF253F09F00BCFF9
:1028F0006FCFE9E0F2E01382128288EE93E0A0E06D
:10290000B0E084839583A683B7832DE031E03183E3
:10291000208325EC30E03587248724EC30E03787AE
:10292000268720EC30E0318B208B21EC30E0338B9C
:10293000228B22EC30E0358B248B26EC30E0378B79
:10294000268B118E128E138E148EE6EAF2E013821D
:10295000128284839583A683B7838FE191E091836C
:102960008083E2EBF2E08AE0848789E0858708953E
:10297000F999FECF92BD81BDF89A992780B5089547
:10298000262FF999FECF1FBA92BD81BD20BD0FB68B
:10299000F894FA9AF99A0FBE01960895991B79E076
:1029A00004C0991F961708F0961B881F7A95C9F7DF
:1029B00080950895AA1BBB1B51E107C0AA1FBB1F2E
:1029C000A617B70710F0A61BB70B881F991F5A95BB
:1029D000A9F780959095BC01CD010895A1E21A2E2A
:1029E000AA1BBB1BFD010DC0AA1FBB1FEE1FFF1FB3
:1029F000A217B307E407F50720F0A21BB30BE40B03
:102A0000F50B661F771F881F991F1A9469F7609549
:102A10007095809590959B01AC01BD01CF01089503
:102A2000A29FB001B39FC001A39F700D811D11240F
:102A3000911DB29F700D811D1124911D08950E945A
:102A40001015A59F900DB49F900DA49F800D911D12
:102A500011240895EE0FFF1F0590F491E02D0994C5
:0E2A600081E090E0F8940C943515F894FFCFC7
:102A6E00FF00000080510100FF000000004C0C939D
:102A7E00009F0A930CD00AAE0AC20A000000007B27
:0E2A8E00014B01AB011F0143012F012001008C
:107E0000112484B714BE83FF04C09091FE089F33F1
:107E100008F4282E8D7029F080E0C9D0E0E0FF271B
:107E2000099400D01F92CDB7DEB785E08093810022
:107E300082E08093C00088E18093C10086E0809357
:107E4000C20080E18093C4008EE0B1D0259A26E084
:107E500080E39CEF31E0909385008093840036BBF3
:107E6000B09BFECF1D9AA8952150A9F7812C912C8B
:107E700093E0F92EEE24E39425E0D22E31E1C32ED7
:107E80008AD0813479F487D0898397D089818238E8
:107E900011F482E005C0813811F486E001C083E06E
:107EA00073D06FC0823411F484E103C0853419F4B7
:107EB00085E08BD066C0853541F46DD0882E6BD0BF
:107EC000912C982A880C991C5BC0863521F484E09B
:107ED0007CD080E0E5CF843609F036C05CD05BD042
:107EE000B82E59D0A82E00E011E055D0F8018193AA
:107EF0008F01BE12FACF61D0F5E4AF1201C0FFCFFF
:107F0000F401F7BEE89507B600FCFDCFB401A0E090
:107F1000B1E02C911296AD0141505109FA018081D6
:107F200030E0382BFB010901E7BEE89511246E5FB4
:107F30007F4FBA12EECFF401D7BEE89507B600FC2A
:107F4000FDCFC7BEE8951DC0843769F424D023D087
:107F5000B82E21D032D08401F80185918F0114D040
:107F6000BA94D1F70EC0853739F427D08EE10CD002
:107F700085E90AD08FE094CF813511F488E017D0DD
:107F80001CD080E101D07CCF9091C00095FFFCCF48
:107F90008093C60008958091C00087FFFCCF809138
:107FA000C00084FD01C0A8958091C6000895E0E658
:107FB000F0E098E1908380830895EDDF803219F03E
:107FC00088E0F5DFFFCF84E1DFCFCF93C82FE3DF79
:087FD000C150E9F7CF91F1CF98
:027FFE00020679
:0400000300007E007B
:00000001FF
