:100000000C9468000C9490000C9490000C94900058
:100010000C949E0A0C94330A0C94FB0A0C949000E6
:100020000C9490000C9490000C9490000C94900010
:100030000C9490000C9490000C9490000C94900000
:100040000C9412130C9490000C94010A0C94DB098C
:100050000C9490000C9490000C9490000C949000E0
:100060000C94F9010C94900000000000230026007D
:1000700029001F1C1F1E1F1E1F1F1E1F1E1F0000EA
:100080000000240027002A000000000025002800AE
:100090002B00040404040404040402020202020209
:1000A000030303030303010204081020408001023C
:1000B00004081020010204081020000000080002BB
:1000C0000100000304070000000000000000D61932
:1000D00011241FBECFEFD8E0DEBFCDBF11E0A0E0FE
:1000E000B1E0E6E7F5E302C005900D92AA34B1074E
:1000F000D9F723E0AAE4B1E001C01D92AF30B20706
:10010000E1F710E0C8E6D0E004C02197FE010E94AC
:10011000A51AC736D107C9F70E945C130C94B91A07
:100120000C94000085ED8093BC008091BC0084FDA0
:10013000FCCF10922002089540918A01262F30E0D2
:10014000240F311D21323105DCF4209120022430AE
:10015000C9F4FC0180E090E0861758F430918A01E0
:100160002191DC01A659BE4FA30FB11D2C9301961E
:10017000F3CF80918A01680F60938A0180E008952F
:1001800081E0089582E008950895E091D901809179
:10019000D801E81730F4F0E0E652FE4F808190E09D
:1001A00008958FEF9FEF08959091D9018091D80124
:1001B000981750F4E92FF0E0E652FE4F208130E02E
:1001C0009F5F9093D90102C02FEF3FEFC9010895BF
:1001D0008091D80190E02091D901821B9109089566
:1001E000CF92DF92EF92FF920F931F93CF93DF9303
:1001F0007C01CB018A0120912102222389F0EB01AD
:100200006B01C40ED51ECC15DD0569F06991D701CF
:10021000ED91FC910190F081E02DC7010995F3CF9C
:10022000642F0E949C00C801DF91CF911F910F9114
:10023000FF90EF90DF90CF900895CF93DF931F92C0
:10024000CDB7DEB76983209121022223D1F020911E
:100250004402203240F021E030E0FC01338322836D
:1002600080E090E015C080912202E82FF0E0ED5D83
:10027000FD4F998190838F5F809322028093440287
:1002800005C061E0CE0101960E949C0081E090E0F3
:100290000F90DF91CF910895089580E090E0089548
:1002A00081E08093C401089588EC99E09093150152
:1002B000809314018091C8018E7F8093C801809142
:1002C000B4018E7F8093B40180916D008E7F809306
:1002D0006D0080916D00811105C0809168008B7F59
:1002E000809368000895FF920F931F93CF93DF933D
:1002F0008C01F62EC0E0D0E06F2DC8018C0F9D1F41
:100300000E94271A2196C330D105B1F7DF91CF9112
:100310001F910F91FF9008958091B501882361F09E
:100320009FB7F8942091B5018091AD01213019F467
:100330008DBB9FBF08958FBF08958EBD00000DB483
:1003400007FEFDCF8EB508952091B501222379F0E7
:100350002FB7F8943091B501313039F43DB3309373
:10036000AD013DB33DBB2FBF02C02093AD018CBD9D
:100370009DBD08951F93CF93DF93EC01162F83E566
:1003800090E00E94A40160E08E850E941612812FE9
:1003900080680E949D0180E00E949D01182F61E00D
:1003A0008E850E9416120E948C01812FDF91CF91C1
:1003B0001F9108950F931F93CF93DF93EC01062FA6
:1003C000142F83E590E00E94A40160E08E850E94D6
:1003D0001612802F0E949D01812F0E949D0161E0D5
:1003E0008E850E941612DF91CF911F910F910C9470
:1003F0008C011F920F920FB60F9211242F933F93EF
:100400004F935F936F937F938F939F93AF93BF931C
:10041000EF93FF938091B900887F803609F49CC0E8
:1004200068F5883209F45BC090F4803109F454C057
:1004300038F4882309F4F2C0883009F44DC0F2C0C2
:10044000883109F44CC0803209F45DC0EBC08034BF
:1004500009F468C048F4803309F455C0883309F0C2
:10046000E1C080931E02D4C0803509F44FC08835A6
:1004700009F45DC0883409F0D5C0D2C0883909F4C8
:10048000C3C0A8F4883709F467C038F4883609F483
:1004900063C0803709F460C0C5C0883809F4B4C0AF
:1004A000803909F45FC0803809F0BCC05BC0803B74
:1004B00009F484C038F4803A09F466C0883A09F433
:1004C0007DC0B0C0803C09F4A3C0883C09F4A0C042
:1004D000883B09F486C0A6C08091FB0110C09091B2
:1004E0001D0280911C02981770F5E0911D0281E0B9
:1004F0008E0F80931D02F0E0E450FE4F80818093C8
:10050000BB0085EC82C080931E028AC0E0911D0270
:1005100081E08E0F80931D028091BB00F0E0E450DB
:10052000FE4F808390911D0280911C026AC0E09171
:100530001D0281E08E0F80931D028091BB00F0E0D0
:10054000E450FE4F808380911F02811169C081E0D9
:100550008093FA0184EA5DC083E0809320021092C8
:10056000AC01CFCF8091AC01803208F04DC0E0915A
:10057000AC0181E08E0F8093AC018091BB00F0E074
:10058000E457FE4F8083BDCF85EC8093BC00109272
:1005900020028091AC01803230F4E091AC01F0E0B7
:1005A000E457FE4F10826091AC0170E08CE891E05E
:1005B000E0E0F0E009951092AC0134C084E0809353
:1005C000200210928B0110928A01E0E0F0E0099580
:1005D00080918A01811105C081E080938A01109287
:1005E0006A01E0918B0181E08E0F80938B01F0E036
:1005F000E659FE4F80818093BB0090918B018091E2
:100600008A01981708F47DCF85E88093BC000AC062
:1006100085EC8093BC001092200204C010921E0250
:100620000E949200FF91EF91BF91AF919F918F91A6
:100630007F916F915F914F913F912F910F900FBEDE
:100640000F901F9018958F92AF92BF92CF92DF922A
:10065000EF92FF920F931F93CF93DF93182FEB012D
:100660006A0190E0039763E070E00E94411A135022
:10067000160F812F80958370810F0E9410108111B9
:1006800025C0209719F1F60180818231F8F080E3CE
:10069000888319839E012E5F3F4F42E0BE0186EFA3
:1006A00092E00E944D0C811111C081E08F93812C4A
:1006B000A12CB12C7E0104E09E0140E36CE086EFAA
:1006C00092E00E94990C91E00F90811190E0892FA7
:1006D000DF91CF911F910F91FF90EF90DF90CF901E
:1006E000BF90AF908F900895CF93DF93CDB7DEB7D3
:1006F00063970FB6F894DEBF0FBECDBF82E18B8B40
:10070000AE014D5E5F4FBE016F5F7F4F85E00E947F
:1007100023038823B9F00E940F118C814091D401EA
:100720005091D5016091D6017091D701481B5109B4
:100730006109710981E040385E4D6842710518F425
:1007400080E001C081E063960FB6F894DEBF0FBE73
:10075000CDBFDF91CF9108958F929F92AF92BF92BC
:10076000CF92DF92EF92FF920F931F93CF93DF937D
:10077000CDB7DEB763970FB6F894DEBF0FBECDBF1F
:100780005C016B01FC011082FB01108292E3992E47
:1007900028E0F22E32E1832E092D10E00F0D111DFD
:1007A00015950795E02E8B8AF2E0F017F0F4AE0174
:1007B0004D5E5F4FBE016F5F7F4F802F0E9423030E
:1007C000882399F08981811102C0902E03C00F15F2
:1007D00021F0F02EF91400F302C0F394FBCF811145
:1007E000E394F501E082F601808363960FB6F894F6
:1007F000DEBF0FBECDBFDF91CF911F910F91FF9054
:10080000EF90DF90CF90BF90AF909F908F90089522
:10081000AF92BF92CF92DF92EF92FF920F931F930E
:10082000CF93DF93062F10E0C0E0D0E06C01E12C05
:10083000F12C580181E0A81AB108C017D10701F1C5
:10084000A89561E084E00E94161261E083E00E94B6
:100850001612C701B6010E94B312A89560E084E0A9
:100860000E94161260E083E00E941612CA15DB0592
:100870002CF4C701B6010E94B312A8952196DDCFD2
:10088000DF91CF911F910F91FF90EF90DF90CF906C
:10089000BF90AF9008958F929F92AF92BF92CF92E8
:1008A000DF92EF92FF921F93CF93DF93D82FA895FB
:1008B00061E084E00E94161268E873E180E090E055
:1008C0000E94B312CAE0C12CD12C76011EE484EB45
:1008D000882E8BE2982E81E1A82EB12C80917A008F
:1008E000806880937A0010937C0065E070E080E07F
:1008F00090E00E94B31280917A00806480937A0025
:1009000080917A0086FDFCCF20917800809179005B
:1009100030E0382B032E000C440B550B80917A00ED
:10092000805880937A00C501B4010E94551AC20E06
:10093000D31EE41EF51EC15089F660E084E00E94DB
:1009400016126AEF70E080E090E00E94B312A89562
:1009500088E1C81689E7D806E104F10448F0DD23F0
:1009600029F061E084EF91E00E94080481E008C072
:10097000DD2329F065E082E390E00E94080480E036
:10098000DF91CF911F91FF90EF90DF90CF90BF90BC
:10099000AF909F908F900895CF93DF93C0E0D0E009
:1009A000A89560E0CE010E94271A62E070E080E026
:1009B00090E00E94B3122196C53BD10589F7DF91E3
:1009C000CF9108950F931F93CF93DF938C010E94D3
:1009D0001F1AC82FC80101960E941F1AD82FC801DC
:1009E00002960E941F1ACD1759F0C81751F0D81758
:1009F00041F062E082E390E00E94080480E001C0E0
:100A00008C2FDF91CF911F910F9108958093C0019A
:100A10001092BB011092BC011092BD011092BE0158
:100A20008091BF0181FF04C081E08093C0010895DF
:100A3000837011F01092C00108950F931F93CF930C
:100A4000DF93EC0104E511E08091C4018111D8C06D
:100A50008BE492E00E941B09181619060CF4D0C012
:100A600060E089E00E94161260E084E00E941612A5
:100A700060E083E00E9416121093150100931401A8
:100A80008091C80181608093C8018091B401816028
:100A90008093B40189B18093B00180916D00816031
:100AA00080936D0080916800846080936800A895B1
:100AB000C0348FE1D8070CF043C0209709F440C040
:100AC000C03A4FE0D407E4F4C03D87E0D807E4F42F
:100AD000C83E43E0D407E4F4C43F81E0D807E4F41F
:100AE000CA3FD105ECF4C837D105F4F4CC33D105B5
:100AF000FCF4CE31D10504F52FE030E080E023C0D6
:100B000020EA3FE088E01FC020ED37E087E01BC00F
:100B100028EE33E086E017C024EF31E085E013C013
:100B20002AEF30E084E00FC028E730E083E00BC01C
:100B30002CE330E082E007C02EE130E081E003C02A
:100B400020E43FE189E083FD02C090E001C090E233
:100B50008770892BF89494B7977F94BF9091600029
:100B60009861909360008093600080916000806441
:100B700080936000789483B7817F846083BF83B75C
:100B8000816083BF889583B78E7F83BF83B78E7F55
:100B900083BF8091E8029091E9028F3F4FEF940765
:100BA00081F083FD02C048E001C048E28770842BD9
:100BB00098E10FB6F894A895909360000FBE8093CB
:100BC00060004091BB015091BC016091BD017091EA
:100BD000BE01C901032E000CAA0BBB0B840F951F8D
:100BE000A61FB71F8093BB019093BC01A093BD01CA
:100BF000B093BE012C173D0718F4C21BD30B24CFB2
:100C0000DF91CF911F910F9108959091BA0198179C
:100C100059F090EE980F913538F48093BA01682F0F
:100C20008DEF93E00C9473010895AF92BF92CF9231
:100C3000DF92EF92FF920F931F93CF93DF93CDB785
:100C4000DEB729970FB6F894DEBF0FBECDBF302FA9
:100C50008E010F5F1F4F55E0D8011D925A95E9F79D
:100C60005FE0E9ECF1E0DF011D925A95E9F760934E
:100C7000CD016093C1019093CF018093CE019093F9
:100C8000C3018093C2014093CC012093CB013093E8
:100C9000CA01E092C9010E94CA0BF090CC01809178
:100CA000CB019091CA012091C9012E839F8388872F
:100CB000F98681E08093210288E6809343021092B6
:100CC00022021092440287E090E00E94C1108F2D12
:100CD0006AE00E94351AB0E18B9F900D1124E92E35
:100CE000F12C6E01E6E0CE0ED11CB12C8AE0A82ECC
:100CF000F3E0BF120FC08C8140E8849F9001112463
:100D00009D81A0E49A9FC0011124822B932B8E29F0
:100D10009F2911C0F60180816A2D0E94351A292F62
:100D2000F0E18F9F200D1124D8018C91B0E88B9FAA
:100D3000C0011124822B0E94C110B394EFEFCE1A90
:100D4000DE0A0F5F1F4FF4E0BF12D2CF0E94651082
:100D500029960FB6F894DEBF0FBECDBFDF91CF91BD
:100D60001F910F91FF90EF90DF90CF90BF90AF90C9
:100D700008959091BF01981739F08093BF01682FB3
:100D80008AEF93E00C94730108959091B60198173F
:100D900049F0882339F08093B601682F8EEE93E0F6
:100DA0000C94730108959091B701981308C0909125
:100DB000B801961304C09091B9019417C1F0962F11
:100DC000682F8093B7019093B8014093B90181EFE8
:100DD00093E00E9473016091B80184EF93E00E9458
:100DE00073016091B90187EF93E00C94730108954A
:100DF0002F923F924F925F926F927F928F929F922B
:100E0000AF92BF92CF92DF92EF92FF920F931F9318
:100E1000CF93DF93CDB7DEB7A0970FB6F894DEBFC0
:100E20000FBECDBF29EC822E21E0922E32E0732E30
:100E30004EEF642E5FEE552E69E6462E8FED382E6E
:100E40009FE0292E8BE492E00E941B09892B09F474
:100E50007EC10091B10110E08BE492E00E94F9089C
:100E6000F801E65BFE4F80838091B1018F5F809334
:100E7000B101823090F090E0865B9E4FFC0131978B
:100E800020812F3E51F4319780818E3F31F4809341
:100E90004A0120934B017092B1012091B10122309F
:100EA00008F448C1822F90E0AC01465B5E4FFA0126
:100EB000319730813F3D09F03DC1319730813D3F51
:100EC00009F038C162E030E00397462F50E0481740
:100ED00059073CF4FA01E65BFE4F408134276F5F0F
:100EE000F4CFFC01E65BFE4F808138131CC180917A
:100EF0004C01803F21F0813F09F49FC014C125308F
:100F000090F090914D018091B70198130CC0909191
:100F10004E018091B801981306C090914F018091C5
:100F2000B901981721F064E082E390E0FFC080E00F
:100F30000E944B04182F0E940F1169825A824B8223
:100F40008091B6018C838091BF018D831E83809137
:100F5000C0018F838091D4019091D5012091D60159
:100F60003091D701388729879A878B8787E00E943D
:100F7000970B0E94050B8093C90188E00E94970B94
:100F80000E94050B8093CA0189E00E94970B0E9482
:100F9000050B8093CB018AE00E94970B0E94050B02
:100FA0008093CC01E090C101E092CD019091C2010B
:100FB0002091C301F92E9093CE012093CF01A090F0
:100FC000C901B090CA01C090CB01D82E022F109158
:100FD000D0012091D1013091D2014091D3015091A3
:100FE000D4016091D5017091D6018091D7010E9402
:100FF0000E0B6093D4017093D5018093D60190932A
:10100000D7019C878D877E876F878091BA01888BF7
:10101000898B2DEF2A8B3B8A43E150E0BE016F5F45
:101020007F4F8BE492E00E94C008A89568EE73E0C1
:1010300080E090E00E94B31274C0273108F473CFAF
:1010400090914D018091B70198136DCF90914E0111
:101050008091B801981367CF90914F018091B901A9
:10106000981361CFA0905501B0905401C0905301E6
:10107000D0905201E09051018091500190E0805356
:10108000984FF401222D11922A95E9F7E092CD01B3
:10109000F82E9093CF018093CE01D092CC01C092D4
:1010A000CB01B092CA01A092C9010091CF01109169
:1010B000D0012091D1013091D2014091D3015091C2
:1010C000D4016091D5017091D6018091D7010E9421
:1010D000D20B4091580160915701809156010E94B6
:1010E000D306809159010E94C50680915A010E9441
:1010F000B90680915B0190E0E090600100915F0192
:1011000020915E0140915D0160915C018053984F98
:101110000E941506809161010E94050682E00E94EE
:10112000060561E001C062E08AEF90E00E940804D9
:101130001092B1018091B101803208F483CE1092F7
:10114000B10162E08AEF90E00E94080477CEA09699
:101150000FB6F894DEBF0FBECDBFDF91CF911F91C8
:101160000F91FF90EF90DF90CF90BF90AF909F9046
:101170008F907F906F905F904F903F902F90089549
:10118000CF92DF92EF92FF920F931F93CF93DF9353
:101190006C017A018B01C0E0D0E0CE15DF0581F053
:1011A000D8016D918D01D601ED91FC910190F081F6
:1011B000E02DC6010995892B11F02196EECF7E0115
:1011C000C701DF91CF911F910F91FF90EF90DF90BA
:1011D000CF900895FC01538D448D252F30E0842F4E
:1011E00090E0821B930B541710F0CF96089501974F
:1011F0000895FC01918D828D981761F0828DDF0139
:10120000A80FB11D5D968C91928D9F5F9F73928FF9
:1012100090E008958FEF9FEF0895FC01918D828DEE
:10122000981731F0828DE80FF11D858D90E00895BB
:101230008FEF9FEF0895FC01918D228D892F90E013
:10124000805C9F4F821B91098F73992708958BE4CF
:1012500092E00E941B0921E0892B09F420E0822FF3
:101260000895FC01848DDF01A80FB11DA35ABF4F63
:101270002C91848D90E001968F739927848FA68995
:10128000B7892C93A089B1898C91837080648C93E9
:10129000938D848D981306C00288F389E02D808198
:1012A0008F7D80830895EF92FF920F931F93CF93CA
:1012B000DF93EC0181E0888F9B8D8C8D981305C0A6
:1012C000E889F989808185FD26C0F62E0B8D10E016
:1012D0000F5F1F4F0F731127E02E8C8DE8120CC08B
:1012E0000FB607FCFACFE889F989808185FFF5CF31
:1012F000CE010E943109F1CF8B8DFE01E80FF11D67
:10130000E35AFF4FF0829FB7F8940B8FEA89FB896D
:10131000808180620AC09FB7F894EE89FF8960835C
:10132000E889F98980818370806480839FBF81E030
:1013300090E0DF91CF911F910F91FF90EF90089572
:10134000CF93DF93EC01888D8823C9F0EA89FB896C
:10135000808185FD05C0A889B9898C9186FD0FC063
:101360000FB607FCF5CF808185FFF2CFA889B98938
:101370008C9185FFEDCFCE010E943109E7CFDF913F
:10138000CF9108950E94270981110C94F8060895C1
:101390000895BC016E5F7F4FDC01ED91FC910190DF
:1013A000F081E02D40E0099591E0811190E0892FD6
:1013B00008950E94AB1A1F920F920FB60F9211243C
:1013C0002F933F934F935F936F937F938F939F934D
:1013D000AF93BF93EF93FF938BE492E00E943109A8
:1013E000FF91EF91BF91AF919F918F917F916F91FD
:1013F0005F914F913F912F910F900FBE0F901F90D3
:1014000018951F920F920FB60F9211242F938F935E
:101410009F93EF93FF93E0915B02F0915C028081D8
:10142000E0916102F091620282FD12C09081809190
:1014300064028F5F8F7320916502821751F0E091F3
:101440006402F0E0E55BFD4F958F8093640201C07C
:101450008081FF91EF919F918F912F910F900FBEFF
:101460000F901F9018951F920F920FB60F92112494
:101470002F933F934F935F936F937F938F939F939C
:10148000AF93BF93CF93EF93FF9329B1C091B00176
:10149000822F8C279091C80192233091B401C323ED
:1014A000C92BC8232093B001C4FF05C0E0910C01F3
:1014B000F0910D010995C5FF05C0E0910E01F09175
:1014C0000F010995C6FF05C0E0911001F0911101CF
:1014D0000995C7FF05C0E0911201F091130109952C
:1014E000C0FF05C0E0911401F09115010995C1FFFD
:1014F00005C0E0911601F09117010995C2FF05C0E2
:10150000E0911801F09119010995C3FF05C0E09120
:101510001A01F0911B010995FF91EF91CF91BF91B5
:10152000AF919F918F917F916F915F914F913F917B
:101530002F910F900FBE0F901F9018951F920F9232
:101540000FB60F9211242F933F934F935F936F9396
:101550007F938F939F93AF93BF93CF93EF93FF931B
:1015600026B1C091AF01822F8C279091C7019223A1
:101570003091B301C323C92BC8232093AF01C0FF0F
:1015800005C0E0910201F09103010995C1FF05C07A
:10159000E0910401F09105010995C2FF05C0E091B9
:1015A0000601F09107010995C3FF05C0E091000114
:1015B000F09101010995C4FF05C0E0910801F09187
:1015C00009010995C5FF05C0E0910A01F0910B01E1
:1015D0000995FF91EF91CF91BF91AF919F918F911D
:1015E0007F916F915F914F913F912F910F900FBE1F
:1015F0000F901F9018951F920F920FB60F92112403
:101600000F900FBE0F901F901895982F92959F7076
:101610008F702AE0929F800D11240895AF92BF929F
:10162000CF92DF92EF92FF920F931F93CF93DF93AE
:10163000CDB7DEB72F970FB6F894DEBF0FBECDBF84
:10164000A982BA82CB82FE820F834E815F81403DA8
:1016500007E050070CF457C03E2DBA01605D77409B
:101660008D2D90E00197E2E7F0E021E0231730F4C0
:10167000A4918A0F911D2F5F3196F8CF333030F04F
:101680009B0123703327232B09F401964D5C5740AF
:101690005595479555954795EDE6F1E06E9F90017C
:1016A0006F9F300D7E9F300D1124240F351F280FA2
:1016B000391FA8E1B0E00E94771A2B817B018C01D1
:1016C000E20EF11C011D111DA8019701ACE3B0E071
:1016D0000E94861A2A817B018C01E20EF11C011DF9
:1016E000111DA80197010E94861A2981022F10E07E
:1016F00020E030E000581C4B2249374C600F711F2E
:10170000821F931F03C060E070E0CB012F960FB6DD
:10171000F894DEBF0FBECDBFDF91CF911F910F9127
:10172000FF90EF90DF90CF90BF90AF90089591E041
:101730009093210298E69093430210922202109215
:101740004402682F8AEE92E00E941D010E946510FB
:1017500081E090E00E94C6108AEE92E00E94D400E0
:101760000895CF93C62F91E09093210298E690932D
:1017700043021092220210924402682F8AEE92E0F5
:101780000E941D016C2F8AEE92E00E941D01CF91F4
:101790000C9465108FE00E94970B682F6E7F8FE08E
:1017A0000C94B10BAF92BF92CF92DF92EF92FF9267
:1017B0000F931F93CF93DF93CDB7DEB766970FB626
:1017C000F894DEBF0FBECDBFA886B986CA86DB8679
:1017D000EC86FD860E871F87288B398B4A8B5B8BA7
:1017E0006C8B7D8B8E8B8D859E85813D27E092074E
:1017F00024F0805D90E8E92E02C08C56E12C98859B
:10180000998399859A839A859B839F859C839B85E1
:101810009D839C859E838F8381E08093210288E64F
:1018200080934302109222021092440280E090E0E2
:101830000E94C1108E010F5F1F4FF12C8AE0D82E3D
:10184000F80180816D2D0E94351AA0E18A9F900DCC
:1018500011249083B5E0FB1203C08E818E0D8E8320
:101860000F5F1F4F60818AEE92E00E941D01F3948A
:1018700027E0F212E5CF66960FB6F894DEBF0FBEF2
:10188000CDBFDF91CF911F910F91FF90EF90DF902F
:10189000CF90BF90AF900C946510CF92DF92EF92F3
:1018A000FF920F931F93CF93DF93EC016B01142FE3
:1018B000790140E062E00E94DA0144E06AE0CE0192
:1018C0000E94DA0140E864E1CE010E94DA01A6013B
:1018D000612FCE010E94451243E062E0CE010E94DA
:1018E000DA0108E813E16AE0CE010E94BA0182FF42
:1018F00013C040E062E0CE010E94DA0164E4CE0150
:101900000E94BA01F701808362E4CE010E94BA010D
:10191000F701818380E004C00150110921F783E0C1
:10192000DF91CF911F910F91FF90EF90DF90CF90BB
:1019300008953F924F925F926F927F928F929F9203
:10194000AF92BF92CF92DF92EF92FF920F931F93CD
:10195000CF93DF9300D0CDB7DEB73C01162F942E86
:101960002901A114B10419F0F501408101C040E042
:10197000342EF0E18F9E300C112440E062E0C30170
:101980000E94DA014FE768E0C3010E94DA0140E8F3
:1019900064E1C3010E94DA01A201602FC3010E9429
:1019A0004512432D6AE1C3010E94DA01412F62E032
:1019B000C3010E94DA011C3051F46AE1C3010E94A4
:1019C000BA01482F40686AE1C3010E94DA0100EDC4
:1019D00017E068E0C3010E94BA01982F992139F4F9
:1019E00080FD03C001501109A1F783E0A0C06CE0A5
:1019F000C3010E94BA01982E837109F095C0E114C9
:101A0000F10409F459C0C114D10409F455C064E1CA
:101A1000C3010E94BA01582EF6018081851508F491
:101A20007DC050825520E9F183E590E00E94A40139
:101A300060E0F30186850E9416125A9482E90E94A2
:101A40009D018820A1F00FEF10E001C0000F8A94E3
:101A5000EAF782E90E949D01202F2095F7019081ED
:101A600092238023892B80838824839401C0812C36
:101A7000082D10E00E0D1F1D851438F482E90E9418
:101A80009D01F80180838394F3CF80E00E949D0143
:101A9000F801808361E0F30186850E9416120E949E
:101AA0008C0168E1C3010E94BA018770A114B104DE
:101AB00021F0F501808301C080E093FC31C0E11486
:101AC000F10481F1C114D10469F19E89992351F186
:101AD000F6014081413021F4843041F58FEF27C079
:101AE000423020F1811122C042509E012F5F3F4FB2
:101AF000B701C3010E944D0C811119C0F60180810C
:101B0000E80EF11CF70132979081898198130EC07D
:101B1000319690818A81981309C004C084E007C07F
:101B200082E005C080E003C081E001C087E00F9043
:101B30000F90DF91CF911F910F91FF90EF90DF9069
:101B4000CF90BF90AF909F908F907F906F905F905D
:101B50004F903F9008950F931F93CF93DF938C0185
:101B6000D62FC42F0E94BA01C0954C2F48236D2F49
:101B7000C801DF91CF911F910F910C94DA016F9200
:101B80007F928F92AF92BF92CF92DF92EF92FF92AD
:101B90000F93CF93DF9300D000D01F92CDB7DEB765
:101BA0003C0182E08D8340E064E2C3010E94DA01DF
:101BB00040E066E2C3010E94DA0146E268E4C30144
:101BC0000E94DA0186E28B838D81823020F140E829
:101BD0006CE1C3010E94AB0D87E08C831F92812CC6
:101BE000CE0104965C0101966C0104977C0101E032
:101BF0009E012D5F3F4F40E36CE0C3010E94990CB2
:101C00000F9081110BC08D81823039F481E09C816D
:101C1000911104C008C084E001C081E091E08230ED
:101C200019F090E001C091E0892F0F900F900F9074
:101C30000F900F90DF91CF910F91FF90EF90DF9079
:101C4000CF90BF90AF908F907F906F9008952F921C
:101C50003F924F925F926F927F928F929F92AF923C
:101C6000BF92CF92DF92EF92FF920F931F93CF9389
:101C7000DF93CDB7DEB72D970FB6F894DEBF0FBE5A
:101C8000CDBF413508F004C14D872B013C0140E830
:101C90006CE10E94AB0D31E03C878C85823091F085
:101CA0008330F1F0813009F0F5C083E989839D85A7
:101CB0009923D9F081E0F2019081953008F480E019
:101CC000912C18C0F5E9F9833D85332381F081E03B
:101CD000F2019081983008F480E043E0942E0AC02D
:101CE00087E9898336E0932E04C0912C02C023E05B
:101CF000922E80E01D85F8E09F9E1019112417FD9B
:101D000010E0882321F098E89B8333E001C032E0A3
:101D100021E0912F977009F420E0912F95959595EA
:101D20009595290F29F4882309F491C0185F8FC075
:101D3000811102C094E001C093E0291708F4922FAA
:101D4000E92DF0E03196E40DF51D232F4191A1E03E
:101D5000B0E0AC0FBD1FA20FB11D4C932F5F422FFF
:101D6000431B491798F3DFCF8111DFC010320CF00D
:101D700093C010E230E73A839B818C8189279D8153
:101D800089279E8189278F839E01285F3F4F47E0E7
:101D9000BE016F5F7F4FC3010E944D0C8111A3C034
:101DA0001A8683E08B87FE0137961F0109E08A843B
:101DB000482D4295407F480D6AE1C3010E94DA0137
:101DC0001F92CE010A965C01FE013B966F017101E4
:101DD0009E012F5F3F4F40E36CE0C3010E94990CCE
:101DE000082F0F90823009F0BFCF6CE1C3010E9431
:101DF000BA0185FD9AC08F7109F480E2282F30E086
:101E0000412F110F550B421753070CF043C0182FE9
:101E1000822F85958595859591E0980F422F477083
:101E200081E009F480E0890FE1E0F0E0EC0FFD1FB4
:101E3000E80FF11D215031092770332781E090E030
:101E400001C0880F2A95EAF79081892B8083103290
:101E50000CF090CF912F97709A87812F859585955B
:101E600085958E5F292FF0E18F9F200D11242A8305
:101E700001E0911101C000E0080F22242394312CCD
:101E80002C0E3D1E280E311C39E0381B3B878FCFAE
:101E900006E04BC005E049C08B81883809F442C098
:101EA00082E094E0E92DF0E03196E40DF51D980F05
:101EB000A1E0B0E0AC0FBD1FA80FB11D2C91219384
:101EC0008F5F8913F5CF8B85833041F58A8581112A
:101ED00025C09E012D5F3F4F41E0B101C3010E942B
:101EE0004D0C882311F0082F20C09B81F1018181C6
:101EF000981316C09C818281981312C0808182FF42
:101F000004C0FC85FF5FFC87C8CEF20183878C8507
:101F1000880F9C84980E9394908207C001E005C0BE
:101F200007E003C083E093E0BDCF802F2D960FB66E
:101F3000F894DEBF0FBECDBFDF91CF911F910F91FF
:101F4000FF90EF90DF90CF90BF90AF909F908F90D9
:101F50007F906F905F904F903F902F9008958F9259
:101F6000AF92BF92CF92DF92EF92FF920F93CF93F7
:101F7000DF93CDB7DEB764970FB6F894DEBF0FBE20
:101F8000CDBF062FE62EF12CA701BC01CE01019694
:101F90000E94B01A21E030E02C0F3D1F2E0D3F1D96
:101FA000402FBE016F5F7F4F86EF92E00E944D0C85
:101FB000811125C082E18C8B1B8A0E5F1F92812CC0
:101FC000CE0143965C0101966C0143977C019C0114
:101FD00040E36CE086EF92E00E94990C0F90811133
:101FE0000EC08C89813051F48B89843039F481E0C2
:101FF00099819A3009F480E0819501C081E064966E
:102000000FB6F894DEBF0FBECDBFDF91CF910F9119
:10201000FF90EF90DF90CF90BF90AF908F9008959A
:102020008F92AF92BF92CF92DF92EF92FF920F9377
:10203000CF93DF93CDB7DEB72C970FB6F894DEBF02
:102040000FBECDBF90E699838A8385E492E0AE010E
:102050004D5F5F4FDE011996FC012191CF01FA011E
:102060002193AF01EA17FB07B9F7E091F802F0E01E
:10207000EB50FD4FCE010D9621912D93A817B90776
:10208000D9F71F92812CA12CB12CC12CD12CE12C81
:10209000F12C0CE09E012F5F3F4F40E16EE086EF98
:1020A00092E00E94990C0F902C960FB6F894DEBF28
:1020B0000FBECDBFDF91CF910F91FF90EF90DF90DA
:1020C000CF90BF90AF908F900895309144023132FD
:1020D00008F04BC0809120028111FCCF9091430207
:1020E00022E02093200221E020931F022FEF209373
:1020F0001E0210921D0230931C02E3E2F2E0ACEFEC
:10210000B1E020E0321721F041914D932F5FFACFDB
:102110001092FB012091FB01990F922B9093FB01F0
:102120009091FA01913061F41092FA019091FB01C3
:102130009093BB009091BC0093FDF8CF95EC01C04B
:1021400095EE9093BC00909120029230E1F3909133
:102150001E029F3F79F080911E02803241F08091F3
:102160001E02803331F084E005C081E003C082E0CC
:1021700001C083E0109222021092440210922102C8
:102180000895682F8AEE92E00C941D019091200230
:102190009111FCCF982F813208F090E281E080937A
:1021A000200280931F022FEF20931E0210921D0227
:1021B000290F20931C028093FB018091FB01806D0D
:1021C0008093FB018091FA01813061F41092FA0151
:1021D0008091FB018093BB008091BC0083FDF8CF10
:1021E00085EC01C085EE8093BC0080912002813097
:1021F000E1F380911D02891710F490911D02ECEF1C
:10220000F1E0AAEDB1E080E0891721F021912D9352
:102210008F5FFACF1092D9018093D8010895AF92C1
:10222000BF92CF92DF92EF92FF920F931F93CF93C3
:10223000DF93CDB7DEB727970FB6F894DEBF0FBE9A
:10224000CDBF81E08093210288E680934302109203
:1022500022021092440280E090E00E94C1100E948D
:10226000651087E090E00E94C610CE0101967C01C7
:10227000D12C10E08AEE92E00E94D400082F153095
:1022800049F48F710E94050B8E83D02EDD1CDD2456
:10229000DD1C04C00E94050BF70180831F5FFFEF68
:1022A000EF1AFF0A173031F74F8181E0D81205C0CD
:1022B000842F90E08053984F04C0842F90E084597D
:1022C000984FA980A092C901BA80B092CA01CB8070
:1022D000C092CB01DD80D092CC01EE80E092CD01A6
:1022E000F82E9093CF018093CE011C811093D001E2
:1022F0004093D3010091CF012091D1013091D201BF
:102300005091D4016091D5017091D6018091D7018F
:102310000E940E0B6093D4017093D5018093D60177
:102320009093D70127960FB6F894DEBF0FBECDBFAE
:10233000DF91CF911F910F91FF90EF90DF90CF90A1
:10234000BF90AF900895EF92FF921F93CF93DF93CA
:1023500000D0CDB7DEB7182F7B0190E0039763E084
:1023600070E00E94411A1350160F812F80958370E0
:10237000810F0E941010811115C0E114F10479F051
:1023800080EA89831A8362E0CE0101960E94AF0F32
:10239000811106C060E1C7010E94AF0F01C086E055
:1023A00091E0811190E0892F0F900F90DF91CF91F4
:1023B0001F91FF90EF90089568E286EF92E00E94EF
:1023C000BA01982F9370933039F0482F436068E238
:1023D00086EF92E00C94DA010895833081F028F4BE
:1023E000813099F08230A1F008958730A9F08830CB
:1023F000B9F08430D1F4809180008F7D03C080914A
:1024000080008F7780938000089584B58F7702C015
:1024100084B58F7D84BD08958091B0008F7703C00F
:102420008091B0008F7D8093B00008951F93CF936B
:10243000DF93282F30E0F901E654FF4F8491F90132
:10244000EA55FF4FD491F901EE56FF4FC491CC23CA
:10245000C1F0162F81110E94ED11EC2FF0E0EE0F6C
:10246000FF1FE857FF4FA591B4919FB7F894111142
:1024700004C08C91D095D82302C0EC91DE2BDC9364
:102480009FBFDF91CF911F910895DF92EF92FF924E
:102490000F931F93CF93DF938C01F62ED42EE52E4E
:1024A00083E590E00E94A40160E0F80186850E9427
:1024B000161282E10E949D01CD2DDE2DCE018F0DE1
:1024C000911D7C01EC16FD0621F089910E949D0171
:1024D000F9CF61E0F80186850E941612DF91CF9155
:1024E0001F910F91FF90EF90DF900C948C01CF9390
:1024F000DF9390E0FC01EA55FF4F2491FC01EE567A
:10250000FF4F8491882361F190E0880F991FFC01AF
:10251000E258FF4FC591D491FC01E857FF4FA591B8
:10252000B491611109C09FB7F894888120958223E6
:102530008883EC912E230BC0623061F49FB7F8942E
:102540008881322F309583238883EC912E2B2C9316
:102550009FBF06C08FB7F894E8812E2B28838FBFCA
:10256000DF91CF9108958F929F92AF92BF92CF92B9
:10257000DF92EF92FF926B017C010E94ED124B0102
:102580005C01C114D104E104F104F1F00E94ED12E8
:10259000DC01CB0188199909AA09BB09883E93403F
:1025A000A105B10570F321E0C21AD108E108F108D4
:1025B00088EE880E83E0981EA11CB11CC114D104C2
:1025C000E104F10419F7DDCFFF90EF90DF90CF9099
:1025D000BF90AF909F908F9008953FB7F8948091EF
:1025E0000B0390910C03A0910D03B0910E0326B53F
:1025F000A89B05C02F3F19F00196A11DB11D3FBF3B
:10260000BA2FA92F982F8827820F911DA11DB11DC8
:10261000BC01CD0146E0660F771F881F991F4A95C0
:10262000D1F708951F920F920FB60F9211242F9396
:102630003F938F939F93AF93BF93809107039091A4
:102640000803A0910903B0910A033091060320E327
:10265000230F2D3720F44096A11DB11D05C023EB9B
:10266000230F4196A11DB11D2093060380930703FC
:1026700090930803A0930903B0930A0380910B037E
:1026800090910C03A0910D03B0910E030196A11D32
:10269000B11D80930B0390930C03A0930D03B09393
:1026A0000E03BF91AF919F918F913F912F910F900A
:1026B0000FBE0F901F901895CF93DF93CDB7DEB765
:1026C000EA970FB6F894DEBF0FBECDBF789484B5FD
:1026D000826084BD84B5816084BD85B5826085BD1E
:1026E00085B5816085BD80916E00816080936E00AC
:1026F000109281008091810082608093810080919E
:1027000080008160809380008091B100846080931C
:10271000B1008091B00081608093B00080917A0018
:102720008B7F80937A0080917A00826080937A0018
:1027300080917A00816080937A0080917A0080682D
:1027400080937A001092C10084B7877F84BF0FB650
:10275000F894A89580916000886180936000109241
:1027600060000FBE8FEF9FEF9093E9028093E80225
:10277000A89561E084E00E94771261E083E00E9406
:10278000771261E089E00E94771261E08AE00E949E
:10279000771262E086E00E94771262E081E10E9497
:1027A000771262E085E00E94771260E084E00E9488
:1027B000161260E083E00E94161260E089E00E9439
:1027C0001612F6EA8F2EF0E09F2E02E910E0712C2F
:1027D000F4012491F8018491882301F12223F1F07E
:1027E000422F50E0BA016150710946235723452B0F
:1027F000A9F490E0880F991FFC01E258FF4FA591C2
:10280000B491FC01E857FF4F459154918C9182237C
:1028100029F4DA018C91282309F4C3C57394BFEF1E
:102820008B1A9B0A0F5F1F4FE3E17E12D1CF60E04E
:102830008FE00E94B10B65E08EE00E94B10B81EE4B
:1028400097E09093C3018093C20181E08093C1011E
:102850008FE0E9ECF1E0DF011D928A95E9F70E9433
:102860000F118091CE019091CF01813E97402CF4C1
:1028700063E082E390E00E94080480E591E0909399
:102880000101809300018091B30188608093B301BE
:1028900086B18093AF0180916C00886080936C005A
:1028A000809168008260809368008EEE93E00E94C1
:1028B000E204182F8093B60181EF93E00E94E204B6
:1028C0008093B70184EF93E00E94E2048093B80103
:1028D00087EF93E00E94E2048093B9018AEF93E0CE
:1028E0000E94E2048093BF018DEF93E00E94E20416
:1028F0008093BA01111103C088EF0E94C506809130
:10290000BA018052813518F080E70E940506809157
:10291000BF0187FF10C00E94CC0480E00E94B9066E
:1029200040E060E080E00E94D30688EF0E94C50688
:1029300080E70E94050682E00E9406058FEF8093E3
:102940004502809346028093470280934802809319
:10295000490280934A02E0915B02F0915C0282E0BE
:102960008083E0915702F09158021082E091590261
:10297000F0915A028CE0808310926302E0915F0232
:10298000F091600286E08083E0915D02F0915E024A
:10299000808180618083E0915D02F0915E028081A0
:1029A00088608083E0915D02F0915E0280818068A2
:1029B0008083E0915D02F0915E0280818F7D808353
:1029C0001092B10181E00E944B0468EE73E080E058
:1029D00090E00E94B3121092BB011092BC011092C1
:1029E000BD011092BE0189E090E09093E9028093CE
:1029F000E80299E288E10FB6F894A8958093600008
:102A00000FBE90936000FE0131963F012E01F5E26A
:102A10004F0E511CCE0105969AAF89AFA8958091B3
:102A2000C4018823D1F01092C4010E94CA0B0E94F5
:102A30000F112091CE013091CF018091C201909170
:102A4000C3012817390749F49091CD018091C10144
:102A5000981303C080E00E9406051FB7F894809188
:102A6000C501811127C0ECE9F0E08491E0EBF0E0D2
:102A70009491E82FF0E0EE0FFF1FE258FF4FA59171
:102A8000B491EC91E92321F461E08AE00E941612EE
:102A900061E08AE00E9477128CB580618CBD8CB5B4
:102AA00080648CBD61E08DE00E94771261E08BE074
:102AB0000E9477128091C5018F5F8093C5011FBF6F
:102AC00061E0809104030E94771261E08091040329
:102AD0000E941612809105038F3F41F44FE062E09F
:102AE00086EF92E00E94DA0113E025C060E00E94C8
:102AF00077122091050330E0F901E654FF4F8491ED
:102B0000F901EA55FF4F9490F901EE56FF4F84907A
:102B10008820F9F081110E94ED11E82DF0E0EE0F10
:102B2000FF1FE859FF4FA591B491EC919E2289F0C7
:102B3000D5CF115019F162E370E080E090E00E947F
:102B4000B31262E086EF92E00E94BA0184FF16C0E1
:102B5000F0CF61E0809105030E94771260E08091E0
:102B600005030E94161261E0809105030E9416126F
:102B700062E370E080E090E00E94B31240E064E223
:102B800086EF92E00E94DA0140E066E286EF92E092
:102B90000E94DA0146E268E486EF92E00E94DA01E0
:102BA00040E864E586EF92E00E94DA0149EA66E5D2
:102BB00086EF92E00E94DA0143E068E586EF92E05A
:102BC0000E94DA0148EE6AE586EF92E00E94DA019F
:102BD00040E46AE286EF92E00E94DA014DE362E2AD
:102BE00086EF92E00E94DA010E94DC1143E068E285
:102BF00086EF92E00E94AB0D1091BA016CE486EF73
:102C000092E00E94BA018077181799F040E76CE4CF
:102C100086EF92E00E94AB0D6CE486EF92E00E949A
:102C2000BA011077412F482B6CE486EF92E00E94A6
:102C3000DA010E94DC1165E070E080E090E00E9423
:102C4000B31286EF92E00E94BF0D882309F417C3E8
:102C500086EF92E00E94C909882309F410C352E16B
:102C6000852E88AEAE01485C5F4FBE016D5E7F4F22
:102C700084E00E942303882309F401C38D898F3FD8
:102C800009F0D9C18C89893F19F080E00E940605BE
:102C900084E0FE017396D20101900D928A95E1F7CE
:102CA00082E188AFAE01485C5F4FBE016D5E7F4F31
:102CB00085E00E942303182F882349F084E0FE0159
:102CC0007396DE01999601900D928A95E1F782E163
:102CD00088AFAE01485C5F4FBE016D5E7F4F86E0FE
:102CE0000E942303182349F084E0FE017396DE015D
:102CF0009D9601900D928A95E1F782E188AFAE0131
:102D0000485C5F4FBE016D5E7F4F87E00E942303EA
:102D1000112309F4B4C2882309F4B1C284E0FE018E
:102D20007396DE01D19601900D928A95E1F790910C
:102D3000B70189A598137BC19091B8018AA5981312
:102D400076C19091B9018BA5981371C18EA18B3F6B
:102D500009F463C030F4893F09F4C0C08A3FB1F080
:102D600090C28D3F09F482C008F467C08E3F09F01D
:102D700088C28CA50E9405064FA56EA58DA50E9450
:102D8000D30688A90E94B90662E098C1ABA8BAA888
:102D9000C9A8DFA4EDA48EA590E08053984F39EC2C
:102DA000832E31E0932E4FE0342ED401E32D1D927B
:102DB000EA95E9F7E092CD01F82E9093CF01809348
:102DC000CE01D092CC01C092CB01B092CA01A092A8
:102DD000C9010091CF011091D0012091D101309112
:102DE000D2014091D3015091D4016091D5017091ED
:102DF000D6018091D7010E94D20BD4011D923A9442
:102E0000E9F70E940F118091CE019091CF0163E00C
:102E1000813E97400CF052C10DC08DA5882349F02A
:102E20009091B601891709F448C10E94C50665E072
:102E300045C166E082E390E043C182E08093C00137
:102E40008091BF0184FF03C080E00E94B9068EA577
:102E500090E0EBA80AA929A94FA56DA58053984F2A
:102E60000E9415060E94CC0464E028C180E1F301B1
:102E700011928A95E9F7222433242618370801E0B5
:102E800015E0A89562E370E080E090E00E94B31244
:102E900061E084E00E9416124301C401820D931D7B
:102EA0000E941F1AD4018D934D01E9ADFAADEA17C6
:102EB000FB0799F7B301812F0E94A311082360E05B
:102EC00084E00E9416121F5FF4E02F0E311C1333B2
:102ED000C1F6002309F4D5C166E0F0C010E1D301CA
:102EE000E12F1D92EA95E9F780E00E944B04082F3C
:102EF0000E940F1189E689838091BA018C83B30106
:102F000088E00E94A311982ED301E12F1D92EA952B
:102F1000E9F78091B60189838091BF018A830B8391
:102F20008091C0018C83B30189E00E94A311982293
:102F3000D3011D921A95E9F78091D4019091D501A2
:102F40002091D6013091D70139832A839B838C83CA
:102F5000B3018AE00E94A31198228FE0E9ECF1E02E
:102F6000DF011D928A95E9F787E00E94970B0E9486
:102F7000050B8093C90188E00E94970B0E94050B06
:102F80008093CA0189E00E94970B0E94050B8093F1
:102F9000CB018AE00E94970B0E94050B8093CC0125
:102FA000E090C101E092CD019091C2012091C30156
:102FB000F92E9093CE012093CF01A090C901B0903B
:102FC000CA01C090CB01D82E022F1091D0012091C0
:102FD000D1013091D2014091D3015091D40160913F
:102FE000D5017091D6018091D7010E940E0B60939C
:102FF000D4017093D5018093D6019093D701998322
:103000008A837B836C83B3018BE00E94A311982297
:10301000A89568EE73E080E090E00E94B3129920DA
:1030200011F061E001C062E08AEF90E049C064E025
:1030300082E390E022C180E00E9406059090B601F4
:10304000B8EF9B1609F43FC0E9EF9E126DC080E116
:10305000D3011D928A95E9F701E015E0A89562E396
:1030600070E080E090E00E94B31261E084E00E9492
:103070001612B301812F0E94A311082360E084E09F
:103080000E9416121F5F133349F7002309F4F9C099
:103090000E940F118091D4019091D5012091D60109
:1030A0003091D70139832A839B838C83B30185E0D8
:1030B0000E94A311882309F4E4C061E084EF91E049
:1030C0000E940804DEC08EAA1DAA1DA2AE014A5CA1
:1030D0005F4FB30184E00E942303882309F4CFC02B
:1030E000898190E0982F88272A81820F911D892B52
:1030F00009F4C5C08B818F3F09F4C1C0B201CE0174
:10310000C5960E94AC038DA9883009F0B8C08DA186
:103110008111B5C08091BF0183FFA8C00E947403D4
:10312000882309F4A3C0ABC00B8910E0102F00273F
:103130008C89080F111D1FAA1EAA8DAA0115110541
:1031400009F49DC03090BF01B32DB0728B2E35FEB7
:1031500015C0AE014B5C5F4FB30186E00E942303B4
:10316000882399F089818FAB8A8199EF980F9B32E0
:1031700010F48F5F01C088E08EAB07C0BE01695CB0
:103180007F4FCE01C6960E94AC039EA988EF890F9F
:103190008B3208F074C08FA9981609F46BC032FE08
:1031A00012C0983021F4E0EF9E120FC003C0F0EF80
:1031B0009F1659F0853F49F025EF81E0921206C035
:1031C000983021F402C081E001C080E033FE04C0E9
:1031D0000E94740391E08927882309F450C03EA817
:1031E00080E1D2011D928A95E9F70E940F119DA2FC
:1031F0008091D4019091D5012091D6012EA39FA357
:1032000088A7B201832D0E94A311882041F0882352
:10321000B1F19DA23EA2B20186E00E94A3118823D3
:1032200071F1013AB5E01B0730F062E082E390E013
:103230000E9408041BC0480183E0969487948A95F5
:10324000E1F7C4010E941F1A0770112741E050E006
:1032500060E070E004C0440F551F661F771F0A9599
:10326000D2F7682F642BC4010E94271A61E084EF13
:1032700091E003C062E08AEF90E00E94080410E051
:1032800001C011E080E589831A829E012D5F3F4FC6
:1032900042E0B30186EF92E00E944D0C811111C013
:1032A0001F92812CA12CB12CC12CD12CE12CF12C02
:1032B00004E0930140E36CE086EF92E00E94990CF9
:1032C0000F909FB7F8948091C501882319F0815021
:1032D0008093C5018091C501811105C08CB58F7B9C
:1032E0008CBD1092B5019FBF60E089E00E9416126C
:1032F000112321F088EB9BE00E941D058091C00105
:10330000813049F140F0823009F03FC088EA91E60F
:103310000E941D053AC08AEF90E00E941D05809131
:10332000BF01837049F01092BB011092BC01109252
:10333000BD011092BE0129C08091BB019091BC01DA
:10334000A091BD01B091BE0181159749A944B1403A
:10335000E0F081E018C088EE93E00E941D058091A6
:10336000BF0181FDE0CF4091BB015091BC01609154
:10337000BD017091BE014115584B6C447A4028F054
:1033800080FF03C082E00E9406058BE492E00E9469
:103390001B091816190614F40E94F8060E94C209A7
:1033A0003DCB62E0872D0E94771238CAEBE4F2E051
:1033B0001382128288EE93E0A0E0B0E084839583CC
:1033C000A683B78320E231E03183208325EC30E00F
:1033D0003587248724EC30E03787268720EC30E0DF
:1033E000318B208B21EC30E0338B228B22EC30E0D0
:1033F000358B248B26EC30E0378B268B118E128E8A
:10340000138E148E2FEF3FEF3093E9022093E802E2
:10341000EAEEF2E01382128284839583A683B78357
:1034200082E391E091838083E6EFF2E084E491E02F
:10343000918380838AE0868789E087870895F99958
:10344000FECF92BD81BDF89A992780B50895262FA9
:10345000F999FECF1FBA92BD81BD20BD0FB6F89479
:10346000FA9AF99A0FBE01960895991B79E004C063
:10347000991F961708F0961B881F7A95C9F78095B3
:10348000089597FB072E16F4009407D077FD09D016
:103490000E94911A07FC05D03EF4909581959F4FAC
:1034A0000895709561957F4F0895A1E21A2EAA1B89
:1034B000BB1BFD010DC0AA1FBB1FEE1FFF1FA217E4
:1034C000B307E407F50720F0A21BB30BE40BF50BE1
:1034D000661F771F881F991F1A9469F7609570956A
:1034E000809590959B01AC01BD01CF010895A29FED
:1034F000B001B39FC001A39F700D811D1124911DC8
:10350000B29F700D811D1124911D08950E94771A9C
:10351000A59F900DB49F900DA49F800D911D112427
:103520000895AA1BBB1B51E107C0AA1FBB1FA6170A
:10353000B70710F0A61BB70B881F991F5A95A9F75C
:1035400080959095BC01CD010895EE0FFF1F059069
:10355000F491E02D099481E090E0F8940C94B91A6C
:10356000FB01DC0102C001900D9241505040D8F7A0
:063570000895F894FFCF5E
:10357600C809C809C809C809C809C809C809C809BD
:10358600C809C809C809C809C809C809000000004F
:103596005309C008EA08A0091B09F9080D0900002B
:1035A60000001D01F0004D01C400E800D400C50074
:0A35B60000000000270EBF0DC90938
:107E0000112484B714BE81FFF0D085E080938100F7
:107E100082E08093C00088E18093C10086E0809377
:107E2000C20080E18093C4008EE0C9D0259A86E02C
:107E300020E33CEF91E0309385002093840096BBD3
:107E4000B09BFECF1D9AA8958150A9F7CC24DD24C4
:107E500088248394B5E0AB2EA1E19A2EF3E0BF2EE7
:107E6000A2D0813461F49FD0082FAFD0023811F036
:107E7000013811F484E001C083E08DD089C08234E0
:107E800011F484E103C0853419F485E0A6D080C0E4
:107E9000853579F488D0E82EFF2485D0082F10E0AE
:107EA000102F00270E291F29000F111F8ED06801E7
:107EB0006FC0863521F484E090D080E0DECF843638
:107EC00009F040C070D06FD0082F6DD080E0C81688
:107ED00080E7D80618F4F601B7BEE895C0E0D1E017
:107EE00062D089930C17E1F7F0E0CF16F0E7DF06D8
:107EF00018F0F601B7BEE89568D007B600FCFDCFD4
:107F0000A601A0E0B1E02C9130E011968C91119780
:107F100090E0982F8827822B932B1296FA010C0160
:107F200087BEE89511244E5F5F4FF1E0A038BF0790
:107F300051F7F601A7BEE89507B600FCFDCF97BE46
:107F4000E89526C08437B1F42ED02DD0F82E2BD052
:107F50003CD0F601EF2C8F010F5F1F4F84911BD097
:107F6000EA94F801C1F70894C11CD11CFA94CF0C13
:107F7000D11C0EC0853739F428D08EE10CD085E9AC
:107F80000AD08FE07ACF813511F488E018D01DD067
:107F900080E101D065CF982F8091C00085FFFCCF94
:107FA0009093C60008958091C00087FFFCCF809118
:107FB000C00084FD01C0A8958091C6000895E0E648
:107FC000F0E098E1908380830895EDDF803219F02E
:107FD00088E0F5DFFFCF84E1DECF1F93182FE3DFCA
:107FE0001150E9F7F2DF1F91089580E0E8DFEE27F6
:047FF000FF270994CA
:027FFE00040479
:0400000300007E007B
:00000001FF
