:100000000C9468000C9490000C9490000C94900058
:100010000C9405020C9490000C945D020C949000DA
:100020000C9490000C9490000C9490000C94900010
:100030000C9490000C9490000C9490000C94900000
:100040000C9464100C9490000C94D3010C94AD01AA
:100050000C9490000C9490000C9490000C949000E0
:100060000C94C5070C9490000000000023002600AB
:1000700029001F1C1F1E1F1E1F1F1E1F1E1F0000EA
:100080000000240027002A000000000025002800AE
:100090002B00040404040404040402020202020209
:1000A000030303030303010204081020408001023C
:1000B00004081020010204081020000000080002BB
:1000C0000100000304070000000000000000F0171A
:1000D00011241FBECFEFD8E0DEBFCDBF11E0A0E0FE
:1000E000B1E0EAEAF1E302C005900D92AA33B1074C
:1000F000D9F722E0AAE3B1E001C01D92AB3FB207FD
:10010000E1F710E0C8E6D0E004C02197FE010E94AC
:10011000BF18C736D107C9F70E94AE100C94D31888
:100120000C940000CF92DF92EF92FF920F931F93F7
:10013000CF93DF936C017A018B01C0E0D0E0CE1544
:10014000DF0581F0D8016D918D01D601ED91FC9113
:100150000190F081E02DC6010995892B11F02196BF
:10016000EECF7E01C701DF91CF911F910F91FF90DC
:10017000EF90DF90CF900895FC01538D448D252F93
:1001800030E0842F90E0821B930B541710F0CF9631
:10019000089501970895FC01918D828D981761F063
:1001A000828DDF01A80FB11D5D968C91928D9F5FAE
:1001B0009F73928F90E008958FEF9FEF0895FC0159
:1001C000918D828D981731F0828DE80FF11D858D0C
:1001D00090E008958FEF9FEF0895FC01918D228D9F
:1001E000892F90E0805C9F4F821B91098F73992724
:1001F000089587E392E00E94ED0021E0892B09F445
:1002000020E0822F0895FC01848DDF01A80FB11D2D
:10021000A35ABF4F2C91848D90E001968F7399273C
:10022000848FA689B7892C93A089B1898C9183701A
:1002300080648C93938D848D981306C00288F38913
:10024000E02D80818F7D80830895EF92FF920F9340
:100250001F93CF93DF93EC0181E0888F9B8D8C8D72
:10026000981305C0E889F989808185FD26C0F62E9E
:100270000B8D10E00F5F1F4F0F731127E02E8C8D39
:10028000E8120CC00FB607FCFACFE889F989808123
:1002900085FFF5CFCE010E940301F1CF8B8DFE01CA
:1002A000E80FF11DE35AFF4FF0829FB7F8940B8FD0
:1002B000EA89FB89808180620AC09FB7F894EE8941
:1002C000FF896083E889F9898081837080648083F5
:1002D0009FBF81E090E0DF91CF911F910F91FF9040
:1002E000EF900895CF93DF93EC01888D8823C9F0B8
:1002F000EA89FB89808185FD05C0A889B9898C912F
:1003000086FD0FC00FB607FCF5CF808185FFF2CFC9
:10031000A889B9898C9185FFEDCFCE010E94030198
:10032000E7CFDF91CF9108950E94F90081110C94DD
:10033000FB0A08950895BC016E5F7F4FDC01ED91CB
:10034000FC910190F081E02D40E0099591E0811150
:1003500090E0892F08950E94C5181F920F920FB642
:100360000F9211242F933F934F935F936F937F933B
:100370008F939F93AF93BF93EF93FF9387E392E0A5
:100380000E940301FF91EF91BF91AF919F918F91D7
:100390007F916F915F914F913F912F910F900FBE81
:1003A0000F901F9018951F920F920FB60F92112465
:1003B0002F938F939F93EF93FF93E0914702F091D8
:1003C00048028081E0914D02F0914E0282FD12C000
:1003D0009081809150028F5F8F732091510282171C
:1003E00051F0E0915002F0E0E95CFD4F958F809371
:1003F000500201C08081FF91EF919F918F912F91C9
:100400000F900FBE0F901F9018951F920F920FB66E
:100410000F9211242F933F934F935F936F937F938A
:100420008F939F93AF93BF93CF93EF93FF9396B127
:1004300080913B01C0913F01C8238927C823909335
:100440003B01C0FF05C0E0910201F0910301099555
:10045000C1FF05C0E0910401F09105010995C2FFBB
:1004600005C0E0910601F09107010995C3FF05C0A1
:10047000E0910001F09101010995C4FF05C0E091F0
:100480000801F09109010995C5FF05C0E0910A0135
:10049000F0910B010995FF91EF91CF91BF91AF9131
:1004A0009F918F917F916F915F914F913F912F918C
:1004B0000F900FBE0F901F9018951F920F920FB6BE
:1004C0000F9211240F900FBE0F901F901895982F28
:1004D00092959F708F702AE0929F800D112408954D
:1004E000AF92BF92CF92DF92EF92FF920F931F9342
:1004F000CF93DF93CDB7DEB72F970FB6F894DEBF5B
:100500000FBECDBFA982BA82CB82FE820F834E81FD
:100510005F81403D07E050070CF457C03E2DBA0103
:10052000605D77408D2D90E00197E2E7F0E021E0FB
:10053000231730F4A4918A0F911D2F5F3196F8CFC5
:10054000333030F09B0123703327232B09F40196BD
:100550004D5C57405595479555954795EDE6F1E02B
:100560006E9F90016F9F300D7E9F300D1124240FE0
:10057000351F280F391FA8E1B0E00E9491182B8188
:100580007B018C01E20EF11C011D111DA8019701D8
:10059000ACE3B0E00E94A0182A817B018C01E20E3E
:1005A000F11C011D111DA80197010E94A0182981AD
:1005B000022F10E020E030E000581C4B2249374C5D
:1005C000600F711F821F931F03C060E070E0CB01BA
:1005D0002F960FB6F894DEBF0FBECDBFDF91CF913F
:1005E0001F910F91FF90EF90DF90CF90BF90AF9051
:1005F000089591E090930D0298E690932F02109247
:100600000E0210923002682F86ED92E00E94780769
:100610000E94B70D81E090E00E94180E86ED92E0F6
:100620000E942F070895CF93C62F91E090930D025B
:1006300098E690932F0210920E0210923002682FCB
:1006400086ED92E00E9478076C2F86ED92E00E9482
:100650007807CF910C94B70D8FE00E94F902682FB4
:100660006E7F8FE00C94130380914101882361F029
:100670009FB7F8942091410180915101213019F4E4
:100680008DBB9FBF08958FBF08958EBD00000DB430
:1006900007FEFDCF8EB508951F93CF93DF93EC0136
:1006A000162F83E590E00E94AF0760E08E850E94E0
:1006B000680F812F80680E94450380E00E944503F7
:1006C000182F61E08E850E94680F0E943403812FED
:1006D000DF91CF911F9108950F931F93CF93DF93D5
:1006E000EC01062F142F83E590E00E94AF0760E035
:1006F0008E850E94680F802F0E944503812F0E94E3
:10070000450361E08E850E94680FDF91CF911F91B4
:100710000F910C943403CF92DF92EF92FF920F93DC
:100720001F93CF93DF93EC016B01142F790140E00D
:1007300062E00E946C0344E06AE0CE010E946C0318
:1007400040E864E1CE010E946C03A601612FCE0156
:100750000E94970F43E062E0CE010E946C0308E81C
:1007600013E16AE0CE010E944C0382FF13C040E017
:1007700062E0CE010E946C0364E4CE010E944C034F
:10078000F701808362E4CE010E944C03F70181836C
:1007900080E004C00150110921F783E0DF91CF917F
:1007A0001F910F91FF90EF90DF90CF9008953F92AF
:1007B0004F925F926F927F928F929F92AF92BF9271
:1007C000CF92DF92EF92FF920F931F93CF93DF931D
:1007D00000D0CDB7DEB73C01162F942E2901A1140D
:1007E000B10419F0F501408101C040E0342EF0E180
:1007F0008F9E300C112440E062E0C3010E946C0324
:100800004FE768E0C3010E946C0340E864E1C30164
:100810000E946C03A201602FC3010E94970F432D19
:100820006AE1C3010E946C03412F62E0C3010E9490
:100830006C031C3051F46AE1C3010E944C03482F41
:1008400040686AE1C3010E946C0300ED17E068E0B4
:10085000C3010E944C03982F992139F480FD03C0F5
:1008600001501109A1F783E0A0C06CE0C3010E9410
:100870004C03982E837109F095C0E114F10409F43A
:1008800059C0C114D10409F455C064E1C3010E94E8
:100890004C03582EF6018081851508F47DC05082E6
:1008A0005520E9F183E590E00E94AF0760E0F30195
:1008B00086850E94680F5A9482E90E944503882029
:1008C000A1F00FEF10E001C0000F8A94EAF782E96F
:1008D0000E944503202F2095F701908192238023C9
:1008E000892B80838824839401C0812C082D10E0FB
:1008F0000E0D1F1D851438F482E90E944503F8018E
:1009000080838394F3CF80E00E944503F8018083C5
:1009100061E0F30186850E94680F0E94340368E15C
:10092000C3010E944C038770A114B10421F0F501AA
:10093000808301C080E093FC31C0E114F10481F1B7
:10094000C114D10469F19E89992351F1F6014081C6
:10095000413021F4843041F58FEF27C0423020F13F
:10096000811122C042509E012F5F3F4FB701C3014A
:100970000E948B03811119C0F6018081E80EF11CE1
:10098000F70132979081898198130EC0319690813A
:100990008A81981309C004C084E007C082E005C0C2
:1009A00080E003C081E001C087E00F900F90DF91ED
:1009B000CF911F910F91FF90EF90DF90CF90BF905C
:1009C000AF909F908F907F906F905F904F903F90EF
:1009D00008950F931F93CF93DF938C01D62FC42FCD
:1009E0000E944C03C0954C2F48236D2FC801DF9106
:1009F000CF911F910F910C946C036F927F928F9205
:100A0000AF92BF92CF92DF92EF92FF920F93CF936C
:100A1000DF9300D000D01F92CDB7DEB73C0182E05B
:100A20008D8340E064E2C3010E946C0340E066E213
:100A3000C3010E946C0346E268E4C3010E946C0398
:100A400086E28B838D81823020F140E86CE1C30126
:100A50000E94E90487E08C831F92812CCE010496CA
:100A60005C0101966C0104977C0101E09E012D5F01
:100A70003F4F40E36CE0C3010E94D7030F90811108
:100A80000BC08D81823039F481E09C81911104C0CA
:100A900008C084E001C081E091E0823019F090E06C
:100AA00001C091E0892F0F900F900F900F900F9041
:100AB000DF91CF910F91FF90EF90DF90CF90BF909B
:100AC000AF908F907F906F9008952F923F924F92AA
:100AD0005F926F927F928F929F92AF92BF92CF92CE
:100AE000DF92EF92FF920F931F93CF93DF93CDB7D7
:100AF000DEB72D970FB6F894DEBF0FBECDBF4135E0
:100B000008F004C14D872B013C0140E86CE10E94D4
:100B1000E90431E03C878C85823091F08330F1F03C
:100B2000813009F0F5C083E989839D859923D9F047
:100B300081E0F2019081953008F480E0912C18C09A
:100B4000F5E9F9833D85332381F081E0F20190815D
:100B5000983008F480E043E0942E0AC087E9898346
:100B600036E0932E04C0912C02C023E0922E80E048
:100B70001D85F8E09F9E1019112417FD10E08823B1
:100B800021F098E89B8333E001C032E021E0912F0F
:100B9000977009F420E0912F959595959595290FDB
:100BA00029F4882309F491C0185F8FC0811102C015
:100BB00094E001C093E0291708F4922FE92DF0E0AA
:100BC0003196E40DF51D232F4191A1E0B0E0AC0F6B
:100BD000BD1FA20FB11D4C932F5F422F431B49171E
:100BE00098F3DFCF8111DFC010320CF093C010E218
:100BF00030E73A839B818C8189279D8189279E815B
:100C000089278F839E01285F3F4F47E0BE016F5FBA
:100C10007F4FC3010E948B038111A3C01A8683E01A
:100C20008B87FE0137961F0109E08A84482D429583
:100C3000407F480D6AE1C3010E946C031F92CE0100
:100C40000A965C01FE013B966F0171019E012F5FC8
:100C50003F4F40E36CE0C3010E94D703082F0F9081
:100C6000823009F0BFCF6CE1C3010E944C0385FDC7
:100C70009AC08F7109F480E2282F30E0412F110FC4
:100C8000550B421753070CF043C0182F822F859540
:100C90008595859591E0980F422F477081E009F482
:100CA00080E0890FE1E0F0E0EC0FFD1FE80FF11D9F
:100CB000215031092770332781E090E001C0880F6F
:100CC0002A95EAF79081892B808310320CF090CF1F
:100CD000912F97709A87812F8595859585958E5F41
:100CE000292FF0E18F9F200D11242A8301E091111B
:100CF00001C000E0080F22242394312C2C0E3D1E4D
:100D0000280E311C39E0381B3B878FCF06E04BC0E3
:100D100005E049C08B81883809F442C082E094E044
:100D2000E92DF0E03196E40DF51D980FA1E0B0E05B
:100D3000AC0FBD1FA80FB11D2C9121938F5F89139C
:100D4000F5CF8B85833041F58A85811125C09E01C1
:100D50002D5F3F4F41E0B101C3010E948B03882307
:100D600011F0082F20C09B81F1018181981316C0DA
:100D70009C818281981312C0808182FF04C0FC850F
:100D8000FF5FFC87C8CEF20183878C85880F9C8427
:100D9000980E9394908207C001E005C007E003C05D
:100DA00083E093E0BDCF802F2D960FB6F894DEBF81
:100DB0000FBECDBFDF91CF911F910F91FF90EF90AC
:100DC000DF90CF90BF90AF909F908F907F906F906B
:100DD0005F904F903F902F90089585ED8093BC00D9
:100DE0008091BC0084FDFCCF10920C0208954091CC
:100DF0009201262F30E0240F311D21323105DCF421
:100E000020910C022430C9F4FC0180E090E08617A8
:100E100058F4309192012191DC01AE58BE4FA30FDE
:100E2000B11D2C930196F3CF80919201680F6093CE
:100E3000920180E0089581E0089582E00895089588
:100E4000E091C5018091C401E81730F4F0E0EA5365
:100E5000FE4F808190E008958FEF9FEF089590916D
:100E6000C5018091C401981750F4E92FF0E0EA53CE
:100E7000FE4F208130E09F5F9093C50102C02FEFAD
:100E80003FEFC90108958091C40190E02091C50110
:100E9000821B91090895CF92DF92EF92FF920F93F8
:100EA0001F93CF93DF937C01CB018A0120910D0228
:100EB000222389F0EB016B01C40ED51ECC15DD0594
:100EC00069F06991D701ED91FC910190F081E02DDD
:100ED000C7010995F3CF642F0E94F706C801DF917F
:100EE000CF911F910F91FF90EF90DF90CF900895D9
:100EF000CF93DF931F92CDB7DEB7698320910D02A8
:100F00002223D1F020913002203240F021E030E065
:100F1000FC013383228380E090E015C080910E02B3
:100F2000E82FF0E0E15FFD4F998190838F5F809320
:100F30000E028093300205C061E0CE0101960E944E
:100F4000F70681E090E00F90DF91CF91089508952A
:100F500080E090E0089581E080934F010895209112
:100F60004101222379F02FB7F894309141013130BB
:100F700039F43DB3309351013DB33DBB2FBF02C0A7
:100F8000209351018CBD9DBD08951F920F920FB605
:100F90000F9211242F933F934F935F936F937F93FF
:100FA0008F939F93AF93BF93EF93FF938091B9007B
:100FB000887F803609F49CC068F5883209F45BC0EC
:100FC00090F4803109F454C038F4882309F4F2C055
:100FD000883009F44DC0F2C0883109F44CC0803229
:100FE00009F45DC0EBC0803409F468C048F4803374
:100FF00009F455C0883309F0E1C080930A02D4C0D7
:10100000803509F44FC0883509F45DC0883409F093
:10101000D5C0D2C0883909F4C3C0A8F4883709F410
:1010200067C038F4883609F463C0803709F460C0BB
:10103000C5C0883809F4B4C0803909F45FC080386D
:1010400009F0BCC05BC0803B09F484C038F4803A2E
:1010500009F466C0883A09F47DC0B0C0803C09F448
:10106000A3C0883C09F4A0C0883B09F486C0A6C090
:101070008091E70110C090910902809108029817B1
:1010800070F5E091090281E08E0F80930902F0E093
:10109000E851FE4F80818093BB0085EC82C0809335
:1010A0000A028AC0E091090281E08E0F8093090252
:1010B0008091BB00F0E0E851FE4F808390910902DF
:1010C000809108026AC0E091090281E08E0F80934E
:1010D00009028091BB00F0E0E851FE4F80838091CF
:1010E0000B02811169C081E08093E60184EA5DC052
:1010F00083E080930C021092B401CFCF8091B401B1
:10110000803208F04DC0E091B40181E08E0F8093F1
:10111000B4018091BB00F0E0EC56FE4F8083BDCF60
:1011200085EC8093BC0010920C028091B401803257
:1011300030F4E091B401F0E0EC56FE4F1082609183
:10114000B40170E084E991E0E0E0F0E009951092EC
:10115000B40134C084E080930C0210929301109289
:101160009201E0E0F0E0099580919201811105C0C3
:1011700081E08093920110927201E091930181E0ED
:101180008E0F80939301F0E0EE58FE4F80818093A4
:10119000BB009091930180919201981708F47DCF44
:1011A00085E88093BC000AC085EC8093BC00109257
:1011B0000C0204C010920A020E94ED06FF91EF910A
:1011C000BF91AF919F918F917F916F915F914F915F
:1011D0003F912F910F900FBE0F901F9018958F92F7
:1011E000AF92BF92CF92DF92EF92FF920F931F9335
:1011F000CF93DF93182FEB016A0190E0039763E030
:1012000070E00E945B181350160F812F8095837039
:10121000810F0E94620D811125C0209719F1F601FE
:1012200080818231F8F080E3888319839E012E5FEC
:101230003F4F42E0BE0182EE92E00E948B0381119B
:1012400011C081E08F93812CA12CB12C7E0104E090
:101250009E0140E36CE082EE92E00E94D70391E0B1
:101260000F90811190E0892FDF91CF911F910F9105
:10127000FF90EF90DF90CF90BF90AF908F90089548
:10128000CF93DF93CDB7DEB763970FB6F894DEBF89
:101290000FBECDBF82E18B8BAE014D5E5F4FBE01B5
:1012A0006F5F7F4F85E00E94EF088823B9F00E94AE
:1012B000610E8C814091C0015091C1016091C201C9
:1012C0007091C301481B51096109710981E04038DF
:1012D0005E4D6842710518F480E001C081E06396BC
:1012E0000FB6F894DEBF0FBECDBFDF91CF9108954A
:1012F0008F929F92AF92BF92CF92DF92EF92FF9226
:101300000F931F93CF93DF93CDB7DEB763970FB6DD
:10131000F894DEBF0FBECDBF5C016B01FC011082F3
:10132000FB01108292E3992E28E0F22E32E1832E07
:10133000092D10E00F0D111D15950795E02E8B8AD4
:10134000F2E0F017F0F4AE014D5E5F4FBE016F5F4B
:101350007F4F802F0E94EF08882399F089818111A7
:1013600002C0902E03C00F1521F0F02EF91400F3E7
:1013700002C0F394FBCF8111E394F501E082F60102
:10138000808363960FB6F894DEBF0FBECDBFDF91AA
:10139000CF911F910F91FF90EF90DF90CF90BF9072
:1013A000AF909F908F900895AF92BF92CF92DF92AF
:1013B000EF92FF920F931F93CF93DF93062F10E0CE
:1013C000C0E0D0E06C01E12CF12C580181E0A81ABA
:1013D000B108C017D10701F1A89561E084E00E942F
:1013E000680F61E083E00E94680FC701B6010E94A8
:1013F0000510A89560E084E00E94680F60E083E03B
:101400000E94680FCA15DB052CF4C701B6010E94C3
:101410000510A8952196DDCFDF91CF911F910F91F7
:10142000FF90EF90DF90CF90BF90AF9008958F9294
:101430009F92AF92BF92CF92DF92EF92FF92CF93A3
:10144000DF93A89561E084E00E94680F68E873E18B
:1014500080E090E00E940510CAE0C12CD12C7601FA
:10146000DEE484EB882E8BE2982E81E1A82EB12C4D
:1014700080917A00806880937A00D0937C0065E048
:1014800070E080E090E00E94051080917A00806416
:1014900080937A0080917A0086FDFCCF20917800BD
:1014A0008091790030E0382B032E000C440B550B53
:1014B00080917A00805880937A00C501B4010E941F
:1014C0006F18C20ED31EE41EF51EC15089F660E0EF
:1014D00084E00E94680F6AEF70E080E090E00E9474
:1014E0000510A89588E1C81689E7D806E104F1043B
:1014F00038F465E082E390E00E94D40980E006C001
:1015000061E084EF91E00E94D40981E0DF91CF9106
:10151000FF90EF90DF90CF90BF90AF909F908F9013
:101520000895CF93DF93C0E0D0E0A89560E0CE01AE
:101530000E94411862E070E080E090E00E94051097
:101540002196C53BD10589F7DF91CF9108950F937F
:101550001F93CF93DF938C010E943918C82FC801C5
:1015600001960E943918D82FC80102960E94391896
:10157000CD1759F0C81751F0D81741F062E082E357
:1015800090E00E94D40980E001C08C2FDF91CF91C0
:101590001F910F910895FF920F931F93CF93DF93A5
:1015A0008C01F62EC0E0D0E06F2DC8018C0F9D1F7E
:1015B0000E9441182196C330D105B1F7DF91CF9138
:1015C0001F910F91FF90089580934B011092460157
:1015D00010924701109248011092490180914A01EE
:1015E00081FF04C081E080934B010895837011F066
:1015F00010924B0108957F928F929F92AF92BF926B
:10160000CF92DF92EF92FF920F931F93CF93DF93CE
:10161000CDB7DEB7A0970FB6F894DEBF0FBECDBF33
:1016200061E084E00E94680F68EE73E080E090E083
:101630000E9405109924939489E6882E93E0792ED0
:1016400087E392E00E94ED00892B09F409C180E054
:101650000E94E40A00913D0110E087E392E00E94BD
:10166000CB00F801EE5AFE4F808380913D018F5FE1
:1016700080933D01823090F090E08E5A9E4FFC01A5
:1016800031972081223051F431978081813031F4BB
:10169000809352012093530120933D0140913D01DD
:1016A000423008F4D0C0842F90E0FC01EE5AFE4F87
:1016B000DF0111972C91243009F0C5C00297DC019D
:1016C000AE5ABE4F2C91233009F0BDC062E050E00D
:1016D000262F30E0281739073CF4D901AE5ABE4F07
:1016E0002C9152276F5FF4CF339780815813A4C099
:1016F00080915201803F21F0813F09F4A2C09CC03B
:10170000453090F0909155018091430198130CC0A1
:101710009091560180914401981306C09091570111
:1017200080914501981721F064E082E390E087C042
:101730000E94170A182F0E94610E998282E08A8304
:101740008B82809142018C8380914A018D831E831C
:1017500080914B018F838091C0019091C1012091B4
:10176000C2013091C301388729879A878B8787E028
:101770000E94F9020E9467028093B50188E00E94EE
:10178000F9020E9467028093B60189E00E94F90283
:101790000E9467028093B7018AE00E94F9020E94CA
:1017A00067028093B801E0904C01E092B9019091FA
:1017B0004D0120914E01F92E9093BA012093BB0167
:1017C000A090B501B090B601C090B701D82E022FFD
:1017D0001091BC012091BD013091BE014091BF012B
:1017E0005091C0016091C1017091C2018091C3010B
:1017F0000E9470026093C0017093C1018093C20186
:101800009093C3019C878D877E876F87688B798AC9
:1018100084E08A8B42E150E0BE016F5F7F4F87E337
:1018200092E00E949200A89568EE73E080E090E05C
:101830000E94051061E001C062E08AEF90E00E9422
:10184000D40910923D0180913D01803208F4F8CE18
:1018500010923D0162E08AEF90E00E94D409F0CE40
:10186000A0960FB6F894DEBF0FBECDBFDF91CF912B
:101870001F910F91FF90EF90DF90CF90BF90AF90AE
:101880009F908F907F900895CF93DF93EC0180918C
:101890004F018111B3C060E089E00E94680F60E0F1
:1018A00084E00E94680F60E083E00E94680FA895C2
:1018B000C0344FE1D40714F5209701F1C03A8FE00E
:1018C000D80704F5C03D47E0D40704F5C83E83E0DF
:1018D000D80704F5C43F41E0D40704F5CA3FD10559
:1018E0000CF5C837D10514F5CC33D1051CF5CE3134
:1018F000D10524F52FE030E080E023C020E43FE173
:1019000089E01FC020EA3FE088E01BC020ED37E0FF
:1019100087E017C028EE33E086E013C024EF31E003
:1019200085E00FC02AEF30E084E00BC028E730E00C
:1019300083E007C02CE330E082E003C02EE130E01A
:1019400081E083FD02C090E001C090E28770892BA6
:10195000F89494B7977F94BF9091600098619093AA
:1019600060008093600080916000806480936000DC
:10197000789483B7817F846083BF83B7816083BF9E
:10198000889583B78E7F83BF83B78E7F83BF809117
:10199000D4029091D5028F3F4FEF940781F083FDE1
:1019A00002C048E001C048E28770842B98E10FB67E
:1019B000F894A895909360000FBE809360004091CA
:1019C0004601509147016091480170914901C90158
:1019D000032E000CAA0BBB0B840F951FA61FB71F6D
:1019E0008093460190934701A0934801B093490129
:1019F0002C173D0718F4C21BD30B49CFDF91CF91B1
:101A000008958F92AF92BF92CF92DF92EF92FF92A2
:101A10000F93CF93DF93CDB7DEB764970FB6F894EB
:101A2000DEBF0FBECDBF062FE62EF12CA701BC01F5
:101A3000CE0101960E94CA1821E030E02C0F3D1F14
:101A40002E0D3F1D402FBE016F5F7F4F82EE92E053
:101A50000E948B03811125C082E18C8B1B8A0E5F53
:101A60001F92812CCE0143965C0101966C01439735
:101A70007C019C0140E36CE082EE92E00E94D7037F
:101A80000F9081110EC08C89813051F48B89843084
:101A900039F481E099819A3009F480E0819501C0A0
:101AA00081E064960FB6F894DEBF0FBECDBFDF9124
:101AB000CF910F91FF90EF90DF90CF90BF90AF90BC
:101AC0008F9008958F92AF92BF92CF92DF92EF9254
:101AD000FF920F93CF93DF93CDB7DEB72C970FB65E
:101AE000F894DEBF0FBECDBF90E699838A8381E371
:101AF00092E0AE014D5F5F4FDE011996FC0121912E
:101B0000CF01FA012193AF01EA17FB07B9F7E09182
:101B1000E402F0E0EF51FD4FCE010D9621912D939F
:101B2000A817B907D9F71F92812CA12CB12CC12C71
:101B3000D12CE12CF12C0CE09E012F5F3F4F40E1B6
:101B40006EE082EE92E00E94D7030F902C960FB6C3
:101B5000F894DEBF0FBECDBFDF91CF910F91FF9004
:101B6000EF90DF90CF90BF90AF908F90089530911D
:101B70003002313208F04BC080910C028111FCCF51
:101B800090912F0222E020930C0221E020930B027F
:101B90002FEF20930A021092090230930802EFE01F
:101BA000F2E0A8EEB1E020E0321721F041914D9330
:101BB0002F5FFACF1092E7012091E701990F922B46
:101BC0009093E7019091E601913061F41092E60163
:101BD0009091E7019093BB009091BC0093FDF8CFEA
:101BE00095EC01C095EE9093BC0090910C02923060
:101BF000E1F390910A029F3F79F080910A028032CE
:101C000041F080910A02803331F084E005C081E028
:101C100003C082E001C083E010920E0210923002F5
:101C200010920D020895682F86ED92E00C947807CB
:101C300090910C029111FCCF982F813208F090E224
:101C400081E080930C0280930B022FEF20930A0215
:101C500010920902290F209308028093E7018091D6
:101C6000E701806D8093E7018091E601813061F4A6
:101C70001092E6018091E7018093BB008091BC0047
:101C800083FDF8CF85EC01C085EE8093BC00809188
:101C90000C028130E1F380910902891710F49091D0
:101CA0000902E8EEF1E0A6ECB1E080E0891721F04E
:101CB00021912D938F5FFACF1092C5018093C401BB
:101CC0000895AF92BF92CF92DF92EF92FF920F935F
:101CD0001F93CF93DF93CDB7DEB727970FB6F89456
:101CE000DEBF0FBECDBF81E080930D0288E68093FA
:101CF0002F0210920E021092300280E090E00E94BB
:101D0000130E0E94B70D87E090E00E94180ECE01DE
:101D100001967C01D12C10E086ED92E00E942F0705
:101D2000082F153049F48F710E9467028E83D02EE0
:101D3000DD1CDD24DD1C04C00E946702F7018083E6
:101D40001F5FFFEFEF1AFF0A173031F74F8181E075
:101D5000D81205C0842F90E08053984F04C0842F80
:101D600090E08459984FA980A092B501BA80B092B2
:101D7000B601CB80C092B701DD80D092B801EE8071
:101D8000E092B901F82E9093BB018093BA011C81B7
:101D90001093BC014093BF010091BB012091BD0194
:101DA0003091BE015091C0016091C1017091C2019A
:101DB0008091C3010E9470026093C0017093C101C1
:101DC0008093C2019093C30127960FB6F894DEBFAB
:101DD0000FBECDBFDF91CF911F910F91FF90EF907C
:101DE000DF90CF90BF90AF900895EF92FF921F9336
:101DF000CF93DF9300D0CDB7DEB7182F7B0190E0F3
:101E0000039763E070E00E945B181350160F812F58
:101E100080958370810F0E94620D811115C0E114BD
:101E2000F10479F080EA89831A8362E0CE01019699
:101E30000E94010D811106C060E1C7010E94010DE1
:101E400001C086E091E0811190E0892F0F900F9002
:101E5000DF91CF911F91FF90EF90089568E282EE9D
:101E600092E00E944C03982F9370933039F0482FE2
:101E7000436068E282EE92E00C946C030895833034
:101E800081F028F4813099F08230A1F008958730F4
:101E9000A9F08830B9F08430D1F4809180008F7D32
:101EA00003C0809180008F7780938000089584B56F
:101EB0008F7702C084B58F7D84BD08958091B00076
:101EC0008F7703C08091B0008F7D8093B00008951C
:101ED0001F93CF93DF93282F30E0F901E654FF4F93
:101EE0008491F901EA55FF4FD491F901EE56FF4F65
:101EF000C491CC23C1F0162F81110E943F0FEC2F0B
:101F0000F0E0EE0FFF1FE857FF4FA591B4919FB788
:101F1000F894111104C08C91D095D82302C0EC9193
:101F2000DE2BDC939FBFDF91CF911F910895DF924D
:101F3000EF92FF920F931F93CF93DF938C01F62EB6
:101F4000D42EE52E83E590E00E94AF0760E0F80113
:101F500086850E94680F82E10E944503CD2DDE2D0B
:101F6000CE018F0D911D7C01EC16FD0621F08991AB
:101F70000E944503F9CF61E0F80186850E94680F51
:101F8000DF91CF911F910F91FF90EF90DF900C9414
:101F90003403CF93DF9390E0FC01EA55FF4F249187
:101FA000FC01EE56FF4F8491882361F190E0880F89
:101FB000991FFC01E258FF4FC591D491FC01E857ED
:101FC000FF4FA591B491611109C09FB7F894888122
:101FD000209582238883EC912E230BC0623061F41C
:101FE0009FB7F8948881322F309583238883EC91B2
:101FF0002E2B2C939FBF06C08FB7F894E8812E2B11
:1020000028838FBFDF91CF9108958F929F92AF92D7
:10201000BF92CF92DF92EF92FF926B017C010E9400
:102020003F104B015C01C114D104E104F104F1F053
:102030000E943F10DC01CB0188199909AA09BB094C
:10204000883E9340A105B10570F321E0C21AD10882
:10205000E108F10888EE880E83E0981EA11CB11CEF
:10206000C114D104E104F10419F7DDCFFF90EF9022
:10207000DF90CF90BF90AF909F908F9008953FB723
:10208000F8948091F7029091F802A091F902B09132
:10209000FA0226B5A89B05C02F3F19F00196A11D95
:1020A000B11D3FBFBA2FA92F982F8827820F911DEE
:1020B000A11DB11DBC01CD0146E0660F771F881F31
:1020C000991F4A95D1F708951F920F920FB60F925C
:1020D00011242F933F938F939F93AF93BF9380913E
:1020E000F3029091F402A091F502B091F6023091C2
:1020F000F20220E3230F2D3720F44096A11DB11DDD
:1021000005C023EB230F4196A11DB11D2093F202C0
:102110008093F3029093F402A093F502B093F60239
:102120008091F7029091F802A091F902B091FA0221
:102130000196A11DB11D8093F7029093F802A09320
:10214000F902B093FA02BF91AF919F918F913F91A5
:102150002F910F900FBE0F901F901895CF93DF9384
:10216000CDB7DEB7EB970FB6F894DEBF0FBECDBF8D
:10217000789484B5826084BD84B5816084BD85B562
:10218000826085BD85B5816085BD80916E0081606E
:1021900080936E0010928100809181008260809314
:1021A0008100809180008160809380008091B100E7
:1021B00084608093B1008091B00081608093B00012
:1021C00080917A008B7F80937A0080917A00826080
:1021D00080937A0080917A00816080937A00809168
:1021E0007A00806880937A001092C10084B7877F5C
:1021F00084BF0FB6F894A8958091600088618093A1
:102200006000109260000FBE8FEF9FEF9093D50299
:102210008093D402A89561E084E00E94C90F61E038
:1022200083E00E94C90F61E089E00E94C90F61E06C
:102230008AE00E94C90F62E086E00E94C90F62E056
:1022400081E10E94C90F62E085E00E94C90F60E051
:1022500084E00E94680F60E083E00E94680F60E005
:1022600089E00E94680F46EA642E40E0742E02E97D
:1022700010E0F12CF3012491F8018491882301F1FD
:102280002223F1F0422F50E0BA0161507109462338
:102290005723452BA9F490E0880F991FFC01E258C1
:1022A000FF4FA591B491FC01E857FF4F4591549120
:1022B0008C91822329F4DA018C91282309F48BC6AE
:1022C000F394BFEF6B1A7B0A0F5F1F4FE3E1FE121F
:1022D000D1CF60E08FE00E94130365E08EE00E94A2
:1022E000130381EE97E090934E0180934D0181E0BE
:1022F00080934C018FE0E5EBF1E0DF011D928A95C0
:10230000E9F70E94610E8091BA019091BB01813E74
:1023100097402CF463E082E390E00E94D4098BEABA
:1023200097E0909301018093000180913F018860C4
:1023300080933F0186B180933B0180916C0088605F
:1023400080936C008091680082608093680080E2D6
:1023500093E00E94A70A182F8093420182E593E040
:102360000E94A70A8093430185E593E00E94A70A93
:102370008093440188E593E00E94A70A8093450179
:102380008BE593E00E94A70A80934A0111501E3FFB
:1023900018F098EF9093420187FF22C010924A01F3
:1023A0001092450110924401109243010E94910A3B
:1023B00060914A018BE593E00E94CB0A6091430152
:1023C00082E593E00E94CB0A6091440185E593E0A9
:1023D0000E94CB0A6091450188E593E00E94CB0AF8
:1023E00081E00E94E40A8FEF8093310280933202F1
:1023F00080933302809334028093350280933602B7
:10240000E0914702F091480282E08083E09143022C
:10241000F09144021082E0914502F09146028CE076
:10242000808310924F02E0914B02F0914C0286E0C3
:102430008083E0914902F0914A028081806180832B
:10244000E0914902F0914A02808188608083E091A6
:102450004902F0914A02808180688083E0914902BC
:10246000F0914A0280818F7D808310923D010E940D
:10247000170A68EE73E080E090E00E940510109269
:10248000460110924701109248011092490189E0DB
:1024900090E09093D5028093D40299E288E10FB640
:1024A000F894A895809360000FBE90936000FE01A1
:1024B00031963F012E01F5E24F0E511C1E0125E021
:1024C000220E311CA89580914F018823D1F01092E3
:1024D0004F010E942C030E94610E2091BA0130919D
:1024E000BB0180914D0190914E012817390749F4A5
:1024F0009091B90180914C01981303C080E00E9433
:10250000E40A1FB7F89480915001811127C0ECE9CB
:10251000F0E08491E0EBF0E09491E82FF0E0EE0F32
:10252000FF1FE258FF4FA591B491EC91E92321F4EC
:1025300061E08AE00E94680F61E08AE00E94C90FB2
:102540008CB580618CBD8CB580648CBD61E08DE004
:102550000E94C90F61E08BE00E94C90F8091500179
:102560008F5F809350011FBF61E08091F0020E9455
:10257000C90F61E08091F0020E94680F8091F10222
:102580008F3F41F44FE062E082EE92E00E946C03E4
:1025900013E025C060E00E94C90F2091F10230E0F5
:1025A000F901E654FF4F8491F901EA55FF4F149168
:1025B000F901EE56FF4F04910023F9F081110E94BA
:1025C0003F0FE02FF0E0EE0FFF1FE859FF4FA591FE
:1025D000B491EC911E2389F0D5CF115019F162E32B
:1025E00070E080E090E00E94051062E082EE92E0F0
:1025F0000E944C0384FF16C0F0CF61E08091F1028D
:102600000E94C90F60E08091F1020E94680F61E0B2
:102610008091F1020E94680F62E370E080E090E038
:102620000E94051040E064E282EE92E00E946C039A
:1026300040E066E282EE92E00E946C0346E268E4CB
:1026400082EE92E00E946C0340E864E582EE92E044
:102650000E946C0349EA66E582EE92E00E946C03F8
:1026600043E068E582EE92E00E946C0348EE6AE582
:1026700082EE92E00E946C0340E46AE282EE92E015
:102680000E946C034DE362E282EE92E00E946C03D2
:102690000E942E0F43E068E282EE92E00E94E9047D
:1026A0006CE482EE92E00E944C038077803791F0D8
:1026B00040E76CE482EE92E00E94E9046CE482EE72
:1026C00092E00E944C03482F40676CE482EE92E057
:1026D0000E946C030E942E0F65E070E080E090E0A5
:1026E0000E94051082EE92E00E94FD04882309F406
:1026F000D4C382EE92E00E949B01882309F4CDC3EB
:10270000E2E1FE2EFBAEAE01455C5F4FBE016D5EA9
:102710007F4F84E00E94EF08882309F4BEC38D89AF
:102720008F3F09F09BC28C89893F19F080E00E949D
:10273000E40A84E0FE017396D20101900D928A951D
:10274000E1F782E18BAFAE01455C5F4FBE016D5E8C
:102750007F4F85E00E94EF08182F882349F084E01E
:10276000FE017396DE01999601900D928A95E1F72C
:1027700082E18BAFAE01455C5F4FBE016D5E7F4F66
:1027800086E00E94EF08182349F084E0FE0173966A
:10279000DE019D9601900D928A95E1F782E18BAF63
:1027A000AE01455C5F4FBE016D5E7F4F87E00E94CA
:1027B000EF08112309F471C3882309F46EC384E080
:1027C000FE017396DE01D19601900D928A95E1F794
:1027D0009091430189A598133DC2909144018AA527
:1027E000981338C2909145018BA5981333C28EA1DE
:1027F0008B3F09F4A2C030F4893F09F484C18A3FB9
:1028000039F14DC38D3F09F446C108F4AAC08E3F8B
:1028100009F045C36DA56093430182E593E00E94F2
:10282000CB0A6EA56093440185E593E00E94CB0A34
:102830006FA56093450188E593E00E94CB0A68A9E3
:1028400060934A018BE593E00E94CB0A62E058C195
:102850008FE0E5EBF1E0DF011D928A95E9F72DA508
:102860002093B9018EA590E08053984F9093BB01BF
:102870008093BA013FA53093B80149A94093B701AD
:102880005AA95093B6016BA96093B501803DB7E09A
:102890009B0721F0805D70E8E72E02C084E6E12C02
:1028A00069835A834B831C823D832E838F8381E00F
:1028B00080930D0288E680932F0210920E021092F0
:1028C000300280E090E00E94130E8301F12C4AE078
:1028D000D42EF80180816D2D0E944F1820E1829F37
:1028E000900D1124908335E0F31203C08E818E0D7C
:1028F0008E830F5F1F4F608186ED92E00E94780704
:10290000F39447E0F412E5CF0E94B70D8FE0E5EBBA
:10291000F1E0DF011D928A95E9F70E94610E809136
:10292000BA019091BB01813E97402CF463E082E3B1
:1029300090E00E94D40963E0E3C06DA5662369F0CE
:1029400080914201681709F4CAC16093420180E294
:1029500093E00E94CB0A65E0D3C066E082E390E09A
:1029600076C182E080934B0180914A0184FF07C0C9
:1029700010924A0160E08BE593E00E94CB0A85E06B
:10298000F30111928A95E9F78FE0E5EBF1E0DF01C1
:102990001D928A95E9F78DA58093B90180934C012A
:1029A0008EA590E08053984F9093BB018093BA011D
:1029B00090934E0180934D018FA58093B80189A912
:1029C0008093B7018AA98093B6018BA98093B50142
:1029D0000E942C031091B8018091B7019091B6012B
:1029E0002091B5012DAB9EAB8FAB18AF81E08093EA
:1029F0000D0288E680932F0210920E021092300290
:102A000087E090E00E94130E812F6AE00E944F1829
:102A1000B0E18B9F900D1124092F10E07E01E5E3BA
:102A2000EE0EF11C4301D12C3AE0C32EF3E0DF128D
:102A30000FC08C8140E8849F900111249D8170E437
:102A4000979FC0011124822B932B802B912B11C0B7
:102A5000D7018C916C2D0E944F18292FB0E18B9FCC
:102A6000200D1124F4018081F0E88F9FC001112412
:102A7000822B0E94130ED3942FEFE21AF20A3FEF3B
:102A8000831A930A44E0D412D1CF0E94B70D0E945A
:102A9000910A64E035C080E1D3011D928A95E9F77F
:102AA000CC24DD24C618D70801E015E0A89562E320
:102AB00070E080E090E00E94051061E084E00E94F8
:102AC000680F7301C7018C0D9D1D0E943918F70115
:102AD00081937F012E163F06A9F7B301812F0E9433
:102AE000F50E082360E084E00E94680F1F5FF4E0A9
:102AF000CF0ED11C1333D1F6002309F4D0C166E008
:102B000084EF91E0A4C010E1D301E12F1D92EA957A
:102B1000E9F70E94170A082F0E94610E89E689834F
:102B2000B30188E00E94F50E982ED301E12F1D928B
:102B3000EA95E9F780914201898380914A018A836D
:102B40000B8380914B018C83B30189E00E94F50EC9
:102B50009822D3011D921A95E9F78091C0019091B6
:102B6000C1012091C2013091C30139832A839B8323
:102B70008C83B3018AE00E94F50E98228FE0E5EB8A
:102B8000F1E0DF011D928A95E9F787E00E94F902E2
:102B90000E9467028093B50188E00E94F9020E94BA
:102BA00067028093B60189E00E94F9020E946702E1
:102BB0008093B7018AE00E94F9020E946702809325
:102BC000B801E0904C01E092B90190914D01209143
:102BD0004E01F92E9093BA012093BB01A090B5014C
:102BE000B090B601C090B701D82E022F1091BC0151
:102BF0002091BD013091BE014091BF015091C001B3
:102C00006091C1017091C2018091C3010E94700264
:102C10006093C0017093C1018093C2019093C3017E
:102C200099838A837B836C83B3018BE00E94F50ECA
:102C30009822A89568EE73E080E090E00E9405106D
:102C4000992011F061E001C062E08AEF90E00E94FB
:102C5000D40925C164E082E390E01DC180E00E94B8
:102C6000E40A90904201B8EF9B16D9F1E9EF9E1269
:102C700069C080E1D3011D928A95E9F701E015E072
:102C8000A89562E370E080E090E00E94051061E0AA
:102C900084E00E94680FB301812F0E94F50E082383
:102CA00060E084E00E94680F1F5F133349F7002340
:102CB00009F4F5C00E94610E8091C0019091C1019C
:102CC0002091C2013091C30139832A839B838C8375
:102CD000B30185E00E94F50E882309F4E0C061E0AD
:102CE0000FCFF9AE1DAA1DA2AE01475C5F4FB30125
:102CF00084E00E94EF08882309F4CFC0898190E026
:102D0000982F88272A81820F911D892B09F4C5C02D
:102D10008B818F3F09F4C1C0B201CE01C5960E94DC
:102D200078098DA9883009F0B8C08DA18111B5C08E
:102D300080914A0183FFA8C00E944009882309F4BA
:102D4000A3C0ABC00B8910E0102F00278C89080F9F
:102D5000111D1AAE19AEFDAA0115110509F49DC089
:102D6000E0904A01BE2DB072FB2EE5FE15C0AE010B
:102D70004B5C5F4FB30186E00E94EF08882399F017
:102D800089818AAF8A8199EF980F9B3210F48F5F07
:102D900001C088E089AF07C0BE01665C7F4FCE01ED
:102DA000C9960E94780999AD88EF890F8B3208F097
:102DB00074C08AAD981609F46BC0E2FE12C0983058
:102DC00021F4E0EF9E120FC003C0F0EF9F1659F000
:102DD000853F49F025EF81E0921206C0983021F43A
:102DE00002C081E001C080E0E3FE04C00E9440090F
:102DF00091E08927882309F450C0E9AC80E1D20131
:102E00001D928A95E9F70E94610E9DA28091C001F2
:102E10009091C1012091C2012EA39FA388A7B20166
:102E20008E2D0E94F50EFF2041F08823B1F19DA266
:102E3000EEA2B20186E00E94F50E882371F1013AFC
:102E4000B5E01B0730F062E082E390E00E94D40915
:102E50001BC0780183E0F694E7948A95E1F7C701F7
:102E60000E9439180770112741E050E060E070E0DF
:102E700004C0440F551F661F771F0A95D2F7682FAD
:102E8000642BC7010E94411861E084EF91E003C008
:102E900062E08AEF90E00E94D40910E001C011E0E6
:102EA00080E589831A829E012D5F3F4F42E0B30186
:102EB00082EE92E00E948B03811111C01F92812C3F
:102EC000A12CB12CC12CD12CE12CF12C04E09301CC
:102ED00040E36CE082EE92E00E94D7030F909FB730
:102EE000F89480915001882319F08150809350010B
:102EF00080915001811105C08CB58F7B8CBD1092E3
:102F000041019FBF60E089E00E94680F112321F01A
:102F100088EB9BE00E94440C80914B01813089F149
:102F200060F0823009F04BC088EA91E60E94440CC0
:102F300061E084E00E94680F42C08AEF90E00E9446
:102F4000440C61E084E00E94680F80914A01837024
:102F500049F01092460110924701109248011092D8
:102F600049012DC08091460190914701A0914801EF
:102F7000B091490181159749A944B14000F181E020
:102F80001CC088EE93E00E94440C61E084E00E9443
:102F9000680F80914A0181FDDCCF4091460150913C
:102FA000470160914801709149014115584B6C44AB
:102FB0007A4028F080FF03C082E00E94E40A87E3A1
:102FC00092E00E94ED001816190614F40E94FB0A04
:102FD0000E94940177CA62E08F2D0E94C90F70C9C8
:102FE000E7E3F2E01382128288EE93E0A0E0B0E023
:102FF00084839583A683B78320E131E031832083E6
:1030000025EC30E03587248724EC30E037872687AD
:1030100020EC30E0318B208B21EC30E0338B228BA5
:1030200022EC30E0358B248B26EC30E0378B268B7E
:10303000118E128E138E148E2FEF3FEF3093D50228
:103040002093D402E6EDF2E013821282848395830A
:10305000A683B78382E291E091838083E2EEF2E07F
:1030600084E391E0918380838AE0868789E0878783
:103070000895F999FECF92BD81BDF89A992780B540
:103080000895262FF999FECF1FBA92BD81BD20BDAC
:103090000FB6F894FA9AF99A0FBE01960895991B03
:1030A00079E004C0991F961708F0961B881F7A953F
:1030B000C9F78095089597FB072E16F4009407D062
:1030C00077FD09D00E94AB1807FC05D03EF490951F
:1030D00081959F4F0895709561957F4F0895A1E266
:1030E0001A2EAA1BBB1BFD010DC0AA1FBB1FEE1F82
:1030F000FF1FA217B307E407F50720F0A21BB30BCD
:10310000E40BF50B661F771F881F991F1A9469F748
:1031100060957095809590959B01AC01BD01CF01A4
:103120000895A29FB001B39FC001A39F700D811DA0
:103130001124911DB29F700D811D1124911D0895C0
:103140000E949118A59F900DB49F900DA49F800D93
:10315000911D11240895AA1BBB1B51E107C0AA1F92
:10316000BB1FA617B70710F0A61BB70B881F991F28
:103170005A95A9F780959095BC01CD010895EE0F61
:10318000FF1F0590F491E02D099481E090E0F89400
:103190000C94D318FB01DC0102C001900D92415048
:0A31A0005040D8F70895F894FFCFCF
:1031AA009A019A019A019A019A019A010000000073
:1031BA0025019200BC007201ED00CB00DF00000087
:1031CA00000078074B07A8071F0743072F072007A8
:0A31DA00000000006505FD049B01E4
:107E0000112484B714BE81FFF0D085E080938100F7
:107E100082E08093C00088E18093C10086E0809377
:107E2000C20080E18093C4008EE0C9D0259A86E02C
:107E300020E33CEF91E0309385002093840096BBD3
:107E4000B09BFECF1D9AA8958150A9F7CC24DD24C4
:107E500088248394B5E0AB2EA1E19A2EF3E0BF2EE7
:107E6000A2D0813461F49FD0082FAFD0023811F036
:107E7000013811F484E001C083E08DD089C08234E0
:107E800011F484E103C0853419F485E0A6D080C0E4
:107E9000853579F488D0E82EFF2485D0082F10E0AE
:107EA000102F00270E291F29000F111F8ED06801E7
:107EB0006FC0863521F484E090D080E0DECF843638
:107EC00009F040C070D06FD0082F6DD080E0C81688
:107ED00080E7D80618F4F601B7BEE895C0E0D1E017
:107EE00062D089930C17E1F7F0E0CF16F0E7DF06D8
:107EF00018F0F601B7BEE89568D007B600FCFDCFD4
:107F0000A601A0E0B1E02C9130E011968C91119780
:107F100090E0982F8827822B932B1296FA010C0160
:107F200087BEE89511244E5F5F4FF1E0A038BF0790
:107F300051F7F601A7BEE89507B600FCFDCF97BE46
:107F4000E89526C08437B1F42ED02DD0F82E2BD052
:107F50003CD0F601EF2C8F010F5F1F4F84911BD097
:107F6000EA94F801C1F70894C11CD11CFA94CF0C13
:107F7000D11C0EC0853739F428D08EE10CD085E9AC
:107F80000AD08FE07ACF813511F488E018D01DD067
:107F900080E101D065CF982F8091C00085FFFCCF94
:107FA0009093C60008958091C00087FFFCCF809118
:107FB000C00084FD01C0A8958091C6000895E0E648
:107FC000F0E098E1908380830895EDDF803219F02E
:107FD00088E0F5DFFFCF84E1DECF1F93182FE3DFCA
:107FE0001150E9F7F2DF1F91089580E0E8DFEE27F6
:047FF000FF270994CA
:027FFE00040479
:0400000300007E007B
:00000001FF
