:100000000C9468000C9490000C9490000C94900058
:100010000C94F3010C9490000C944B020C949000FF
:100020000C9490000C9490000C9490000C94900010
:100030000C9490000C9490000C9490000C94900000
:100040000C94D40E0C9490000C94C1010C949B0160
:100050000C9490000C9490000C9490000C949000E0
:100060000C945B060C949000000000002300260016
:10007000290000000000240027002A0000000000E2
:10008000250028002B0004040404040404040202D4
:100090000202020203030303030301020408102007
:1000A0004080010204081020010204081020000012
:1000B0000008000201000003040700000000000027
:1000C00000001F1C1F1E1F1E1F1F1E1F1E1F9B1513
:1000D00011241FBECFEFD8E0DEBFCDBF11E0A0E0FE
:1000E000B1E0E0E0FDE202C005900D92AA33B10755
:1000F000D9F722E0AAE3B1E001C01D92AA3DB20700
:10010000E1F710E0C8E6D0E004C02197FE010E94AC
:100110006A16C736D107C9F70E941E0F0C947E16C7
:100120000C940000CF92DF92EF92FF920F931F93F7
:10013000CF93DF936C017A018B01C0E0D0E0CE1544
:10014000DF0581F0D8016D918D01D601ED91FC9113
:100150000190F081E02DC6010995892B11F02196BF
:10016000EECF7E01C701DF91CF911F910F91FF90DC
:10017000EF90DF90CF9008950895BC016E5F7F4FA0
:10018000DC01ED91FC910190F081E02D40E00995BA
:1001900091E0811190E0892F089585ED8093BC0056
:1001A0008091BC0084FDFCCF1092EB01089540913A
:1001B0005A01262F30E0240F311D21323105DCF4A5
:1001C0002091EB012430C9F4FC0180E090E0861717
:1001D00058F430915A012191DC01A65CBE4FA30F67
:1001E000B11D2C930196F3CF80915A01680F609353
:1001F0005A0180E0089581E0089582E0089508950D
:10020000E091A4018091A301E81730F4F0E0EB55F0
:10021000FE4F808190E008958FEF9FEF08959091B9
:10022000A4018091A301981750F4E92FF0E0EB5559
:10023000FE4F208130E09F5F9093A40102C02FEF1A
:100240003FEFC90108958091A30190E02091A4019E
:10025000821B91090895CF92DF92EF92FF920F9344
:100260001F93CF93DF937C01CB018A012091EC0196
:10027000222389F0EB016B01C40ED51ECC15DD05E0
:1002800069F06991D701ED91FC910190F081E02D29
:10029000C7010995F3CF642F0E94D700C801DF91F1
:1002A000CF911F910F91FF90EF90DF90CF90089525
:1002B000CF93DF931F92CDB7DEB769832091EC0116
:1002C0002223D1F020910F02203240F021E030E0D3
:1002D000FC013383228380E090E015C08091ED0122
:1002E000E82FF0E0E251FE4F998190838F5F809379
:1002F000ED0180930F0205C061E0CE0101960E94DE
:10030000D70081E090E00F90DF91CF91089508959C
:1003100080E090E0089581E080938B0108950E9431
:10032000701686E192E00E942E0A21E0892B09F4E2
:1003300020E0822F08951F920F920FB60F92112482
:100340002F933F934F935F936F937F938F939F93DD
:10035000AF93BF93EF93FF9386E192E00E941E0D4F
:10036000FF91EF91BF91AF919F918F917F916F918D
:100370005F914F913F912F910F900FBE0F901F9063
:1003800018951F920F920FB60F9211242F938F93EF
:100390009F93EF93FF93E0912602F09127028081D3
:1003A000E0912C02F0912D0282FD12C0908180918B
:1003B0002F028F5F8F7320913002821751F0E091EE
:1003C0002F02F0E0EA5EFD4F958F80932F0201C06F
:1003D0008081FF91EF919F918F912F910F900FBE90
:1003E0000F901F9018951F920F920FB60F92112425
:1003F0002F933F934F935F936F937F938F939F932D
:10040000AF93BF93CF93EF93FF9396B180917F010A
:10041000C0918201C8238927C82390937F01C0FF20
:1004200005C0E0910001F09101010995C1FF05C0EF
:10043000E0910201F09103010995C2FF05C0E0912E
:100440000401F09105010995C3FF05C0E0910A017F
:10045000F0910B010995C4FF05C0E0910601F091F0
:1004600007010995C5FF05C0E0910801F091090158
:100470000995FF91EF91CF91BF91AF919F918F918E
:100480007F916F915F914F913F912F910F900FBE90
:100490000F901F9018951F920F920FB60F92112474
:1004A0000F900FBE0F901F901895CF93C62F91E01D
:1004B0009093EC0198E690930E021092ED01109249
:1004C0000F02682F85EB92E00E9458016C2F85EB9C
:1004D00092E00E945801CF910C944B0B81E08093E5
:1004E000EC0188E680930E021092ED0110920F024B
:1004F0006FE085EB92E00E9458010E944B0B81E077
:1005000090E00E94AC0B85EB92E00E940F01682FF7
:100510006E7F8FE00C94550280918401882361F0F6
:100520009FB7F8942091840180917D01213019F4C6
:100530008DBB9FBF08958FBF08958EBD00000DB481
:1005400007FEFDCF8EB5089520918401222379F016
:100550002FB7F89430918401313039F43DB33093A2
:100560007D013DB33DBB2FBF02C020937D018CBDFB
:100570009DBD08951F93CF93DF93EC01162F83E564
:1005800090E00E94A40260E08E850E94D80D812F29
:1005900080680E949D0280E00E949D02182F61E009
:1005A0008E850E94D80D0E948C02812FDF91CF9101
:1005B0001F9108950F931F93CF93DF93EC01062FA4
:1005C000142F83E590E00E94A40260E08E850E94D3
:1005D000D80D802F0E949D02812F0E949D0261E014
:1005E0008E850E94D80DDF91CF911F910F910C94B1
:1005F0008C02CF92DF92EF92FF920F931F93CF93D3
:10060000DF93EC016B01142F790140E062E00E945E
:10061000DA0244E06AE0CE010E94DA0240E864E1D6
:10062000CE010E94DA02A601612FCE010E94070EC0
:1006300043E062E0CE010E94DA0208E813E16AE0DA
:10064000CE010E94BA0282FF13C040E062E0CE01F8
:100650000E94DA0264E4CE010E94BA02F7018083AC
:1006600062E4CE010E94BA02F701818380E004C0F7
:100670000150110921F783E0DF91CF911F910F9174
:10068000FF90EF90DF90CF9008953F924F925F924E
:100690006F927F928F929F92AF92BF92CF92DF9292
:1006A000EF92FF920F931F93CF93DF9300D0CDB7BC
:1006B000DEB73C01162F942E2901A114B10419F0C4
:1006C000F501408101C040E0342EF0E18F9E300CF6
:1006D000112440E062E0C3010E94DA024FE768E0C3
:1006E000C3010E94DA0240E864E1C3010E94DA0219
:1006F000A201602FC3010E94070E432D6AE1C301CE
:100700000E94DA02412F62E0C3010E94DA021C302B
:1007100051F46AE1C3010E94BA02482F40686AE1BD
:10072000C3010E94DA0200ED17E068E0C3010E94F5
:10073000BA02982F992139F480FD03C001501109A4
:10074000A1F783E0A0C06CE0C3010E94BA02982E1A
:10075000837109F095C0E114F10409F459C0C11482
:10076000D10409F455C064E1C3010E94BA02582EB5
:10077000F6018081851508F47DC050825520E9F18D
:1007800083E590E00E94A40260E0F30186850E9468
:10079000D80D5A9482E90E949D028820A1F00FEFA3
:1007A00010E001C0000F8A94EAF782E90E949D02DE
:1007B000202F2095F701908192238023892B80831D
:1007C0008824839401C0812C082D10E00E0D1F1D7C
:1007D000851438F482E90E949D02F8018083839495
:1007E000F3CF80E00E949D02F801808361E0F30175
:1007F00086850E94D80D0E948C0268E1C3010E9488
:10080000BA028770A114B10421F0F501808301C000
:1008100080E093FC31C0E114F10481F1C114D104F2
:1008200069F19E89992351F1F6014081413021F40B
:10083000843041F58FEF27C0423020F1811122C072
:1008400042509E012F5F3F4FB701C3010E94F90242
:10085000811119C0F6018081E80EF11CF701329771
:100860009081898198130EC0319690818A81981366
:1008700009C004C084E007C082E005C080E003C076
:1008800081E001C087E00F900F90DF91CF911F9121
:100890000F91FF90EF90DF90CF90BF90AF909F901F
:1008A0008F907F906F905F904F903F9008950F933F
:1008B0001F93CF93DF938C01D62FC42F0E94BA02CF
:1008C000C0954C2F48236D2FC801DF91CF911F9108
:1008D0000F910C94DA026F927F928F92AF92BF9237
:1008E000CF92DF92EF92FF920F93CF93DF9300D0DE
:1008F00000D01F92CDB7DEB73C0182E08D8340E08F
:1009000064E2C3010E94DA0240E066E2C3010E9491
:10091000DA0246E268E4C3010E94DA0286E28B83CF
:100920008D81823020F140E86CE1C3010E945704C0
:1009300087E08C831F92812CCE0104965C01019686
:100940006C0104977C0101E09E012D5F3F4F40E365
:100950006CE0C3010E9445030F9081110BC08D8193
:10096000823039F481E09C81911104C008C084E098
:1009700001C081E091E0823019F090E001C091E087
:10098000892F0F900F900F900F900F90DF91CF91C4
:100990000F91FF90EF90DF90CF90BF90AF908F902E
:1009A0007F906F9008952F923F924F925F926F9237
:1009B0007F928F929F92AF92BF92CF92DF92EF92EF
:1009C000FF920F931F93CF93DF93CDB7DEB72D9791
:1009D0000FB6F894DEBF0FBECDBF413508F004C19D
:1009E0004D872B013C0140E86CE10E94570431E047
:1009F0003C878C85823091F08330F1F0813009F0B2
:100A0000F5C083E989839D859923D9F081E0F201BE
:100A10009081953008F480E0912C18C0F5E9F983B5
:100A20003D85332381F081E0F2019081983008F414
:100A300080E043E0942E0AC087E9898336E0932E54
:100A400004C0912C02C023E0922E80E01D85F8E0C6
:100A50009F9E1019112417FD10E0882321F098E8BB
:100A60009B8333E001C032E021E0912F977009F4BD
:100A700020E0912F959595959595290F29F4882338
:100A800009F491C0185F8FC0811102C094E001C0C9
:100A900093E0291708F4922FE92DF0E03196E40D48
:100AA000F51D232F4191A1E0B0E0AC0FBD1FA20FB7
:100AB000B11D4C932F5F422F431B491798F3DFCF93
:100AC0008111DFC010320CF093C010E230E73A839E
:100AD0009B818C8189279D8189279E8189278F838E
:100AE0009E01285F3F4F47E0BE016F5F7F4FC3010C
:100AF0000E94F9028111A3C01A8683E08B87FE0150
:100B000037961F0109E08A84482D4295407F480DA1
:100B10006AE1C3010E94DA021F92CE010A965C01CB
:100B2000FE013B966F0171019E012F5F3F4F40E335
:100B30006CE0C3010E944503082F0F90823009F03A
:100B4000BFCF6CE1C3010E94BA0285FD9AC08F71CC
:100B500009F480E2282F30E0412F110F550B421786
:100B600053070CF043C0182F822F859585958595E6
:100B700091E0980F422F477081E009F480E0890FDF
:100B8000E1E0F0E0EC0FFD1FE80FF11D215031090D
:100B90002770332781E090E001C0880F2A95EAF79B
:100BA0009081892B808310320CF090CF912F977019
:100BB0009A87812F8595859585958E5F292FF0E100
:100BC0008F9F200D11242A8301E0911101C000E0C4
:100BD000080F22242394312C2C0E3D1E280E311C8C
:100BE00039E0381B3B878FCF06E04BC005E049C09A
:100BF0008B81883809F442C082E094E0E92DF0E06E
:100C00003196E40DF51D980FA1E0B0E0AC0FBD1FCB
:100C1000A80FB11D2C9121938F5F8913F5CF8B8580
:100C2000833041F58A85811125C09E012D5F3F4F9C
:100C300041E0B101C3010E94F902882311F0082F9D
:100C400020C09B81F1018181981316C09C81828113
:100C5000981312C0808182FF04C0FC85FF5FFC876F
:100C6000C8CEF20183878C85880F9C84980E93945C
:100C7000908207C001E005C007E003C083E093E075
:100C8000BDCF802F2D960FB6F894DEBF0FBECDBF1F
:100C9000DF91CF911F910F91FF90EF90DF90CF9058
:100CA000BF90AF909F908F907F906F905F904F908C
:100CB0003F902F9008951F920F920FB60F9211241C
:100CC0002F933F934F935F936F937F938F939F9354
:100CD000AF93BF93EF93FF938091B900887F8036E5
:100CE00009F49CC068F5883209F45BC090F4803147
:100CF00009F454C038F4882309F4F2C0883009F4A8
:100D00004DC0F2C0883109F44CC0803209F45DC096
:100D1000EBC0803409F468C048F4803309F455C04E
:100D2000883309F0E1C08093E901D4C0803509F42B
:100D30004FC0883509F45DC0883409F0D5C0D2C0F1
:100D4000883909F4C3C0A8F4883709F467C038F4B7
:100D5000883609F463C0803709F460C0C5C088389C
:100D600009F4B4C0803909F45FC0803809F0BCC010
:100D70005BC0803B09F484C038F4803A09F466C053
:100D8000883A09F47DC0B0C0803C09F4A3C0883C17
:100D900009F4A0C0883B09F486C0A6C08091C601B2
:100DA00010C09091E8018091E701981770F5E091EB
:100DB000E80181E08E0F8093E801F0E0E953FE4FF7
:100DC00080818093BB0085EC82C08093E9018AC05A
:100DD000E091E80181E08E0F8093E8018091BB00F3
:100DE000F0E0E953FE4F80839091E8018091E701A4
:100DF0006AC0E091E80181E08E0F8093E801809164
:100E0000BB00F0E0E953FE4F80838091EA0181113D
:100E100069C081E08093C50184EA5DC083E080936E
:100E2000EB0110927C01CFCF80917C01803208F0E1
:100E30004DC0E0917C0181E08E0F80937C01809118
:100E4000BB00F0E0E45AFE4F8083BDCF85EC809379
:100E5000BC001092EB0180917C01803230F4E09173
:100E60007C01F0E0E45AFE4F108260917C0170E05A
:100E70008CE591E0E0E0F0E0099510927C0134C04F
:100E800084E08093EB0110925B0110925A01E0E044
:100E9000F0E0099580915A01811105C081E08093AD
:100EA0005A0110923A01E0915B0181E08E0F80932C
:100EB0005B01F0E0E65CFE4F80818093BB00909187
:100EC0005B0180915A01981708F47DCF85E88093E3
:100ED000BC000AC085EC8093BC001092EB0104C0FA
:100EE0001092E9010E94CD00FF91EF91BF91AF9167
:100EF0009F918F917F916F915F914F913F912F9132
:100F00000F900FBE0F901F901895CF93DF93CDB722
:100F1000DEB763970FB6F894DEBF0FBECDBF82E198
:100F20008B8BAE014D5E5F4FBE016F5F7F4F85E0E3
:100F30000E94FA0A8823B9F00E94F50B8C81409137
:100F40009F015091A0016091A1017091A201481BE5
:100F500051096109710981E040385E4D68427105AF
:100F600018F480E001C081E063960FB6F894DEBF0C
:100F70000FBECDBFDF91CF9108958F929F92AF9218
:100F8000BF92CF92DF92EF92FF920F931F93CF9376
:100F9000DF93CDB7DEB763970FB6F894DEBF0FBE11
:100FA000CDBF5C016B01FC011082FB01108292E35A
:100FB000992E28E0F22E32E1832E092D10E00F0D3C
:100FC000111D15950795E02E8B8AF2E0F017F0F4CD
:100FD000AE014D5E5F4FBE016F5F7F4F802F0E945D
:100FE000FA0A882399F08981811102C0902E03C0EA
:100FF0000F1521F0F02EF91400F302C0F394FBCF8B
:101000008111E394F501E082F601808363960FB6C7
:10101000F894DEBF0FBECDBFDF91CF911F910F912E
:10102000FF90EF90DF90CF90BF90AF909F908F9008
:101030000895AF92BF92CF92DF92EF92FF920F93FB
:101040001F93CF93DF93062F10E0C0E0D0E06C0138
:10105000E12CF12C580181E0A81AB108C017D10782
:1010600001F1A89561E084E00E94D80D61E083E081
:101070000E94D80DC701B6010E94750EA89560E0C8
:1010800084E00E94D80D60E083E00E94D80DCA156C
:10109000DB052CF4C701B6010E94750EA8952196B8
:1010A000DDCFDF91CF911F910F91FF90EF90DF90F7
:1010B000CF90BF90AF9008958F929F92AF92BF92C2
:1010C000CF92DF92EF92FF92CF93DF93A89561E0EA
:1010D00084E00E94D80D68E873E180E090E00E940F
:1010E000750ECAE0C12CD12C7601DEE484EB882E8B
:1010F0008BE2982E81E1A82EB12C80917A00806835
:1011000080937A00D0937C0065E070E080E090E00E
:101110000E94750E80917A00806480937A0080919D
:101120007A0086FDFCCF209178008091790030E034
:10113000382B032E000C440B550B80917A008058FD
:1011400080937A00C501B4010E941A16C20ED31E04
:10115000E41EF51EC15089F660E084E00E94D80DBF
:101160006AEF70E080E090E00E94750EA89588E13B
:10117000C81689E7D806E104F10438F465E082E393
:1011800090E00E94190880E006C061E084EF91E0E1
:101190000E94190881E0DF91CF91FF90EF90DF90DE
:1011A000CF90BF90AF909F908F900895CF93DF9393
:1011B000C0E0D0E0A89560E0CE010E94EC1562E0AE
:1011C00070E080E090E00E94750E2196C53BD1054D
:1011D00089F7DF91CF9108950F931F93CF93DF93FA
:1011E0008C010E94E415C82FC80101960E94E415E5
:1011F000D82FC80102960E94E415CD1759F0C817E0
:1012000051F0D81741F062E082E390E00E941908A3
:1012100080E001C08C2FDF91CF911F910F91089535
:10122000FF920F931F93CF93DF938C01F62EC0E0B4
:10123000D0E06F2DC8018C0F9D1F0E94EC152196E8
:10124000C330D105B1F7DF91CF911F910F91FF907E
:10125000089580938A011092850110928601109260
:101260008701109288018091890181FF04C081E08B
:1012700080938A010895837011F010928A01089575
:10128000CF93DF93EC0180918B018111B3C060E0BB
:1012900089E00E94D80D60E084E00E94D80D60E0F3
:1012A00083E00E94D80DA895C0344FE1D40714F50F
:1012B000209701F1C03A8FE0D80704F5C03D47E020
:1012C000D40704F5C83E83E0D80704F5C43F41E0E5
:1012D000D40704F5CA3FD1050CF5C837D10514F57C
:1012E000CC33D1051CF5CE31D10524F52FE030E00B
:1012F00080E023C020E43FE189E01FC020EA3FE016
:1013000088E01BC020ED37E087E017C028EE33E00F
:1013100086E013C024EF31E085E00FC02AEF30E013
:1013200084E00BC028E730E083E007C02CE330E026
:1013300082E003C02EE130E081E083FD02C090E056
:1013400001C090E28770892BF89494B7977F94BF7F
:10135000909160009861909360008093600080910C
:101360006000806480936000789483B7817F84609C
:1013700083BF83B7816083BF889583B78E7F83BF28
:1013800083B78E7F83BF8091B3029091B4028F3F69
:101390004FEF940781F083FD02C048E001C048E2AE
:1013A0008770842B98E10FB6F894A895909360000D
:1013B0000FBE80936000409185015091860160913D
:1013C000870170918801C901032E000CAA0BBB0B89
:1013D000840F951FA61FB71F8093850190938601E8
:1013E000A0938701B09388012C173D0718F4C21B06
:1013F000D30B49CFDF91CF910895FC01538D448DDC
:10140000252F30E0842F90E0821B930B541710F0AF
:10141000CF96089501970895FC01918D828D9817BC
:1014200061F0828DDF01A80FB11D5D968C91928DC8
:101430009F5F9F73928F90E008958FEF9FEF0895C5
:10144000FC01918D828D981731F0828DE80FF11D8E
:10145000858D90E008958FEF9FEF0895FC01918DA9
:10146000228D892F90E0805C9F4F821B91098F73A2
:101470009927089580E090E0892B29F00E9491013E
:1014800081110C94000008958F92AF92BF92CF9279
:10149000DF92EF92FF920F93CF93DF93CDB7DEB73A
:1014A0002C970FB6F894DEBF0FBECDBF90E69983A0
:1014B0008A8380E192E0AE014D5F5F4FDE011996B5
:1014C000FC012191CF01FA012193AF01EA17FB073B
:1014D000B9F7E091C302F0E0E054FD4FCE010D9664
:1014E00021912D93A817B907D9F71F92812CA12C10
:1014F000B12CC12CD12CE12CF12C0CE09E012F5FE2
:101500003F4F40E16EE081EC92E00E9445030F9076
:101510002C960FB6F894DEBF0FBECDBFDF91CF91F2
:101520000F91FF90EF90DF90CF90BF90AF908F9092
:1015300008958F92AF92BF92CF92DF92EF92FF9277
:101540000F93CF93DF93CDB7DEB764970FB6F894C0
:10155000DEBF0FBECDBF062FE62EF12CA701BC01CA
:10156000CE0101960E94751621E030E02C0F3D1F40
:101570002E0D3F1D402FBE016F5F7F4F81EC92E02B
:101580000E94F902811125C082E18C8B1B8A0E5FBB
:101590001F92812CCE0143965C0101966C0143970A
:1015A0007C019C0140E36CE081EC92E00E944503E9
:1015B0000F9081110EC08C89813051F48B89843059
:1015C00039F481E099819A3009F480E0819501C075
:1015D00081E064960FB6F894DEBF0FBECDBFDF91F9
:1015E000CF910F91FF90EF90DF90CF90BF90AF9091
:1015F0008F9008958F92AF92BF92CF92DF92EF9229
:10160000FF920F931F93CF93DF93182FEB016A0183
:1016100090E0039763E070E00E9406161350160FE7
:10162000812F80958370810F0E94440A811125C00B
:10163000209719F1F60180818231F8F080E38883E8
:1016400019839E012E5F3F4F42E0BE0181EC92E084
:101650000E94F902811111C081E08F93812CA12C8D
:10166000B12C7E0104E09E0140E36CE081EC92E04D
:101670000E94450391E00F90811190E0892FDF9146
:10168000CF911F910F91FF90EF90DF90CF90BF907F
:10169000AF908F90089530910F02313208F04BC017
:1016A0008091EB018111FCCF90910E0222E02093FA
:1016B000EB0121E02093EA012FEF2093E901109242
:1016C000E8013093E701EEEEF1E0A7ECB1E020E0B5
:1016D000321721F041914D932F5FFACF1092C6013E
:1016E0002091C601990F922B9093C6019091C5014C
:1016F000913061F41092C5019091C6019093BB00A6
:101700009091BC0093FDF8CF95EC01C095EE9093BD
:10171000BC009091EB019230E1F39091E9019F3F81
:1017200079F08091E901803241F08091E9018033C4
:1017300031F084E005C081E003C082E001C083E0B5
:101740001092ED0110920F021092EC010895682F93
:1017500085EB92E00C9458019091EB019111FCCF34
:10176000982F813208F090E281E08093EB01809322
:10177000EA012FEF2093E9011092E801290F20934D
:10178000E7018093C6018091C601806D8093C601F8
:101790008091C501813061F41092C5018091C6012C
:1017A0008093BB008091BC0083FDF8CF85EC01C025
:1017B00085EE8093BC008091EB018130E1F3809154
:1017C000E801891710F49091E801E7ECF1E0A5EA4F
:1017D000B1E080E0891721F021912D938F5FFACF3E
:1017E0001092A4018093A3010895EF92FF920F93AA
:1017F0001F93CF93DF93CDB7DEB727970FB6F8943B
:10180000DEBF0FBECDBF81E08093EC0188E6809300
:101810000E021092ED0110920F0280E090E00E9403
:10182000A70B0E944B0B87E090E00E94AC0B9E013F
:101830002F5F3F4F790100E010E085EB92E00E94BE
:101840000F01982F9F70153079F484FB222720F91F
:10185000220F322F330F330F230F920F9E83082F47
:10186000001F0027001F08C082958F703AE0839FF9
:10187000900D1124F70190831F5FFFEFEF1AFF0A0D
:101880001730D9F63F81832F90E0013019F480534F
:10189000984F02C08459984F198110939401FA808F
:1018A000F0929501EB80E09296014D814093970173
:1018B0002E812093980190939A01809399015C81E5
:1018C00050939B0130939E01803D37E0930708F4CD
:1018D00053C0BC01605D774050E041505109E2ECDB
:1018E000F0E031E0321730F4A4914A0F511D3F5F10
:1018F0003196F8CF233038F09B0123703327232B08
:1019000011F44F5F5F4F8D5C974095958795959546
:101910008795EDE6F1E06E9F90016F9F300D7E9F01
:10192000300D1124820F931F9C01240F351FA8E155
:10193000B0E00E943C169B01AC012E0D311D411DF3
:10194000511DACE3B0E00E944B169B01AC012F0D82
:10195000311D411D511D0E944B16012F10E020E04A
:1019600030E000581C4B2249374CDC01CB01800F82
:10197000911FA21FB31F03C080E090E0DC018093A1
:101980009F019093A001A093A101B093A20127967B
:101990000FB6F894DEBF0FBECDBFDF91CF911F9180
:1019A0000F91FF90EF900895EF92FF921F93CF93C6
:1019B000DF9300D0CDB7DEB7182F7B0190E00397FF
:1019C00063E070E00E9406161350160F812F809579
:1019D0008370810F0E94440A811115C0E114F10443
:1019E00079F080EA89831A8362E0CE0101960E9431
:1019F000990A811106C060E1C7010E94990A01C0DD
:101A000086E091E0811190E0892F0F900F90DF9197
:101A1000CF911F91FF90EF90089568E281EC92E0E2
:101A20000E94BA02982F9370933039F0482F436088
:101A300068E281EC92E00C94DA020895FC01848D56
:101A4000DF01A80FB11DA35ABF4F2C91848D90E0E8
:101A500001968F739927848FA689B7892C93A089C3
:101A6000B1898C91837080648C93938D848D98134D
:101A700006C00288F389E02D80818F7D80830895E0
:101A8000EF92FF920F931F93CF93DF93EC0181E0CE
:101A9000888F9B8D8C8D981305C0E889F98980818A
:101AA00085FD26C0F62E0B8D10E00F5F1F4F0F73C4
:101AB0001127E02E8C8DE8120CC00FB607FCFACF70
:101AC000E889F989808185FFF5CFCE010E941E0D3E
:101AD000F1CF8B8DFE01E80FF11DE35AFF4FF0822D
:101AE0009FB7F8940B8FEA89FB89808180620AC0D6
:101AF0009FB7F894EE89FF896083E889F98980812E
:101B00008370806480839FBF81E090E0DF91CF91FC
:101B10001F910F91FF90EF900895CF93DF93EC0109
:101B2000888D8823C9F0EA89FB89808185FD05C0FD
:101B3000A889B9898C9186FD0FC00FB607FCF5CF37
:101B4000808185FFF2CFA889B9898C9185FFEDCF7F
:101B5000CE010E941E0DE7CFDF91CF910895833013
:101B600081F028F4813099F08230A1F00895873017
:101B7000A9F08830B9F08430D1F4809180008F7D55
:101B800003C0809180008F7780938000089584B592
:101B90008F7702C084B58F7D84BD08958091B00099
:101BA0008F7703C08091B0008F7D8093B00008953F
:101BB0001F93CF93DF93282F30E0F901E255FF4FB9
:101BC0008491F901E656FF4FD491F901EA57FF4F8E
:101BD000C491CC23C1F0162F81110E94AF0DEC2FC0
:101BE000F0E0EE0FFF1FE458FF4FA591B4919FB7AF
:101BF000F894111104C08C91D095D82302C0EC91B7
:101C0000DE2BDC939FBFDF91CF911F910895DF9270
:101C1000EF92FF920F931F93CF93DF938C01F62ED9
:101C2000D42EE52E83E590E00E94A40260E0F80146
:101C300086850E94D80D82E10E949D02CD2DDE2D69
:101C4000CE018F0D911D7C01EC16FD0621F08991CE
:101C50000E949D02F9CF61E0F80186850E94D80DAF
:101C6000DF91CF911F910F91FF90EF90DF900C9437
:101C70008C02CF93DF9390E0FC01E656FF4F249156
:101C8000FC01EA57FF4F8491882361F190E0880FAF
:101C9000991FFC01EE58FF4FC591D491FC01E45807
:101CA000FF4FA591B491611109C09FB7F894888145
:101CB000209582238883EC912E230BC0623061F43F
:101CC0009FB7F8948881322F309583238883EC91D5
:101CD0002E2B2C939FBF06C08FB7F894E8812E2B34
:101CE00028838FBFDF91CF9108958F929F92AF92FB
:101CF000BF92CF92DF92EF92FF926B017C010E9424
:101D0000AF0E4B015C01C114D104E104F104F1F008
:101D10000E94AF0EDC01CB0188199909AA09BB0901
:101D2000883E9340A105B10570F321E0C21AD108A5
:101D3000E108F10888EE880E83E0981EA11CB11C12
:101D4000C114D104E104F10419F7DDCFFF90EF9045
:101D5000DF90CF90BF90AF909F908F9008953FB746
:101D6000F8948091D6029091D702A091D802B091B8
:101D7000D90226B5A89B05C02F3F19F00196A11DD9
:101D8000B11D3FBFBA2FA92F982F8827820F911D11
:101D9000A11DB11DBC01CD0146E0660F771F881F54
:101DA000991F4A95D1F708951F920F920FB60F927F
:101DB00011242F933F938F939F93AF93BF93809161
:101DC000D2029091D302A091D402B091D502309169
:101DD000D10220E3230F2D3720F44096A11DB11D21
:101DE00005C023EB230F4196A11DB11D2093D10205
:101DF0008093D2029093D302A093D402B093D502E1
:101E00008091D6029091D702A091D802B091D902C8
:101E10000196A11DB11D8093D6029093D702A09385
:101E2000D802B093D902BF91AF919F918F913F910A
:101E30002F910F900FBE0F901F901895CF93DF93A7
:101E4000CDB7DEB7EC970FB6F894DEBF0FBECDBFAF
:101E5000789484B5826084BD84B5816084BD85B585
:101E6000826085BD85B5816085BD80916E00816091
:101E700080936E0010928100809181008260809337
:101E80008100809180008160809380008091B1000A
:101E900084608093B1008091B00081608093B00035
:101EA00080917A008B7F80937A0080917A008260A3
:101EB00080937A0080917A00816080937A0080918B
:101EC0007A00806880937A001092C10084B7877F7F
:101ED00084BF0FB6F894A8958091600088618093C4
:101EE0006000109260000FBE8FEF9FEF9093B402DE
:101EF0008093B302A89561E084E00E94390E61E00E
:101F000083E00E94390E61E089E00E94390E61E0B1
:101F10008AE00E94390E62E086E00E94390E62E09B
:101F200081E10E94390E62E085E00E94390E60E096
:101F300084E00E94D80D60E083E00E94D80D60E04C
:101F400089E00E94D80D0AE910E046E8642E40E0DE
:101F5000742EF12CF8012491F3018491882301F16E
:101F60002223F1F0422F50E0BA016150710946235B
:101F70005723452BA9F490E0880F991FFC01EE58D8
:101F8000FF4FA591B491FC01E458FF4F4591549146
:101F90008C91822329F4DA018C91282309F4C6C597
:101FA000F3940F5F1F4FBFEF6B1A7B0AE3E1FE1242
:101FB000D1CF60E08FE00E94550265E08EE00E9484
:101FC00055021092930110929201109291018FE0AC
:101FD000E4E9F1E0DF011D928A95E9F70E94F50B33
:101FE0008091990190919A01813E97402CF463E091
:101FF00082E390E00E9419088BE891E090930B0136
:1020000080930A018091820188608093820186B169
:1020100080937F0180916C00886080936C00809138
:10202000680082608093680080E293E00E94EC0880
:10203000182F80938D0182E593E00E94EC08809335
:102040008E0185E593E00E94EC0880938F0188E57E
:1020500093E00E94EC08809390018BE593E00E944E
:10206000EC088093890111501E3F18F098EF90936F
:102070008D0187FF22C01092890110929001109269
:102080008F0110928E010E94D608609189018BE524
:1020900093E00E94100960918E0182E593E00E9416
:1020A000100960918F0185E593E00E94100960910D
:1020B000900188E593E00E94100981E00E942909BF
:1020C0008FEF80931002809311028093120280930D
:1020D000130280931402809315020E945C0868EE3C
:1020E00073E080E090E00E94750E109285011092DE
:1020F0008601109287011092880189E090E0909308
:10210000B4028093B30299E288E10FB6F894A895DF
:10211000809360000FBE90936000FE0131963F01F6
:10212000212C312C210123949E012B5F3F4F3CAF8A
:102130002BAFA89580918B018823D1F010928B0151
:102140000E946E020E94F50B2091990130919A0134
:1021500080919201909193012817390749F4909149
:10216000980180919101981303C080E00E94290991
:102170001FB7F89480918C01811127C0E0E9F0E04D
:102180008491E4EAF0E09491E82FF0E0EE0FFF1F75
:10219000EE58FF4FA591B491EC91E92321F461E051
:1021A0008AE00E94D80D61E08AE00E94390E8CB569
:1021B00080618CBD8CB580648CBD61E08DE00E9437
:1021C000390E61E08BE00E94390E80918C018F5FA7
:1021D00080938C011FBF61E08091CF020E94390E75
:1021E00061E08091CF020E94D80D8091D0028F3F94
:1021F00041F44FE062E081EC92E00E94DA0213E0E9
:1022000025C060E00E94390E2091D00230E0F90133
:10221000E255FF4F8491F901E656FF4F1491F90101
:10222000EA57FF4F04910023F9F081110E94AF0D8E
:10223000E02FF0E0EE0FFF1FE859FF4FA591B4919A
:10224000EC911E2389F0D5CF115019F162E370E0B3
:1022500080E090E00E94750E62E081EC92E00E94C6
:10226000BA0284FF16C0F0CF61E08091D0020E94D4
:10227000390E60E08091D0020E94D80D61E080911B
:10228000D0020E94D80D62E370E080E090E00E94EE
:10229000750E40E064E281EC92E00E94DA0240E0D8
:1022A00066E281EC92E00E94DA0246E268E481ECA8
:1022B00092E00E94DA0240E864E581EC92E00E943C
:1022C000DA0249EA66E581EC92E00E94DA0243E034
:1022D00068E581EC92E00E94DA0248EE6AE581EC62
:1022E00092E00E94DA0240E46AE281EC92E00E940D
:1022F000DA024DE362E281EC92E00E94DA020E948F
:102300000D0D43E068E281EC92E00E9457046CE41A
:1023100081EC92E00E94BA028077803791F040E72A
:102320006CE481EC92E00E9457046CE481EC92E052
:102330000E94BA02482F40676CE481EC92E00E9450
:10234000DA020E940D0D65E070E080E090E00E94EE
:10235000750E81EC92E00E946B04882309F451C34E
:1023600081EC92E00E94BD00882309F44AC312E187
:102370001AAFAE01465C5F4FBE016D5E7F4F84E0D9
:102380000E94FA0A882309F43CC38D898F3F09F023
:1023900043C28C89893F19F080E00E94290984E0BA
:1023A000FE017396DE01959601900D928A95E1F7F4
:1023B00082E18AAFAE01465C5F4FBE016D5E7F4F2A
:1023C00085E00E94FA0A182F882349F084E0FE0174
:1023D0007396DE01999601900D928A95E1F782E15C
:1023E0008AAFAE01465C5F4FBE016D5E7F4F86E0F7
:1023F0000E94FA0A182349F084E0FE017396DE0178
:102400009D9601900D928A95E1F782E18AAFAE0127
:10241000465C5F4FBE016D5E7F4F87E00E94FA0A07
:10242000112309F4EEC2882309F4EBC284E0FE0113
:102430007396DE01D19601900D928A95E1F7909105
:102440008E0189A59813E4C190918F018AA59813F4
:10245000DFC1909190018BA59813DAC18EA18B3FBB
:1024600009F4A2C030F4893F09F486C18A3F39F1EA
:10247000CAC28D3F09F446C108F4AAC08E3F09F0D4
:10248000C2C26DA560938E0182E593E00E9410099F
:102490006EA560938F0185E593E00E9410096FA5FA
:1024A0006093900188E593E00E94100968A9609309
:1024B00089018BE593E00E94100962E05AC18FE028
:1024C000E4E9F1E0DF011D928A95E9F72DA520935B
:1024D00098018EA590E08053984F90939A01809335
:1024E00099013FA53093970149A9409396015AA9B4
:1024F000509395016BA960939401803DB7E09B07D1
:1025000021F0805D70E8E72E02C084E6E12C69834B
:102510005A834B831C823D832E838F8381E080937B
:10252000EC0188E680930E021092ED0110920F02EA
:1025300080E090E00E94A70B8301F12C4AE0D42EAA
:10254000F80180816D2D0E94FA1520E1829F900D87
:102550001124908335E0F31203C08E818E0D8E839B
:102560000F5F1F4F608185EB92E00E945801F3944A
:1025700047E0F412E5CF0E944B0B8FE0E4E9F1E075
:10258000DF011D928A95E9F70E94F50B8091990170
:1025900090919A01813E97402CF463E082E390E0B1
:1025A0000E94190863E0E5C06DA5662369F080917B
:1025B0008D01681709F471C160938D0180E293E089
:1025C0000E94100965E0D5C066E082E390E01DC17D
:1025D00082E080938A018091890184FF07C0109274
:1025E000890160E08BE593E00E94100985E0F3012A
:1025F00011928A95E9F78FE0E4E9F1E0DF011D929D
:102600008A95E9F78DA580939801809391018EA515
:1026100090E08053984F90939A0180939901909302
:102620009301809392018FA58093970189A980934C
:1026300096018AA9809395018BA9809394010E94A9
:102640006E021091970180919601909195012091D1
:1026500094012DAB9EAB8FAB18AF81E08093EC0162
:1026600088E680930E021092ED0110920F0287E02F
:1026700090E00E94A70B812F6AE00E94FA15B0E15A
:102680008B9F900D1124092F10E06E01E5E3CE0E13
:10269000D11C7301B12C3AE0A32EF3E0BF120FC09E
:1026A0008C8140E8849F900111249D8170E4979F64
:1026B000C0011124822B932B802B912B11C0D601AA
:1026C0008C916A2D0E94FA15292FB0E18B9F200D65
:1026D0001124F7018081F0E88F9FC0011124822B23
:1026E0000E94A70BB3942FEFC21AD20A3FEFE31A4E
:1026F000F30A44E0B412D1CF0E944B0B0E94D608DB
:1027000064E037C080E1D3011D928A95E9F7CC24BB
:10271000DD24C618D70801E015E0A89562E370E053
:1027200080E090E00E94750E61E084E00E94D80D88
:102730007301C6018E0D9F1D0E94E415F701819360
:102740007F012BAD3CAD2E173F0799F7B301812FC9
:102750000E94D40C082360E084E00E94D80D1F5F23
:1027600034E0C30ED11C1333C1F6002309F44BC16E
:1027700066E084EF91E049C000E1D301E02F1D92B3
:10278000EA95E9F70E945C08F82E0E94F50B89E6AD
:102790008983B30188E00E94D40C182FD301E02F65
:1027A0001D92EA95E9F780918D01898380918901D5
:1027B0008A83FB8280918A018C83B30189E00E9425
:1027C000D40C1823D3011D920A95E9F780919F013B
:1027D0009091A0012091A1013091A20139832A8317
:1027E0009B838C83B3018AE00E94D40C1823A895A4
:1027F00068EE73E080E090E00E94750E112311F006
:1028000061E001C062E08AEF90E00E941908FBC01D
:1028100064E082E390E0F3C080E00E942909F09038
:102820008D01B8EFFB16D9F1E9EFFE126BC080E124
:10283000D3011D928A95E9F701E015E0A89562E3BE
:1028400070E080E090E00E94750E61E084E00E94FC
:10285000D80DB301812F0E94D40C082360E084E0DE
:102860000E94D80D1F5F133349F7002309F4CBC032
:102870000E94F50B80919F019091A0012091A101F0
:102880003091A20139832A839B838C83B30185E035
:102890000E94D40C882309F4B6C061E06ACF19AF56
:1028A0001DAA1DA2AE01475C5F4FB30184E00E94E8
:1028B000FA0A882309F4A5C0898190E0982F882717
:1028C0002A81820F911D892B09F49BC08B818F3F38
:1028D00009F497C0BE016B5D7F4FCE01C5960E9483
:1028E000BD078DA9883009F08CC08DA1811189C0E8
:1028F0008091890183FF7CC00E948507882309F4A9
:1029000077C07FC00B8910E0102F00278C89080F3B
:10291000111D1DAA1DA20115110509F472C0BE01E9
:102920006B5C7F4FCE0185960E94BD079DA188EF0D
:10293000890F8B3208F065C08DA9F81609F45CC0C8
:102940002091890122FF12C0983021F4B0EFFB12D0
:102950000FC003C0E0EFFE1659F0853F49F0F5EFD8
:1029600081E0FF1206C0983021F402C081E001C06E
:1029700080E023FF04C00E94850791E08927882317
:1029800009F43FC0EDA00E94F50BF98280919F01F0
:102990009091A0012091A1012A839B838C83B30194
:1029A0008E2D0E94D40C882361F1013A25E0120794
:1029B00030F062E082E390E00E94190819C07801CB
:1029C00083E0F694E7948A95E1F7C7010E94E41545
:1029D00007701127B201A10104C0440F551F661FE3
:1029E000771F0A95D2F7682F642BC7010E94EC1558
:1029F00061E084EF91E003C062E08AEF90E00E9422
:102A0000190810E001C011E080E589831A829E0157
:102A10002D5F3F4F42E0B30181EC92E00E94F9024A
:102A2000811111C01F92812CA12CB12CC12CD12C51
:102A3000E12CF12C04E0930140E36CE081EC92E0A6
:102A40000E9445030F909FB7F89480918C018823D2
:102A500019F0815080938C0180918C01811105C007
:102A60008CB58F7B8CBD109284019FBF60E089E0A4
:102A70000E94D80D112321F088EB9BE00E944009B1
:102A800080918A01813089F160F0823009F04BC079
:102A900088EA91E60E94400961E084E00E94D80D36
:102AA00042C08AEF90E00E94400961E084E00E9409
:102AB000D80D80918901837049F0109285011092A0
:102AC000860110928701109288012DC080918501A6
:102AD00090918601A0918701B09188018115974955
:102AE000A944B14000F181E01CC088EE93E00E944F
:102AF000400961E084E00E94D80D8091890181FD48
:102B0000DCCF4091850150918601609187017091E1
:102B100088014115584B6C447A4028F080FF03C06F
:102B200082E00E9429090E943A0A03CB62E08F2DBD
:102B30000E94390E35CAE6E1F2E01382128288EE75
:102B400093E0A0E0B0E084839583A683B78320E17F
:102B500031E03183208325EC30E03587248724EC75
:102B600030E03787268720EC30E0318B208B21EC5A
:102B700030E0338B228B22EC30E0358B248B26EC3B
:102B800030E0378B268B118E128E138E148E2FEF22
:102B90003FEF3093B4022093B302E5EBF2E01382EF
:102BA000128284839583A683B78382E291E0918326
:102BB0008083E1ECF2E084E391E0918380838AE01A
:102BC000868789E087870895F999FECF92BD81BDF8
:102BD000F89A992780B50895262FF999FECF1FBA44
:102BE00092BD81BD20BD0FB6F894FA9AF99A0FBE36
:102BF00001960895991B79E004C0991F961708F073
:102C0000961B881F7A95C9F78095089597FB072E24
:102C100016F4009407D077FD09D00E94561607FCE1
:102C200005D03EF4909581959F4F089570956195DC
:102C30007F4F0895A1E21A2EAA1BBB1BFD010DC0F8
:102C4000AA1FBB1FEE1FFF1FA217B307E407F5075C
:102C500020F0A21BB30BE40BF50B661F771F881F38
:102C6000991F1A9469F760957095809590959B01CE
:102C7000AC01BD01CF010895A29FB001B39FC00177
:102C8000A39F700D811D1124911DB29F700D811D98
:102C90001124911D08950E943C16A59F900DB49F8C
:102CA000900DA49F800D911D11240895AA1BBB1B9C
:102CB00051E107C0AA1FBB1FA617B70710F0A61B3C
:102CC000B70B881F991F5A95A9F780959095BC015D
:102CD000CD010895EE0FFF1F0590F491E02D0994AA
:102CE00081E090E0F8940C947E16FB01DC0102C0B8
:102CF00001900D9241505040D8F70895F894FFCFBD
:102D0000BC00BC00BC00BC00BC00BC00000000005B
:102D1000400D9200FD098D0D2E0A0C0A200A0000BC
:102D2000000058012B018801FF0023010F01000161
:0A2D300000000000D3046B04BD0096
:107E0000112484B714BE81FFF0D085E080938100F7
:107E100082E08093C00088E18093C10086E0809377
:107E2000C20080E18093C4008EE0C9D0259A86E02C
:107E300020E33CEF91E0309385002093840096BBD3
:107E4000B09BFECF1D9AA8958150A9F7CC24DD24C4
:107E500088248394B5E0AB2EA1E19A2EF3E0BF2EE7
:107E6000A2D0813461F49FD0082FAFD0023811F036
:107E7000013811F484E001C083E08DD089C08234E0
:107E800011F484E103C0853419F485E0A6D080C0E4
:107E9000853579F488D0E82EFF2485D0082F10E0AE
:107EA000102F00270E291F29000F111F8ED06801E7
:107EB0006FC0863521F484E090D080E0DECF843638
:107EC00009F040C070D06FD0082F6DD080E0C81688
:107ED00080E7D80618F4F601B7BEE895C0E0D1E017
:107EE00062D089930C17E1F7F0E0CF16F0E7DF06D8
:107EF00018F0F601B7BEE89568D007B600FCFDCFD4
:107F0000A601A0E0B1E02C9130E011968C91119780
:107F100090E0982F8827822B932B1296FA010C0160
:107F200087BEE89511244E5F5F4FF1E0A038BF0790
:107F300051F7F601A7BEE89507B600FCFDCF97BE46
:107F4000E89526C08437B1F42ED02DD0F82E2BD052
:107F50003CD0F601EF2C8F010F5F1F4F84911BD097
:107F6000EA94F801C1F70894C11CD11CFA94CF0C13
:107F7000D11C0EC0853739F428D08EE10CD085E9AC
:107F80000AD08FE07ACF813511F488E018D01DD067
:107F900080E101D065CF982F8091C00085FFFCCF94
:107FA0009093C60008958091C00087FFFCCF809118
:107FB000C00084FD01C0A8958091C6000895E0E648
:107FC000F0E098E1908380830895EDDF803219F02E
:107FD00088E0F5DFFFCF84E1DECF1F93182FE3DFCA
:107FE0001150E9F7F2DF1F91089580E0E8DFEE27F6
:047FF000FF270994CA
:027FFE00040479
:0400000300007E007B
:00000001FF
