:100000000C9468000C9490000C9490000C94900058
:100010000C94F8080C948D080C9455090C949000DD
:100020000C9490000C9490000C9490000C94900010
:100030000C9490000C9490000C9490000C94900000
:100040000C9411110C9490000C945B080C943508DE
:100050000C9490000C9490000C9490000C949000E0
:100060000C94C0010C9490000000000023002600B6
:1000700029001F1C1F1E1F1E1F1F1E1F1E1F0000EA
:100080000000240027002A000000000025002800AE
:100090002B00040404040404040402020202020209
:1000A000030303030303010204081020408001023C
:1000B00004081020010204081020000000080002BB
:1000C00001000003040700000000000000009D186C
:1000D00011241FBECFEFD8E0DEBFCDBF11E0A0E0FE
:1000E000B1E0E4E0F3E302C005900D92AA34B10759
:1000F000D9F723E0AAE4B1E001C01D92AE30B20707
:10010000E1F710E0C8E6D0E004C02197FE010E94AC
:100110006C19C736D107C9F70E945B110C9480197E
:100120000C94000085ED8093BC008091BC0084FDA0
:10013000FCCF10921F0208954091A101262F30E0BC
:10014000240F311D21323105DCF420911F022430AF
:10015000C9F4FC0180E090E0861758F43091A101C9
:100160002191DC01AF57BE4FA30FB11D2C93019617
:10017000F3CF8091A101680F6093A10180E0089501
:1001800081E0089582E008950895E091D80180917A
:10019000D701E81730F4F0E0E752FE4F808190E09D
:1001A00008958FEF9FEF08959091D8018091D70126
:1001B000981750F4E92FF0E0E752FE4F208130E02D
:1001C0009F5F9093D80102C02FEF3FEFC9010895C0
:1001D0008091D70190E02091D801821B9109089568
:1001E000CF92DF92EF92FF920F931F93CF93DF9303
:1001F0007C01CB018A0120912002222389F0EB01AE
:100200006B01C40ED51ECC15DD0569F06991D701CF
:10021000ED91FC910190F081E02DC7010995F3CF9C
:10022000642F0E949C00C801DF91CF911F910F9114
:10023000FF90EF90DF90CF900895CF93DF931F92C0
:10024000CDB7DEB76983209120022223D1F020911F
:100250004302203240F021E030E0FC01338322836E
:1002600080E090E015C080912102E82FF0E0EE5D83
:10027000FD4F998190838F5F809321028093430289
:1002800005C061E0CE0101960E949C0081E090E0F3
:100290000F90DF91CF910895089580E090E0089548
:1002A00081E080935F01089582E298E090931501C8
:1002B000809314018091C7018E7F8093C701809144
:1002C00050018E7F8093500180916D008E7F8093CE
:1002D0006D0080916D00811105C0809168008B7F59
:1002E00080936800089580915101882361F09FB741
:1002F000F894209151018091C401213019F48DBBF3
:100300009FBF08958FBF08958EBD00000DB407FEF6
:10031000FDCF8EB5089520915101222379F02FB79A
:10032000F89430915101313039F43DB33093C40128
:100330003DB33DBB2FBF02C02093C4018CBD9DBD0A
:1003400008950F931F93CF93DF93EC01062F142F83
:1003500083E590E00E948B0160E08E850E9415107D
:10036000802F0E948401812F0E94840161E08E858C
:100370000E941510DF91CF911F910F910C94730182
:100380001F920F920FB60F9211242F933F934F930A
:100390005F936F937F938F939F93AF93BF93EF93ED
:1003A000FF938091B900887F803609F49CC068F57E
:1003B000883209F45BC090F4803109F454C038F4F9
:1003C000882309F4F2C0883009F44DC0F2C08831A6
:1003D00009F44CC0803209F45DC0EBC0803409F4EC
:1003E00068C048F4803309F455C0883309F0E1C08F
:1003F00080931D02D4C0803509F44FC0883509F4BC
:100400005DC0883409F0D5C0D2C0883909F4C3C0B2
:10041000A8F4883709F467C038F4883609F463C053
:10042000803709F460C0C5C0883809F4B4C0803989
:1004300009F45FC0803809F0BCC05BC0803B09F4A0
:1004400084C038F4803A09F466C0883A09F47DC063
:10045000B0C0803C09F4A3C0883C09F4A0C0883B2C
:1004600009F486C0A6C08091FA0110C090911C02C8
:1004700080911B02981770F5E0911C0281E08E0FAD
:1004800080931C02F0E0E550FE4F80818093BB001A
:1004900085EC82C080931D028AC0E0911C0281E03D
:1004A0008E0F80931C028091BB00F0E0E550FE4F60
:1004B000808390911C0280911B026AC0E0911C0213
:1004C00081E08E0F80931C028091BB00F0E0E5502C
:1004D000FE4F808380911E02811169C081E080936C
:1004E000F90184EA5DC083E080931F021092C3018A
:1004F000CFCF8091C301803208F04DC0E091C3019D
:1005000081E08E0F8093C3018091BB00F0E0ED5538
:10051000FE4F8083BDCF85EC8093BC0010921F02FC
:100520008091C301803230F4E091C301F0E0ED55D9
:10053000FE4F10826091C30170E083EA91E0E0E039
:10054000F0E009951092C30134C084E080931F024B
:100550001092A2011092A101E0E0F0E009958091D3
:10056000A101811105C081E08093A1011092810158
:10057000E091A20181E08E0F8093A201F0E0EF579D
:10058000FE4F80818093BB009091A2018091A101D8
:10059000981708F47DCF85E88093BC000AC085ECED
:1005A0008093BC0010921F0204C010921D020E9492
:1005B0009200FF91EF91BF91AF919F918F917F91A9
:1005C0006F915F914F913F912F910F900FBE0F90C0
:1005D0001F9018958F92AF92BF92CF92DF92EF92B9
:1005E000FF920F931F93CF93DF93182FEB016A01B4
:1005F00090E0039763E070E00E9408191350160F13
:10060000812F80958370810F0E940F0E811125C06C
:10061000209719F1F60180818231F8F080E3888318
:1006200019839E012E5F3F4F42E0BE0185EF92E0AD
:100630000E944C0A811111C081E08F93812CA12C62
:10064000B12C7E0104E09E0140E36CE085EF92E076
:100650000E94980A91E00F90811190E0892FDF911C
:10066000CF911F910F91FF90EF90DF90CF90BF90AF
:10067000AF908F900895CF93DF93CDB7DEB7639798
:100680000FB6F894DEBF0FBECDBF82E18B8BAE01FB
:100690004D5E5F4FBE016F5F7F4F85E00E94EA02B3
:1006A0008823B9F00E940E0F8C814091D3015091A4
:1006B000D4016091D5017091D601481B510961099F
:1006C000710981E040385E4D6842710518F480E0A0
:1006D00001C081E063960FB6F894DEBF0FBECDBFB8
:1006E000DF91CF9108958F929F92AF92BF92CF9258
:1006F000DF92EF92FF920F931F93CF93DF93CDB7CB
:10070000DEB763970FB6F894DEBF0FBECDBF5C01B6
:100710006B01FC011082FB01108292E3992E28E00C
:10072000F22E32E1832E092D10E00F0D111D1595CB
:100730000795E02E8B8AF2E0F017F0F4AE014D5EE3
:100740005F4FBE016F5F7F4F802F0E94EA028823B8
:1007500099F08981811102C0902E03C00F1521F0FC
:10076000F02EF91400F302C0F394FBCF8111E3944F
:10077000F501E082F601808363960FB6F894DEBF40
:100780000FBECDBFDF91CF911F910F91FF90EF90E2
:10079000DF90CF90BF90AF909F908F900895AF92D1
:1007A000BF92CF92DF92EF92FF920F931F93CF935E
:1007B000DF93062F10E0C0E0D0E06C01E12CF12CBB
:1007C000580181E0A81AB108C017D10701F1A89516
:1007D00061E084E00E94151061E083E00E94151042
:1007E000C701B6010E94B210A89560E084E00E94A3
:1007F000151060E083E00E941510CA15DB052CF48B
:10080000C701B6010E94B210A8952196DDCFDF91F5
:10081000CF911F910F91FF90EF90DF90CF90BF90FD
:10082000AF9008958F929F92AF92BF92CF92DF9236
:10083000EF92FF92CF93DF93A89561E084E00E944E
:10084000151068E873E180E090E00E94B210CAE001
:10085000C12CD12C7601DEE484EB882E8BE2982E1D
:1008600081E1A82EB12C80917A00806880937A0073
:10087000D0937C0065E070E080E090E00E94B210D0
:1008800080917A00806480937A0080917A0086FD5E
:10089000FCCF209178008091790030E0382B032E36
:1008A000000C440B550B80917A00805880937A009D
:1008B000C501B4010E941C19C20ED31EE41EF51E10
:1008C000C15089F660E084E00E9415106AEF70E084
:1008D00080E090E00E94B210A89588E1C81689E7F0
:1008E000D806E104F10438F465E082E390E00E9468
:1008F000CF0380E006C061E084EF91E00E94CF0367
:1009000081E0DF91CF91FF90EF90DF90CF90BF908B
:10091000AF909F908F9008957F928F929F92AF9209
:10092000BF92CF92DF92EF92FF920F931F93CF93DC
:10093000DF93CDB7DEB7A0970FB6F894DEBF0FBE3A
:10094000CDBF9924939489E6882E93E0792E8AE48A
:1009500092E00E947507892B09F406C100914D01B0
:1009600010E08AE492E00E945307F801EF59FE4F2D
:10097000808380914D018F5F80934D01823090F094
:1009800090E08F599E4FFC0131972081223051F425
:1009900031978081813031F480936101209362012D
:1009A00020934D0140914D01423008F4D0C0842F76
:1009B00090E09C012F593E4FF901319750815430FE
:1009C00009F0C5C031972081233009F0C0C062E032
:1009D00050E00397262F30E0281739073CF4F9013F
:1009E000EF59FE4F208152276F5FF4CFFC01EF5982
:1009F000FE4F80815813A4C080916301803F21F095
:100A0000813F09F4A2C09CC0453090F090916401F0
:100A10008091530198130CC090916501809154010D
:100A2000981306C09091660180915501981721F0A6
:100A300064E082E390E087C00E941204182F0E94B5
:100A40000E0F998282E08A838B82809152018C837F
:100A500080915A018D831E8380915B018F838091E9
:100A6000D3019091D4012091D5013091D6013887DE
:100A700029879A878B8787E00E94F1090E945F0986
:100A80008093C80188E00E94F1090E945F09809369
:100A9000C90189E00E94F1090E945F098093CA019F
:100AA0008AE00E94F1090E945F098093CB01E090E7
:100AB0005C01E092CC0190915D0120915E01F92EE4
:100AC0009093CD012093CE01A090C801B090C901B0
:100AD000C090CA01D82E022F1091CF012091D001D1
:100AE0003091D1014091D2015091D3016091D40154
:100AF0007091D5018091D6010E9468096093D3015D
:100B00007093D4018093D5019093D6019C878D87F3
:100B10007E876F87688B798A84E08A8B42E150E018
:100B2000BE016F5F7F4F8AE492E00E941A07A8958A
:100B300068EE73E080E090E00E94B21061E001C0D6
:100B400062E08AEF90E00E94CF0310924D01809105
:100B50004D01803208F4FBCE10924D0162E08AEF25
:100B600090E00E94CF03F3CEA0960FB6F894DEBFBC
:100B70000FBECDBFDF91CF911F910F91FF90EF90EE
:100B8000DF90CF90BF90AF909F908F907F9008950F
:100B9000CF93DF93C0E0D0E0A89560E0CE010E9443
:100BA000EE1862E070E080E090E00E94B2102196C2
:100BB000C53BD10589F7DF91CF9108950F931F931E
:100BC000CF93DF938C010E94E618C82FC8010196CD
:100BD0000E94E618D82FC80102960E94E618CD1789
:100BE00059F0C81751F0D81741F062E082E390E065
:100BF0000E94CF0380E001C08C2FDF91CF911F9125
:100C00000F910895FF920F931F93CF93DF938C0161
:100C1000F62EC0E0D0E06F2DC8018C0F9D1F0E9402
:100C2000EE182196C330D105B1F7DF91CF911F9116
:100C30000F91FF90089580935B01109256011092DE
:100C40005701109258011092590180915A0181FF69
:100C500004C081E080935B010895837011F01092CD
:100C60005B0108950F931F93CF93DF93EC0104E58D
:100C700011E080915F018111D8C08AE492E00E9466
:100C80007507181619060CF4D0C060E089E00E94C0
:100C9000151060E084E00E94151060E083E00E947F
:100CA000151010931501009314018091C701816004
:100CB0008093C7018091500181608093500189B178
:100CC00080934C0180916D00816080936D008091D4
:100CD0006800846080936800A895C0348FE1D807CD
:100CE0000CF043C0209709F440C0C03A4FE0D4074D
:100CF000E4F4C03D87E0D807E4F4C83E43E0D407FD
:100D0000E4F4C43F81E0D807E4F4CA3FD105ECF431
:100D1000C837D105F4F4CC33D105FCF4CE31D1057C
:100D200004F52FE030E080E023C020EA3FE088E0D7
:100D30001FC020ED37E087E01BC028EE33E086E0DF
:100D400017C024EF31E085E013C02AEF30E084E0E3
:100D50000FC028E730E083E00BC02CE330E082E0F6
:100D600007C02EE130E081E003C020E43FE189E0EC
:100D700083FD02C090E001C090E28770892BF89457
:100D800094B7977F94BF90916000986190936000B2
:100D9000809360008091600080648093600078940C
:100DA00083B7817F846083BF83B7816083BF889569
:100DB00083B78E7F83BF83B78E7F83BF8091E70227
:100DC0009091E8028F3F4FEF940781F083FD02C0BE
:100DD00048E001C048E28770842B98E10FB6F89490
:100DE000A895909360000FBE8093600040915601DB
:100DF000509157016091580170915901C901032E1A
:100E0000000CAA0BBB0B840F951FA61FB71F809366
:100E1000560190935701A0935801B09359012C1794
:100E20003D0718F4C21BD30B24CFDF91CF911F9144
:100E30000F910895CF92DF92EF92FF920F931F933D
:100E4000CF93DF936C017A018B01C0E0D0E0CE1527
:100E5000DF0581F0D8016D918D01D601ED91FC91F6
:100E60000190F081E02DC6010995892B11F02196A2
:100E7000EECF7E01C701DF91CF911F910F91FF90BF
:100E8000EF90DF90CF900895FC01538D448D252F76
:100E900030E0842F90E0821B930B541710F0CF9614
:100EA000089501970895FC01918D828D981761F046
:100EB000828DDF01A80FB11D5D968C91928D9F5F91
:100EC0009F73928F90E008958FEF9FEF0895FC013C
:100ED000918D828D981731F0828DE80FF11D858DEF
:100EE00090E008958FEF9FEF0895FC01918D228D82
:100EF000892F90E0805C9F4F821B91098F73992707
:100F000008958AE492E00E94750721E0892B09F494
:100F100020E0822F0895FC01848DDF01A80FB11D10
:100F2000A35ABF4F2C91848D90E001968F7399271F
:100F3000848FA689B7892C93A089B1898C918370FD
:100F400080648C93938D848D981306C00288F389F6
:100F5000E02D80818F7D80830895EF92FF920F9323
:100F60001F93CF93DF93EC0181E0888F9B8D8C8D55
:100F7000981305C0E889F989808185FD26C0F62E81
:100F80000B8D10E00F5F1F4F0F731127E02E8C8D1C
:100F9000E8120CC00FB607FCFACFE889F989808106
:100FA00085FFF5CFCE010E948B07F1CF8B8DFE011F
:100FB000E80FF11DE35AFF4FF0829FB7F8940B8FB3
:100FC000EA89FB89808180620AC09FB7F894EE8924
:100FD000FF896083E889F9898081837080648083D8
:100FE0009FBF81E090E0DF91CF911F910F91FF9023
:100FF000EF900895CF93DF93EC01888D8823C9F09B
:10100000EA89FB89808185FD05C0A889B9898C9111
:1010100086FD0FC00FB607FCF5CF808185FFF2CFAC
:10102000A889B9898C9185FFEDCFCE010E948B07ED
:10103000E7CFDF91CF9108950E94810781110C9431
:101040008C0408950895BC016E5F7F4FDC01ED9123
:10105000FC910190F081E02D40E0099591E0811133
:1010600090E0892F08950E9472191F920F920FB677
:101070000F9211242F933F934F935F936F937F931E
:101080008F939F93AF93BF93EF93FF938AE492E084
:101090000E948B07FF91EF91BF91AF919F918F912C
:1010A0007F916F915F914F913F912F910F900FBE64
:1010B0000F901F9018951F920F920FB60F92112448
:1010C0002F938F939F93EF93FF93E0915A02F091A8
:1010D0005B028081E0916002F091610282FD12C0AA
:1010E0009081809163028F5F8F73209164028217D9
:1010F00051F0E0916302F0E0E65BFD4F958F809345
:10110000630201C08081FF91EF919F918F912F9198
:101110000F900FBE0F901F9018951F920F920FB651
:101120000F9211242F933F934F935F936F937F936D
:101130008F939F93AF93BF93CF93EF93FF9329B177
:10114000C0914C01822F8C279091C701922330913E
:101150005001C323C92BC82320934C01C4FF05C0F1
:10116000E0910C01F0910D010995C5FF05C0E091DA
:101170000E01F0910F010995C6FF05C0E091100125
:10118000F09111010995C7FF05C0E0911201F0919E
:1011900013010995C0FF05C0E0911401F0911501FC
:1011A0000995C1FF05C0E0911601F091170109955D
:1011B000C2FF05C0E0911801F09119010995C3FF24
:1011C00005C0E0911A01F0911B010995FF91EF9183
:1011D000CF91BF91AF919F918F917F916F915F91CF
:1011E0004F913F912F910F900FBE0F901F90189528
:1011F0001F920F920FB60F9211242F933F934F938C
:101200005F936F937F938F939F93AF93BF93CF938E
:10121000EF93FF9326B1C0914B01822F8C279091C1
:10122000C601922330914F01C323C92BC8232093B9
:101230004B01C0FF05C0E0910201F0910301099547
:10124000C1FF05C0E0910401F09105010995C2FFBD
:1012500005C0E0910601F09107010995C3FF05C0A3
:10126000E0910001F09101010995C4FF05C0E091F2
:101270000801F09109010995C5FF05C0E0910A0137
:10128000F0910B010995FF91EF91CF91BF91AF9133
:101290009F918F917F916F915F914F913F912F918E
:1012A0000F900FBE0F901F9018951F920F920FB6C0
:1012B0000F9211240F900FBE0F901F901895982F2A
:1012C00092959F708F702AE0929F800D112408954F
:1012D000AF92BF92CF92DF92EF92FF920F931F9344
:1012E000CF93DF93CDB7DEB72F970FB6F894DEBF5D
:1012F0000FBECDBFA982BA82CB82FE820F834E8100
:101300005F81403D07E050070CF457C03E2DBA0105
:10131000605D77408D2D90E00197E2E7F0E021E0FD
:10132000231730F4A4918A0F911D2F5F3196F8CFC7
:10133000333030F09B0123703327232B09F40196BF
:101340004D5C57405595479555954795EDE6F1E02D
:101350006E9F90016F9F300D7E9F300D1124240FE2
:10136000351F280F391FA8E1B0E00E943E192B81DC
:101370007B018C01E20EF11C011D111DA8019701DA
:10138000ACE3B0E00E944D192A817B018C01E20E92
:10139000F11C011D111DA80197010E944D19298101
:1013A000022F10E020E030E000581C4B2249374C5F
:1013B000600F711F821F931F03C060E070E0CB01BC
:1013C0002F960FB6F894DEBF0FBECDBFDF91CF9141
:1013D0001F910F91FF90EF90DF90CF90BF90AF9053
:1013E000089591E09093200298E690934202109223
:1013F000210210924302682F89EE92E00E941D01A3
:101400000E94640E81E090E00E94C50E89EE92E099
:101410000E94D4000895CF93C62F91E090932002AC
:1014200098E6909342021092210210924302682F94
:1014300089EE92E00E941D016C2F89EE92E00E94DD
:101440001D01CF910C94640E8FE00E94F109682F6A
:101450006E7F8FE00C940B0A1F93CF93DF93EC0108
:10146000162F83E590E00E948B0160E08E850E943C
:101470001510812F80680E94840180E00E94840101
:10148000182F61E08E850E9415100E947301812F34
:10149000DF91CF911F910895CF92DF92EF92FF924B
:1014A0000F931F93CF93DF93EC016B01142F7901FE
:1014B00040E062E00E94A10144E06AE0CE010E94A7
:1014C000A10140E864E1CE010E94A101A601612FC3
:1014D000CE010E94441043E062E0CE010E94A101CF
:1014E00008E813E16AE0CE010E942C0A82FF13C0D3
:1014F00040E062E0CE010E94A10164E4CE010E94BE
:101500002C0AF701808362E4CE010E942C0AF701C5
:10151000818380E004C00150110921F783E0DF914D
:10152000CF911F910F91FF90EF90DF90CF90089592
:101530003F924F925F926F927F928F929F92AF9263
:10154000BF92CF92DF92EF92FF920F931F93CF93B0
:10155000DF9300D0CDB7DEB73C01162F942E2901C2
:10156000A114B10419F0F501408101C040E0342E0E
:10157000F0E18F9E300C112440E062E0C3010E9434
:10158000A1014FE768E0C3010E94A10140E864E1C6
:10159000C3010E94A101A201602FC3010E94441057
:1015A000432D6AE1C3010E94A101412F62E0C30102
:1015B0000E94A1011C3051F46AE1C3010E942C0A6F
:1015C000482F40686AE1C3010E94A10100ED17E0C5
:1015D00068E0C3010E942C0A982F992139F480FDFC
:1015E00003C001501109A1F783E0A0C06CE0C30162
:1015F0000E942C0A982E837109F095C0E114F10421
:1016000009F459C0C114D10409F455C064E1C301FF
:101610000E942C0A582EF6018081851508F47DC0A1
:1016200050825520E9F183E590E00E948B0160E053
:10163000F30186850E9415105A9482E90E94840164
:101640008820A1F00FEF10E001C0000F8A94EAF7A4
:1016500082E90E948401202F2095F7019081922336
:101660008023892B80838824839401C0812C082DBA
:1016700010E00E0D1F1D851438F482E90E948401CC
:10168000F80180838394F3CF80E00E948401F80105
:10169000808361E0F30186850E9415100E9473012A
:1016A00068E1C3010E942C0A8770A114B10421F0E3
:1016B000F501808301C080E093FC31C0E114F104A6
:1016C00081F1C114D10469F19E89992351F1F60188
:1016D0004081413021F4843041F58FEF27C0423002
:1016E00020F1811122C042509E012F5F3F4FB70170
:1016F000C3010E944C0A811119C0F6018081E80ED5
:10170000F11CF70132979081898198130EC03196B0
:1017100090818A81981309C004C084E007C082E0E8
:1017200005C080E003C081E001C087E00F900F900A
:10173000DF91CF911F910F91FF90EF90DF90CF90AD
:10174000BF90AF909F908F907F906F905F904F90E1
:101750003F9008950F931F93CF93DF938C01D62F63
:10176000C42F0E942C0AC0954C2F48236D2FC8010E
:10177000DF91CF911F910F910C94A1016F927F92F5
:101780008F92AF92BF92CF92DF92EF92FF920F9320
:10179000CF93DF9300D000D01F92CDB7DEB73C01CE
:1017A00082E08D8340E064E2C3010E94A10140E039
:1017B00066E2C3010E94A10146E268E4C3010E94FF
:1017C000A10186E28B838D81823020F140E86CE1BB
:1017D000C3010E94AA0B87E08C831F92812CCE014B
:1017E00004965C0101966C0104977C0101E09E0166
:1017F0002D5F3F4F40E36CE0C3010E94980A0F90B9
:1018000081110BC08D81823039F481E09C8191116E
:1018100004C008C084E001C081E091E0823019F08A
:1018200090E001C091E0892F0F900F900F900F90E2
:101830000F90DF91CF910F91FF90EF90DF90CF90BD
:10184000BF90AF908F907F906F9008952F923F92AE
:101850004F925F926F927F928F929F92AF92BF92C0
:10186000CF92DF92EF92FF920F931F93CF93DF936C
:10187000CDB7DEB72D970FB6F894DEBF0FBECDBF44
:10188000413508F004C14D872B013C0140E86CE173
:101890000E94AA0B31E03C878C85823091F0833026
:1018A000F1F0813009F0F5C083E989839D859923A2
:1018B000D9F081E0F2019081953008F480E0912C1C
:1018C00018C0F5E9F9833D85332381F081E0F20109
:1018D0009081983008F480E043E0942E0AC087E9B4
:1018E000898336E0932E04C0912C02C023E0922E0F
:1018F00080E01D85F8E09F9E1019112417FD10E06F
:10190000882321F098E89B8333E001C032E021E096
:10191000912F977009F420E0912F959595959595C5
:10192000290F29F4882309F491C0185F8FC0811111
:1019300002C094E001C093E0291708F4922FE92D2A
:10194000F0E03196E40DF51D232F4191A1E0B0E0C8
:10195000AC0FBD1FA20FB11D4C932F5F422F431B35
:10196000491798F3DFCF8111DFC010320CF093C01C
:1019700010E230E73A839B818C8189279D818927FA
:101980009E8189278F839E01285F3F4F47E0BE01DC
:101990006F5F7F4FC3010E944C0A8111A3C01A865A
:1019A00083E08B87FE0137961F0109E08A84482D6A
:1019B0004295407F480D6AE1C3010E94A1011F9238
:1019C000CE010A965C01FE013B966F0171019E01FA
:1019D0002F5F3F4F40E36CE0C3010E94980A082F3D
:1019E0000F90823009F0BFCF6CE1C3010E942C0A36
:1019F00085FD9AC08F7109F480E2282F30E0412FD5
:101A0000110F550B421753070CF043C0182F822FAC
:101A100085958595859591E0980F422F477081E0D7
:101A200009F480E0890FE1E0F0E0EC0FFD1FE80F22
:101A3000F11D215031092770332781E090E001C06A
:101A4000880F2A95EAF79081892B808310320CF059
:101A500090CF912F97709A87812F85958595859541
:101A60008E5F292FF0E18F9F200D11242A8301E042
:101A7000911101C000E0080F22242394312C2C0E78
:101A80003D1E280E311C39E0381B3B878FCF06E006
:101A90004BC005E049C08B81883809F442C082E020
:101AA00094E0E92DF0E03196E40DF51D980FA1E0EA
:101AB000B0E0AC0FBD1FA80FB11D2C9121938F5F1B
:101AC0008913F5CF8B85833041F58A85811125C037
:101AD0009E012D5F3F4F41E0B101C3010E944C0ABE
:101AE000882311F0082F20C09B81F1018181981378
:101AF00016C09C818281981312C0808182FF04C02D
:101B0000FC85FF5FFC87C8CEF20183878C85880F38
:101B10009C84980E9394908207C001E005C007E072
:101B200003C083E093E0BDCF802F2D960FB6F894CD
:101B3000DEBF0FBECDBFDF91CF911F910F91FF9000
:101B4000EF90DF90CF90BF90AF909F908F907F905D
:101B50006F905F904F903F902F9008958F92AF922B
:101B6000BF92CF92DF92EF92FF920F93CF93DF93CA
:101B7000CDB7DEB764970FB6F894DEBF0FBECDBF0A
:101B8000062FE62EF12CA701BC01CE0101960E9482
:101B9000771921E030E02C0F3D1F2E0D3F1D402F07
:101BA000BE016F5F7F4F85EF92E00E944C0A81116A
:101BB00025C082E18C8B1B8A0E5F1F92812CCE0187
:101BC00043965C0101966C0143977C019C0140E3C4
:101BD0006CE085EF92E00E94980A0F9081110EC090
:101BE0008C89813051F48B89843039F481E099817A
:101BF0009A3009F480E0819501C081E064960FB6C7
:101C0000F894DEBF0FBECDBFDF91CF910F91FF9053
:101C1000EF90DF90CF90BF90AF908F9008958F920C
:101C2000AF92BF92CF92DF92EF92FF920F93CF933A
:101C3000DF93CDB7DEB72C970FB6F894DEBF0FBE9B
:101C4000CDBF90E699838A8384E492E0AE014D5F34
:101C50005F4FDE011996FC012191CF01FA0121931A
:101C6000AF01EA17FB07B9F7E091F702F0E0EC509B
:101C7000FD4FCE010D9621912D93A817B907D9F7E5
:101C80001F92812CA12CB12CC12CD12CE12CF12C38
:101C90000CE09E012F5F3F4F40E16EE085EF92E048
:101CA0000E94980A0F902C960FB6F894DEBF0FBED4
:101CB000CDBFDF91CF910F91FF90EF90DF90CF904C
:101CC000BF90AF908F90089530914302313208F069
:101CD0004BC080911F028111FCCF9091420222E003
:101CE00020931F0221E020931E022FEF20931D025C
:101CF00010921C0230931B02E2E2F2E0ABEFB1E083
:101D000020E0321721F041914D932F5FFACF1092CE
:101D1000FA012091FA01990F922B9093FA01909178
:101D2000F901913061F41092F9019091FA019093C8
:101D3000BB009091BC0093FDF8CF95EC01C095EEEF
:101D40009093BC0090911F029230E1F390911D029C
:101D50009F3F79F080911D02803241F080911D02F9
:101D6000803331F084E005C081E003C082E001C02F
:101D700083E01092210210924302109220020895F3
:101D8000682F89EE92E00C941D0190911F02911131
:101D9000FCCF982F813208F090E281E080931F02FF
:101DA00080931E022FEF20931D0210921C02290F18
:101DB00020931B028093FA018091FA01806D809339
:101DC000FA018091F901813061F41092F90180915A
:101DD000FA018093BB008091BC0083FDF8CF85ECB5
:101DE00001C085EE8093BC0080911F028130E1F339
:101DF00080911C02891710F490911C02EBEFF1E026
:101E0000A9EDB1E080E0891721F021912D938F5F3A
:101E1000FACF1092D8018093D7010895AF92BF9264
:101E2000CF92DF92EF92FF920F931F93CF93DF93A6
:101E3000CDB7DEB727970FB6F894DEBF0FBECDBF84
:101E400081E08093200288E6809342021092210272
:101E50001092430280E090E00E94C00E0E94640E47
:101E600087E090E00E94C50ECE0101967C01D12C46
:101E700010E089EE92E00E94D400082F153049F45A
:101E80008F710E945F098E83D02EDD1CDD24DD1C46
:101E900004C00E945F09F70180831F5FFFEFEF1A04
:101EA000FF0A173031F74F8181E0D81205C0842F27
:101EB00090E08053984F04C0842F90E08459984F4D
:101EC000A980A092C801BA80B092C901CB80C0920B
:101ED000CA01DD80D092CB01EE80E092CC01F82ED9
:101EE0009093CE018093CD011C811093CF0140933C
:101EF000D2010091CE012091D0013091D1015091B9
:101F0000D3016091D4017091D5018091D6010E94D6
:101F100068096093D3017093D4018093D5019093A5
:101F2000D60127960FB6F894DEBF0FBECDBFDF9166
:101F3000CF911F910F91FF90EF90DF90CF90BF90C6
:101F4000AF900895EF92FF921F93CF93DF9300D04D
:101F5000CDB7DEB7182F7B0190E0039763E070E008
:101F60000E9408191350160F812F80958370810FDE
:101F70000E940F0E811115C0E114F10479F080EA7E
:101F800089831A8362E0CE0101960E94AE0D811111
:101F900006C060E1C7010E94AE0D01C086E091E07D
:101FA000811190E0892F0F900F90DF91CF911F91B9
:101FB000FF90EF90089568E285EF92E00E942C0A6E
:101FC000982F9370933039F0482F436068E285EF83
:101FD00092E00C94A1010895833081F028F48130BF
:101FE00099F08230A1F008958730A9F08830B9F0D7
:101FF0008430D1F4809180008F7D03C08091800077
:102000008F7780938000089584B58F7702C084B560
:102010008F7D84BD08958091B0008F7703C080913B
:10202000B0008F7D8093B00008951F93CF93DF930E
:10203000282F30E0F901E654FF4F8491F901EA5569
:10204000FF4FD491F901EE56FF4FC491CC23C1F05C
:10205000162F81110E94EC0FEC2FF0E0EE0FFF1F06
:10206000E857FF4FA591B4919FB7F894111104C0A0
:102070008C91D095D82302C0EC91DE2BDC939FBFCE
:10208000DF91CF911F910895DF92EF92FF920F930E
:102090001F93CF93DF938C01F62ED42EE52E83E58C
:1020A00090E00E948B0160E0F80186850E94151087
:1020B00082E10E948401CD2DDE2DCE018F0D911D78
:1020C0007C01EC16FD0621F089910E948401F9CF74
:1020D00061E0F80186850E941510DF91CF911F9174
:1020E0000F91FF90EF90DF900C947301CF93DF93EB
:1020F00090E0FC01EA55FF4F2491FC01EE56FF4FA2
:102100008491882361F190E0880F991FFC01E258C7
:10211000FF4FC591D491FC01E857FF4FA591B491B1
:10212000611109C09FB7F894888120958223888324
:10213000EC912E230BC0623061F49FB7F894888134
:10214000322F309583238883EC912E2B2C939FBFC5
:1021500006C08FB7F894E8812E2B28838FBFDF91BC
:10216000CF9108958F929F92AF92BF92CF92DF92BC
:10217000EF92FF926B017C010E94EC104B015C011D
:10218000C114D104E104F104F1F00E94EC10DC016F
:10219000CB0188199909AA09BB09883E9340A1057A
:1021A000B10570F321E0C21AD108E108F10888EE08
:1021B000880E83E0981EA11CB11CC114D104E10457
:1021C000F10419F7DDCFFF90EF90DF90CF90BF9033
:1021D000AF909F908F9008953FB7F89480910A0335
:1021E00090910B03A0910C03B0910D0326B5A89B11
:1021F00005C02F3F19F00196A11DB11D3FBFBA2F99
:10220000A92F982F8827820F911DA11DB11DBC01F8
:10221000CD0146E0660F771F881F991F4A95D1F7B9
:1022200008951F920F920FB60F9211242F933F9390
:102230008F939F93AF93BF93809106039091070371
:10224000A0910803B09109033091050320E3230F07
:102250002D3720F44096A11DB11D05C023EB230F9F
:102260004196A11DB11D2093050380930603909311
:102270000703A0930803B093090380910A03909188
:102280000B03A0910C03B0910D030196A11DB11D8C
:1022900080930A0390930B03A0930C03B0930D0358
:1022A000BF91AF919F918F913F912F910F900FBE52
:1022B0000F901F901895CF93DF93CDB7DEB7EB97B4
:1022C0000FB6F894DEBF0FBECDBF789484B58260A0
:1022D00084BD84B5816084BD85B5826085BD85B5CA
:1022E000816085BD80916E00816080936E00109248
:1022F00081008091810082608093810080918000C4
:102300008160809380008091B10084608093B100EF
:102310008091B00081608093B00080917A008B7FC3
:1023200080937A0080917A00826080937A00809115
:102330007A00816080937A0080917A00806880932F
:102340007A001092C10084B7877F84BF0FB6F894DB
:10235000A895809160008861809360001092600071
:102360000FBE8FEF9FEF9093E8028093E702A8954E
:1023700061E084E00E94761061E083E00E947610C4
:1023800061E089E00E94761061E08AE00E947610A8
:1023900062E086E00E94761062E081E10E947610A1
:1023A00062E085E00E94761060E084E00E941510F3
:1023B00060E083E00E94151060E089E00E94151043
:1023C00046EA642E40E0742E02E910E0F12CF3019D
:1023D0002491F8018491882301F12223F1F0422F06
:1023E00050E0BA016150710946235723452BA9F4E7
:1023F00090E0880F991FFC01E258FF4FA591B4911E
:10240000FC01E857FF4F459154918C91822329F4A8
:10241000DA018C91282309F48BC6F394BFEF6B1A71
:102420007B0A0F5F1F4FE3E1FE12D1CF60E08FE028
:102430000E940B0A65E08EE00E940B0A81EE97E095
:1024400090935E0180935D0181E080935C018FE059
:10245000E8ECF1E0DF011D928A95E9F70E940E0F8A
:102460008091CD019091CE01813E97402CF463E0A4
:1024700082E390E00E94CF0380E591E09093010118
:102480008093000180914F01886080934F0186B155
:1024900080934B0180916C00886080936C008091E8
:1024A000680082608093680080E293E00E94DE050D
:1024B000182F8093520182E593E00E94DE058093FD
:1024C000530185E593E00E94DE058093540188E581
:1024D00093E00E94DE05809355018BE593E00E9416
:1024E000DE0580935A0111501E3F18F098EF90932B
:1024F000520187FF22C010925A011092550110928A
:102500005401109253010E94C80560915A018BE555
:1025100093E00E9402066091530182E593E00E94DD
:1025200002066091540185E593E00E9402066091E5
:10253000550188E593E00E94020681E00E941B0697
:102540008FEF8093440280934502809346028093EC
:1025500047028093480280934902E0915A02F09129
:102560005B0282E08083E0915602F0915702108274
:10257000E0915802F09159028CE08083109262023F
:10258000E0915E02F0915F0286E08083E0915C0260
:10259000F0915D02808180618083E0915C02F09126
:1025A0005D02808188608083E0915C02F0915D0231
:1025B000808180688083E0915C02F0915D0280817F
:1025C0008F7D808310924D010E94120468EE73E0AB
:1025D00080E090E00E94B2101092560110925701D4
:1025E000109258011092590189E090E09093E8020E
:1025F0008093E70299E288E10FB6F894A89580935A
:1026000060000FBE90936000FE0131963F012E01E5
:10261000F5E24F0E511C1E0125E0220E311CA8953B
:1026200080915F018823D1F010925F010E94240AFB
:102630000E940E0F2091CD013091CE0180915D015D
:1026400090915E012817390749F49091CC0180914F
:102650005C01981303C080E00E941B061FB7F8942A
:1026600080916001811127C0ECE9F0E08491E0EBFA
:10267000F0E09491E82FF0E0EE0FFF1FE258FF4FDB
:10268000A591B491EC91E92321F461E08AE00E94E4
:10269000151061E08AE00E9476108CB580618CBDD7
:1026A0008CB580648CBD61E08DE00E94761061E0A5
:1026B0008BE00E947610809160018F5F80936001B3
:1026C0001FBF61E0809103030E94761061E080915A
:1026D00003030E941510809104038F3F41F44FE0E3
:1026E00062E085EF92E00E94A10113E025C060E066
:1026F0000E9476102091040330E0F901E654FF4F68
:102700008491F901EA55FF4F1491F901EE56FF4FFC
:1027100004910023F9F081110E94EC0FE02FF0E00A
:10272000EE0FFF1FE859FF4FA591B491EC911E23C6
:1027300089F0D5CF115019F162E370E080E090E0AC
:102740000E94B21062E085EF92E00E942C0A84FFA2
:1027500016C0F0CF61E0809104030E94761060E023
:10276000809104030E94151061E0809104030E948F
:10277000151062E370E080E090E00E94B21040E04B
:1027800064E285EF92E00E94A10140E066E285EFFD
:1027900092E00E94A10146E268E485EF92E00E9487
:1027A000A10140E864E585EF92E00E94A10149EAB9
:1027B00066E585EF92E00E94A10143E068E585EFC0
:1027C00092E00E94A10148EE6AE585EF92E00E9446
:1027D000A10140E46AE285EF92E00E94A1014DE38D
:1027E00062E285EF92E00E94A1010E94DB0F43E0CC
:1027F00068E285EF92E00E94AA0B6CE485EF92E01C
:102800000E942C0A8077803791F040E76CE485EFD6
:1028100092E00E94AA0B6CE485EF92E00E942C0AE1
:10282000482F40676CE485EF92E00E94A1010E946E
:10283000DB0F65E070E080E090E00E94B21085EF71
:1028400092E00E94BE0B882309F4D4C385EF92E086
:102850000E942308882309F4CDC3E2E1FE2EFBAEDB
:10286000AE01455C5F4FBE016D5E7F4F84E00E940C
:10287000EA02882309F4BEC38D898F3F09F09BC209
:102880008C89893F19F080E00E941B0684E0FE01DC
:102890007396D20101900D928A95E1F782E18BAF98
:1028A000AE01455C5F4FBE016D5E7F4F85E00E94CB
:1028B000EA02182F882349F084E0FE017396DE01B6
:1028C000999601900D928A95E1F782E18BAFAE0166
:1028D000455C5F4FBE016D5E7F4F86E00E94EA025D
:1028E000182349F084E0FE017396DE019D96019065
:1028F0000D928A95E1F782E18BAFAE01455C5F4FA7
:10290000BE016D5E7F4F87E00E94EA02112309F449
:1029100071C3882309F46EC384E0FE017396DE015F
:10292000D19601900D928A95E1F79091530189A576
:1029300098133DC2909154018AA5981338C2909182
:1029400055018BA5981333C28EA18B3F09F4A2C009
:1029500030F4893F09F484C18A3F39F14DC38D3F7A
:1029600009F446C108F4AAC08E3F09F045C36DA51D
:102970006093530182E593E00E9402066EA5609386
:10298000540185E593E00E9402066FA5609355010E
:1029900088E593E00E94020668A960935A018BE5DE
:1029A00093E00E94020662E058C18FE0E8ECF1E09B
:1029B000DF011D928A95E9F72DA52093CC018EA504
:1029C00090E08053984F9093CE018093CD013FA526
:1029D0003093CB0149A94093CA015AA95093C90128
:1029E0006BA96093C801803DB7E09B0721F0805D33
:1029F00070E8E72E02C084E6E12C69835A834B839A
:102A00001C823D832E838F8381E08093200288E6A1
:102A100080934202109221021092430280E090E0E3
:102A20000E94C00E8301F12C4AE0D42EF80180816F
:102A30006D2D0E94FC1820E1829F900D112490833F
:102A400035E0F31203C08E818E0D8E830F5F1F4F12
:102A5000608189EE92E00E941D01F39447E0F41238
:102A6000E5CF0E94640E8FE0E8ECF1E0DF011D92FB
:102A70008A95E9F70E940E0F8091CD019091CE01C9
:102A8000813E97402CF463E082E390E00E94CF0304
:102A900063E0E3C06DA5662369F080915201681779
:102AA00009F4CAC16093520180E293E00E940206D9
:102AB00065E0D3C066E082E390E076C182E0809377
:102AC0005B0180915A0184FF07C010925A0160E0B7
:102AD0008BE593E00E94020685E0F30111928A954E
:102AE000E9F78FE0E8ECF1E0DF011D928A95E9F764
:102AF0008DA58093CC0180935C018EA590E08053DE
:102B0000984F9093CE018093CD0190935E01809376
:102B10005D018FA58093CB0189A98093CA018AA901
:102B20008093C9018BA98093C8010E94240A109147
:102B3000CB018091CA019091C9012091C8012DABB0
:102B40009EAB8FAB18AF81E08093200288E6809324
:102B50004202109221021092430287E090E00E940C
:102B6000C00E812F6AE00E94FC18B0E18B9F900D8F
:102B70001124092F10E07E01E5E3EE0EF11C430164
:102B8000D12C3AE0C32EF3E0DF120FC08C8140E875
:102B9000849F900111249D8170E4979FC0011124AE
:102BA000822B932B802B912B11C0D7018C916C2DF4
:102BB0000E94FC18292FB0E18B9F200D1124F401F5
:102BC0008081F0E88F9FC0011124822B0E94C00EEB
:102BD000D3942FEFE21AF20A3FEF831A930A44E0EC
:102BE000D412D1CF0E94640E0E94C80564E035C0A3
:102BF00080E1D3011D928A95E9F7CC24DD24C61823
:102C0000D70801E015E0A89562E370E080E090E06D
:102C10000E94B21061E084E00E9415107301C701A8
:102C20008C0D9D1D0E94E618F70181937F012E16E1
:102C30003F06A9F7B301812F0E94A20F082360E08D
:102C400084E00E9415101F5FF4E0CF0ED11C1333F7
:102C5000D1F6002309F4D0C166E084EF91E0A4C06E
:102C600010E1D301E12F1D92EA95E9F70E941204C9
:102C7000082F0E940E0F89E68983B30188E00E9425
:102C8000A20F982ED301E12F1D92EA95E9F78091CA
:102C90005201898380915A018A830B8380915B0161
:102CA0008C83B30189E00E94A20F9822D3011D9268
:102CB0001A95E9F78091D3019091D4012091D50123
:102CC0003091D60139832A839B838C83B3018AE0B8
:102CD0000E94A20F98228FE0E8ECF1E0DF011D9244
:102CE0008A95E9F787E00E94F1090E945F098093C5
:102CF000C80188E00E94F1090E945F098093C90120
:102D000089E00E94F1090E945F098093CA018AE06C
:102D10000E94F1090E945F098093CB01E0905C0161
:102D2000E092CC0190915D0120915E01F92E90938B
:102D3000CD012093CE01A090C801B090C901C090F0
:102D4000CA01D82E022F1091CF012091D0013091CD
:102D5000D1014091D2015091D3016091D401709181
:102D6000D5018091D6010E9468096093D3017093C8
:102D7000D4018093D5019093D60199838A837B8374
:102D80006C83B3018BE00E94A20F9822A89568EE95
:102D900073E080E090E00E94B210992011F061E0B1
:102DA00001C062E08AEF90E00E94CF0325C164E099
:102DB00082E390E01DC180E00E941B0690905201CA
:102DC000B8EF9B16D9F1E9EF9E1269C080E1D301FB
:102DD0001D928A95E9F701E015E0A89562E370E09D
:102DE00080E090E00E94B21061E084E00E94151043
:102DF000B301812F0E94A20F082360E084E00E94AB
:102E000015101F5F133349F7002309F4F5C00E9422
:102E10000E0F8091D3019091D4012091D501309172
:102E2000D60139832A839B838C83B30185E00E947A
:102E3000A20F882309F4E0C061E00FCFF9AE1DAA0C
:102E40001DA2AE01475C5F4FB30184E00E94EA021D
:102E5000882309F4CFC0898190E0982F88272A81A0
:102E6000820F911D892B09F4C5C08B818F3F09F416
:102E7000C1C0B201CE01C5960E9473038DA98830EE
:102E800009F0B8C08DA18111B5C080915A0183FFAE
:102E9000A8C00E943B03882309F4A3C0ABC00B89E0
:102EA00010E0102F00278C89080F111D1AAE19AEE3
:102EB000FDAA0115110509F49DC0E0905A01BE2D2F
:102EC000B072FB2EE5FE15C0AE014B5C5F4FB30147
:102ED00086E00E94EA02882399F089818AAF8A817C
:102EE00099EF980F9B3210F48F5F01C088E089AF93
:102EF00007C0BE01665C7F4FCE01C9960E94730376
:102F000099AD88EF890F8B3208F074C08AAD98169E
:102F100009F46BC0E2FE12C0983021F4E0EF9E127B
:102F20000FC003C0F0EF9F1659F0853F49F025EF21
:102F300081E0921206C0983021F402C081E001C005
:102F400080E0E3FE04C00E943B0391E089278823D0
:102F500009F450C0E9AC80E1D2011D928A95E9F7ED
:102F60000E940E0F9DA28091D3019091D4012091D7
:102F7000D5012EA39FA388A7B2018E2D0E94A20F78
:102F8000FF2041F08823B1F19DA2EEA2B20186E0BC
:102F90000E94A20F882371F1013AB5E01B0730F0BF
:102FA00062E082E390E00E94CF031BC0780183E0DF
:102FB000F694E7948A95E1F7C7010E94E618077036
:102FC000112741E050E060E070E004C0440F551F5D
:102FD000661F771F0A95D2F7682F642BC7010E94DE
:102FE000EE1861E084EF91E003C062E08AEF90E0C8
:102FF0000E94CF0310E001C011E080E589831A82AE
:103000009E012D5F3F4F42E0B30185EF92E00E94A9
:103010004C0A811111C01F92812CA12CB12CC12C02
:10302000D12CE12CF12C04E0930140E36CE085EF1E
:1030300092E00E94980A0F909FB7F89480916001E7
:10304000882319F081508093600180916001811183
:1030500005C08CB58F7B8CBD109251019FBF60E085
:1030600089E00E941510112321F088EB9BE00E945B
:10307000320680915B01813089F160F0823009F085
:103080004BC088EA91E60E94320661E084E00E942B
:10309000151042C08AEF90E00E94320661E084E0A1
:1030A0000E94151080915A01837049F010925601C8
:1030B0001092570110925801109259012DC0809121
:1030C000560190915701A0915801B0915901811575
:1030D0009749A944B14000F181E01CC088EE93E01B
:1030E0000E94320661E084E00E94151080915A012E
:1030F00081FDDCCF409156015091570160915801FC
:10310000709159014115584B6C447A4028F080FF6A
:1031100003C082E00E941B068AE492E00E947507C9
:103120001816190614F40E948C040E941C0877CA11
:1031300062E08F2D0E94761070C9EAE4F2E01382FB
:10314000128288EE93E0A0E0B0E084839583A683AA
:10315000B78320E231E03183208325EC30E03587EE
:10316000248724EC30E03787268720EC30E0318B51
:10317000208B21EC30E0338B228B22EC30E0358B3E
:10318000248B26EC30E0378B268B118E128E138E1B
:10319000148E2FEF3FEF3093E8022093E702E9EE21
:1031A000F2E01382128284839583A683B78382E33D
:1031B00091E091838083E5EFF2E084E491E09183F4
:1031C00080838AE0868789E087870895F999FECF12
:1031D00092BD81BDF89A992780B50895262FF99957
:1031E000FECF1FBA92BD81BD20BD0FB6F894FA9AEA
:1031F000F99A0FBE01960895991B79E004C0991FB2
:10320000961708F0961B881F7A95C9F78095089540
:1032100097FB072E16F4009407D077FD09D00E9483
:10322000581907FC05D03EF4909581959F4F08955D
:10323000709561957F4F0895A1E21A2EAA1BBB1BC2
:10324000FD010DC0AA1FBB1FEE1FFF1FA217B30772
:10325000E407F50720F0A21BB30BE40BF50B661F88
:10326000771F881F991F1A9469F76095709580954C
:1032700090959B01AC01BD01CF010895A29FB001C3
:10328000B39FC001A39F700D811D1124911DB29F9A
:10329000700D811D1124911D08950E943E19A59F56
:1032A000900DB49F900DA49F800D911D1124089541
:1032B000AA1BBB1B51E107C0AA1FBB1FA617B7075C
:1032C00010F0A61BB70B881F991F5A95A9F7809578
:1032D0009095BC01CD010895EE0FFF1F0590F4916C
:1032E000E02D099481E090E0F8940C948019FB01A2
:1032F000DC0102C001900D9241505040D8F7089572
:04330000F894FFCF6F
:103304002208220822082208220822082208220869
:1033140022082208220822082208220800000000AD
:10332400AD071A074407FA07750753076707000034
:1033340000001D01F0004D01C400E800D400C500E8
:0A33440000000000260CBE0B230859
:107E0000112484B714BE81FFF0D085E080938100F7
:107E100082E08093C00088E18093C10086E0809377
:107E2000C20080E18093C4008EE0C9D0259A86E02C
:107E300020E33CEF91E0309385002093840096BBD3
:107E4000B09BFECF1D9AA8958150A9F7CC24DD24C4
:107E500088248394B5E0AB2EA1E19A2EF3E0BF2EE7
:107E6000A2D0813461F49FD0082FAFD0023811F036
:107E7000013811F484E001C083E08DD089C08234E0
:107E800011F484E103C0853419F485E0A6D080C0E4
:107E9000853579F488D0E82EFF2485D0082F10E0AE
:107EA000102F00270E291F29000F111F8ED06801E7
:107EB0006FC0863521F484E090D080E0DECF843638
:107EC00009F040C070D06FD0082F6DD080E0C81688
:107ED00080E7D80618F4F601B7BEE895C0E0D1E017
:107EE00062D089930C17E1F7F0E0CF16F0E7DF06D8
:107EF00018F0F601B7BEE89568D007B600FCFDCFD4
:107F0000A601A0E0B1E02C9130E011968C91119780
:107F100090E0982F8827822B932B1296FA010C0160
:107F200087BEE89511244E5F5F4FF1E0A038BF0790
:107F300051F7F601A7BEE89507B600FCFDCF97BE46
:107F4000E89526C08437B1F42ED02DD0F82E2BD052
:107F50003CD0F601EF2C8F010F5F1F4F84911BD097
:107F6000EA94F801C1F70894C11CD11CFA94CF0C13
:107F7000D11C0EC0853739F428D08EE10CD085E9AC
:107F80000AD08FE07ACF813511F488E018D01DD067
:107F900080E101D065CF982F8091C00085FFFCCF94
:107FA0009093C60008958091C00087FFFCCF809118
:107FB000C00084FD01C0A8958091C6000895E0E648
:107FC000F0E098E1908380830895EDDF803219F02E
:107FD00088E0F5DFFFCF84E1DECF1F93182FE3DFCA
:107FE0001150E9F7F2DF1F91089580E0E8DFEE27F6
:047FF000FF270994CA
:027FFE00040479
:0400000300007E007B
:00000001FF
