:100000000C9468000C9490000C9490000C94900058
:100010000C9490000C9490000C94EE010C949000C1
:100020000C9490000C9490000C9490000C94900010
:100030000C9490000C9490000C9490000C94900000
:100040000C94BC0D0C9490000C94BC010C94960183
:100050000C9490000C9490000C9490000C949000E0
:100060000C9438030C9490001F1C1F1E1F1E1F1F92
:100070001E1F1E1F00000000230026002900000094
:100080000000240027002A000000000025002800AE
:100090002B00040404040404040402020202020209
:1000A000030303030303010204081020408001023C
:1000B00004081020010204081020000000080002BB
:1000C0000100000304070000000000000000D71337
:1000D00011241FBECFEFD8E0DEBFCDBF11E0A0E0FE
:1000E000B1E0E8E7F9E202C005900D92AE32B10747
:1000F000D9F722E0AEE2B1E001C01D92A53BB20704
:10010000E1F710E0C8E6D0E004C02197FE010E94AC
:10011000A614C736D107C9F70E94060E0C94BA146C
:100120000C940000CF92DF92EF92FF920F931F93F7
:10013000CF93DF936C017A018B01C0E0D0E0CE1544
:10014000DF0581F0D8016D918D01D601ED91FC9113
:100150000190F081E02DC6010995892B11F02196BF
:10016000EECF7E01C701DF91CF911F910F91FF90DC
:10017000EF90DF90CF90089585ED8093BC00809143
:10018000BC0084FDFCCF1092C601089540914F0140
:10019000262F30E0240F311D21323105DCF420916F
:1001A000C6012430C9F4FC0180E090E0861758F4C1
:1001B00030914F012191DC01A15DBE4FA30FB11D14
:1001C0002C930196F3CF80914F01680F60934F01FC
:1001D00080E0089581E0089582E008950895E09117
:1001E000730180917201E81730F4F0E0EC58FE4F93
:1001F000808190E008958FEF9FEF089590917301B3
:1002000080917201981750F4E92FF0E0EC58FE4FFE
:10021000208130E09F5F9093730102C02FEF3FEF8A
:10022000C90108958091720190E020917301821BB1
:1002300091090895CF92DF92EF92FF920F931F934F
:10024000CF93DF937C01CB018A012091C701222348
:1002500089F0EB016B01C40ED51ECC15DD0569F0EC
:100260006991D701ED91FC910190F081E02DC701DA
:100270000995F3CF642F0E94C600C801DF91CF918A
:100280001F910F91FF90EF90DF90CF900895CF9343
:10029000DF931F92CDB7DEB769832091C701222378
:1002A000D1F02091EA01203240F021E030E0FC0161
:1002B0003383228380E090E015C08091C801E82F4D
:1002C000F0E0E753FE4F998190838F5F8093C801E0
:1002D0008093EA0105C061E0CE0101960E94C6004C
:1002E00081E090E00F90DF91CF910895089580E034
:1002F00090E00895BC016E5F7F4FDC01ED91FC91B1
:100300000190F081E02D40E0099591E0811190E0AD
:10031000892F08950E94AC1481EF91E00E94430A56
:1003200021E0892B09F420E0822F08951F920F927B
:100330000FB60F9211242F933F934F935F936F93B8
:100340007F938F939F93AF93BF93EF93FF9381EF2F
:1003500091E00E94060CFF91EF91BF91AF919F91A8
:100360008F917F916F915F914F913F912F910F905E
:100370000FBE0F901F9018951F920F920FB60F92FD
:1003800011242F938F939F93EF93FF93E09101029A
:10039000F09102028081E0910702F091080282FD53
:1003A00012C0908180910A028F5F8F7320910B029F
:1003B000821751F0E0910A02F0E0EF50FE4F958F66
:1003C00080930A0201C08081FF91EF919F918F91EC
:1003D0002F910F900FBE0F901F9018951F920F92A4
:1003E0000FB60F9211240F900FBE0F901F9018950B
:1003F000CF93C62F91E09093C70198E69093E901BF
:100400001092C8011092EA01682F80E992E00E94E0
:1004100047016C2F80E992E00E94470181E0CF9173
:100420000C94600BCF92DF92EF92FF920F931F9389
:10043000CF93DF93CDB7DEB727970FB6F894DEBF23
:100440000FBECDBF8C0181E08093C70188E6809309
:10045000E9011092C8011092EA0160E080E992E09F
:100460000E94470181E00E94600B8091C6018111CA
:10047000FCCF81E08093C6018093C5019FEF9093EC
:10048000C4011092C30196E09093C2018093A10130
:100490008091A101806D8093A1018091A0018130A4
:1004A00061F41092A0018091A1018093BB00809122
:1004B000BC0083FDF8CF85EC01C085EE8093BC00C5
:1004C0008091C6018130E1F38091C301873018F437
:1004D0009091C30101C097E0A2EAB1E0E4E7F1E046
:1004E00080E0891721F02D9121938F5FFACF109230
:1004F0007301809372019E012F5F3F4F7901D12CD0
:10050000C12C80E992E00E94FE00982F9F7035E098
:10051000D3120FC084FB222720F9220F322F330F72
:10052000330F230F920F9E83C82ECC1CCC24CC1CDF
:1005300008C082958F70EAE08E9F900D1124F7011C
:100540009083D394FFEFEF1AFF0A27E0D212D9CF9E
:100550003F8181E0C81205C0832F90E08053984FFF
:1005600004C0832F90E08459984FF980F801F082FD
:10057000EA80E182DB80D2824D8143832E81248315
:10058000968385835C8157833287803DF7E09F07A0
:1005900008F457C0BC01605D774050E041505109FC
:1005A000E8E6F0E031E0321730F4A4914A0F511D33
:1005B0003F5F3196F8CF233038F09B01237033270B
:1005C000232B11F44F5F5F4F8D5C97409595879576
:1005D00095958795EDE6F1E06E9F90016F9F300D48
:1005E0007E9F300D1124820F931F9C01240F351F15
:1005F000A8E1B0E00E9478149B01AC012D0D311DE3
:10060000411D511DACE3B0E00E9487149B01AC0179
:100610002E0D311D411D511D0E948714CF2CD12C50
:10062000E12CF12C20E8C21A2CEBD20A22E9E20AD2
:1006300027ECF20ADC01CB018C0D9D1DAE1DBF1D08
:1006400003C080E090E0DC01F80183879487A587F0
:10065000B68727960FB6F894DEBF0FBECDBFDF91E9
:10066000CF911F910F91FF90EF90DF90CF90089561
:100670001F920F920FB60F9211242F933F934F9317
:100680005F936F937F938F939F93AF93BF93EF93FA
:10069000FF938091B900887F803609F49CC068F58B
:1006A000883209F45BC090F4803109F454C038F406
:1006B000882309F4F2C0883009F44DC0F2C08831B3
:1006C00009F44CC0803209F45DC0EBC0803409F4F9
:1006D00068C048F4803309F455C0883309F0E1C09C
:1006E0008093C401D4C0803509F44FC0883509F423
:1006F0005DC0883409F0D5C0D2C0883909F4C3C0C0
:10070000A8F4883709F467C038F4883609F463C060
:10071000803709F460C0C5C0883809F4B4C0803996
:1007200009F45FC0803809F0BCC05BC0803B09F4AD
:1007300084C038F4803A09F466C0883A09F47DC070
:10074000B0C0803C09F4A3C0883C09F4A0C0883B39
:1007500009F486C0A6C08091A10110C09091C30188
:100760008091C201981770F5E091C30181E08E0F6E
:100770008093C301F0E0EE55FE4F80818093BB0073
:1007800085EC82C08093C4018AC0E091C30181E0FE
:100790008E0F8093C3018091BB00F0E0EE55FE4FB9
:1007A00080839091C3018091C2016AC0E091C3012E
:1007B00081E08E0F8093C3018091BB00F0E0EE5585
:1007C000FE4F80838091C501811169C081E08093D3
:1007D000A00184EA5DC083E08093C601109271019C
:1007E000CFCF80917101803208F04DC0E09171014E
:1007F00081E08E0F809371018091BB00F0E0EF5A91
:10080000FE4F8083BDCF85EC8093BC001092C60163
:1008100080917101803230F4E0917101F0E0EF5A83
:10082000FE4F10826091710170E081E591E0E0E09F
:10083000F0E009951092710134C084E08093C60104
:100840001092500110924F01E0E0F0E00995809184
:100850004F01811105C081E080934F0110922F015B
:10086000E091500181E08E0F80935001F0E0E15D56
:10087000FE4F80818093BB009091500180914F0189
:10088000981708F47DCF85E88093BC000AC085ECFA
:100890008093BC001092C60104C01092C4010E9453
:1008A000BC00FF91EF91BF91AF919F918F917F918C
:1008B0006F915F914F913F912F910F900FBE0F90CD
:1008C0001F90189580919401882361F09FB7F89448
:1008D0002091940180912E01213019F48DBB9FBF8E
:1008E00008958FBF08958EBD00000DB407FEFDCFA3
:1008F0008EB5089520919401222379F02FB7F894B2
:1009000030919401313039F43DB330932E013DB331
:100910003DBB2FBF02C020932E018CBD9DBD08950D
:100920001F93CF93DF93EC01162F83E590E00E9495
:100930007A0460E08E850E94C00C812F80680E943E
:10094000730480E00E947304182F61E08E850E947A
:10095000C00C0E946204812FDF91CF911F910895F6
:100960000F931F93CF93DF93EC01062F142F83E592
:1009700090E00E947A0460E08E850E94C00C802F77
:100980000E947304812F0E94730461E08E850E948F
:10099000C00CDF91CF911F910F910C946204CF9204
:1009A000DF92EF92FF920F931F93CF93DF93EC01AF
:1009B0006B01142F790140E062E00E94B00444E032
:1009C0006AE0CE010E94B00440E864E1CE010E94DA
:1009D000B004A601612FCE010E94EF0C43E062E05B
:1009E000CE010E94B00408E813E16AE0CE010E9443
:1009F000900482FF13C040E062E0CE010E94B00488
:100A000064E4CE010E949004F701808362E4CE0189
:100A10000E949004F701818380E004C00150110915
:100A200021F783E0DF91CF911F910F91FF90EF901D
:100A3000DF90CF9008953F924F925F926F927F9296
:100A40008F929F92AF92BF92CF92DF92EF92FF92DE
:100A50000F931F93CF93DF9300D0CDB7DEB73C0148
:100A6000162F942E2901A114B10419F0F50140812B
:100A700001C040E0342EF0E18F9E300C112440E0A4
:100A800062E0C3010E94B0044FE768E0C3010E9426
:100A9000B00440E864E1C3010E94B004A201602FE9
:100AA000C3010E94EF0C432D6AE1C3010E94B00410
:100AB000412F62E0C3010E94B0041C3051F46AE18E
:100AC000C3010E949004482F40686AE1C3010E945C
:100AD000B00400ED17E068E0C3010E949004982F75
:100AE000992139F480FD03C001501109A1F783E079
:100AF000A0C06CE0C3010E949004982E837109F09D
:100B000095C0E114F10409F459C0C114D10409F4E9
:100B100055C064E1C3010E949004582EF601808103
:100B2000851508F47DC050825520E9F183E590E0F9
:100B30000E947A0460E0F30186850E94C00C5A94FA
:100B400082E90E9473048820A1F00FEF10E001C039
:100B5000000F8A94EAF782E90E947304202F2095FF
:100B6000F701908192238023892B808388248394AA
:100B700001C0812C082D10E00E0D1F1D851438F4C6
:100B800082E90E947304F80180838394F3CF80E0AC
:100B90000E947304F801808361E0F30186850E945E
:100BA000C00C0E94620468E1C3010E949004877037
:100BB000A114B10421F0F501808301C080E093FC11
:100BC00031C0E114F10481F1C114D10469F19E89AD
:100BD000992351F1F6014081413021F4843041F5EF
:100BE0008FEF27C0423020F1811122C042509E0178
:100BF0002F5F3F4FB701C3010E94CF04811119C07D
:100C0000F6018081E80EF11CF7013297908189810D
:100C100098130EC0319690818A81981309C004C040
:100C200084E007C082E005C080E003C081E001C02D
:100C300087E00F900F90DF91CF911F910F91FF9060
:100C4000EF90DF90CF90BF90AF909F908F907F906C
:100C50006F905F904F903F9008950F931F93CF93A5
:100C6000DF938C01D62FC42F0E949004C0954C2F87
:100C700048236D2FC801DF91CF911F910F910C94E4
:100C8000B0046F927F928F92AF92BF92CF92DF9219
:100C9000EF92FF920F93CF93DF9300D000D01F927B
:100CA000CDB7DEB73C0182E08D8340E064E2C30152
:100CB0000E94B00440E066E2C3010E94B00446E234
:100CC00068E4C3010E94B00486E28B838D81823088
:100CD00020F140E86CE1C3010E942D0687E08C837F
:100CE0001F92812CCE0104965C0101966C01049741
:100CF0007C0101E09E012D5F3F4F40E36CE0C301AA
:100D00000E941B050F9081110BC08D81823039F438
:100D100081E09C81911104C008C084E001C081E0A1
:100D200091E0823019F090E001C091E0892F0F909E
:100D30000F900F900F900F90DF91CF910F91FF9038
:100D4000EF90DF90CF90BF90AF908F907F906F909B
:100D500008952F923F924F925F926F927F928F925F
:100D60009F92AF92BF92CF92DF92EF92FF920F933A
:100D70001F93CF93DF93CDB7DEB72D970FB6F894BF
:100D8000DEBF0FBECDBF413508F004C14D872B013A
:100D90003C0140E86CE10E942D0631E03C878C85E7
:100DA000823091F08330F1F0813009F0F5C083E9B1
:100DB00089839D859923D9F081E0F2019081953056
:100DC00008F480E0912C18C0F5E9F9833D853323C0
:100DD00081F081E0F2019081983008F480E043E0F6
:100DE000942E0AC087E9898336E0932E04C0912CA3
:100DF00002C023E0922E80E01D85F8E09F9E10192E
:100E0000112417FD10E0882321F098E89B8333E03C
:100E100001C032E021E0912F977009F420E0912F7A
:100E2000959595959595290F29F4882309F491C0F6
:100E3000185F8FC0811102C094E001C093E02917B0
:100E400008F4922FE92DF0E03196E40DF51D232FE3
:100E50004191A1E0B0E0AC0FBD1FA20FB11D4C93BA
:100E60002F5F422F431B491798F3DFCF8111DFC05B
:100E700010320CF093C010E230E73A839B818C81F2
:100E800089279D8189279E8189278F839E01285FDD
:100E90003F4F47E0BE016F5F7F4FC3010E94CF0409
:100EA0008111A3C01A8683E08B87FE0137961F014C
:100EB00009E08A84482D4295407F480D6AE1C301CC
:100EC0000E94B0041F92CE010A965C01FE013B967F
:100ED0006F0171019E012F5F3F4F40E36CE0C30142
:100EE0000E941B05082F0F90823009F0BFCF6CE1E4
:100EF000C3010E94900485FD9AC08F7109F480E2BD
:100F0000282F30E0412F110F550B421753070CF0DB
:100F100043C0182F822F85958595859591E0980F70
:100F2000422F477081E009F480E0890FE1E0F0E0B2
:100F3000EC0FFD1FE80FF11D2150310927703327F9
:100F400081E090E001C0880F2A95EAF79081892B13
:100F5000808310320CF090CF912F97709A87812F59
:100F60008595859585958E5F292FF0E18F9F200DC2
:100F700011242A8301E0911101C000E0080F22240E
:100F80002394312C2C0E3D1E280E311C39E0381BC9
:100F90003B878FCF06E04BC005E049C08B81883886
:100FA00009F442C082E094E0E92DF0E03196E40DCE
:100FB000F51D980FA1E0B0E0AC0FBD1FA80FB11D4B
:100FC0002C9121938F5F8913F5CF8B85833041F569
:100FD0008A85811125C09E012D5F3F4F41E0B101FF
:100FE000C3010E94CF04882311F0082F20C09B81E9
:100FF000F1018181981316C09C818281981312C0DF
:10100000808182FF04C0FC85FF5FFC87C8CEF201AF
:1010100083878C85880F9C84980E9394908207C058
:1010200001E005C007E003C083E093E0BDCF802F5F
:101030002D960FB6F894DEBF0FBECDBFDF91CF91D6
:101040001F910F91FF90EF90DF90CF90BF90AF90E6
:101050009F908F907F906F905F904F903F902F90D8
:101060000895CF93DF93CDB7DEB7A2970FB6F8946C
:10107000DEBF0FBECDBF82E18AA3AE014E5D5F4FE2
:10108000BE016F5F7F4F85E00E940F0B8823A9F0A0
:10109000CE0143960E9412028C814E8D5F8D68A115
:1010A00079A1481B51096109710981E040385E4D01
:1010B0006842710518F480E001C081E0A2960FB685
:1010C000F894DEBF0FBECDBFDF91CF9108958F9210
:1010D0009F92AF92BF92CF92DF92EF92FF920F93C7
:1010E0001F93CF93DF93CDB7DEB763970FB6F89416
:1010F000DEBF0FBECDBF5C016B01FC011082FB01A6
:10110000108292E3992E28E0F22E32E1832E092DEF
:1011100010E00F0D111D15950795E02E8B8AF2E05A
:10112000F017F0F4AE014D5E5F4FBE016F5F7F4F71
:10113000802F0E940F0B882399F08981811102C0B2
:10114000902E03C00F1521F0F02EF91400F302C009
:10115000F394FBCF8111E394F501E082F6018083E3
:1011600063960FB6F894DEBF0FBECDBFDF91CF916F
:101170001F910F91FF90EF90DF90CF90BF90AF90B5
:101180009F908F900895AF92BF92CF92DF92EF928F
:10119000FF920F931F93CF93DF93062F10E0C0E0D1
:1011A000D0E06C01E12CF12C580181E0A81AB108C3
:1011B000C017D10701F1A89561E084E00E94C00C3E
:1011C00061E083E00E94C00CC701B6010E945D0D82
:1011D000A89560E084E00E94C00C60E083E00E947B
:1011E000C00CCA15DB052CF4C701B6010E945D0DC9
:1011F000A8952196DDCFDF91CF911F910F91FF90A0
:10120000EF90DF90CF90BF90AF900895CF93DF9392
:10121000C0E0D0E0A89560E0CE010E94281462E012
:1012200070E080E090E00E945D0D2196C53BD10505
:1012300089F7DF91CF9108950F931F93CF93DF9399
:101240008C010E942014C82FC80101960E9420140E
:10125000D82FC80102960E942014CD1759F0C81744
:1012600051F0D81741F062E082E390E00E94C30899
:1012700080E001C08C2FDF91CF911F910F910895D5
:10128000FF920F931F93CF93DF938C01F62EC0E054
:10129000D0E06F2DC8018C0F9D1F0E94281421964D
:1012A000C330D105B1F7DF91CF911F910F91FF901E
:1012B0000895CF93DF93EC0160E089E00E94C00CB9
:1012C00060E084E00E94C00C60E083E00E94C00CFB
:1012D000A895C0344FE1D40714F5209701F1C03A26
:1012E0008FE0D80704F5C03D47E0D40704F5C83EB9
:1012F00083E0D80704F5C43F41E0D40704F5CA3FB2
:10130000D1050CF5C837D10514F5CC33D1051CF542
:10131000CE31D10524F52FE030E080E023C020E479
:101320003FE189E01FC020EA3FE088E01BC020EDDC
:1013300037E087E017C028EE33E086E013C024EFE3
:1013400031E085E00FC02AEF30E084E00BC028E7F1
:1013500030E083E007C02CE330E082E003C02EE100
:1013600030E081E083FD02C090E001C090E2877030
:10137000892BF89494B7977F94BF909160009861FF
:1013800090936000809360008091600080648093FF
:101390006000789483B7817F846083BF83B7816066
:1013A00083BF889583B78E7F83BF83B78E7F83BFCC
:1013B00080918E0290918F028F3F4FEF940781F0C2
:1013C00083FD02C048E001C048E28770842B98E1A9
:1013D0000FB6F894A895909360000FBE80936000BC
:1013E00040919501509196016091970170919801FB
:1013F000C901032E000CAA0BBB0B840F951FA61F5F
:10140000B71F8093950190939601A0939701B09395
:1014100098012C173D0718F4C21BD30B4DCFDF9159
:10142000CF910895FC01538D448D252F30E0842FFA
:1014300090E0821B930B541710F0CF9608950197FC
:101440000895FC01918D828D981761F0828DDF01E6
:10145000A80FB11D5D968C91928D9F5F9F73928FA7
:1014600090E008958FEF9FEF0895FC01918D828D9C
:10147000981731F0828DE80FF11D858D90E0089569
:101480008FEF9FEF0895FC01918D228D892F90E0C1
:10149000805C9F4F821B91098F739927089580E08C
:1014A00090E0892B29F00E948C0181110C9400009E
:1014B00008958F92AF92BF92CF92DF92EF92FF92F8
:1014C0000F93CF93DF93CDB7DEB72C970FB6F89479
:1014D000DEBF0FBECDBF90E699838A838BEE91E08D
:1014E000AE014D5F5F4FDE011996FC012191CF01E6
:1014F000FA012193AF01EA17FB07B9F7E0919E02C9
:10150000F0E0E556FD4FCE010D9621912D93A817E1
:10151000B907D9F71F92812CA12CB12CC12CD12C49
:10152000E12CF12C0CE09E012F5F3F4F40E16EE07B
:101530008CE992E00E941B050F902C960FB6F89450
:10154000DEBF0FBECDBFDF91CF910F91FF90EF9027
:10155000DF90CF90BF90AF908F9008958F92AF9211
:10156000BF92CF92DF92EF92FF920F93CF93DF93D0
:10157000CDB7DEB764970FB6F894DEBF0FBECDBF10
:10158000062FE62EF12CA701BC01CE0101960E9488
:10159000B11421E030E02C0F3D1F2E0D3F1D402FD8
:1015A000BE016F5F7F4F8CE992E00E94CF048111F2
:1015B00025C082E18C8B1B8A0E5F1F92812CCE018D
:1015C00043965C0101966C0143977C019C0140E3CA
:1015D0006CE08CE992E00E941B050F9081110EC017
:1015E0008C89813051F48B89843039F481E0998180
:1015F0009A3009F480E0819501C081E064960FB6CD
:10160000F894DEBF0FBECDBFDF91CF910F91FF9059
:10161000EF90DF90CF90BF90AF908F9008958F9212
:10162000AF92BF92CF92DF92EF92FF920F931F93F0
:10163000CF93DF93182FEB016A0190E0039763E0EB
:1016400070E00E9442141350160F812F8095837012
:10165000810F0E94590A811125C0209719F1F601C6
:1016600080818231F8F080E3888319839E012E5FA8
:101670003F4F42E0BE018CE992E00E94CF0481110D
:1016800011C081E08F93812CA12CB12C7E0104E04C
:101690009E0140E36CE08CE992E00E941B0591E022
:1016A0000F90811190E0892FDF91CF911F910F91C1
:1016B000FF90EF90DF90CF90BF90AF908F90089504
:1016C000282F3091EA01313208F04AC08091C601DA
:1016D0008111FCCF9091E90142E04093C601209333
:1016E000C5012FEF2093C4011092C3013093C201B2
:1016F000E9ECF1E0A2EAB1E020E0321721F04191FB
:101700004D932F5FFACF1092A1012091A101990F63
:10171000922B9093A1019091A001913061F41092CD
:10172000A0019091A1019093BB009091BC0093FD0A
:10173000F8CF95EC01C095EE9093BC009091C60156
:101740009230E1F39091C4019F3F79F08091C40100
:10175000803241F08091C401803331F084E005C0D3
:1017600081E003C082E001C083E01092C8011092C2
:10177000EA011092C7010895EF92FF921F93CF9351
:10178000DF9300D0CDB7DEB7182F7B0190E0039731
:1017900063E070E00E9442141350160F812F809571
:1017A0008370810F0E94590A811115C0E114F10460
:1017B00079F080EA89831A8362E0CE0101960E9463
:1017C000AE0A811106C060E1C7010E94AE0A01C0E5
:1017D00086E091E0811190E0892F0F900F90DF91CA
:1017E000CF911F91FF90EF90089568E28CE992E00D
:1017F0000E949004982F9370933039F0482F4360E3
:1018000068E28CE992E00C94B0040895FC01848DA8
:10181000DF01A80FB11DA35ABF4F2C91848D90E01A
:1018200001968F739927848FA689B7892C93A089F5
:10183000B1898C91837080648C93938D848D98137F
:1018400006C00288F389E02D80818F7D8083089512
:10185000EF92FF920F931F93CF93DF93EC0181E000
:10186000888F9B8D8C8D981305C0E889F9898081BC
:1018700085FD26C0F62E0B8D10E00F5F1F4F0F73F6
:101880001127E02E8C8DE8120CC00FB607FCFACFA2
:10189000E889F989808185FFF5CFCE010E94060C89
:1018A000F1CF8B8DFE01E80FF11DE35AFF4FF0825F
:1018B0009FB7F8940B8FEA89FB89808180620AC008
:1018C0009FB7F894EE89FF896083E889F989808160
:1018D0008370806480839FBF81E090E0DF91CF912F
:1018E0001F910F91FF90EF900895CF93DF93EC013C
:1018F000888D8823C9F0EA89FB89808185FD05C030
:10190000A889B9898C9186FD0FC00FB607FCF5CF69
:10191000808185FFF2CFA889B9898C9185FFEDCFB1
:10192000CE010E94060CE7CFDF91CF91089583305E
:1019300081F028F4813099F08230A1F00895873049
:10194000A9F08830B9F08430D1F4809180008F7D87
:1019500003C0809180008F7780938000089584B5C4
:101960008F7702C084B58F7D84BD08958091B000CB
:101970008F7703C08091B0008F7D8093B000089571
:101980001F93CF93DF93282F30E0F901E654FF4FE8
:101990008491F901EA55FF4FD491F901EE56FF4FBA
:1019A000C491CC23C1F0162F81110E94970CEC2F0B
:1019B000F0E0EE0FFF1FE857FF4FA591B4919FB7DE
:1019C000F894111104C08C91D095D82302C0EC91E9
:1019D000DE2BDC939FBFDF91CF911F910895DF92A3
:1019E000EF92FF920F931F93CF93DF938C01F62E0C
:1019F000D42EE52E83E590E00E947A0460E0F801A1
:101A000086850E94C00C82E10E947304CD2DDE2DDC
:101A1000CE018F0D911D7C01EC16FD0621F0899100
:101A20000E947304F9CF61E0F80186850E94C00C22
:101A3000DF91CF911F910F91FF90EF90DF900C9469
:101A40006204CF93DF9390E0FC01EA55FF4F2491AD
:101A5000FC01EE56FF4F8491882361F190E0880FDE
:101A6000991FFC01E258FF4FC591D491FC01E85742
:101A7000FF4FA591B491611109C09FB7F894888177
:101A8000209582238883EC912E230BC0623061F471
:101A90009FB7F8948881322F309583238883EC9107
:101AA0002E2B2C939FBF06C08FB7F894E8812E2B66
:101AB00028838FBFDF91CF9108958F929F92AF922D
:101AC000BF92CF92DF92EF92FF926B017C010E9456
:101AD000970D4B015C01C114D104E104F104F1F054
:101AE0000E94970DDC01CB0188199909AA09BB094D
:101AF000883E9340A105B10570F321E0C21AD108D8
:101B0000E108F10888EE880E83E0981EA11CB11C44
:101B1000C114D104E104F10419F7DDCFFF90EF9077
:101B2000DF90CF90BF90AF909F908F9008953FB778
:101B3000F8948091B1029091B202A091B302B09159
:101B4000B40226B5A89B05C02F3F19F00196A11D30
:101B5000B11D3FBFBA2FA92F982F8827820F911D43
:101B6000A11DB11DBC01CD0146E0660F771F881F86
:101B7000991F4A95D1F708951F920F920FB60F92B1
:101B800011242F933F938F939F93AF93BF93809193
:101B9000AD029091AE02A091AF02B091B00230912F
:101BA000AC0220E3230F2D3720F44096A11DB11D78
:101BB00005C023EB230F4196A11DB11D2093AC025C
:101BC0008093AD029093AE02A093AF02B093B002A7
:101BD0008091B1029091B202A091B302B091B4028F
:101BE0000196A11DB11D8093B1029093B202A09302
:101BF000B302B093B402BF91AF919F918F913F9187
:101C00002F910F900FBE0F901F901895CF93DF93D9
:101C1000CDB7DEB7C154D1090FB6F894DEBF0FBE01
:101C2000CDBF789484B5826084BD84B5816084BD65
:101C300085B5826085BD85B5816085BD80916E006A
:101C4000816080936E00109281008091810082609B
:101C500080938100809180008160809380008091DA
:101C6000B10084608093B1008091B0008160809366
:101C7000B00080917A008B7F80937A0080917A0007
:101C8000826080937A0080917A00816080937A00EC
:101C900080917A00806880937A001092C10084B7A6
:101CA000877F84BF0FB6F894A89580916000886103
:101CB00080936000109260000FBE8FEF9FEF9093B3
:101CC0008F0280938E02A89561E084E00E94210D2E
:101CD00061E083E00E94210D61E089E00E94210D16
:101CE00061E08AE00E94210D62E086E00E94210D01
:101CF00062E081E10E94210D62E085E00E94210DF9
:101D000060E084E00E94C00C60E083E00E94C00CB0
:101D100060E089E00E94C00C06EA10E042E9642E0F
:101D200040E0742EF12CF8012491F3018491882372
:101D300001F12223F1F0422F50E0BA016150710904
:101D400046235723452BA9F490E0880F991FFC01E7
:101D5000E258FF4FA591B491FC01E857FF4F459120
:101D600054918C91822329F4DA018C91282309F46F
:101D700019C5F3940F5F1F4FBFEF6B1A7B0AE3E1A6
:101D8000FE12D1CF60E08FE00E94F80164E08EE0A7
:101D90000E94F801CE0101963C010E9412028E8140
:101DA0009F81813E97402CF463E082E390E00E94A3
:101DB000C30880E293E00E941C09182F80939A01C7
:101DC00082E593E00E941C0980939B0185E593E0E6
:101DD0000E941C0980939C0188E593E00E941C09E5
:101DE00080939D018BE593E00E941C0980939E01E6
:101DF00011501E3F18F098EF90939A0187FF22C070
:101E000010929E0110929D0110929C0110929B01D4
:101E10000E94060960919E018BE593E00E944009B3
:101E200060919B0182E593E00E94400960919C01D2
:101E300085E593E00E94400960919D0188E593E06B
:101E40000E94400981E080939F0180919E0181FD65
:101E500004C0837011F010929F018FEF8093EB010B
:101E60008093EC018093ED018093EE018093EF016C
:101E70008093F001A89561E084E00E94C00C68E8BE
:101E800073E180E090E00E945D0D1AE0C12CD12C3E
:101E900076010EE484EB882E8BE2982E81E1A82E49
:101EA000B12C80917A00806880937A0000937C0046
:101EB00065E070E080E090E00E945D0D80917A0026
:101EC000806480937A0080917A0086FDFCCF209117
:101ED00078008091790030E0382B032E000C440B01
:101EE000550B80917A00805880937A00C501B40127
:101EF0000E945614C20ED31EE41EF51E115089F620
:101F000060E084E00E94C00C6AEF70E080E090E046
:101F10000E945D0DA895B8E1CB16B9E7DB06E10498
:101F2000F10420F465E082E390E003C061E084EF17
:101F300091E00E94C30868EE73E080E090E00E94A8
:101F40005D0D1092950110929601109297011092DA
:101F5000980189E090E090938F0280938E0299E23D
:101F600088E10FB6F894A895809360000FBE909317
:101F70006000212C312C21012394FE013196FFAF0A
:101F8000EEAFCE01059622969FAF8EAF2297A89511
:101F90001FB7F89480919901811127C0ECE9F0E016
:101FA0008491E0EBF0E09491E82FF0E0EE0FFF1F5A
:101FB000E258FF4FA591B491EC91E92321F461E03F
:101FC0008AE00E94C00C61E08AE00E94210D8CB57D
:101FD00080618CBD8CB580648CBD61E08DE00E9419
:101FE000210D61E08BE00E94210D809199018F5FAE
:101FF000809399011FBF61E08091AA020E94210D88
:1020000061E08091AA020E94C00C8091AB028F3FD8
:1020100041F44FE062E08CE992E00E94B00413E0EA
:1020200025C060E00E94210D2091AB0230E0F90153
:10203000E654FF4F8491F901EA55FF4F1491F901DD
:10204000EE56FF4F04910023F9F081110E94970C86
:10205000E02FF0E0EE0FFF1FEC58FF4FA591B49179
:10206000EC911E2389F0D5CF115019F162E370E095
:1020700080E090E00E945D0D62E08CE992E00E94B9
:10208000900484FF16C0F0CF61E08091AB020E9403
:10209000210D60E08091AB020E94C00C61E0809154
:1020A000AB020E94C00C62E370E080E090E00E940E
:1020B0005D0D40E064E28CE992E00E94B00440E0F3
:1020C00066E28CE992E00E94B00446E268E48CE9A2
:1020D00092E00E94B00440E864E58CE992E00E943E
:1020E000B00449EA66E58CE992E00E94B00443E05E
:1020F00068E58CE992E00E94B00448EE6AE58CE95C
:1021000092E00E94B00440E46AE28CE992E00E940E
:10211000B0044DE362E28CE992E00E94B0040E94B8
:10212000F50B43E068E28CE992E00E942D066CE436
:102130008CE992E00E9490048077803791F040E72C
:102140006CE48CE992E00E942D066CE48CE992E04C
:102150000E949004482F40676CE48CE992E00E9452
:10216000B0040E94F50B65E070E080E090E00E9412
:102170005D0D8CE992E00E944106882309F479C242
:102180008CE992E00E947A01882309F472C2E090FF
:102190009E01E1FE04C081E080939F0102C0109285
:1021A0009F01109295011092960110929701109242
:1021B000980112E11DAFAE01435C5F4FBE016D5E41
:1021C0007F4F84E00E940F0B882309F452C28D894F
:1021D0008F3F09F064C184E0FE017396DE0195969D
:1021E00001900D928A95E1F71DAFAE01435C5F4F00
:1021F000BE016D5E7F4F85E00E940F0B182F882374
:1022000049F084E0FE017396DE01999601900D92EB
:102210008A95E1F782E18DAFAE01435C5F4FBE016D
:102220006D5E7F4F86E00E940F0B182349F084E01B
:10223000FE017396DE019D9601900D928A95E1F75D
:1022400082E18DAFAE01435C5F4FBE016D5E7F4F9B
:1022500087E00E940F0B112309F40BC2882309F4B5
:1022600008C284E0FE017396DE01D19601900D92C2
:102270008A95E1F790919B0189A598130CC19091E3
:102280009C018AA5981307C190919D018BA5981375
:1022900002C18EA18C3F09F4AEC030F48A3F41F1F7
:1022A0008B3F09F494C0E7C18D3F09F4B4C08E3F61
:1022B00009F0E1C16DA560939B0182E593E00E9466
:1022C00040096EA560939C0185E593E00E9440095A
:1022D0006FA560939D0188E593E00E94400968A97D
:1022E00060939E018BE593E00E94400962E0CEC0BE
:1022F0008FE0D3011D928A95E9F72DA52D838EA538
:1023000090E08053984F9F838E833FA53C8349A9DB
:102310004B835AA95A836BA96983803DB7E09B0719
:1023200021F0805D70E8E72E02C084E6E12C6DAB01
:102330005EAB4FAB18AE39AF2AAF8BAF81E0809365
:10234000C70188E68093E9011092C8011092EA0162
:1023500060E080E992E00E9447018E010B5C1F4F14
:10236000F12C3AE0D32EF80180816D2D0E943614B5
:1023700020E1829F900D1124908375E0F71203C035
:102380008AAD8E0D8AAF0F5F1F4F608180E992E0AA
:102390000E944701F39487E0F812E5CF81E00E94A4
:1023A000600B8FE0AEADBFAD1D928A95E9F7CE010F
:1023B00001960E9412028E819F81813E97402CF4EB
:1023C00063E082E390E00E94C30863E05FC06DA514
:1023D000662369F080919A01681709F49CC06093A4
:1023E0009A0180E293E00E94400965E04FC066E0F8
:1023F00082E390E04DC082E080939F01E4FE07C03D
:1024000010929E0160E08BE593E00E9440090E94DB
:10241000060964E03BC080E1F30111928A95E9F777
:10242000CC24DD24C618D70801E015E0A89562E3A6
:1024300070E080E090E00E945D0D61E084E00E9429
:10244000C00C7301C7018C0D9D1D0E942014D70183
:102450008D937D012296EEADFFAD2297EA17FB0723
:1024600089F7BE016F5F7F4F812F0E94BC0B08234D
:1024700060E084E00E94C00C1F5FF4E0CF0ED11C2E
:102480001333A1F6002309F4F6C066E084EF91E06F
:102490000E94C308F0C064E082E390E0E8C0F090DE
:1024A0009A0128EFF216C9F179EFF71267C080E1BF
:1024B000D3011D928A95E9F701E015E0A89562E342
:1024C00070E080E090E00E945D0D61E084E00E9499
:1024D000C00CB301812F0E94BC0B082360E084E094
:1024E0000E94C00C1F5F133349F7002309F4C3C0D7
:1024F000CE0185960E94120288A999A92AA93BA912
:1025000039832A839B838C83B30185E00E94BC0BB3
:10251000882309F4B0C061E0B9CF1CAF1DAA1DA289
:10252000AE01445C5F4FB30184E00E940F0B88232F
:1025300009F49FC0898190E0982F88272A81820F13
:10254000911D892B09F495C08B818F3F09F491C0AF
:10255000BE016B5D7F4FCE01C5960E9467088DA9B5
:10256000883009F086C08DA1811183C0E3FE78C058
:102570000E943108882309F473C07BC00B8910E0E6
:10258000102F00278C89080F111D1CAE1DAA0115E4
:10259000110509F46EC0BE01645C7F4FCE01C59683
:1025A0000E9467089DA988EF890F8B3208F061C0EF
:1025B0008CADF81609F458C0E2FE12C0983021F430
:1025C000B0EFFB120FC003C0E0EFFE1659F0853FDD
:1025D00049F0F5EF81E0FF1206C0983021F402C007
:1025E00081E001C080E0E3FE04C00E94310891E078
:1025F00089278823F1F1EDA8CE0185960E94120269
:10260000F98288A999A92AA92A839B838C83B3017B
:102610008E2D0E94BC0B882361F1013A25E0120740
:1026200030F062E082E390E00E94C30819C07801B4
:1026300083E0F694E7948A95E1F7C7010E9420149D
:1026400007701127B201A10104C0440F551F661F76
:10265000771F0A95D2F7682F642BC7010E942814B0
:1026600061E084EF91E003C062E08AEF90E00E94B5
:10267000C30810E001C011E080E589831A829E0141
:102680002D5F3F4F42E0B3018CE992E00E94CF04FE
:10269000811111C01F92812CA12CB12CC12CD12CE5
:1026A000E12CF12C04E0930140E36CE08CE992E032
:1026B0000E941B050F909FB7F89480919901882381
:1026C00019F081508093990180919901811105C081
:1026D0008CB58F7B8CBD109294019FBF60E089E028
:1026E0000E94C00C112321F088EB9BE00E94590945
:1026F00080919F01813089F140F0823009F04FC014
:1027000088EA91E60E9459094AC08AEF90E00E9447
:10271000590980919E01837049F0109295011092A1
:102720009601109297011092980139C080919501FD
:1027300090919601A0919701B091980181159749C8
:10274000A944B14060F11092950110929601109247
:1027500097011092980181E020C088EE93E00E94DA
:10276000590980919E0181FDD8CF409195015091EA
:10277000960160919701709198014115584B6C44F6
:102780007A4068F080FF0BC010929501109296017C
:10279000109297011092980182E080939F010E940D
:1027A0004F0AF5CB62E08F2D0E94210DE2CAE1EFC6
:1027B000F1E01382128288EE93E0A0E0B0E084831F
:1027C0009583A683B78324E031E03183208325EC11
:1027D00030E03587248724EC30E03787268720ECEB
:1027E00030E0318B208B21EC30E0338B228B22ECDC
:1027F00030E0358B248B26EC30E0378B268B118E26
:10280000128E138E148E2FEF3FEF30938F02209392
:102810008E02E0E9F2E01382128284839583A6831C
:10282000B78386E191E091838083ECE9F2E088E26E
:1028300091E0918380838AE0868789E08787089585
:10284000F999FECF92BD81BDF89A992780B5089578
:10285000262FF999FECF1FBA92BD81BD20BD0FB6BC
:10286000F894FA9AF99A0FBE01960895991B79E0A7
:1028700004C0991F961708F0961B881F7A95C9F710
:102880008095089597FB072E16F4009407D077FDE6
:1028900009D00E94921407FC05D03EF490958195D2
:1028A0009F4F0895709561957F4F0895A1E21A2E6C
:1028B000AA1BBB1BFD010DC0AA1FBB1FEE1FFF1FE4
:1028C000A217B307E407F50720F0A21BB30BE40B34
:1028D000F50B661F771F881F991F1A9469F760957B
:1028E0007095809590959B01AC01BD01CF01089535
:1028F000A29FB001B39FC001A39F700D811D112441
:10290000911DB29F700D811D1124911D08950E948B
:102910007814A59F900DB49F900DA49F800D911DDC
:1029200011240895AA1BBB1B51E107C0AA1FBB1F9E
:10293000A617B70710F0A61BB70B881F991F5A954B
:10294000A9F780959095BC01CD010895EE0FFF1F6A
:102950000590F491E02D099481E090E0F8940C94B6
:10296000BA14FB01DC0102C001900D9241505040AD
:08297000D8F70895F894FFCF99
:1029780000000000280C9200120A750C430A210A74
:10298800350A0000000047011A017701EE00120124
:0E299800FE00EF0000000000A90641067A01D3
:00000001FF
