:100000000C9468000C9490000C9490000C94900058
:100010000C9490000C9490000C9471080C94900037
:100020000C9490000C9490000C9490000C94900010
:100030000C9490000C9490000C9490000C94900000
:100040000C94D70C0C9490000C94BC010C94960169
:100050000C9490000C9490000C9490000C949000E0
:100060000C94BD050C9490000000000023002600B5
:10007000290000000000240027002A0000000000E2
:10008000250028002B0004040404040404040202D4
:100090000202020203030303030301020408102007
:1000A0004080010204081020010204081020000012
:1000B0000008000201000003040700000000000027
:1000C00000001F1C1F1E1F1E1F1F1E1F1E1F861429
:1000D00011241FBECFEFD8E0DEBFCDBF11E0A0E0FE
:1000E000B1E0EAECFAE202C005900D92AC33B10740
:1000F000D9F722E0ACE3B1E001C01D92A73EB20700
:10010000E1F710E0C8E6D0E004C02197FE010E94AC
:100110004F15C736D107C9F70E94210D0C946315FE
:100120000C940000CF92DF92EF92FF920F931F93F7
:10013000CF93DF936C017A018B01C0E0D0E0CE1544
:10014000DF0581F0D8016D918D01D601ED91FC9113
:100150000190F081E02DC6010995892B11F02196BF
:10016000EECF7E01C701DF91CF911F910F91FF90DC
:10017000EF90DF90CF900895BC016E5F7F4FDC0160
:10018000ED91FC910190F081E02D40E0099591E026
:10019000811190E0892F089585ED8093BC008091B6
:1001A000BC0084FDFCCF10920002089540917F01B5
:1001B000262F30E0240F311D21323105DCF420914F
:1001C00000022430C9F4FC0180E090E0861758F466
:1001D00030917F012191DC01A15ABE4FA30FB11DC7
:1001E0002C930196F3CF80917F01680F60937F017C
:1001F00080E0089581E0089582E008950895E091F7
:10020000AA018091A901E81730F4F0E0E555FE4F0E
:10021000808190E008958FEF9FEF08959091AA015B
:100220008091A901981750F4E92FF0E0E555FE4FB1
:10023000208130E09F5F9093AA0102C02FEF3FEF33
:10024000C90108958091A90190E02091AA01821B23
:1002500091090895CF92DF92EF92FF920F931F932F
:10026000CF93DF937C01CB018A01209101022223ED
:1002700089F0EB016B01C40ED51ECC15DD0569F0CC
:100280006991D701ED91FC910190F081E02DC701BA
:100290000995F3CF642F0E94D600C801DF91CF915A
:1002A0001F910F91FF90EF90DF90CF900895CF9323
:1002B000DF931F92CDB7DEB769832091010222231D
:1002C000D1F020912402203240F021E030E0FC0106
:1002D0003383228380E090E015C080910202E82FF2
:1002E000F0E0ED5FFD4F998190838F5F8093020274
:1002F0008093240205C061E0CE0101960E94D600E1
:1003000081E090E00F90DF91CF910895089580E013
:1003100090E008950E94551585E292E00E94D6086B
:1003200021E0892B09F420E0822F08951F920F927B
:100330000FB60F9211242F933F934F935F936F93B8
:100340007F938F939F93AF93BF93EF93FF9385E238
:1003500092E00E94210BFF91EF91BF91AF919F918D
:100360008F917F916F915F914F913F912F910F905E
:100370000FBE0F901F9018951F920F920FB60F92FD
:1003800011242F938F939F93EF93FF93E091350266
:10039000F09136028081E0913B02F0913C0282FDB7
:1003A00012C0908180913E028F5F8F7320913F0237
:1003B000821751F0E0913E02F0E0EB5DFD4F958F2A
:1003C00080933E0201C08081FF91EF919F918F91B8
:1003D0002F910F900FBE0F901F90189580913C01A8
:1003E000882361F09FB7F89420913C018091A2018D
:1003F000213019F48DBB9FBF08958FBF08958EBD26
:1004000000000DB407FEFDCF8EB5089520913C018C
:10041000222379F02FB7F89430913C01313039F430
:100420003DB33093A2013DB33DBB2FBF02C020932B
:10043000A2018CBD9DBD08951F93CF93DF93EC0166
:10044000162F83E590E00E94060260E08E850E94F0
:10045000DB0B812F80680E94FF0180E00E94FF017A
:10046000182F61E08E850E94DB0B0E94EE01812F28
:10047000DF91CF911F9108950F931F93CF93DF9337
:10048000EC01062F142F83E590E00E94060260E045
:100490008E850E94DB0B802F0E94FF01812F0E941E
:1004A000FF0161E08E850E94DB0BDF91CF911F91F0
:1004B0000F910C94EE01CF92DF92EF92FF920F9387
:1004C0001F93CF93DF93EC016B01142F790140E070
:1004D00062E00E943C0244E06AE0CE010E943C02DD
:1004E00040E864E1CE010E943C02A601612FCE01EA
:1004F0000E940A0C43E062E0CE010E943C0208E840
:1005000013E16AE0CE010E941C0282FF13C040E0AA
:1005100062E0CE010E943C0264E4CE010E941C0213
:10052000F701808362E4CE010E941C02F7018183FF
:1005300080E004C00150110921F783E0DF91CF91E1
:100540001F910F91FF90EF90DF90CF9008953F9211
:100550004F925F926F927F928F929F92AF92BF92D3
:10056000CF92DF92EF92FF920F931F93CF93DF937F
:1005700000D0CDB7DEB73C01162F942E2901A1146F
:10058000B10419F0F501408101C040E0342EF0E1E2
:100590008F9E300C112440E062E0C3010E943C02B7
:1005A0004FE768E0C3010E943C0240E864E1C301F8
:1005B0000E943C02A201602FC3010E940A0C432D3D
:1005C0006AE1C3010E943C02412F62E0C3010E9424
:1005D0003C021C3051F46AE1C3010E941C02482F06
:1005E00040686AE1C3010E943C0200ED17E068E048
:1005F000C3010E941C02982F992139F480FD03C089
:1006000001501109A1F783E0A0C06CE0C3010E9472
:100610001C02982E837109F095C0E114F10409F4CD
:1006200059C0C114D10409F455C064E1C3010E944A
:100630001C02582EF6018081851508F47DC0508279
:100640005520E9F183E590E00E94060260E0F301A5
:1006500086850E94DB0B5A9482E90E94FF01882064
:10066000A1F00FEF10E001C0000F8A94EAF782E9D1
:100670000E94FF01202F2095F70190819223802373
:10068000892B80838824839401C0812C082D10E05D
:100690000E0D1F1D851438F482E90E94FF01F80138
:1006A00080838394F3CF80E00E94FF01F801808370
:1006B00061E0F30186850E94DB0B0E94EE0168E198
:1006C000C3010E941C028770A114B10421F0F5013E
:1006D000808301C080E093FC31C0E114F10481F11A
:1006E000C114D10469F19E89992351F1F601408129
:1006F000413021F4843041F58FEF27C0423020F1A2
:10070000811122C042509E012F5F3F4FB701C301AC
:100710000E945B02811119C0F6018081E80EF11C74
:10072000F70132979081898198130EC0319690819C
:100730008A81981309C004C084E007C082E005C024
:1007400080E003C081E001C087E00F900F90DF914F
:10075000CF911F910F91FF90EF90DF90CF90BF90BE
:10076000AF909F908F907F906F905F904F903F9051
:1007700008950F931F93CF93DF938C01D62FC42F2F
:100780000E941C02C0954C2F48236D2FC801DF9199
:10079000CF911F910F910C943C026F927F928F9298
:1007A000AF92BF92CF92DF92EF92FF920F93CF93CF
:1007B000DF9300D000D01F92CDB7DEB73C0182E0BE
:1007C0008D8340E064E2C3010E943C0240E066E2A7
:1007D000C3010E943C0246E268E4C3010E943C025D
:1007E00086E28B838D81823020F140E86CE1C30189
:1007F0000E94B90387E08C831F92812CCE0104965E
:100800005C0101966C0104977C0101E09E012D5F63
:100810003F4F40E36CE0C3010E94A7020F9081119B
:100820000BC08D81823039F481E09C81911104C02C
:1008300008C084E001C081E091E0823019F090E0CE
:1008400001C091E0892F0F900F900F900F900F90A3
:10085000DF91CF910F91FF90EF90DF90CF90BF90FD
:10086000AF908F907F906F9008952F923F924F920C
:100870005F926F927F928F929F92AF92BF92CF9230
:10088000DF92EF92FF920F931F93CF93DF93CDB739
:10089000DEB72D970FB6F894DEBF0FBECDBF413542
:1008A00008F004C14D872B013C0140E86CE10E9437
:1008B000B90331E03C878C85823091F08330F1F0D0
:1008C000813009F0F5C083E989839D859923D9F0AA
:1008D00081E0F2019081953008F480E0912C18C0FD
:1008E000F5E9F9833D85332381F081E0F2019081C0
:1008F000983008F480E043E0942E0AC087E98983A9
:1009000036E0932E04C0912C02C023E0922E80E0AA
:100910001D85F8E09F9E1019112417FD10E0882313
:1009200021F098E89B8333E001C032E021E0912F71
:10093000977009F420E0912F959595959595290F3D
:1009400029F4882309F491C0185F8FC0811102C077
:1009500094E001C093E0291708F4922FE92DF0E00C
:100960003196E40DF51D232F4191A1E0B0E0AC0FCD
:10097000BD1FA20FB11D4C932F5F422F431B491780
:1009800098F3DFCF8111DFC010320CF093C010E27A
:1009900030E73A839B818C8189279D8189279E81BD
:1009A00089278F839E01285F3F4F47E0BE016F5F1D
:1009B0007F4FC3010E945B028111A3C01A8683E0AE
:1009C0008B87FE0137961F0109E08A84482D4295E6
:1009D000407F480D6AE1C3010E943C021F92CE0194
:1009E0000A965C01FE013B966F0171019E012F5F2B
:1009F0003F4F40E36CE0C3010E94A702082F0F9015
:100A0000823009F0BFCF6CE1C3010E941C0285FD5A
:100A10009AC08F7109F480E2282F30E0412F110F26
:100A2000550B421753070CF043C0182F822F8595A2
:100A30008595859591E0980F422F477081E009F4E4
:100A400080E0890FE1E0F0E0EC0FFD1FE80FF11D01
:100A5000215031092770332781E090E001C0880FD1
:100A60002A95EAF79081892B808310320CF090CF81
:100A7000912F97709A87812F8595859585958E5FA3
:100A8000292FF0E18F9F200D11242A8301E091117D
:100A900001C000E0080F22242394312C2C0E3D1EAF
:100AA000280E311C39E0381B3B878FCF06E04BC046
:100AB00005E049C08B81883809F442C082E094E0A7
:100AC000E92DF0E03196E40DF51D980FA1E0B0E0BE
:100AD000AC0FBD1FA80FB11D2C9121938F5F8913FF
:100AE000F5CF8B85833041F58A85811125C09E0124
:100AF0002D5F3F4F41E0B101C3010E945B0288239B
:100B000011F0082F20C09B81F1018181981316C03C
:100B10009C818281981312C0808182FF04C0FC8571
:100B2000FF5FFC87C8CEF20183878C85880F9C8489
:100B3000980E9394908207C001E005C007E003C0BF
:100B400083E093E0BDCF802F2D960FB6F894DEBFE3
:100B50000FBECDBFDF91CF911F910F91FF90EF900E
:100B6000DF90CF90BF90AF909F908F907F906F90CD
:100B70005F904F903F902F9008951F920F920FB665
:100B80000F9211242F933F934F935F936F937F9313
:100B90008F939F93AF93BF93EF93FF938091B9008F
:100BA000887F803609F49CC068F5883209F45BC000
:100BB00090F4803109F454C038F4882309F4F2C069
:100BC000883009F44DC0F2C0883109F44CC080323D
:100BD00009F45DC0EBC0803409F468C048F4803388
:100BE00009F455C0883309F0E1C08093FE01D4C0F8
:100BF000803509F44FC0883509F45DC0883409F0A8
:100C0000D5C0D2C0883909F4C3C0A8F4883709F424
:100C100067C038F4883609F463C0803709F460C0CF
:100C2000C5C0883809F4B4C0803909F45FC0803881
:100C300009F0BCC05BC0803B09F484C038F4803A42
:100C400009F466C0883A09F47DC0B0C0803C09F45C
:100C5000A3C0883C09F4A0C0883B09F486C0A6C0A4
:100C60008091DB0110C09091FD018091FC019817EB
:100C700070F5E091FD0181E08E0F8093FD01F0E0C1
:100C8000E452FE4F80818093BB0085EC82C080934C
:100C9000FE018AC0E091FD0181E08E0F8093FD018D
:100CA0008091BB00F0E0E452FE4F80839091FD0103
:100CB0008091FC016AC0E091FD0181E08E0F80937C
:100CC000FD018091BB00F0E0E452FE4F80838091F3
:100CD000FF01811169C081E08093DA0184EA5DC07F
:100CE00083E0809300021092A101CFCF8091A101F7
:100CF000803208F04DC0E091A10181E08E0F809319
:100D0000A1018091BB00F0E0EF57FE4F8083BDCF83
:100D100085EC8093BC00109200028091A10180328A
:100D200030F4E091A101F0E0EF57FE4F10826091A6
:100D3000A10170E081E891E0E0E0F0E00995109217
:100D4000A10134C084E080930002109280011092CF
:100D50007F01E0E0F0E0099580917F01811105C0FD
:100D600081E080937F0110925F01E091800181E03A
:100D70008E0F80938001F0E0E15AFE4F80818093D6
:100D8000BB009091800180917F01981708F47DCF7E
:100D900085E88093BC000AC085EC8093BC0010926B
:100DA000000204C01092FE010E94CC00FF91EF915E
:100DB000BF91AF919F918F917F916F915F914F9173
:100DC0003F912F910F900FBE0F901F9018950C948C
:100DD000C9148F929F92AF92BF92CF92DF92EF92FF
:100DE000FF920F931F93CF93DF93CDB7DEB7639737
:100DF0000FB6F894DEBF0FBECDBF982E90E00397DC
:100E000063E070E00E94FF141DEF190D160F82E1E0
:100E10008B8B812F80958370810F0E94CC0A81116A
:100E200039C08B898231B0F180E389831A839E01B6
:100E30002D5F3F4F42E0BE016F5F7F4F8EEC92E02F
:100E40000E945B02811126C081E08F93812CA12C2E
:100E5000B12CCE0143966C0142977C0104E09C01C9
:100E600040E36CE08EEC92E00E94A7020F908111AB
:100E700011C0F701ADE3B1E0CE01419621912D9370
:100E8000E817F907D9F793E0991202C010923F01D1
:100E900081E001C080E063960FB6F894DEBF0FBE1C
:100EA000CDBFDF91CF911F910F91FF90EF90DF9019
:100EB000CF90BF90AF909F908F9008958F92AF92F8
:100EC000BF92CF92DF92EF92FF920F931F93CF9337
:100ED000DF93CDB7DEB7A3970FB6F894DEBF0FBE92
:100EE000CDBFFC01162F862F90E0039763E070E0E2
:100EF0000E94FF141350160F80818B8B81818C8B85
:100F000082818D8B83818E8B82E18BA3812F809553
:100F10008370810F0E94CC0A811148C080EA8983C6
:100F20001A8362E0CE0101960E946B0A811105C00E
:100F300060E1CE0143960E946B0A811137C08BA1FC
:100F40008231A0F180E389831A839E012D5F3F4F98
:100F500042E0BE016F5F7F4F8EEC92E00E945B0229
:100F6000811124C081E08F93812CA12CB12CCE0162
:100F700083966C0182977C0104E09C0140E36CE065
:100F80008EEC92E00E94A7020F9081110FC0998110
:100F900090933D018A8180933E018B8180933F0134
:100FA0008C818093400181E02B89291380E0A396F6
:100FB0000FB6F894DEBF0FBECDBFDF91CF911F916A
:100FC0000F91FF90EF90DF90CF90BF90AF908F90F8
:100FD0000895AF92BF92CF92DF92EF92FF920F935C
:100FE0001F93CF93DF936C01062F61E084E00E9492
:100FF0003C0C61E083E00E943C0C10E0C0E0D0E0DB
:10100000E12CF12C580181E0A81AB108C017D107D2
:10101000F9F061E084E00E94DB0B61E083E00E9474
:10102000DB0BC701B6010E94780CA89560E084E054
:101030000E94DB0B60E083E00E94DB0BCA15DB053E
:101040002CF4C701B6010E94780CA8952196DECF3A
:10105000DF91CF911F910F91FF90EF90DF90CF9094
:10106000BF90AF9008950F931F93CF93DF938C01A0
:101070000E94E706C82FC80101960E94E706D82FF4
:10108000C81739F0C80102960E94E706C81303C0CA
:101090000AC08C2F08C0D81731F062E082E390E0DC
:1010A0000E94E90780E0DF91CF911F910F91089591
:1010B000FF920F931F93CF93DF938C01F62EC0E026
:1010C000D0E06F2DC8018C0F9D1F0E94D114219676
:1010D000C330D105B1F7DF91CF911F910F91FF90F0
:1010E00008951F920F920FB60F9211242F933F93E2
:1010F0004F935F936F937F938F939F93AF93BF9320
:10110000EF93FF930FB6F894A895809160008861E3
:1011100080936000109260000FBE80914D0181119C
:1011200003C0E0E0F0E00995FF91EF91BF91AF912E
:101130009F918F917F916F915F914F913F912F91EF
:101140000F900FBE0F901F901895FC01538D448D8A
:10115000252F30E0842F90E0821B930B541710F062
:10116000CF96089501970895FC01918D828D98176F
:1011700061F0828DDF01A80FB11D5D968C91928D7B
:101180009F5F9F73928F90E008958FEF9FEF089578
:10119000FC01918D828D981731F0828DE80FF11D41
:1011A000858D90E008958FEF9FEF0895FC01918D5C
:1011B000228D892F90E0805C9F4F821B91098F7355
:1011C0009927089580E090E0892B29F00E948C01F6
:1011D00081110C9400000895282F3091240231329F
:1011E00008F04AC0809100028111FCCF9091230247
:1011F00042E0409300022093FF012FEF2093FE0175
:101200001092FD013093FC01E3E0F2E0ACEDB1E0BF
:1012100020E0321721F041914D932F5FFACF1092C9
:10122000DB012091DB01990F922B9093DB019091D0
:10123000DA01913061F41092DA019091DB01909320
:10124000BB009091BC0093FDF8CF95EC01C095EEEA
:101250009093BC00909100029230E1F39091FE01D6
:101260009F3F79F08091FE01803241F08091FE0134
:10127000803331F084E005C081E003C082E001C02A
:1012800083E010920202109224021092010208954B
:10129000EF92FF920F931F93CF93DF93CDB7DEB7FB
:1012A00027970FB6F894DEBF0FBECDBF81E08093C5
:1012B000010288E680932302109202021092240217
:1012C00060E082EC92E00E94570181E00E94EC080D
:1012D000809100028111FCCF81E080930002809315
:1012E000FF019FEF9093FE011092FD0196E0909315
:1012F000FC018093DB018091DB01806D8093DB0139
:101300008091DA01813061F41092DA018091DB0181
:101310008093BB008091BC0083FDF8CF85EC01C0B9
:1013200085EE8093BC00809100028130E1F38091D2
:10133000FD01873018F49091FD0101C097E0ACEDFC
:10134000B1E0EBEAF1E080E0891721F02D912193E3
:101350008F5FFACF1092AA018093A9019E012F5F9F
:101360003F4F790100E010E082EC92E00E940E0114
:10137000982F9F70153079F484FB222720F9220FD3
:10138000322F330F330F230F920F9E83082F001F2E
:101390000027001F08C082958F703AE0839F900D50
:1013A0001124F70190831F5FFFEFEF1AFF0A173038
:1013B000D9F63F81832F90E0013019F48053984F84
:1013C00002C08459984F19811093CB01FA80F09292
:1013D000CC01EB80E092CD014D814093CE012E8176
:1013E0002093CF019093D1018093D0015C815093E1
:1013F000D2013093D501803D37E0930708F453C004
:10140000BC01605D774050E041505109E2ECF0E0F2
:1014100031E0321730F4A4914A0F511D3F5F3196ED
:10142000F8CF233038F09B0123703327232B11F49E
:101430004F5F5F4F8D5C9740959587959595879504
:10144000EDE6F1E06E9F90016F9F300D7E9F300DB5
:101450001124820F931F9C01240F351FA8E1B0E0D7
:101460000E9435159B01AC012E0D311D411D511DF2
:10147000ACE3B0E00E9444159B01AC012F0D311D7F
:10148000411D511D0E944415012F10E020E030E065
:1014900000581C4B2249374CDC01CB01800F911FB7
:1014A000A21FB31F03C080E090E0DC018093D6014F
:1014B0009093D701A093D801B093D90127960FB686
:1014C000F894DEBF0FBECDBFDF91CF911F910F917A
:1014D000FF90EF9008958F92AF92BF92CF92DF92DC
:1014E000EF92FF920F93CF93DF93CDB7DEB7649760
:1014F0000FB6F894DEBF0FBECDBF062FE62EF12C3F
:10150000A701BC01CE0101960E945A1521E030E0EE
:101510002C0F3D1F2E0D3F1D402FBE016F5F7F4FD3
:101520008EEC92E00E945B02811125C082E18C8BDF
:101530001B8A0E5F1F92812CCE0143965C0101969F
:101540006C0143977C019C0140E36CE08EEC92E0DF
:101550000E94A7020F9081110EC08C89813051F436
:101560008B89843039F481E099819A3009F480E0E4
:10157000819501C081E064960FB6F894DEBF0FBE7E
:10158000CDBFDF91CF910F91FF90EF90DF90CF9083
:10159000BF90AF908F9008958F92AF92BF92CF92ED
:1015A000DF92EF92FF920F93CF93DF93CDB7DEB729
:1015B0002C970FB6F894DEBF0FBECDBF90E699838F
:1015C0008A8383EA91E0AE014D5F5F4FDE01199699
:1015D000FC012191CF01FA012193AF01EA17FB072A
:1015E000B9F7E091D002F0E0E353FD4FCE010D9644
:1015F00021912D93A817B907D9F71F92812CA12CFF
:10160000B12CC12CD12CE12CF12C0CE09E012F5FD0
:101610003F4F40E16EE08EEC92E00E94A7020F90F7
:101620002C960FB6F894DEBF0FBECDBFDF91CF91E1
:101630000F91FF90EF90DF90CF90BF90AF908F9081
:101640000895FC01848DDF01A80FB11DA35ABF4F7F
:101650002C91848D90E001968F739927848FA689B1
:10166000B7892C93A089B1898C91837080648C9305
:10167000938D848D981306C00288F389E02D8081B4
:101680008F7D80830895EF92FF920F931F93CF93E6
:10169000DF93EC0181E0888F9B8D8C8D981305C0C2
:1016A000E889F989808185FD26C0F62E0B8D10E032
:1016B0000F5F1F4F0F731127E02E8C8DE8120CC0A7
:1016C0000FB607FCFACFE889F989808185FFF5CF4D
:1016D000CE010E94210BF1CF8B8DFE01E80FF11D91
:1016E000E35AFF4FF0829FB7F8940B8FEA89FB898A
:1016F000808180620AC09FB7F894EE89FF89608379
:10170000E889F98980818370806480839FBF81E04C
:1017100090E0DF91CF911F910F91FF90EF9008958E
:10172000CF93DF93EC01888D8823C9F0EA89FB8988
:10173000808185FD05C0A889B9898C9186FD0FC07F
:101740000FB607FCF5CF808185FFF2CFA889B98954
:101750008C9185FFEDCFCE010E94210BE7CFDF9169
:10176000CF910895833081F028F4813099F0823050
:10177000A1F008958730A9F08830B9F08430D1F411
:10178000809180008F7D03C0809180008F7780934F
:101790008000089584B58F7702C084B58F7D84BDA5
:1017A00008958091B0008F7703C08091B0008F7D45
:1017B0008093B00008951F93CF93DF93282F30E0DC
:1017C000F901E255FF4F8491F901E656FF4FD4919C
:1017D000F901EA57FF4FC491CC23C1F0162F8111B4
:1017E0000E94B20BEC2FF0E0EE0FFF1FE458FF4F0A
:1017F000A591B4919FB7F894111104C08C91D09524
:10180000D82302C0EC91DE2BDC939FBFDF91CF91F8
:101810001F910895DF92EF92FF920F931F93CF9342
:10182000DF938C01F62ED42EE52E83E590E00E9406
:10183000060260E0F80186850E94DB0B82E10E94CF
:10184000FF01CD2DDE2DCE018F0D911D7C01EC16FB
:10185000FD0621F089910E94FF01F9CF61E0F801B6
:1018600086850E94DB0BDF91CF911F910F91FF9036
:10187000EF90DF900C94EE01CF93DF9390E0FC01AA
:10188000E656FF4F2491FC01EA57FF4F84918823CD
:1018900061F190E0880F991FFC01EE58FF4FC59150
:1018A000D491FC01E458FF4FA591B491611109C096
:1018B0009FB7F8948881209582238883EC912E230A
:1018C0000BC0623061F49FB7F8948881322F309555
:1018D00083238883EC912E2B2C939FBF06C08FB758
:1018E000F894E8812E2B28838FBFDF91CF91089544
:1018F0008F929F92AF92BF92CF92DF92EF92FF9220
:101900006B017C010E94B20C4B015C01C114D1043B
:10191000E104F104F1F00E94B20CDC01CB01881962
:101920009909AA09BB09883E9340A105B10570F346
:1019300021E0C21AD108E108F10888EE880E83E0A0
:10194000981EA11CB11CC114D104E104F10419F7C3
:10195000DDCFFF90EF90DF90CF90BF90AF909F9042
:101960008F9008953FB7F8948091E3029091E4023C
:10197000A091E502B091E60226B5A89B05C02F3FD5
:1019800019F00196A11DB11D3FBFBA2FA92F982FA5
:101990008827820F911DA11DB11DBC01CD0146E01C
:1019A000660F771F881F991F4A95D1F708951F92D8
:1019B0000F920FB60F9211242F933F938F939F9303
:1019C000AF93BF938091DF029091E002A091E1027A
:1019D000B091E2023091DE0220E3230F2D3720F494
:1019E0004096A11DB11D05C023EB230F4196A11DFB
:1019F000B11D2093DE028093DF029093E002A0935A
:101A0000E102B093E2028091E3029091E402A0919E
:101A1000E502B091E6020196A11DB11D8093E3029B
:101A20009093E402A093E502B093E602BF91AF91D8
:101A30009F918F913F912F910F900FBE0F901F900C
:101A40001895CF93DF93CDB7DEB7AF970FB6F89465
:101A5000DEBF0FBECDBF789484B5826084BD84B5EF
:101A6000816084BD85B5826085BD85B5816085BD99
:101A700080916E00816080936E0010928100809151
:101A800081008260809381008091800081608093DA
:101A900080008091B10084608093B1008091B0009B
:101AA00081608093B00080917A008B7F80937A0070
:101AB00080917A00826080937A0080917A008160C0
:101AC00080937A0080917A00806880937A001092E7
:101AD000C10084B7877F84BF0FB6F894A895809122
:101AE0006000886180936000109260000FBEA8952E
:101AF0008FEF8093A3018093A4018093A50180932D
:101B0000A6018093A7018093A80161E085E00E946F
:101B10003C0C61E085E00E94DB0B61E070E080E05E
:101B200090E00E94780C81E08093010288E6809327
:101B3000230210920202109224026EE082EC92E0E4
:101B40000E94570164E082EC92E00E94570181E01C
:101B50000E94EC080E94480960E085E00E94DB0BCF
:101B60008091D0019091D101813E97402CF463E0A7
:101B700082E390E00E94E90783B7817F846083BF9E
:101B800080E293E00E943308182F8093550184E887
:101B900093E00E94330891E0811101C090E090939E
:101BA000590111501E3F18F088EF8093550182E5CE
:101BB00093E00E943308182F8093560185E593E047
:101BC0000E9433088093570188E593E00E94330810
:101BD000809358018BE593E00E9433088093520173
:101BE0001F3F41F410925201109258011092570178
:101BF0001092560180915201982F937029F440E879
:101C000051E561E070E016C0913029F440E05CE8F5
:101C10006AE070E00FC0923049F410920401109213
:101C2000050110920601109207010CC041E050E03E
:101C300060E070E040930401509305016093060159
:101C40007093070182FF04C091E09093540102C099
:101C50001092540184FF03C081E08093530168E82F
:101C600073E180E090E00E94780C61E088EE93E000
:101C70000E94E9079FE088E10FB6F894A895809349
:101C800060000FBE9093600080910801909109015F
:101C9000A0910A01B0910B018CA79DA7AEA7BFA789
:101CA0003E0198E1690E711C2E01A1E14A0E511C02
:101CB0001E01BCE12B0E311CA89580915E0188238A
:101CC00051F180915A0190915B01A0915C01B0911A
:101CD0005D010196A11DB11D80935A0190935B0196
:101CE000A0935C01B0935D01409104015091050106
:101CF0006091060170910701481759076A077B0731
:101D000050F410925E0110925A0110925B011092F1
:101D10005C0110925D011FB7F89480914E01811112
:101D200027C0E0E9F0E08491E4EAF0E09491E82F44
:101D3000F0E0EE0FFF1FEE58FF4FA591B491EC912C
:101D4000E92321F461E08AE00E94DB0B61E08AE094
:101D50000E943C0C8CB580618CBD8CB580648CBDC0
:101D600061E08DE00E943C0C61E08BE00E943C0C45
:101D700080914E018F5F80934E011FBF61E0809183
:101D8000DC020E943C0C61E08091DC020E94DB0BD3
:101D90008091DD028F3F41F44FE062E08EEC92E0F3
:101DA0000E943C0213E025C060E00E943C0C2091A0
:101DB000DD0230E0F901E255FF4F8491F901E6566A
:101DC000FF4F1491F901EA57FF4F04910023F9F0F6
:101DD00081110E94B20BE02FF0E0EE0FFF1FE859D7
:101DE000FF4FA591B491EC911E2389F0D5CF1150EE
:101DF00019F162E370E080E090E00E94780C62E00C
:101E00008EEC92E00E941C0284FF16C0F0CF61E0CD
:101E10008091DD020E943C0C60E08091DD020E9416
:101E2000DB0B61E08091DD020E94DB0B62E370E07E
:101E300080E090E00E94780C40E064E28EEC92E05A
:101E40000E943C0240E066E28EEC92E00E943C027E
:101E500046E268E48EEC92E00E943C0240E864E5D1
:101E60008EEC92E00E943C0249EA66E58EEC92E03C
:101E70000E943C0243E068E58EEC92E00E943C0246
:101E800048EE6AE58EEC92E00E943C0240E46AE291
:101E90008EEC92E00E943C024DE362E28EEC92E016
:101EA0000E943C0268E28EEC92E00E941C02982F95
:101EB0009370933039F0482F436068E28EEC92E0E3
:101EC0000E943C026CE48EEC92E00E941C0280773F
:101ED000803791F040E76CE48EEC92E00E94B90309
:101EE0006CE48EEC92E00E941C02482F40676CE488
:101EF0008EEC92E00E943C028EEC92E00E94CD03B8
:101F0000882309F476C48EEC92E00E94BC008823FA
:101F100009F46FC461E085E00E94DB0B61E070E0D2
:101F200080E090E00E94780C0E94480960E085E023
:101F30000E94DB0B80915901882309F469C010923B
:101F4000590160E084E893E00E94580899E288E132
:101F50000FB6F894A895809360000FBE9093600030
:101F6000A89561E084E00E943C0C61E084E00E945E
:101F7000DB0B68E873E180E090E00E94780C1AE0E7
:101F8000C12CD12C76010EE480917A008068809378
:101F90007A0000937C006BE470E080E090E00E94A7
:101FA000780C80917A00806480937A0080917A0026
:101FB00086FDFCCF209178008091790030E0382BAD
:101FC000032E000C440B550B64EB7BE281E190E0A7
:101FD0000E941315C20ED31EE41EF51E1150A1F669
:101FE000E8E1CE16E9E7DE06E104F10420F465E05D
:101FF00082E390E003C061E084EF91E00E94E90792
:1020000060E084E00E94DB0BA895E0E0F0E0099539
:1020100084E00E94E906882309F4EBC380913F0124
:102020008F3F09F0CEC190913D01998390913E017F
:102030009A838B83809140018C8385E00E94E9061E
:10204000882309F4D6C380913D018D8380913E01A0
:102050008E8380913F018F8380914001888786E045
:102060000E94E906882309F4C4C380913D01898751
:1020700080913E018A8780913F018B87809140014A
:102080008C8787E00E94E906882309F4B2C3809117
:102090003D018D8780913E018E8780913F018F8722
:1020A00080914001888BFE013196ADE3B1E08191D2
:1020B0008D934E165F06D9F780913E013091420113
:1020C000209143014091410190915601491308C06C
:1020D00090915701391304C090915801291711F0BC
:1020E00064E034C18A3F09F08BC080914501809340
:1020F000CF018091460190E08053984F9093D10199
:102100008093D001809147018093CE018091490155
:102110008093CD0180914A018093CC0180914B0145
:102120008093CB0118A619A61AA61BA664E0CE01BF
:1021300088960E945E07882309F45BC361E085E00E
:102140000E94DB0B61E070E080E090E00E94780C80
:102150007091CB016091CC015091CD013091CE01B5
:102160002091CF018091D0019091D1014091D20175
:10217000813DF7E09F0724F0805DE0E8EE2E02C08D
:102180008C56E12C798B6A8B5B8B4C8B3D8B2E8B29
:102190008F8B81E08093010288E680932302109266
:1021A00002021092240260E082EC92E00E94570149
:1021B0008201F12C3AE0D32EF80180816D2D0E942E
:1021C000DF1420E1829F900D1124908335E0F312FB
:1021D00003C08E898E0D8E8B0F5F1F4F608182EC46
:1021E00092E00E945701F39487E0F812E5CF81E076
:1021F0000E94EC0860E085E00E94DB0B63E01EC0FB
:102200008B3F31F5109145011CA21DA21EA21FA2F9
:1022100064E0CE0184960E945E07882309F4E9C237
:102220001123A1F080915501181739F01093550131
:10223000612F80E293E00E94580865E084EF91E00E
:102240000E94E907E0E0F0E00995D3C266E07EC0B5
:102250008C3F09F052C018A219A21AA21BA264E076
:10226000CE0180960E945E07882309F4C2C21092B4
:10227000560160E082E593E00E94580810925701F1
:1022800060E085E593E00E9458081092580160E0F4
:1022900088E593E00E94580880915301882329F033
:1022A00060E08BE593E00E94580881E0809359013B
:1022B0006FEF84E893E00E94580864E084EF91E0B7
:1022C0000E94E90700E010E0C80164E670E00E94A7
:1022D000EB14892B09F4A89560E0C8010E94D11481
:1022E00065E070E080E090E00E94780C0F5F1F4F87
:1022F0000E3EF2E01F0741F7A5CF8D3F91F5198AF9
:102300001A8A1B8A1C8A80915501898B64E0C2015C
:102310000E945E07882309F46CC2CC24DD24C61811
:10232000D70815E0A8957301C6018E0D9F1D0E9468
:10233000C914D7018D937D01A215B305A9F7612FAB
:10234000C3010E945E07811104C063E082E390E054
:1023500019C11F5FB4E0CB0ED11C123319F766E030
:102360005CC08E3F09F045C2609145016093560103
:1023700082E593E00E9458086091460160935701FE
:1023800085E593E00E9458086091470160935801E9
:1023900088E593E00E9458086091480160935201DB
:1023A0008BE593E00E9458081C8E1D8E1E8E1F8E9A
:1023B00064E0C1010E945E07882309F41AC262E04A
:1023C0003DCFF0905501F9EFFF1281C090913D0192
:1023D00080915101981324C090913E018091500149
:1023E00098131EC080914F018823D1F088E00E948D
:1023F000E906882309F4FDC180913D01811110C0D7
:1024000080913E0181110CC080913F01811108C073
:1024100080914001811104C061E084EF91E0B2C07D
:1024200010924F0180913D018093510180913E01B6
:102430008093500161E084E00E943C0C61E084E004
:102440000E94DB0B0CA51DA52EA53FA5088F198F9B
:102450002A8F3B8F18E0A895612FC3010E945E0769
:10246000882309F4C6C11F5F1233A9F7198A1A8A93
:102470001B8A1C8A11E3A895612FC2010E945E0786
:10248000882309F4B6C111501730A9F78091D601FD
:102490009091D7012091D8013091D90139832A83B5
:1024A0009B838C8365E0CE0101960E945E078823A2
:1024B00009F49FC160E084E00E94DB0B61E088ECDE
:1024C00090E00E94E90781E080934F0192C118EFEC
:1024D000F1125BC0811102C063E052C085E00E942E
:1024E000E906882309F485C180913D0190E0A0E0D0
:1024F000B0E0BA2FA92F982F882720913E01820F94
:10250000911DA11DB11DBA2FA92F982F88272091A9
:102510003F01820F911DA11DB11D209140014091ED
:10252000D6015091D7016091D8017091D901421B19
:10253000510961097109BA2FA92F982F88278A019B
:102540009B01081B190B2A0B3B0BD901C801813ACF
:102550009542A642B10508F0BFCF14E088E00E9482
:10256000E906882309F445C11150C1F7EDE3F1E014
:1025700081918111B1CF21E0E134F207C9F761E027
:1025800088EC90E00E94E90734C110920001C090ED
:102590003D01D12CDC2CCC2480913E01C80ED11CF5
:1025A000C114D10409F425C1F8E0EF2EA2E39A2E5C
:1025B000092D10E0AE2CB12CC8018A0D9B1D9595FC
:1025C00087950E94E906811109C0109200011092BE
:1025D000010110920201109203010BC180913D0193
:1025E0000A191B0981110BC017FF02C00F5F1F4F93
:1025F000159507959E2C900E9E10DACF17C08093EC
:10260000000180913E018093010180913F01809300
:102610000201809140018093030117FF02C00F5F08
:102620001F4F15950795E92CE01AE6CF992009F47C
:10263000E0C080910001F81609F4EECE31E33E15BA
:1026400008F4D7C090915401992371F098E0E912F1
:1026500004C0A0EFFA12CDC055C1853F09F4C9C02E
:10266000B0EFFB1609F4C5C08F2D90E0A0E0B0E0FC
:10267000782F6627552744278091D6019091D7015E
:10268000A091D801B091D901BB27840F951FA61F37
:10269000B71FB983AA839B838C836E2DCE010196CD
:1026A0000E945E07882309F4A4C061E084E00E94D0
:1026B0003C0C61E083E00E943C0CA89561E084E062
:1026C0000E94DB0B61E083E00E94DB0B68EC70E0B2
:1026D00080E090E00E94780C60E084E00E94DB0BD8
:1026E00060E083E00E94DB0BA89568EC70E080E07E
:1026F00090E00E94780C61E084E00E94DB0B61E0D6
:1027000083E00E94DB0B68EC70E080E090E00E94C8
:10271000780C60E084E00E94DB0B60E083E00E94C4
:10272000DB0BC60101978B3D9540E0F4860143E049
:10273000169507954A95E1F7C8010E94E706F7E06C
:10274000CF22DD2441E050E060E070E004C0440F9F
:10275000551F661F771FCA94D2F7682F642BC801D4
:102760000E94D11481E080935E0110925A01109270
:102770005B0110925C0110925D0180E589831A82F1
:102780009E012D5F3F4F42E0BE016F5F7F4F8EEC99
:1027900092E00E945B02811113C01F92812CA12C38
:1027A000B12CC12CD12CE12CF12C04E09E012F5F27
:1027B0003F4F40E36CE08EEC92E00E94A7020F9046
:1027C00048E060E18EEC92E00E94B9039FB7F89474
:1027D00080914E01882319F0815080934E018091A1
:1027E0004E01811105C08CB58F7B8CBD10923C01D0
:1027F0009FBF8091040190910501A0910601B091C5
:1028000007010097A105B10519F410925E0107C0F8
:102810000197A105B10559F481E080935E01109202
:102820005A0110925B0110925C0110925D010091BF
:102830005E0181E080934D01A89510E061E0812F59
:102840000E943C0C60E0812F0E94DB0B1F5F143163
:10285000A9F710927A00002309F44FC014BE88E152
:102860008093600084E480936000A895F89483B717
:10287000816083BF80E685BF80E485BF78948895BA
:1028800083B78E7F83BF10924D01809159018823B9
:1028900089F103E0BB24B39488E1C82E91E6D92ED8
:1028A00020E6E22E30E4F32EA895B0924D0110E020
:1028B00061E0812F0E943C0C60E0812F0E94DB0BC5
:1028C0001F5F1431A9F710927A0014BEC092600005
:1028D000D0926000A895F89483B7816083BFE5BE6D
:1028E000F5BE7894889583B78E7F83BF10924D0193
:1028F0000150D1F60E94E208DFC988E180936000B0
:1029000086E4B1CF853F09F0AFCE73CFE5E2F2E0C8
:102910001382128288EE93E0A0E0B0E08483958376
:10292000A683B78322E131E03183208325EC30E0B8
:102930003587248724EC30E03787268720EC30E089
:10294000318B208B21EC30E0338B228B22EC30E07A
:10295000358B248B26EC30E0378B268B118E128E34
:10296000138E148EE2ECF2E013821282848395833C
:10297000A683B78384E291E091838083EEECF2E05A
:1029800086E391E0918380838AE0868789E0878768
:102990000895F999FECF92BD81BDF89A992780B527
:1029A0000895262FF999FECF1FBA92BD81BD20BD93
:1029B0000FB6F894FA9AF99A0FBE01960895991BEA
:1029C00079E004C0991F961708F0961B881F7A9526
:1029D000C9F780950895AA1BBB1B51E107C0AA1F28
:1029E000BB1FA617B70710F0A61BB70B881F991FB0
:1029F0005A95A9F780959095BC01CD01089597FB54
:102A0000072E16F4009407D077FD09D00E94EB142E
:102A100007FC05D03EF4909581959F4F08957095E1
:102A200061957F4F0895A1E21A2EAA1BBB1BFD01E1
:102A30000DC0AA1FBB1FEE1FFF1FA217B307E4079D
:102A4000F50720F0A21BB30BE40BF50B661F771FF5
:102A5000881F991F1A9469F76095709580959095D5
:102A60009B01AC01BD01CF010895A29FB001B39FAE
:102A7000C001A39F700D811D1124911DB29F700D87
:102A8000811D1124911D08950E943515A59F900D5B
:102A9000B49F900DA49F800D911D11240895EE0FF9
:102AA000FF1F0590F491E02D099481E090E0F894E7
:102AB0000C946315FB01DC0102C001900D924150A2
:0A2AC0005040D8F70895F894FFCFB6
:102ACA00FF00000080510100FFFFFFFF000000002F
:102ADA000000430B9200A508900BD608B408C8085A
:102AEA000000000057012A018701FE0022010E01A1
:0C2AFA00FF00000000003504CD03BC000C
:107E0000112484B714BE81FFF0D085E080938100F7
:107E100082E08093C00088E18093C10086E0809377
:107E2000C20080E18093C4008EE0C9D0259A86E02C
:107E300020E33CEF91E0309385002093840096BBD3
:107E4000B09BFECF1D9AA8958150A9F7CC24DD24C4
:107E500088248394B5E0AB2EA1E19A2EF3E0BF2EE7
:107E6000A2D0813461F49FD0082FAFD0023811F036
:107E7000013811F484E001C083E08DD089C08234E0
:107E800011F484E103C0853419F485E0A6D080C0E4
:107E9000853579F488D0E82EFF2485D0082F10E0AE
:107EA000102F00270E291F29000F111F8ED06801E7
:107EB0006FC0863521F484E090D080E0DECF843638
:107EC00009F040C070D06FD0082F6DD080E0C81688
:107ED00080E7D80618F4F601B7BEE895C0E0D1E017
:107EE00062D089930C17E1F7F0E0CF16F0E7DF06D8
:107EF00018F0F601B7BEE89568D007B600FCFDCFD4
:107F0000A601A0E0B1E02C9130E011968C91119780
:107F100090E0982F8827822B932B1296FA010C0160
:107F200087BEE89511244E5F5F4FF1E0A038BF0790
:107F300051F7F601A7BEE89507B600FCFDCF97BE46
:107F4000E89526C08437B1F42ED02DD0F82E2BD052
:107F50003CD0F601EF2C8F010F5F1F4F84911BD097
:107F6000EA94F801C1F70894C11CD11CFA94CF0C13
:107F7000D11C0EC0853739F428D08EE10CD085E9AC
:107F80000AD08FE07ACF813511F488E018D01DD067
:107F900080E101D065CF982F8091C00085FFFCCF94
:107FA0009093C60008958091C00087FFFCCF809118
:107FB000C00084FD01C0A8958091C6000895E0E648
:107FC000F0E098E1908380830895EDDF803219F02E
:107FD00088E0F5DFFFCF84E1DECF1F93182FE3DFCA
:107FE0001150E9F7F2DF1F91089580E0E8DFEE27F6
:047FF000FF270994CA
:027FFE00040479
:0400000300007E007B
:00000001FF
