:100000000C947C000C94A4000C94A4000C94A40008
:100010000C94A4000C94A4000C94A4000C94E10093
:100020000C94A4000C94A4000C94A4000C94A400C0
:100030000C94A4000C94A4000C94A4000C94A400B0
:100040000C9444030C94A4000C9489010C94630157
:100050000C94A4000C94A4000C94A4000C94A40090
:100060000C94A4000C94A4007A0DDC0D160E7E0EE8
:10007000F90E290F3A0F870F11111111EA0F97107E
:100080001111D4101111111111111111111111119E
:100090001111111111110B110F1102000000002597
:1000A0000028002B0000000000240027002A000484
:1000B000040404040404040202020202020303030F
:1000C0000303030102040810204080010204081009
:1000D000200102040810200000000023002600294F
:1000E00000000000080002010000030407000000F7
:1000F0000000000000002D1111241FBECFEFD8E03A
:10010000DEBFCDBF22E0A4E1B1E001C01D92AB3360
:10011000B207E1F711E0A0E0B1E0E8EDF3E202C0E0
:1001200005900D92A431B107D9F710E0CCE7D0E0EB
:1001300004C02197FE010E94BB11CB37D107C9F73C
:100140000E941F0C0C94EA110C940000CF92DF92D5
:10015000EF92FF920F931F93CF93DF936C017A017D
:100160008B01C0E0D0E0CE15DF0589F0D8016D919C
:100170008D01D601ED91FC910190F081E02DC60139
:100180000995892B11F47E0102C02196ECCFC7019D
:10019000DF91CF911F910F91FF90EF90DF90CF9063
:1001A0000895089580E090E008958AE891E00E9423
:1001B000EC0121E0892B09F420E0822F08950E94B0
:1001C000DC111F920F920FB60F9211242F933F93C1
:1001D0004F935F936F937F938F939F93AF93BF934F
:1001E000EF93FF938091170190911801A09119014D
:1001F000B0911A01892B8A2B8B2B59F18091160112
:10020000E0911401F09115019081892780838091FC
:10021000170190911801A0911901B0911A011816B7
:1002200019061A061B060CF03DC08091170190912B
:100230001801A0911901B0911A010197A109B10902
:100240008093170190931801A0931901B0931A019C
:1002500029C080910001EAE9F0E0E4919FEF9093DA
:100260000001E130B9F098F0E230C9F490917000EB
:100270009D7F9093700091E09093B0009091B100B9
:10028000987F94609093B1001092B30008C01092D0
:100290006E0005C090916F009D7F90936F0060E0AD
:1002A0000E94DA02FF91EF91BF91AF919F918F91E0
:1002B0007F916F915F914F913F912F910F900FBE62
:1002C0000F901F9018951F920F920FB60F92112446
:1002D0002F933F934F935F936F937F938F939F934E
:1002E000AF93BF93EF93FF938AE891E00E942702B8
:1002F000FF91EF91BF91AF919F918F917F916F91FE
:100300005F914F913F912F910F900FBE0F901F90D3
:1003100018951F920F920FB60F9211242F938F935F
:100320009F93EF93FF93E0919A01F0919B0180815D
:10033000E091A001F091A10182FD12C09081809115
:10034000A3018F5F8F732091A401821751F0E09178
:10035000A301F0E0E657FE4F958F8093A30101C003
:100360008081FF91EF919F918F912F910F900FBE00
:100370000F901F901895FC01538D448D252F30E070
:10038000842F90E0821B930B541710F0CF960895A2
:1003900001970895FC01918D828D981761F0828DEF
:1003A000DF01A80FB11D5D968C91928D9F5F9F73A9
:1003B000928F90E008958FEF9FEF0895FC01918D4B
:1003C000828D981731F0828DE80FF11D858D90E0B8
:1003D00008958FEF9FEF0895FC01918D228D892F55
:1003E00090E0805C9F4F821B91098F73992708953D
:1003F00080E090E0892B29F00E94D50081110C94B7
:10040000000008953FB7F89480918601909187018C
:10041000A0918801B091890126B5A89B05C02F3F06
:1004200019F00196A11DB11D3FBFBA2FA92F982F1A
:100430008827820F911DA11DB11DBC01CD0143E094
:10044000660F771F881F991F4A95D1F70895FC0101
:10045000848DDF01A80FB11DA35ABF4F2C91848D4D
:1004600090E001968F739927848FA689B7892C9382
:10047000A089B1898C9180648C93938D848D98131D
:1004800006C00288F389E02D80818F7D80830895E6
:10049000EF92FF920F931F93CF93DF93EC0181E0D4
:1004A000888F9B8D8C8D981305C0E889F989808190
:1004B00085FD24C0F62E0B8D10E00F5F1F4F0F73CC
:1004C0001127E02E8C8DE8120CC00FB607FCFACF76
:1004D000E889F989808185FFF5CFCE010E94270246
:1004E000F1CF8B8DFE01E80FF11DE35AFF4FF08233
:1004F0000B8FEA89FB898081806207C0EE89FF89C2
:100500006083E889F98980818064808381E090E05C
:10051000DF91CF911F910F91FF90EF900895CF93AE
:10052000DF93EC01888D8823C9F0EA89FB898081FB
:1005300085FD05C0A889B9898C9186FD0FC00FB6CD
:1005400007FCF5CF808185FFF2CFA889B9898C910E
:1005500085FFEDCFCE010E942702E7CFDF91CF913B
:100560000895833081F028F4813099F08230A1F031
:1005700008958730A9F08830B9F08430D1F48091A3
:1005800080008F7D03C0809180008F7780938000F2
:10059000089584B58F7702C084B58F7D84BD08959A
:1005A0008091B0008F7703C08091B0008F7D8093E1
:1005B000B00008951F93CF93DF93282F30E0F90107
:1005C000EF51FF4F8491F901ED53FF4FD491F901A1
:1005D000E155FF4FC491CC23C9F0162F81110E9421
:1005E000B102EC2FF0E0EE0FFF1FE556FF4FA59193
:1005F000B4918FB7F894111105C09C91ED2FE0953F
:10060000E92302C0EC91ED2BEC938FBFDF91CF91EA
:100610001F9108958F929F92AF92BF92CF92DF92D7
:10062000EF92FF926B017C010E9402024B015C0180
:10063000C114D104E104F104F1F00E940202DC01D2
:10064000CB0188199909AA09BB09883E9340A105E5
:10065000B10570F321E0C21AD108E108F10888EE73
:10066000880E83E0981EA11CB11CC114D104E104C2
:10067000F10419F7DDCFFF90EF90DF90CF90BF909E
:10068000AF909F908F9008951F920F920FB60F9288
:1006900011242F933F938F939F93AF93BF93809198
:1006A0002D0190912E01A0912F01B0913001309138
:1006B000850126E0230F2D3720F40296A11DB11DE0
:1006C00005C029E8230F0396A11DB11D20938501C4
:1006D00080932D0190932E01A0932F01B0933001B0
:1006E0008091860190918701A0918801B091890144
:1006F0000196A11DB11D8093860190938701A0935F
:100700008801B0938901BF91AF919F918F913F91E3
:100710002F910F900FBE0F901F901895809184011C
:10072000882361F09FB7F894209184018091830120
:10073000213019F48DBB9FBF08958FBF08958EBDE2
:1007400000000DB407FEFDCF8EB508952091840101
:10075000222379F02FB7F89430918401313039F4A5
:100760003DB3309383013DB33DBB2FBF02C0209307
:1007700083018CBD9DBD08959FB7F894809182013F
:10078000882319F081508093820180918201811128
:1007900005C08CB58F7B8CBD109284019FBF0895DE
:1007A000CF93CFB7F89480918201811124C0E9EBF7
:1007B000F0E08491EDECF0E09491E82FF0E0EE0FA2
:1007C000FF1FEB55FF4FA591B491EC91E92321F464
:1007D00061E08AE00E94DA028AE00E9427078CB575
:1007E00080618CBD8CB580648CBD8DE00E94270734
:1007F0008BE00E942707809182018F5F80938201A6
:10080000CFBFCF91089582E080930101E1E3F1E051
:100810008EE18E0F11928E13FDCFEFE4F1E080E2B6
:100820008E0F11928E13FDCF08952F923F924F920B
:100830005F926F927F928F929F92AF92BF92CF9270
:10084000DF92EF92FF920F931F93CF93DF9300D02D
:1008500000D01F92CDB7DEB78C01F62E84E00E9447
:10086000270783E00E9427072801012E000C660855
:10087000770820E43FE1D8010E94C11128EE33E05F
:1008800040E050E00E94991129833A831A018F2D8C
:1008900090E09D838C8300E010E03AE9832E30E005
:1008A000932E42EBE42E40E0F42E56ECC52E50E0A1
:1008B000D52E5C0191E0A91AB1088C819D810817A1
:1008C000190709F415C161E084E00E94DA02809101
:1008D0000001833019F4F401949172C08F3F09F044
:1008E000F5C083E080930001F40194919F3F09F4E7
:1008F000EDC0913009F1923009F440C0911160C00F
:1009000014BC15BC84B5826084BD85B5816085BD8D
:10091000F7018491E82FF0E0EE0FFF1FE556FF4F3F
:10092000859194919093790180937801F601849157
:100930008093770190E046C0109280001092810071
:100940008091810088608093810080918100816026
:1009500080938100F7018491E82FF0E0EE0FFF1FF4
:10096000E556FF4F859194919093760180937501A0
:10097000F60184918093740191E024C01092B0003C
:100980001092B1008091B00082608093B00080919D
:10099000B10081608093B100F7018491E82FF0E00D
:1009A000EE0FFF1FE556FF4F85919491909315012F
:1009B00080931401F60184918093160192E002C0A5
:1009C00097FD84C083E09B830E9427079B81992326
:1009D00019F09230E9F40CC085B5887F826085BD3E
:1009E0004114510461047104C1F12CE730E02BC0C3
:1009F0008091B100887F82608093B10041145104DE
:100A00006104710491F74FEF5FEFBA012CE74FC01B
:100A1000913071F480918100887F816080938100A2
:100A2000411451046104710459F127EE33E00BC005
:100A30004114510461047104C1F727EE33E04FEF14
:100A40005FEFBA0103C049815A81B1019130E9F0E9
:100A5000923069F191113AC004C04FEF5FEFBA01D3
:100A60002CE727BD40937E0150937F016093800166
:100A70007093810180916E00826080936E0026C029
:100A80004FEF5FEFBA0127EE33E0309389002093F8
:100A9000880040937A0150937B0160937C017093AE
:100AA0007D0180916F00826080936F000FC0209362
:100AB000B30040931701509318016093190170938C
:100AC0001A0180917000826080937000C301B201AE
:100AD0000E940A0360E084E00E94DA020A151B0506
:100AE00024F4C301B2010E940A030F5F1F4FE5CE39
:100AF0000F900F900F900F900F90DF91CF911F915B
:100B00000F91FF90EF90DF90CF90BF90AF909F90AC
:100B10008F907F906F905F904F903F902F900895AF
:100B200061E088EC90E00C941504EF92FF920F9333
:100B30001F93CF93DF93D82FC62F6EEF8AE891E0F3
:100B40000E944802D09331018EEF8C0F80933201C6
:100B5000CF3108F0CEE101E311E07801D02F8E2DE6
:100B6000801B8C1740F4F70161917F018AE891E0C6
:100B70000E944802F4CF60E0802F8D1B8C1728F470
:100B8000F80181918F01680FF7CF8AE891E00E9408
:100B90004802DF91CF911F910F91FF90EF900C943D
:100BA000030490910101E92FF0E0EF5CFE4F808398
:100BB0009D3161F4862F60911B01605E0E94950556
:100BC00080911B018F5F80931B0108959F5F90931D
:100BD00001010895CF93C82F63E082E390E00E9463
:100BE0001504CC2391F088E780932C010E94030424
:100BF00060912C018C2F0E94D105609101018091A0
:100C00002C010E94950510921B01CF9108950F931E
:100C10001F93CF93DF938C010E946011C82FC801EE
:100C200001960E946011D82FC81789F00E5F1F4FE0
:100C3000C8010E946011C81751F0C8010E946011DC
:100C4000C82FD81721F084E00E94EA05C0E08C2F5D
:100C5000DF91CF911F910F9108950F931F93CF9321
:100C6000DF93CDB7DEB763970FB6F894DEBF0FBE44
:100C7000CDBF082F1DEF180F90E0039763E070E0E1
:100C80000E948511160F82E18B8B812F80958370D6
:100C9000810F0E94D70980937301811120C0AE019A
:100CA0004D5E5F4FBE016F5F7F4F812F0E944209F3
:100CB00080937301882321F083E00E94EA050FC02E
:100CC000ACE1B1E0FE01319680E18E0F91919D93F0
:100CD0008E13FCCF033029F410921E0102C080E075
:100CE00001C081E063960FB6F894DEBF0FBECDBFA2
:100CF000DF91CF911F910F9108951F93CF93DF93B1
:100D0000CDB7DEB7A3970FB6F894DEBF0FBECDBF49
:100D1000FC011DEF160F262F30E0C901039763E099
:100D200070E00E948511160F80818B8B81818C8BE6
:100D300082818D8B83818E8B82E18BA3812F809525
:100D40008370810F0E94D7098093730181113EC087
:100D500080EA89831A8362E0CE0101960E947A09B3
:100D6000811105C060E1CE0143960E947A0980930B
:100D70007301882311F082E00EC0AE014D5D5F4F1C
:100D8000BE016F5F7F4F812F0E94420980937301E4
:100D9000882321F083E00E94EA0518C0398130934E
:100DA0001C012A8120931D018B8180931E019C814F
:100DB00090931F014B89341309C03C89231306C04B
:100DC0002D89821303C081E02E89921380E0A396BF
:100DD0000FB6F894DEBF0FBECDBFDF91CF911F914C
:100DE0000895CF92DF92FF920F931F93CF93DF93DB
:100DF0001F92CDB7DEB7082F162F83E590E07983D9
:100E00000E94A60360E0809133020E94DA0282E130
:100E10000E949F03F12EC12E7981D72E8C2D8F1920
:100E2000801730F4F60181916F010E949F03F6CF85
:100E300061E0809133020E94DA020F90DF91CF913E
:100E40001F910F91FF90DF90CF900C948E0390E054
:100E5000FC01ED53FF4F2491FC01E155FF4F8491BC
:100E6000882399F090E0880F991FFC01EB55FF4F04
:100E7000A591B491FC01E556FF4F859194918FB7F0
:100E8000F894EC91E22BEC938FBF08950F931F938E
:100E9000CF93C82F83E590E00E94A60307E212E0FB
:100EA00060E0F80184850E94DA028C2F8E778068DA
:100EB0000E949F0380E00E949F03C82F61E0F80119
:100EC00084850E94DA020E948E038C2FCF911F919D
:100ED0000F9108950F931F93CF93DF93082F162F31
:100EE00083E590E00E94A603C7E2D2E060E08C8533
:100EF0000E94DA02802F8E770E949F03812F0E942A
:100F00009F0361E08C850E94DA02DF91CF911F91EF
:100F10000F910C948E03CF93C82F0E944607682F21
:100F200060688C2FCF910C946A07EF92FF920F9319
:100F30001F93CF93DF937C01C62F8A0160E082E08C
:100F40000E946A0764E08AE00E946A0784E10E94C6
:100F50008B07B7018C2F0E94F10663E082E00E94AC
:100F60006A07C8E8D3E18AE00E94460782FD04C010
:100F70002197C9F783E00FC060E082E00E946A0712
:100F800084E40E944607F801808382E40E944607B9
:100F9000F801818380E0DF91CF911F910F91FF9045
:100FA000EF9008952F923F924F925F926F927F92AF
:100FB0008F929F92AF92BF92CF92DF92EF92FF9269
:100FC0000F931F93CF93DF9300D01F92CDB7DEB75F
:100FD000982E762E2A01C114D10419F0F6016081F1
:100FE00001C060E0662EF0E1AF9E600C112460E06D
:100FF00082E02B830E946A076FE788E00E946A07FD
:1010000084E10E948B07B2012B81822F0E94F1069E
:10101000662D8AE10E946A07692D82E00E946A07B4
:101020008CE0981203C08AE10E948B0790ED492E54
:1010300097E0592E88E00E944607982F972139F4AF
:1010400080FDA8C0E1E04E1A5108A1F7A3C08CE0D2
:101050000E944607382E837109F09EC001151105C4
:1010600009F465C0E114F10409F461C084E10E944F
:101070004607982EF7018081891508F48FC0908269
:10108000992009F44AC083E590E00E94A60360E03D
:10109000809133020E94DA029A9482E90E949F03AF
:1010A000202E380144244394512C862D8219891511
:1010B00028F581111AC0AA20C1F08A2DB12C8830E0
:1010C00048F49201082E01C0220F0A94EAF7B22ACE
:1010D0008F5FF5CF82E90E949F032B2D2095F801A9
:1010E000908192238B21892B04C082E90E949F0367
:1010F000F3018083FFEF6F1A7F0AD7CF5801A90C45
:10110000B11C80E00E949F03F501808361E0809123
:1011100033020E94DA020E948E0388E10E94460791
:101120008770B82EC114D10411F0F601808333FC0E
:1011300037C001151105B1F1E114F10499F18820CE
:1011400089F1F7016081613021F4F4E0BF1203C03E
:101150001FC0623010F487E026C0B110FCCF62508F
:10116000AE014F5F5F4FC8010E94950781111BC000
:10117000F7018081080F111DF80132979081898154
:101180009813E9CF319690818A819813E4CF0AC0F1
:101190008FEF09C083E007C081E005C084E003C091
:1011A00082E001C080E00F900F900F90DF91CF910F
:1011B0001F910F91FF90EF90DF90CF90BF90AF9075
:1011C0009F908F907F906F905F904F903F902F9067
:1011D00008958F92AF92CF92DF92EF92FF920F938A
:1011E0001F93CF93DF9300D000D0CDB7DEB780E55B
:1011F00089831A82AE014D5F5F4F62E0CE01019696
:101200000E949507811117C0812CA12CC12CD12CD3
:10121000E12CF12C00E010E024E0AE014F5F5F4FC5
:1012200060E38CE00E94D207833021F0811103C07B
:1012300081E001C080E00F900F900F900F90DF9140
:10124000CF911F910F91FF90EF90DF90CF90AF90D3
:101250008F9008951F93CF93DF931F92CDB7DEB782
:10126000182F69830E944607698160956823812F42
:101270000F90DF91CF911F910C946A0768E080E195
:101280000C942A098F92AF92CF92DF92EF92FF9245
:101290000F931F93CF93DF9361157105F9F0FA0156
:1012A00090819231D8F07A01EB0190E398838983A1
:1012B000AB014E5F5F4F62E0CE010E949507811146
:1012C0000EC088248394A12CC12CD12C8E0124E043
:1012D000AE0160E38CE00E94D20701C084E0DF91A0
:1012E000CF911F910F91FF90EF90DF90CF90AF9033
:1012F0008F9008958F92AF92CF92DF92EF92FF92EC
:101300000F931F93CF93DF93CDB7DEB764970FB6DC
:10131000F894DEBF0FBECDBF162FE62EF12CA7012D
:10132000BC01CE0101960E94E11141E050E04C0F5A
:101330005D1F4E0D5F1D612FCE0101960E94950726
:10134000811124C082E18C8B1B8A22E0210F812C29
:10135000A12CCE0143966C0101967C018E010F5F9A
:101360001F4FA80160E38CE00E94D20781110EC0DC
:101370008C89813051F48B89843039F481E09981F2
:101380009A3009F480E0819501C081E064960FB63F
:10139000F894DEBF0FBECDBFDF91CF911F910F91AB
:1013A000FF90EF90DF90CF90AF908F9008958F9245
:1013B000AF92CF92DF92EF92FF920F931F93CF9352
:1013C000DF93CDB7DEB72C970FB6F894DEBF0FBE14
:1013D000CDBF90E699838A83DE011396E5E3F2E0C0
:1013E00086E08E0F91919D938E13FCCF8091280201
:1013F0008987809129028A8780912A028B87809130
:101400002B028C87812CA12CC12CD12CE12CF12C0E
:1014100000E010E02CE0AE014F5F5F4F60E18EE036
:101420000E94D2072C960FB6F894DEBF0FBECDBF38
:10143000DF91CF911F910F91FF90EF90DF90CF90B0
:10144000AF908F9008952F923F924F925F926F923C
:101450007F928F929F92AF92BF92CF92DF92EF9244
:10146000FF920F931F93CF93DF93CDB7DEB72C97E7
:101470000FB6F894DEBF0FBECDBF60E88CE10E94CE
:101480002A099924939444244394512C22E09216DF
:1014900051F033E0931661F081E09812EAC083E9DD
:1014A0008983B12C09C085E9898353E0B52E04C036
:1014B00087E9898346E0B42E312C33E0232E90E275
:1014C00039121CC0E0E7EA839C818B8189279D81CA
:1014D00089279E8189278F83AE01485F5F4F67E030
:1014E000CE0101960E9495078111C7C01B862A86EE
:1014F0009E01295F3F4F390129E01EC0932D97704F
:101500009B87432D45954595459582E0840F292F6E
:1015100030E1839F200D11242A8321E0911101C025
:1015200020E0280F66246394712C6C0E7D1E680EDB
:10153000711C87E0841B8A87AB846A2D6295607F6B
:101540006A0D8AE12C870E946A07812CCE010B96D6
:101550006C01FE013A967F0183012C85AE014F5F3D
:101560005F4F60E38CE00E94D207823091F58CE1FE
:101570000E94460785FD7BC08F7109F480E2482FE9
:1015800050E0632D330C770B641775070CF071C0B6
:10159000382ECA01019787709927242F2595259504
:1015A000259541E0420F21E0009709F420E0240F47
:1015B000E1E0F0E0EC0FFD1FE20FF11D920102C02F
:1015C000220F331F8A95E2F7C9019081892B80830E
:1015D00076CF811152C030E2331619F020E2322E5C
:1015E00071CF8B81883819F443E023E002C042E0D8
:1015F00024E080E090E06B2D70E0FC01E60FF71F27
:10160000E95DFD4F542F580FA1E0B0E0AC0FBD1FB6
:10161000A50FB11D5C9151830196821770F38A85E5
:10162000833049F58B85811126C0AE014D5F5F4F38
:1016300061E0C3010E94950781111FC09B81F301E6
:10164000818198131CC09C818281981318C080816D
:1016500082FF02C093941ACF80933202892D880FA3
:10166000382F390D3F5F3093270290E009C092E098
:1016700007C095E005C091E003C0982F01C097E036
:1016800081E0911180E02C960FB6F894DEBF0FBE7A
:10169000CDBFDF91CF911F910F91FF90EF90DF9021
:1016A000CF90BF90AF909F908F907F906F905F9002
:1016B0004F903F902F9008958F92AF92CF92DF92EC
:1016C000EF92FF920F931F93CF93DF9300D000D040
:1016D0001F92CDB7DEB782E08D8386E28C8360E80F
:1016E0008CE10E942A0987E08B83812CA12CCE01FA
:1016F00003966C0102967C018E010F5F1F4F21E063
:10170000AE014C5F5F4F60E38CE00E94D207811115
:1017100009C08D81823029F481E09B81911102C042
:1017200006C081E091E0823019F090E001C091E0C4
:10173000892F0F900F900F900F900F90DF91CF9106
:101740001F910F91FF90EF90DF90CF90AF908F900F
:101750000895CF93DF93809133020E94270761E0C1
:10176000809133020E94DA02809134020E9427079E
:101770002091340230E0F901EF51FF4F8491F901DB
:10178000ED53FF4FD491F901E155FF4FC491CC23A4
:1017900071F081110E94B102EC2FF0E0EE0FFF1FFB
:1017A000E952FF4FA591B491EC91ED23A9F561E0C9
:1017B000809134020E94DA0261E070E080E090E003
:1017C0000E940A0360E884E50E946A0766E486E5F1
:1017D0000E946A0763E088E50E946A0768EE8AE56E
:1017E0000E946A0760E48AE20E946A076DE382E26F
:1017F0000E946A0760E78CE40E946A0788E20E9400
:101800004607982F93709330B9F0682F636088E291
:10181000DF91CF910C946A076FE082E00E946A0723
:1018200061E070E080E090E00E940A0382E00E94A4
:10183000460784FDFBCFC6CFDF91CF910895CF93AC
:10184000DF93CDB7DEB7A0970FB6F894DEBF0FBE1B
:10185000CDBF789484B5826084BD84B5816084BD39
:1018600085B5826085BD85B5816085BD80916E003E
:10187000816080936E00109281008091810082606F
:1018800080938100809181008160809381008091AC
:1018900080008160809380008091B100846080939B
:1018A000B1008091B00081608093B00080917A0097
:1018B000846080937A0080917A00826080937A00BD
:1018C00080917A008E7F80937A0080917A00806880
:1018D00080937A001092C1008FEF8093350280933D
:1018E00036028093370280933802809339028093C6
:1018F0003A02E0919A01F0919B0182E08083E091AD
:101900009601F09197011082E0919801F091990170
:1019100087E680831092A201E0919E01F0919F01E1
:1019200086E08083E0919C01F0919D01808180613F
:101930008083E0919C01F0919D018081886080838B
:10194000E0919C01F0919D01808180688083E0910D
:101950009C01F0919D0180818F7D80838AE090E0E1
:10196000A0E0B0E080938E0190938F01A09390014E
:10197000B093910182E593E00E9407068093700185
:1019800085E593E00E9407068093710188E593E066
:101990000E940706809372018BE593E00E94070680
:1019A00080936F018CE191E014E0180F8DE191E0DC
:1019B000F3E0AF2EA80E8AE891E00E94EC01181621
:1019C00019060CF02EC40E940304EFE4EE2EE1E0B1
:1019D000FE2E2FB7F89480912D0190912E01A091A9
:1019E0002F01B09130012FBF80939201909393010A
:1019F000A0939401B0939501E0918A01F0918B013D
:101A00000284F385E02D8AE891E0099597FD0FC0E7
:101A1000F70181937F01FFE6EF16F1E0FF06C9F6BB
:101A2000809151018D5F8D3140F18FE126C02FB73C
:101A3000F89480912D0190912E01A0912F01B091E9
:101A400030012FBF40919201509193016091940118
:101A500070919501841B950BA60BB70B40918E01DD
:101A600050918F01609190017091910184179507B9
:101A7000A607B70708F4C0CFD3CF90E0482F50E0B7
:101A8000BA0161507109292F30E0261737075CF43D
:101A9000F901EF5CFE4FD901A15BBE4F11962C916D
:101AA00020839F5FF0CF815061E371E0FB0190E004
:101AB0002E2F261B281718F42191920FF9CF809111
:101AC0004F018E3F31F4FA01E15BFE4F80818917AF
:101AD00011F081E0A1C3E09150018E2F90E0FC0154
:101AE000E154F109E931F10508F09BC3EC5CFF4FCB
:101AF0000C94BB110E94D0030E94A90B0E945C0BA6
:101B0000882309F48EC30E94230A882309F489C319
:101B10001D8A8AEF8E8B8FEF8F8B87E6888F64E02C
:101B2000CE0145960E947D06882309F47AC3198A5E
:101B30001A8A1B8A1C8A80917001898B809171019D
:101B40008A8B809172018B8B65E0CE0141960E9459
:101B50007D06882309F465C31D861E861F86188AA4
:101B6000809134018D87809133018E87809135017A
:101B70008F8766E0CE010D960E947D06882309F4CA
:101B800050C319861A861B861C8680913601898768
:101B9000809137018A87809138018B8767E0CE0179
:101BA00009960E947D06882309F43BC363E084EF15
:101BB00091E00E94150428C30E94D0030E94A90B43
:101BC0000E945C0B882309F42CC30E94230A8823FB
:101BD00009F427C3198A8BEF8A8B8FEF8B8B87E6EB
:101BE0008C8B64E0CE0141960E947D06882309F427
:101BF00018C31D861E861F86188A809170018D87E6
:101C0000809171018E87809172018F8765E0CE018E
:101C10000D960E947D06882309F403C319861A864F
:101C20001B861C8680913301898764C00E94D00383
:101C30000E94A90B0E945C0B882309F4F2C20E9447
:101C4000230A882309F4EDC2198A8EEF8A8B8FEF5D
:101C50008B8B87E68C8B64E0CE0141960E947D06DB
:101C6000882309F4DEC21D861E861F86188A80918D
:101C700036018D87809137018E87809138018F875B
:101C800065E0CE010D960E947D06882309F4C9C245
:101C900060913301609370018091340180937101F0
:101CA00080913501809372018091390180936F0199
:101CB00082E593E00E9414116091340185E593E080
:101CC0000E9414116091350188E593E00E9414117F
:101CD000609139018BE593E00E94141180917001AD
:101CE0008987809171018A87809172018B878091A9
:101CF0006F018C8766E0CE01099680C20E94D003F6
:101D00000E94A90B0E945C0B882309F48AC20E94DE
:101D1000230A882309F485C283E00E942D068823C4
:101D200009F47FC28FEF8D8F8E8F8F8F88A304E091
:101D3000602FCE014D960E947D06882309F471C262
:101D40000F5F0233A9F7198E1A8E1B8E1C8E04E0CA
:101D5000602FCE0149960E947D06882309F461C256
:101D60000F5F0233A9F787E6888F809133018D8B4F
:101D7000809134018E8B86ED8F8B64E0CE01459689
:101D80000E947D06882309F44CC280913501898B1D
:101D9000809136018A8B809137018B8B809138013D
:101DA0008C8B65E0CE0141960E947D06882309F464
:101DB00038C2809139018D8780913A018E87809158
:101DC0003B018F8780913C01888B66E0CE010D96A8
:101DD0000E947D06882309F424C280913D018987F1
:101DE00080913E018A8780913F018B8780914001DD
:101DF0002DC00E94D0030E94A90B0E945C0B882377
:101E000009F40FC20E94230A882309F40AC28091B0
:101E100033018D87809134018E87809135018F87C2
:101E200080913601888B66E0CE010D960E947D067A
:101E3000882309F4F6C180913701898780913801A0
:101E40008A87809139018B8780913A018C8767E07E
:101E500052CF86E680932C010E94030466E687E653
:101E60000E94D1056091010186E60E9495051092BD
:101E70001B01D7C10E94D0030E94A90B0E945C0BDA
:101E8000882309F4CEC10E94230A882309F4C9C11A
:101E90008FEF8D8B8E8B8F8B888F04E0602FCE0120
:101EA00045960E947D06882309F4BBC10F5F02336B
:101EB000A9F7198A1A8A1B8A1C8A04E0602FCE01AE
:101EC00041960E947D06882309F4ABC10F5F02335F
:101ED000A9F71D868DEF8E878FEF8F8787E6888B1A
:101EE00064E0CE010D960E947D06882309F499C115
:101EF00019861A861B861C868091700189878091BD
:101F000071018A87809172018B8765E0F4CE81E64A
:101F100080932C010E9403040E94D0030E94A90B0D
:101F20000E945C0B882309F47CC10E94230A882349
:101F300009F477C184E00E942D06882309F471C159
:101F400000912C01602F80E00E94D105602F8091CC
:101F50001C010E94D105812C912C05E0802F0E944C
:101F60002D06882309F45DC164017CE1672E71E0D0
:101F7000772EE12CF12CF301208130E00E2C02C0F1
:101F8000359527950A94E2F720FF0EC0B0902C01FA
:101F90006B2DC7018C0D9D1D892F0E94D1056B2DC6
:101FA0008E2D8C0D0E94D105FFEFEF1AFF0A88E0FD
:101FB000E816F10401F7EFEF6E1A7E0AF8E0CF0E93
:101FC000D11C1611D6CF0F5F80E2880E911C023310
:101FD00029F66CC083E680932C010E9403040E94C2
:101FE000D0030E94A90B0E945C0B882309F419C13D
:101FF0000E94230A882309F414C184E00E942D065C
:10200000882309F40EC100912C01602F80911C01DE
:102010000E94D105602F80911D010E94D10585E0AD
:102020000E942D06882309F4FCC070901C01C0900A
:102030001D01D12CE12CF12CFE2CED2CDC2CCC2420
:1020400080911E01C80ED11CE11CF11CFE2CED2C50
:10205000DC2CCC2480911F01C80ED11CE11CF11C8A
:1020600006E0802F0E942D06882309F4DAC04CE197
:10207000842E41E0942E60912C01F40181914F0156
:102080000E94D1051811F7CF073011F007E0E9CF12
:1020900008E066246394670C802F0E942D06882335
:1020A00009F4BFC080911C01811105C0609101013C
:1020B00080912C0174C0B0902C016B2D0E94D10531
:1020C00040911D0150E060E070E0762F652F542FA5
:1020D000442780911E01480F511D611D711D762FEF
:1020E000652F542F442780911F01480F511D611DFA
:1020F000711DC416D506E606F70648F46B2D872D2C
:102100000E94D1059DE1892E91E0992E03C06B2D8F
:10211000862DF6CF6B2DF40181914F010E94D105E0
:10212000A810F8CF0F5F023309F0B6CFBFCF85E616
:1021300080932C010E9403040E94D0030E94A90BEB
:102140000E945C0B882309F46CC00E94230A882338
:1021500009F467C083E00E942D06882309F461C05A
:1021600004E0802F0E942D06882309F45AC0F090C5
:102170002C016F2D802F0E94D1058CE1C82E81E0AB
:10218000D82E6F2DF60181916F010E94D1051C118F
:10219000F8CF0F5F023329F7609101018F2D0E9464
:1021A000950510921B0130C00E94D0030E94A90B1C
:1021B0000E945C0B8823A9F10E94230A882389F1DD
:1021C0001D828CEF8E838FEF8F8387E6888764E094
:1021D000CE0105960E947D06882319F119821A8284
:1021E0001B821C82809170018983809171018A8396
:1021F000809172018B8365E0CE0101960E947D067D
:10220000882379F00E9490050E94E9080E943E0907
:102210000E94BC0306C080E00E94EA0502C00E9442
:1022200090050E94F801C7CBFF920F931F93CF93A5
:10223000DF938C01F62EC0E0D0E06F2DCE01800F31
:10224000911F0E9468112196C330D105B1F7DF912B
:10225000CF911F910F91FF900895EAE8F1E013826A
:10226000128288EE93E0A0E0B0E084839583A68399
:10227000B78386E091E09183808385EC90E0958739
:10228000848784EC90E09787868780EC90E0918B40
:10229000808B81EC90E0938B828B82EC90E0958B2D
:1022A000848B86EC90E0978B868B118E128E138E2A
:1022B000148EE7E2F2E08AE0848789E0858708955A
:1022C000F999FECF92BD81BDF89A992780B50895FE
:1022D000262FF999FECF1FBA92BD81BD20BD0FB642
:1022E000F894FA9AF99A0FBE01960895A29FB00148
:1022F000B39FC001A39F700D811D1124911DB29F3A
:10230000700D811D1124911D089597FB072E16F461
:10231000009407D077FD09D00E94C81107FC05D0B2
:102320003EF4909581959F4F0895709561957F4FEC
:102330000895A1E21A2EAA1BBB1BFD010DC0AA1F06
:10234000BB1FEE1FFF1FA217B307E407F50720F01E
:10235000A21BB30BE40BF50B661F771F881F991F99
:102360001A9469F760957095809590959B01AC01E2
:10237000BD01CF010895EE0FFF1F0590F491E02DF0
:1023800009940E947611B7FF0895821B930B08955C
:10239000AA1BBB1B51E107C0AA1FBB1FA617B7078B
:1023A00010F0A61BB70B881F991F5A95A9F78095A7
:1023B0009095BC01CD01089581E090E0F8940C94D3
:1023C000EA11FB01DC0102C001900D924150504026
:0823D000D8F70895F894FFCF3F
:1023D800FF02000000004802A600BB018F02EC01CA
:0423E800CA01DE0147
:00000001FF
