:100000000C947C000C94A4000C94A4000C94A40008
:100010000C94A4000C94A4000C94A4000C94240749
:100020000C94A4000C94A4000C94A4000C94A400C0
:100030000C94A4000C94A4000C94A4000C94A400B0
:100040000C943B020C94A4000C94CC070C94A607CF
:100050000C94A4000C94A4000C94A4000C94A40090
:100060000C94A4000C94A4008F0EF10E2B0F930F90
:100070000E103E104B109810FF1098111B111E11FE
:1000800098115B1198119811981198119811981165
:1000900098119811981192119611020000000025F4
:1000A0000028002B0000000000240027002A000484
:1000B000040404040404040202020202020303030F
:1000C0000303030102040810204080010204081009
:1000D000200102040810200000000023002600294F
:1000E00000000000080002010000030407000000F7
:1000F000000000000000A81111241FBECFEFD8E0BF
:10010000DEBFCDBF22E0A4E1B1E001C01D92A0346A
:10011000B207E1F711E0A0E0B1E0EEECF4E202C0DA
:1001200005900D92A431B107D9F710E0CCE7D0E0EB
:1001300004C02197FE010E943612CB37D107C9F7C0
:100140000E942C0D0C9465120C940000FC01538D40
:10015000448D252F30E0842F90E0821B930B5417A1
:1001600010F0CF96089501970895FC01918D828D2E
:10017000981761F0828DDF01A80FB11D5D968C91FB
:10018000928D9F5F9F73928F90E008958FEF9FEF06
:100190000895FC01918D828D981731F0828DE80FC2
:1001A000F11D858D90E008958FEF9FEF0895FC017C
:1001B000918D228D892F90E0805C9F4F821B910949
:1001C0008F739927089580E090E0892B29F00E9491
:1001D000180781110C94000008953FB7F89480919E
:1001E0002B0190912C01A0912D01B0912E0126B5EB
:1001F000A89B05C02F3F19F00196A11DB11D3FBF5F
:10020000BA2FA92F982F8827820F911DA11DB11DEC
:10021000BC01CD0143E0660F771F881F991F4A95E7
:10022000D1F70895FC01848DDF01A80FB11DA35AF9
:10023000BF4F2C91848D90E001968F739927848F06
:10024000A689B7892C93A089B1898C9180648C93FD
:10025000938D848D981306C00288F389E02D8081E8
:100260008F7D80830895EF92FF920F931F93CF931A
:10027000DF93EC0181E0888F9B8D8C8D981305C0F6
:10028000E889F989808185FD24C0F62E0B8D10E068
:100290000F5F1F4F0F731127E02E8C8DE8120CC0DB
:1002A0000FB607FCFACFE889F989808185FFF5CF81
:1002B000CE010E941201F1CF8B8DFE01E80FF11DDE
:1002C000E35AFF4FF0820B8FEA89FB8980818062BD
:1002D00007C0EE89FF896083E889F989808180649D
:1002E000808381E090E0DF91CF911F910F91FF908B
:1002F000EF900895CF93DF93EC01888D8823C9F0A8
:10030000EA89FB89808185FD05C0A889B9898C911E
:1003100086FD0FC00FB607FCF5CF808185FFF2CFB9
:10032000A889B9898C9185FFEDCFCE010E94120179
:10033000E7CFDF91CF910895833081F028F48130A9
:1003400099F08230A1F008958730A9F08830B9F093
:100350008430D1F4809180008F7D03C08091800033
:100360008F7780938000089584B58F7702C084B51D
:100370008F7D84BD08958091B0008F7703C08091F8
:10038000B0008F7D8093B00008951F93CF93DF93CB
:10039000282F30E0F901EF51FF4F8491F901ED531F
:1003A000FF4FD491F901E155FF4FC491CC23C9F01F
:1003B000162F81110E949C01EC2FF0E0EE0FFF1F21
:1003C000E556FF4FA591B4918FB7F894111105C070
:1003D0009C91ED2FE095E92302C0EC91ED2BEC937D
:1003E0008FBFDF91CF911F9108958F929F92AF920F
:1003F000BF92CF92DF92EF92FF926B017C010E943D
:10040000ED004B015C01C114D104E104F104F1F0F1
:100410000E94ED00DC01CB0188199909AA09BB09EA
:10042000883E9340A105B10570F321E0C21AD108BE
:10043000E108F10888EE880E83E0981EA11CB11C2B
:10044000C114D104E104F10419F7DDCFFF90EF905E
:10045000DF90CF90BF90AF909F908F9008952FB76F
:10046000F894609127017091280180912901909161
:100470002A012FBF08951F920F920FB60F921124D9
:100480002F933F938F939F93AF93BF9380912701B7
:1004900090912801A0912901B0912A013091260163
:1004A00026E0230F2D3720F40296A11DB11D05C0B3
:1004B00029E8230F0396A11DB11D209326018093E7
:1004C000270190932801A0932901B0932A018091DC
:1004D0002B0190912C01A0912D01B0912E0101963C
:1004E000A11DB11D80932B0190932C01A0932D0190
:1004F000B0932E01BF91AF919F918F913F912F911A
:100500000F900FBE0F901F901895809125018823A2
:1005100061F09FB7F894209125018091240121304A
:1005200019F48DBB9FBF08958FBF08958EBD000045
:100530000DB407FEFDCF8EB508952091250122232D
:1005400079F02FB7F89430912501313039F43DB36B
:10055000309324013DB33DBB2FBF02C02093240143
:100560008CBD9DBD08959FB7F89480912301882389
:1005700019F081508093230180912301811105C0DE
:100580008CB58F7B8CBD109225019FBF0895CF93B2
:10059000CFB7F89480912301811124C0E9EBF0E0FA
:1005A0008491EDECF0E09491E82FF0E0EE0FFF1F66
:1005B000EB55FF4FA591B491EC91E92321F461E053
:1005C0008AE00E94C5018AE00E9434088CB58061EF
:1005D0008CBD8CB580648CBD8DE00E9434088BE0AE
:1005E0000E943408809123018F5F80932301CFBF45
:1005F000CF91089582E080930101E8E4F1E08EE17B
:100600008E0F11928E13FDCFE6E6F1E080E28E0FA1
:1006100011928E13FDCF0895FF920F931F93CF93E6
:10062000DF938C01F62EC0E0D0E06F2DCE01800F5D
:10063000911F0E94E3112196C330D105B1F7DF91DC
:10064000CF911F910F91FF9008952F923F924F925B
:100650005F926F927F928F929F92AF92BF92CF9252
:10066000DF92EF92FF920F931F93CF93DF9300D00F
:1006700000D01F92CDB7DEB78C01F62E84E00E9429
:10068000340883E00E9434082801012E000C66081B
:10069000770820E43FE1D8010E943C1228EE33E0C5
:1006A00040E050E00E94141229833A831A018F2DF2
:1006B00090E09D838C8300E010E03AE9832E30E0E7
:1006C000932E42EBE42E40E0F42E56ECC52E50E083
:1006D000D52E5C0191E0A91AB1088C819D81081783
:1006E000190709F415C161E084E00E94C5018091F9
:1006F0000001833019F4F401949172C08F3F09F026
:10070000F5C083E080930001F40194919F3F09F4C8
:10071000EDC0913009F1923009F440C0911160C0F0
:1007200014BC15BC84B5826084BD85B5816085BD6F
:10073000F7018491E82FF0E0EE0FFF1FE556FF4F21
:100740008591949190931A0180931901F6018491F7
:100750008093180190E046C01092800010928100B2
:100760008091810088608093810080918100816008
:1007700080938100F7018491E82FF0E0EE0FFF1FD6
:10078000E556FF4F85919491909317018093160140
:10079000F60184918093150191E024C01092B0007D
:1007A0001092B1008091B00082608093B00080917F
:1007B000B10081608093B100F7018491E82FF0E0EF
:1007C000EE0FFF1FE556FF4F8591949190933001F6
:1007D00080932F01F60184918093310192E002C051
:1007E00097FD84C083E09B830E9434089B819923FA
:1007F00019F09230E9F40CC085B5887F826085BD20
:100800004114510461047104C1F12CE730E02BC0A4
:100810008091B100887F82608093B10041145104BF
:100820006104710491F74FEF5FEFBA012CE74FC0FD
:10083000913071F480918100887F81608093810084
:10084000411451046104710459F127EE33E00BC0E7
:100850004114510461047104C1F727EE33E04FEFF6
:100860005FEFBA0103C049815A81B1019130E9F0CB
:10087000923069F191113AC004C04FEF5FEFBA01B5
:100880002CE727BD40931F01509320016093210165
:100890007093220180916E00826080936E0026C06A
:1008A0004FEF5FEFBA0127EE33E0309389002093DA
:1008B000880040931B0150931C0160931D017093AD
:1008C0001E0180916F00826080936F000FC02093A3
:1008D000B30040933201509333016093340170931D
:1008E000350180917000826080937000C301B20175
:1008F0000E94F50160E084E00E94C5010A151B0515
:1009000024F4C301B2010E94F5010F5F1F4FE5CE31
:100910000F900F900F900F900F90DF91CF911F913C
:100920000F91FF90EF90DF90CF90BF90AF909F908E
:100930008F907F906F905F904F903F902F90089591
:1009400061E08CE291E00C942503EF92FF920F930B
:100950001F93CF93DF93D82FC62F6EEF8FE891E0D0
:100960000E943301D09348018EEF8C0F8093490190
:10097000CF3108F0CEE108E411E07801D02F8E2DC0
:10098000801B8C1740F4F70161917F018FE891E0A3
:100990000E943301F4CF60E0802F8D1B8C1728F468
:1009A000F80181918F01680FF7CF8FE891E00E94E5
:1009B0003301DF91CF911F910F91FF90EF900C9435
:1009C000FA0290910101E92FF0E0E85BFE4F80838D
:1009D0009D3161F4862F60913601605E0E94A5040E
:1009E000809136018F5F8093360108959F5F9093C9
:1009F00001010895CF93C82F63E084E690E00E9440
:100A00002503CC2391F088E7809347010E94FA02E6
:100A1000609147018C2F0E94E10460910101809157
:100A200047010E94A50410923601CF9108950F93BB
:100A30001F93CF93DF938C010E94DB11C82FC80155
:100A400001960E94DB11D82FC81789F00E5F1F4F47
:100A5000C8010E94DB11C81751F0C8010E94DB11C8
:100A6000C82FD81721F084E00E94FA04C0E08C2F30
:100A7000DF91CF911F910F9108950F931F93CF9303
:100A8000DF93CDB7DEB763970FB6F894DEBF0FBE26
:100A9000CDBF082F1DEF180F90E0039763E070E0C3
:100AA0000E940012160F82E18B8B812F809583703C
:100AB000810F0E94E40A80931401811120C0AE01CD
:100AC0004D5E5F4FBE016F5F7F4F812F0E944F0AC7
:100AD00080931401882321F083E00E94FA040FC060
:100AE000A7E3B1E0FE01319680E18E0F91919D93D5
:100AF0008E13FCCF033029F41092390102C080E03C
:100B000001C081E063960FB6F894DEBF0FBECDBF83
:100B1000DF91CF911F910F9108951F93CF93DF9392
:100B2000CDB7DEB7A3970FB6F894DEBF0FBECDBF2B
:100B3000FC011DEF160F262F30E0C901039763E07B
:100B400070E00E940012160F80818B8B81818C8B4C
:100B500082818D8B83818E8B82E18BA3812F809507
:100B60008370810F0E94E40A8093140181113EC0BA
:100B700080EA89831A8362E0CE0101960E94870A87
:100B8000811105C060E1CE0143960E94870A8093DF
:100B90001401882311F082E00EC0AE014D5D5F4F5D
:100BA000BE016F5F7F4F812F0E944F0A8093140117
:100BB000882321F083E00E94FA0418C03981309321
:100BC00037012A81209338018B81809339019C81E0
:100BD00090933A014B89341309C03C89231306C012
:100BE0002D89821303C081E02E89921380E0A396A1
:100BF0000FB6F894DEBF0FBECDBFDF91CF911F912E
:100C00000895AF92BF92CF92DF92EF92FF920F932F
:100C10001F93CF93DF9383E6809347010E94FA02EC
:100C20000E94C7020E94B60C0E94690C882309F436
:100C3000C5C00E94300B882309F4C0C084E00E9424
:100C40003D05882309F4BAC06091470180913701BE
:100C50000E94E10460914701809138010E94E10403
:100C600085E00E943D05882309F4A8C01091370152
:100C7000C0903801D12CE12CF12CFE2CED2CDC2C79
:100C8000CC2480913901C80ED11CE11CF11CFE2C32
:100C9000ED2CDC2CCC2480913A01C80ED11CE11C37
:100CA000F11CC6E087E391E0D4E0D80F8C2F0E94BE
:100CB0003D05882309F482C037E3A32E31E0B32E2B
:100CC00060914701F50181915F010E94E104DA1111
:100CD000F7CFC73011F0C7E0E9CFC8E001E0010F5E
:100CE00088E391E0D3E0D80F8C2F0E943D05882344
:100CF00009F464C080913701811122C06091010123
:100D0000809147010E94A504109236010E94F609C5
:100D10000E944B0A0E94B30280918601813009F043
:100D20004DC061E084E190E0DF91CF911F910F9180
:100D3000FF90EF90DF90CF90BF90AF900C94250381
:100D4000609147010E94E1044091380150E060E069
:100D500070E0762F652F542F442780913901480F7A
:100D6000511D611D711D762F652F542F44278091D1
:100D70003A01480F511D611D711DC416D506E606C6
:100D8000F70650F460914701812F0E94E10488E347
:100D9000A82E81E0B82E04C060914701802FF5CFC6
:100DA00060914701F50181915F010E94E104DA1130
:100DB000F7CFCF5FC23309F097CFA0CFDF91CF91AC
:100DC0001F910F91FF90EF90DF90CF90BF90AF9069
:100DD0000895CF92DF92EF92FF920F931F93CF93DC
:100DE000DF936C017A018B01C0E0D0E0CE15DF0506
:100DF00089F0D8016D918D01D601ED91FC910190A2
:100E0000F081E02DC6010995892B11F47E0102C005
:100E10002196ECCFC701DF91CF911F910F91FF90E9
:100E2000EF90DF90CF900895089580E090E00895CE
:100E30008FE891E00E94D70021E0892B09F420E09F
:100E4000822F08950E9457121F920F920FB60F9291
:100E500011242F933F934F935F936F937F938F93BF
:100E60009F93AF93BF93EF93FF9380913201909143
:100E70003301A0913401B0913501892B8A2B8B2B42
:100E800059F180913101E0912F01F0913001908171
:100E9000892780838091320190913301A0913401A0
:100EA000B0913501181619061A061B060CF03DC044
:100EB0008091320190913301A0913401B0913501BC
:100EC0000197A109B1098093320190933301A09356
:100ED0003401B093350129C080910001EAE9F0E0C6
:100EE000E4919FEF90930001E130B9F098F0E23087
:100EF000C9F4909170009D7F9093700091E0909361
:100F0000B0009091B100987F94609093B1001092DE
:100F1000B30008C010926E0005C090916F009D7FD5
:100F200090936F0060E00E94C501FF91EF91BF9127
:100F3000AF919F918F917F916F915F914F913F9171
:100F40002F910F900FBE0F901F9018951F920F9228
:100F50000FB60F9211242F933F934F935F936F938C
:100F60007F938F939F93AF93BF93EF93FF938FE8FC
:100F700091E00E941201FF91EF91BF91AF919F917B
:100F80008F917F916F915F914F913F912F910F9032
:100F90000FBE0F901F9018951F920F920FB60F92D1
:100FA00011242F938F939F93EF93FF93E0919F01D1
:100FB000F091A0018081E091A501F091A60182FD50
:100FC00012C090818091A8018F5F8F732091A90139
:100FD000821751F0E091A801F0E0E157FE4F958FA4
:100FE0008093A80101C08081FF91EF919F918F9123
:100FF0002F910F900FBE0F901F901895CF92DF92F8
:10100000FF920F931F93CF93DF931F92CDB7DEB75D
:10101000082F162F83E590E079830E949D0260E0FF
:10102000809138020E94C50182E10E949602F12E51
:10103000C12E7981D72E8C2D8F19801730F4F601AF
:1010400081916F010E949602F6CF61E08091380293
:101050000E94C5010F90DF91CF911F910F91FF90DA
:10106000DF90CF900C94850290E0FC01ED53FF4F90
:101070002491FC01E155FF4F8491882399F090E081
:10108000880F991FFC01EB55FF4FA591B491FC010E
:10109000E556FF4F859194918FB7F894EC91E22B30
:1010A000EC938FBF08950F931F93CF93C82F83E5C1
:1010B00090E00E949D020CE212E060E0F80184855D
:1010C0000E94C5018C2F8E7780680E94960280E076
:1010D0000E949602C82F61E0F80184850E94C50134
:1010E0000E9485028C2FCF911F910F9108950F932D
:1010F0001F93CF93DF93082F162F83E590E00E9474
:101100009D02CCE2D2E060E08C850E94C501802F78
:101110008E770E949602812F0E94960261E08C8554
:101120000E94C501DF91CF911F910F910C94850210
:10113000CF93C82F0E945308682F60688C2FCF91DF
:101140000C947708EF92FF920F931F93CF93DF9346
:101150007C01C62F8A0160E082E00E94770864E08B
:101160008AE00E94770884E10E949808B7018C2FDA
:101170000E94FE0763E082E00E947708C8E8D3E19E
:101180008AE00E94530882FD04C02197C9F783E0DA
:101190000FC060E082E00E94770884E40E94530858
:1011A000F801808382E40E945308F801818380E083
:1011B000DF91CF911F910F91FF90EF9008952F92A3
:1011C0003F924F925F926F927F928F929F92AF92D7
:1011D000BF92CF92DF92EF92FF920F931F93CF9324
:1011E000DF9300D01F92CDB7DEB7982E762E2A015E
:1011F000C114D10419F0F601608101C060E0662ECF
:10120000F0E1AF9E600C112460E082E02B830E942D
:1012100077086FE788E00E94770884E10E949808C9
:10122000B2012B81822F0E94FE07662D8AE10E9467
:101230007708692D82E00E9477088CE0981203C03D
:101240008AE10E94980890ED492E97E0592E88E097
:101250000E945308982F972139F480FDA8C0E1E03F
:101260004E1A5108A1F7A3C08CE00E945308382EF3
:10127000837109F09EC00115110509F465C0E114E0
:10128000F10409F461C084E10E945308982EF7012B
:101290008081891508F48FC09082992009F44AC092
:1012A00083E590E00E949D0260E0809138020E94F8
:1012B000C5019A9482E90E949602202E38014424A6
:1012C0004394512C862D8219891528F581111AC055
:1012D000AA20C1F08A2DB12C883048F49201082E42
:1012E00001C0220F0A94EAF7B22A8F5FF5CF82E994
:1012F0000E9496022B2D2095F801908192238B213C
:10130000892B04C082E90E949602F3018083FFEFDB
:101310006F1A7F0AD7CF5801A90CB11C80E00E9438
:101320009602F501808361E0809138020E94C50138
:101330000E94850288E10E9453088770B82EC1146C
:10134000D10411F0F601808333FC37C0011511057B
:10135000B1F1E114F10499F1882089F1F70160817C
:10136000613021F4F4E0BF1203C01FC0623010F4FA
:1013700087E026C0B110FCCF6250AE014F5F5F4FD7
:10138000C8010E94A20881111BC0F7018081080FCB
:10139000111DF8013297908189819813E9CF319618
:1013A00090818A819813E4CF0AC08FEF09C083E04F
:1013B00007C081E005C084E003C082E001C080E096
:1013C0000F900F900F90DF91CF911F910F91FF9091
:1013D000EF90DF90CF90BF90AF909F908F907F90D5
:1013E0006F905F904F903F902F9008958F92AF92A3
:1013F000CF92DF92EF92FF920F931F93CF93DF93E1
:1014000000D000D0CDB7DEB780E589831A82AE0167
:101410004D5F5F4F62E0CE0101960E94A2088111EC
:1014200017C0812CA12CC12CD12CE12CF12C00E077
:1014300010E024E0AE014F5F5F4F60E38CE00E945C
:10144000DF08833021F0811103C081E001C080E01A
:101450000F900F900F900F90DF91CF911F910F91F0
:10146000FF90EF90DF90CF90AF908F9008951F93F3
:10147000CF93DF931F92CDB7DEB7182F69830E94F9
:101480005308698160956823812F0F90DF91CF9178
:101490001F910C94770868E080E10C94370A8F92D2
:1014A000AF92CF92DF92EF92FF920F931F93CF9361
:1014B000DF9361157105F9F0FA0190819231D8F04E
:1014C0007A01EB0190E398838983AB014E5F5F4F14
:1014D00062E0CE010E94A20881110EC0882483948C
:1014E000A12CC12CD12C8E0124E0AE0160E38CE054
:1014F0000E94DF0801C084E0DF91CF911F910F911E
:10150000FF90EF90DF90CF90AF908F9008958F92E3
:10151000AF92CF92DF92EF92FF920F931F93CF93F0
:10152000DF93CDB7DEB764970FB6F894DEBF0FBE7A
:10153000CDBF162FE62EF12CA701BC01CE010196DE
:101540000E945C1241E050E04C0F5D1F4E0D5F1D8C
:10155000612FCE0101960E94A208811124C082E170
:101560008C8B1B8A22E0210F812CA12CCE0143966B
:101570006C0101967C018E010F5F1F4FA80160E393
:101580008CE00E94DF0881110EC08C89813051F4FB
:101590008B89843039F481E099819A3009F480E0B4
:1015A000819501C081E064960FB6F894DEBF0FBE4E
:1015B000CDBFDF91CF911F910F91FF90EF90DF9002
:1015C000CF90AF908F9008958F92AF92CF92DF928D
:1015D000EF92FF920F931F93CF93DF93CDB7DEB7B8
:1015E0002C970FB6F894DEBF0FBECDBF90E699835F
:1015F0008A83DE011396EAE3F2E086E08E0F919192
:101600009D938E13FCCF80912D02898780912E02AD
:101610008A8780912F028B87809130028C87812C62
:10162000A12CC12CD12CE12CF12C00E010E02CE0FD
:10163000AE014F5F5F4F60E18EE00E94DF082C96A5
:101640000FB6F894DEBF0FBECDBFDF91CF911F91D3
:101650000F91FF90EF90DF90CF90AF908F90089513
:101660002F923F924F925F926F927F928F929F92B2
:10167000AF92BF92CF92DF92EF92FF920F931F93A0
:10168000CF93DF93CDB7DEB72C970FB6F894DEBFBC
:101690000FBECDBF60E88CE10E94370A9924939475
:1016A00044244394512C22E0921651F033E09316D7
:1016B00061F081E09812EAC083E98983B12C09C006
:1016C00085E9898353E0B52E04C087E9898346E024
:1016D000B42E312C33E0232E90E239121CC0E0E707
:1016E000EA839C818B8189279D8189279E81892717
:1016F0008F83AE01485F5F4F67E0CE0101960E9485
:10170000A2088111C7C01B862A869E01295F3F4F10
:10171000390129E01EC0932D97709B87432D459575
:101720004595459582E0840F292F30E1839F200D58
:1017300011242A8321E0911101C020E0280F6624A2
:101740006394712C6C0E7D1E680E711C87E0841BE7
:101750008A87AB846A2D6295607F6A0D8AE12C8747
:101760000E947708812CCE010B966C01FE013A96FF
:101770007F0183012C85AE014F5F5F4F60E38CE0FA
:101780000E94DF08823091F58CE10E94530885FDAC
:101790007BC08F7109F480E2482F50E0632D330C39
:1017A000770B641775070CF071C0382ECA010197CA
:1017B00087709927242F25952595259541E0420F7F
:1017C00021E0009709F420E0240FE1E0F0E0EC0FC5
:1017D000FD1FE20FF11D920102C0220F331F8A95F7
:1017E000E2F7C9019081892B808376CF811152C0A5
:1017F00030E2331619F020E2322E71CF8B81883817
:1018000019F443E023E002C042E024E080E090E0ED
:101810006B2D70E0FC01E60FF71FE45DFD4F542FC8
:10182000580FA1E0B0E0AC0FBD1FA50FB11D5C913A
:1018300051830196821770F38A85833049F58B8531
:10184000811126C0AE014D5F5F4F61E0C3010E9470
:10185000A20881111FC09B81F301818198131CC0D4
:101860009C818281981318C0808182FF02C093946A
:101870001ACF80933702892D880F382F390D3F5F9B
:1018800030932C0290E009C092E007C095E005C0BB
:1018900091E003C0982F01C097E081E0911180E0B2
:1018A0002C960FB6F894DEBF0FBECDBFDF91CF915F
:1018B0001F910F91FF90EF90DF90CF90BF90AF906E
:1018C0009F908F907F906F905F904F903F902F9060
:1018D00008958F92AF92CF92DF92EF92FF920F9383
:1018E0001F93CF93DF9300D000D01F92CDB7DEB708
:1018F00082E08D8386E28C8360E88CE10E94370A67
:1019000087E08B83812CA12CCE0103966C0102967B
:101910007C018E010F5F1F4F21E0AE014C5F5F4FD6
:1019200060E38CE00E94DF08811109C08D81823064
:1019300029F481E09B81911102C006C081E091E011
:10194000823019F090E001C091E0892F0F900F9044
:101950000F900F900F90DF91CF911F910F91FF90FB
:10196000EF90DF90CF90AF908F900895CF93DF935B
:10197000809138020E94340861E0809138020E9410
:10198000C501809139020E9434082091390230E06B
:10199000F901EF51FF4F8491F901ED53FF4FD491BD
:1019A000F901E155FF4FC491CC2371F081110E94E0
:1019B0009C01EC2FF0E0EE0FFF1FE952FF4FA591C5
:1019C000B491EC91ED23A9F561E0809139020E9478
:1019D000C50161E070E080E090E00E94F50160E800
:1019E00084E50E94770866E486E50E94770863E054
:1019F00088E50E94770868EE8AE50E94770860E42F
:101A00008AE20E9477086DE382E20E94770860E72D
:101A10008CE40E94770888E20E945308982F937004
:101A20009330B9F0682F636088E2DF91CF910C9416
:101A300077086FE082E00E94770861E070E080E064
:101A400090E00E94F50182E00E94530884FDFBCFE4
:101A5000C6CFDF91CF910895CF93DF93CDB7DEB797
:101A6000A0970FB6F894DEBF0FBECDBF789484B5B3
:101A7000826084BD84B5816084BD85B5826085BD8A
:101A800085B5816085BD80916E00816080936E0018
:101A9000109281008091810082608093810080910A
:101AA00081008160809381008091800081608093BB
:101AB00080008091B10084608093B1008091B0007B
:101AC00081608093B00080917A00846080937A0076
:101AD00080917A00826080937A0080917A008E7F74
:101AE00080937A0080917A00806880937A001092C7
:101AF000C1008FEF80933A0280933B0280933C02B7
:101B000080933D0280933E0280933F02E0919F01CB
:101B1000F091A00182E08083E0919B01F0919C0113
:101B20001082E0919D01F0919E0187E680831092E2
:101B3000A701E091A301F091A40186E08083E091E8
:101B4000A101F091A201808180618083E091A101D7
:101B5000F091A201808188608083E091A101F091E1
:101B6000A201808180688083E091A101F091A201AF
:101B700080818F7D80838AE090E0A0E0B0E0809358
:101B8000930190939401A0939501B093960182E5FF
:101B900093E00E9417058093880185E593E00E94F9
:101BA00017058093890188E593E00E9417058093CB
:101BB0008A018BE593E00E9417058093870186E6F2
:101BC00093E00E9417058093860187E391E034E05B
:101BD000F32EF80E809186018130B1F40E942F021D
:101BE00000918B0110918C0120918D0130918E011B
:101BF000DC01CB01801B910BA20BB30B813D974005
:101C0000A105B10508F097C38FE891E00E94D700C5
:101C1000181619060CF08CC30E94FA0206E611E0B1
:101C20000E942F026093970170939801809399010D
:101C300090939A01E0918F01F09190010284F385D5
:101C4000E02D8FE891E0099597FD0EC0F801819392
:101C50008F01F1E006381F0719F7809168018D5F49
:101C60008D3100F18FE11EC00E942F0280909701FC
:101C700090909801A0909901B0909A01DC01CB015D
:101C800088199909AA09BB09809093019090940141
:101C9000A0909501B090960188159905AA05BB05FD
:101CA00048F2DBCF90E0482F50E0BA016150710953
:101CB000292F30E0261737075CF4F901E85BFE4F67
:101CC000D901AA59BE4F11962C9120839F5FF0CF66
:101CD000815068E471E0FB0190E02E2F261B28174D
:101CE00018F42191920FF9CF809166018E3F31F463
:101CF000FA01EA59FE4F8081891711F081E013C380
:101D0000E09167018E2F90E0FC01E154F109E93187
:101D1000F10508F00DC3EC5CFF4F0C9436120E94E5
:101D2000C7020E94B60C0E94690C882309F400C304
:101D30000E94300B882309F4FBC21D8A8AEF8E8B28
:101D40008FEF8F8B87E6888F64E0CE0145960E94E7
:101D50008D05882309F4ECC2198A1A8A1B8A1C8A09
:101D600080918801898B809189018A8B80918A0179
:101D70008B8B65E0CE0141960E948D05882309F486
:101D8000D7C21D861E861F86188A80914B018D87BB
:101D900080914A018E8780914C018F8766E0CE0149
:101DA0000D960E948D05882309F4C2C219861A86F1
:101DB0001B861C8680914D01898780914E018A8700
:101DC00080914F018B8767E0CE0109960E948D05B7
:101DD000882309F4ADC263E084EF91E00E942503FB
:101DE0009AC20E94C7020E94B60C0E94690C882306
:101DF00009F49EC20E94300B882309F499C2198A03
:101E00008BEF8A8B8FEF8B8B87E68C8B64E0CE0118
:101E100041960E948D05882309F48AC21D861E867C
:101E20001F86188A809188018D87809189018E870D
:101E300080918A018F8765E0CE010D960E948D0505
:101E4000882309F475C219861A861B861C86809120
:101E50004A01898764C00E94C7020E94B60C0E9492
:101E6000690C882309F464C20E94300B882309F4AA
:101E70005FC2198A8EEF8A8B8FEF8B8B87E68C8BF4
:101E800064E0CE0141960E948D05882309F450C27A
:101E90001D861E861F86188A80914D018D87809130
:101EA0004E018E8780914F018F8765E0CE010D96A0
:101EB0000E948D05882309F43BC260914A0160931A
:101EC000880180914B018093890180914C0180931E
:101ED0008A01809150018093870182E593E00E94FE
:101EE0000C0360914B0185E593E00E940C03609127
:101EF0004C0188E593E00E940C03609150018BE552
:101F000093E00E940C038091880189878091890168
:101F10008A8780918A018B87809187018C8766E010
:101F2000CE010996F2C10E94C7020E94B60C0E941F
:101F3000690C882309F4FCC10E94300B882309F442
:101F4000F7C183E00E943D05882309F4F1C18FEFBA
:101F50008D8F8E8F8F8F88A314E0612FCE014D96C9
:101F60000E948D05882309F4E3C11F5F1233A9F78E
:101F7000198E1A8E1B8E1C8E14E0612FCE0149968D
:101F80000E948D05882309F4D3C11F5F1233A9F77E
:101F900087E6888F80914A018D8B80914B018E8BD3
:101FA00086ED8F8B64E0CE0145960E948D058823D7
:101FB00009F4BEC180914C01898B80914D018A8BBF
:101FC00080914E018B8B80914F018C8B65E0CE010F
:101FD00041960E948D05882309F4AAC18091500181
:101FE0008D87809151018E87809152018F878091DA
:101FF0005301888B66E0CE010D960E948D058823E3
:1020000009F496C1809154018987809155018A878E
:10201000809156018B87809157012DC00E94C70285
:102020000E94B60C0E94690C882309F481C10E94A9
:10203000300B882309F47CC180914A018D878091FF
:102040004B018E8780914C018F8780914D01888B49
:1020500066E0CE010D960E948D05882309F468C1C3
:1020600080914E01898780914F018A87809150012C
:102070008B87809151018C8767E052CF86E68093F1
:1020800047010E94FA0266E687E60E94E104609139
:10209000010186E6CBC00E94C7020E94B60C0E94D6
:1020A000690C882309F444C10E94300B882309F489
:1020B0003FC18FEF8D8B8E8B8F8B888F14E0612FBC
:1020C000CE0145960E948D05882309F431C11F5F1A
:1020D0001233A9F7198A1A8A1B8A1C8A14E0612F05
:1020E000CE0141960E948D05882309F421C11F5F0E
:1020F0001233A9F71D868DEF8E878FEF8F8787E6C6
:10210000888B64E0CE010D960E948D05882309F42A
:102110000FC119861A861B861C86809188018987C3
:10212000809189018A8780918A018B8765E0F8CE4A
:1021300081E6809347010E94FA020E94C7020E9432
:10214000B60C0E94690C882309F4F2C00E94300B7F
:10215000882309F4EDC084E00E943D05882309F43A
:10216000E7C010914701612F80E00E94E104612FD8
:10217000809137010E94E104A12CB12C25E0E22ED0
:102180008E2D0E943D05882309F4D2C0650197E396
:10219000892E91E0992E00E010E0F401208130E0DA
:1021A000002E02C0359527950A94E2F720FF0EC055
:1021B00070904701672DC8018C0D9D1D892F0E94CD
:1021C000E104672D802F8C0D0E94E1040F5F1F4FEB
:1021D0000830110511F7FFEF8F1A9F0A28E0C20E91
:1021E000D11CF810D8CFE39480E2A80EB11CE2E332
:1021F000EE12C6CF609101018091470157C089E678
:102200008093470160914A016093860186E693E0DE
:102210000E940C030E94FA0210914701612F8091E5
:1022200086010E94E10460910101812F0E94A504B2
:10223000109236017DC00E9401067AC085E6809327
:1022400047010E94FA020E94C7020E94B60C0E9437
:10225000690C882309F46CC00E94300B882309F4B0
:1022600067C083E00E943D05882309F461C014E043
:10227000812F0E943D05882309F45AC0009147012F
:10228000602F812F0E94E10487E3C82E81E0D82EC1
:10229000602FF60181916F010E94E104FC10F8CFDC
:1022A0001F5F123329F760910101802F0E94A5045E
:1022B0001092360130C00E94C7020E94B60C0E94E4
:1022C000690C8823A9F10E94300B882389F11D82B3
:1022D0008CEF8E838FEF8F8387E6888764E0CE0153
:1022E00005960E948D05882319F119821A821B8296
:1022F0001C82809188018983809189018A838091E1
:102300008A018B8365E0CE0101960E948D058823AA
:1023100079F00E94A0040E94F6090E944B0A0E94D4
:10232000B30206C080E00E94FA0402C00E94A0042A
:102330000E94E3004FCC0E942F0260938B017093A8
:102340008C0180938D0190938E010E9401065CCCDC
:10235000EFE8F1E01382128288EE93E0A0E0B0E0B3
:1023600084839583A683B78386E091E091838083FD
:1023700085EC90E09587848784EC90E0978786874A
:1023800080EC90E0918B808B81EC90E0938B828B42
:1023900082EC90E0958B848B86EC90E0978B868B1B
:1023A000118E128E138E148EECE2F2E08AE0848796
:1023B00089E085870895F999FECF92BD81BDF89A8D
:1023C000992780B50895262FF999FECF1FBA92BD9F
:1023D00081BD20BD0FB6F894FA9AF99A0FBE019606
:1023E0000895A29FB001B39FC001A39F700D811DEE
:1023F0001124911DB29F700D811D1124911D08950E
:1024000097FB072E16F4009407D077FD09D00E94A1
:10241000431207FC05D03EF4909581959F4F089597
:10242000709561957F4F0895A1E21A2EAA1BBB1BE0
:10243000FD010DC0AA1FBB1FEE1FFF1FA217B30790
:10244000E407F50720F0A21BB30BE40BF50B661FA6
:10245000771F881F991F1A9469F76095709580956A
:1024600090959B01AC01BD01CF010895EE0FFF1FB8
:102470000590F491E02D09940E94F111B7FF0895A1
:10248000821B930B0895AA1BBB1B51E107C0AA1F17
:10249000BB1FA617B70710F0A61BB70B881F991F05
:1024A0005A95A9F780959095BC01CD01089581E0DA
:1024B00090E0F8940C946512FB01DC0102C00190DD
:0E24C0000D9241505040D8F70895F894FFCF88
:1024CE00FF02000000003301E906A6007A01D700E2
:0424DE00B500C9007C
:107E0000112484B714BE83FF04C09091FE089F33F1
:107E100008F4282E8D7029F080E0C9D0E0E0FF271B
:107E2000099400D01F92CDB7DEB785E08093810022
:107E300082E08093C00088E18093C10086E0809357
:107E4000C20080E18093C4008EE0B1D0259A26E084
:107E500080E39CEF31E0909385008093840036BBF3
:107E6000B09BFECF1D9AA8952150A9F7812C912C8B
:107E700093E0F92EEE24E39425E0D22E31E1C32ED7
:107E80008AD0813479F487D0898397D089818238E8
:107E900011F482E005C0813811F486E001C083E06E
:107EA00073D06FC0823411F484E103C0853419F4B7
:107EB00085E08BD066C0853541F46DD0882E6BD0BF
:107EC000912C982A880C991C5BC0863521F484E09B
:107ED0007CD080E0E5CF843609F036C05CD05BD042
:107EE000B82E59D0A82E00E011E055D0F8018193AA
:107EF0008F01BE12FACF61D0F5E4AF1201C0FFCFFF
:107F0000F401F7BEE89507B600FCFDCFB401A0E090
:107F1000B1E02C911296AD0141505109FA018081D6
:107F200030E0382BFB010901E7BEE89511246E5FB4
:107F30007F4FBA12EECFF401D7BEE89507B600FC2A
:107F4000FDCFC7BEE8951DC0843769F424D023D087
:107F5000B82E21D032D08401F80185918F0114D040
:107F6000BA94D1F70EC0853739F427D08EE10CD002
:107F700085E90AD08FE094CF813511F488E017D0DD
:107F80001CD080E101D07CCF9091C00095FFFCCF48
:107F90008093C60008958091C00087FFFCCF809138
:107FA000C00084FD01C0A8958091C6000895E0E658
:107FB000F0E098E1908380830895EDDF803219F03E
:107FC00088E0F5DFFFCF84E1DFCFCF93C82FE3DF79
:087FD000C150E9F7CF91F1CF98
:027FFE00020679
:0400000300007E007B
:00000001FF
