:100000000C9469000C9491000C9491000C94910054
:100010000C9491000C9491000C94220C0C945507B4
:100020000C9491000C9491000C9491000C9491000C
:100030000C9491000C9491000C9491000C949100FC
:100040000C9411080C9491000C94CA060C94A4060C
:100050000C9491000C9491000C9491000C949100DC
:100060000C9489080C9491000000000023002600E5
:10007000290000000008000201000003040700003E
:100080000000000000001F1C1F1E1F1E1F1F1E1F40
:100090001E1F00000000250028002B0000000000AB
:1000A000240027002A0004040404040404040202B7
:1000B00002020202030303030303010204081020E7
:1000C00040800102040810200102040810200200F0
:1000D000901411241FBECFEFD8E0DEBFCDBF11E0DA
:1000E000A0E0B1E0E6EDFAE202C005900D92AE327A
:1000F000B107D9F722E0AEE2B1E001C01D92A23F04
:10010000B207E1F710E0C9E6D0E004C02197FE0194
:100110000E945515C836D107C9F70E94E00C0C940F
:1001200069150C940000CF92DF92FF920F931F93FA
:10013000CF93DF931F92CDB7DEB7082F162F83E53D
:1001400090E079830E94730860E0809189020E94A8
:10015000250782E10E946C08F12EC12E7981D72EED
:100160008C2D8F19801730F4F60181916F010E9458
:100170006C08F6CF61E0809189020E9425070F90FC
:10018000DF91CF911F910F91FF90DF90CF900C9452
:100190005B08EF92FF920F931F93CF93DF93EC01D5
:1001A00081E0888F9B8D8C8D981305C0E889F98933
:1001B000808185FD24C0F62E0B8D10E00F5F1F4F50
:1001C0000F731127E02E8C8DE8120CC00FB607FCC0
:1001D000FACFE889F989808185FFF5CFCE010E94A9
:1001E0009D0CF1CF8B8DFE01E80FF11DE35AFF4FFF
:1001F000F0820B8FEA89FB898081806207C0EE89DB
:10020000FF896083E889F98980818064808381E047
:1002100090E0DF91CF911F910F91FF90EF900895A3
:100220000F931F93CF93C82F83E590E00E9473082C
:100230000DE712E060E0F80184850E9425078C2F0D
:100240008E7780680E946C0880E00E946C08C82F3E
:1002500061E0F80184850E9425070E945B088C2FCD
:10026000CF911F910F9108950F931F93CF93DF9319
:10027000082F162F83E590E00E947308CDE7D2E0A7
:1002800060E08C850E942507802F8E770E946C0885
:10029000812F0E946C0861E08C850E942507DF9108
:1002A000CF911F910F910C945B08CF93C82F0E94A0
:1002B0001001682F60688C2FCF910C943401EF925D
:1002C000FF920F931F93CF93DF937C01C62F8A0178
:1002D00060E082E00E94340164E08AE00E94340120
:1002E00084E10E945501B7018C2F0E94930063E0C6
:1002F00082E00E943401C8E8D3E18AE00E94100144
:1003000082FD04C02197C9F783E00FC060E082E05E
:100310000E94340184E40E941001F801808382E489
:100320000E941001F801818380E0DF91CF911F913D
:100330000F91FF90EF9008952F923F924F925F920E
:100340006F927F928F929F92AF92BF92CF92DF92E5
:10035000EF92FF920F931F93CF93DF9300D01F92E2
:10036000CDB7DEB7982E762E2A01C114D10419F02C
:10037000F601608101C060E0662EF0E1AF9E600C86
:10038000112460E082E02B830E9434016FE788E053
:100390000E94340184E10E945501B2012B81822F19
:1003A0000E949300662D8AE10E943401692D82E04B
:1003B0000E9434018CE0981203C08AE10E9455012A
:1003C00090ED492E97E0592E88E00E941001982F59
:1003D000972139F480FDA8C0E1E04E1A5108A1F739
:1003E000A3C08CE00E941001382E837109F09EC0DA
:1003F0000115110509F465C0E114F10409F461C0A7
:1004000084E10E941001982EF7018081891508F47B
:100410008FC09082992009F44AC083E590E00E9441
:10042000730860E0809189020E9425079A9482E90E
:100430000E946C08202E380144244394512C862DB0
:100440008219891528F581111AC0AA20C1F08A2DB8
:10045000B12C883048F49201082E01C0220F0A9472
:10046000EAF7B22A8F5FF5CF82E90E946C082B2D44
:100470002095F801908192238B21892B04C082E979
:100480000E946C08F3018083FFEF6F1A7F0AD7CFB9
:100490005801A90CB11C80E00E946C08F501808312
:1004A00061E0809189020E9425070E945B0888E133
:1004B0000E9410018770B82EC114D10411F0F6010A
:1004C000808333FC37C001151105B1F1E114F1044B
:1004D00099F1882089F1F7016081613021F4F4E01D
:1004E000BF1203C01FC0623010F487E026C0B110F5
:1004F000FCCF6250AE014F5F5F4FC8010E945F01A9
:1005000081111BC0F7018081080F111DF80132977E
:10051000908189819813E9CF319690818A819813CF
:10052000E4CF0AC08FEF09C083E007C081E005C0B7
:1005300084E003C082E001C080E00F900F900F9034
:10054000DF91CF911F910F91FF90EF90DF90CF90AF
:10055000BF90AF909F908F907F906F905F904F90E3
:100560003F902F9008958F92AF92CF92DF92EF92AB
:10057000FF920F931F93CF93DF9361157105F9F0ED
:10058000FA0190819231D8F07A01EB0190E39883DF
:100590008983AB014E5F5F4F62E0CE010E945F0135
:1005A00081110EC088248394A12CC12CD12C8E01E2
:1005B00024E0AE0160E38CE00E949C0101C084E075
:1005C000DF91CF911F910F91FF90EF90DF90CF902F
:1005D000AF908F9008958F92AF92CF92DF92EF926B
:1005E000FF920F931F93CF93DF93CDB7DEB72C9776
:1005F0000FB6F894DEBF0FBECDBF90E699838A8315
:10060000DE011396EEECF1E086E08E0F91919D9362
:100610008E13FCCF80917E02898780917F028A872A
:10062000809180028B87809181028C87812CA12C04
:10063000C12CD12CE12CF12C00E010E02CE0AE011B
:100640004F5F5F4F60E18EE00E949C012C960FB6D9
:10065000F894DEBF0FBECDBFDF91CF911F910F91F8
:10066000FF90EF90DF90CF90AF908F90089590E043
:10067000FC01E654FF4F2491FC01EA55FF4F8491A1
:10068000882399F090E0880F991FFC01E456FF4FF2
:10069000A591B491FC01EE56FF4F859194918FB7CF
:1006A000F894EC91E22BEC938FBF0895482F2091A2
:1006B000CD019091CC01213208F05DC01092A801CB
:1006C0008091A8018091A901882331F03091A8017F
:1006D0003F5F3093A801F4CF32E03093A9014093FB
:1006E000A7013FEF3093A6011092A5012093A4012A
:1006F000ACEAB1E044E851E0FA013E2F341B321776
:1007000018F43D913193F9CF109283012091830128
:10071000990F922B9093830190918201913061F413
:1007200010928201909183019093BB009091BC0044
:1007300093FDF8CF95EC01C095EE9093BC0010921C
:10074000A8019091A8019091A901923031F4909163
:10075000A8019F5F9093A801F4CF9091A6019F3FBD
:1007600079F08091A601803241F08091A60180331A
:1007700031F084E005C081E003C082E001C083E085
:100780001092AB011092CD011092AA0108958F92A0
:10079000AF92CF92DF92EF92FF920F931F93CF937E
:1007A000DF93CDB7DEB764970FB6F894DEBF0FBE08
:1007B000CDBF162FE62EF12CA701BC01CE0101966C
:1007C0000E94601541E050E04C0F5D1F4E0D5F1D13
:1007D000612FCE0101960E945F01811124C082E148
:1007E0008C8B1B8A22E0210F812CA12CCE014396F9
:1007F0006C0101967C018E010F5F1F4FA80160E321
:100800008CE00E949C0181110EC08C89813051F4D2
:100810008B89843039F481E099819A3009F480E041
:10082000819501C081E064960FB6F894DEBF0FBEDB
:10083000CDBFDF91CF911F910F91FF90EF90DF908F
:10084000CF90AF908F9008951F93CF93DF931F9217
:10085000CDB7DEB7182F69830E94100169816095BA
:100860006823812F0F90DF91CF911F910C94340159
:10087000CF92DF92EF92FF920F931F93CF93DF936C
:10088000CDB7DEB727970FB6F894DEBF0FBECDBF4A
:1008900081E08093AA0188E68093CC011092AB019D
:1008A0001092CD0160E081E792E00E94650681E050
:1008B0000E9456031092A8018091A8018091A9017D
:1008C000882331F08091A8018F5F8093A801F4CF35
:1008D00081E08093A9018093A7019FEF9093A601E7
:1008E0001092A50196E09093A401809383018091DA
:1008F0008301806D8093830180918201813061F456
:1009000010928201809183018093BB008091BC0092
:1009100083FDF8CF85EC01C085EE8093BC0010927A
:10092000A8018091A8018091A901813031F48091C2
:10093000A8018F5F8093A801F4CF8091A501873033
:1009400018F48091A50101C087E0A4E8B1E023E597
:1009500031E0F9019E2F921B981718F49D91919305
:10096000F9CF10925201809351019E012F5F3F4FAA
:10097000790100E010E081E792E00E941906982FCB
:100980009F70153079F484FB222720F9220F322F33
:10099000330F330F230F920F9E83082F001F002762
:1009A000001F08C082958F703AE0839F900D11243C
:1009B000F70190831F5FFFEFEF1AFF0A1730D9F698
:1009C0003F81832F90E0013019F48053984F02C08B
:1009D0008459984F6981609373011A81109374014F
:1009E0000B81009375012D81209376017E81709398
:1009F000770190937901809378014C8140937A013B
:100A000030937D01803D37E0930708F45CC0DC0142
:100A1000A05DB74030E0A90141505109E6E8F0E09F
:100A200021E02E1B322F3E0F371728F43491430F4D
:100A3000511D3196F7CF733038F09D012370332765
:100A4000232B11F44F5F5F4FEDE6F1E0AE9F900175
:100A5000AF9F300DBE9F300D11248D5C9740959552
:100A6000879595958795820F931F9A01280F391FB7
:100A7000862F90E0A0E0B0E06C017D0140E8C41A50
:100A80004CEBD40A42E9E40A47ECF40AA8E1B0E0EE
:100A90000E943B159B01AC01200F311D411D511DD2
:100AA000ACE3B0E00E944A159B01AC01210F311D5F
:100AB000411D511D0E944A15DC01CB018C0D9D1D6D
:100AC000AE1DBF1D03C080E090E0DC0180937E017D
:100AD00090937F01A0938001B093810127960FB678
:100AE000F894DEBF0FBECDBFDF91CF911F910F9164
:100AF000FF90EF90DF90CF900895CF92DF92EF922A
:100B0000FF920F931F93CF93DF936C017A018B01B8
:100B1000C0E0D0E0CE15DF0589F0D8016D918D01E0
:100B2000D601ED91FC910190F081E02DC60109956F
:100B3000892B11F47E0102C02196ECCFC701DF9111
:100B4000CF911F910F91FF90EF90DF90CF9008957C
:100B50003FB7F8948091E7029091E802A091E902F2
:100B6000B091EA0226B5A89B05C02F3F19F0019667
:100B7000A11DB11D3FBFBA2FA92F982F8827820F23
:100B8000911DA11DB11DBC01CD0143E0660F771F72
:100B9000881F991F4A95D1F7089585ED8093BC0071
:100BA0001092A8018091A8018091BC0084FF06C02A
:100BB0008091A8018F5F8093A801F4CF1092A901C2
:100BC00008954091BC02262F30E0240F311D2132C0
:100BD0003105DCF42091A9012430C9F4FC0180E046
:100BE00090E0861758F43091BC022191DC01A656A2
:100BF000BD4FA30FB11D2C930196F3CF8091BC0282
:100C0000680F6093BC0280E0089581E0089582E05F
:100C100008950895E091520180915101E81730F450
:100C2000F0E0ED5AFE4F808190E008958FEF9FEF46
:100C300008959091520180915101981750F4E92F35
:100C4000F0E0ED5AFE4F208130E09F5F909352011B
:100C500002C02FEF3FEFC90108958091510190E04C
:100C600020915201821B91090895CF92DF92EF9259
:100C7000FF920F931F93CF93DF937C01262F972F23
:100C80008A018091AA01882391F0C62FD72F6E0187
:100C9000C40ED51ECC15DD0571F06991D701ED911B
:100CA000FC910190F081E02DC7010995F3CF642FED
:100CB000822F0E94E105C801DF91CF911F910F9112
:100CC000FF90EF90DF90CF900895CF93DF931F9226
:100CD000CDB7DEB769832091AA012223D1F02091FC
:100CE000CD01203240F021E030E0FC01338322834B
:100CF00080E090E015C08091AB01E82FF0E0E45572
:100D0000FE4F998190838F5F8093AB018093CD01DB
:100D100005C061E0CE0101960E94E10581E090E00E
:100D20000F90DF91CF910895089580E090E00895AD
:100D30000E945B1584ED91E00E94870C21E0892BD5
:100D400009F420E0822F08951F920F920FB60F92A0
:100D500011242F933F934F935F936F937F938F93C0
:100D60009F93AF93BF93EF93FF9384ED91E00E9425
:100D70009D0CFF91EF91BF91AF919F918F917F91CA
:100D80006F915F914F913F912F910F900FBE0F90F8
:100D90001F9018951F920F920FB60F9211242F9348
:100DA0008F939F93EF93FF93E091E401F091E5011E
:100DB0008081E091EA01F091EB0182FD12C0908107
:100DC0008091ED018F5F8F732091EE01821751F0BA
:100DD000E091ED01F0E0EC52FE4F958F8093ED0134
:100DE00001C08081FF91EF919F918F912F910F9082
:100DF0000FBE0F901F901895833081F028F481303A
:100E000099F08230A1F008958730A9F08830B9F0C8
:100E10008430D1F4809180008F7D03C08091800068
:100E20008F7780938000089584B58F7702C084B552
:100E30008F7D84BD08958091B0008F7703C080912D
:100E4000B0008F7D8093B00008951F93CF93DF9300
:100E5000282F30E0F901EE58FF4F8491F901E65454
:100E6000FF4FD491F901EA55FF4FC491CC23C9F04B
:100E7000162F81110E94FC06EC2FF0E0EE0FFF1FF1
:100E8000EE56FF4FA591B4918FB7F894111105C09C
:100E90009C91ED2FE095E92302C0EC91ED2BEC93B2
:100EA0008FBFDF91CF911F9108951F920F920FB6C0
:100EB0000F9211242F933F934F935F936F937F93E0
:100EC0008F939F93AF93BF93EF93FF938091EE0225
:100ED0009091EF02A091F002B091F102892B8A2B40
:100EE0008B2B59F18091ED02E091EB02F091EC0235
:100EF0009081892780838091EE029091EF02A091EA
:100F0000F002B091F102181619061A061B060CF031
:100F10003DC08091EE029091EF02A091F002B0915D
:100F2000F1020197A109B1098093EE029093EF02BB
:100F3000A093F002B093F10229C080910801EEEC79
:100F4000F0E0E4919FEF90930801E130B9F098F060
:100F5000E230C9F4909170009D7F9093700091E011
:100F60009093B0009091B100987F94609093B100FD
:100F70001092B30008C010926E0005C090916F00EF
:100F80009D7F90936F0060E00E942507FF91EF9195
:100F9000BF91AF919F918F917F916F915F914F9191
:100FA0003F912F910F900FBE0F901F9018958F9229
:100FB0009F92AF92BF92CF92DF92EF92FF926B011E
:100FC0007C010E94A8054B015C01C114D104E1041D
:100FD000F104F1F00E94A805DC01CB018819990900
:100FE000AA09BB09883E9340A105B10570F321E031
:100FF000C21AD108E108F10888EE880E83E0981E35
:10100000A11CB11CC114D104E104F10419F7DDCF16
:10101000FF90EF90DF90CF90BF90AF909F908F9018
:1010200008951F920F920FB60F9211242F933F93A2
:101030008F939F93AF93BF938091E3029091E402CB
:10104000A091E502B091E6023091E20226E0230F82
:101050002D3720F40296A11DB11D05C029E8230FEC
:101060000396A11DB11D2093E2028093E3029093A9
:10107000E402A093E502B093E6028091E70290912A
:10108000E802A091E902B091EA020196A11DB11D0A
:101090008093E7029093E802A093E902B093EA02FA
:1010A000BF91AF919F918F913F912F910F900FBE64
:1010B0000F901F90189580912E01882361F09FB7A3
:1010C000F89420912E018091E102213019F48DBB1A
:1010D0009FBF08958FBF08958EBD00000DB407FE19
:1010E000FDCF8EB5089520912E01222379F02FB7E0
:1010F000F89430912E01313039F43DB33093E10250
:101100003DB33DBB2FBF02C02093E1028CBD9DBD0E
:1011100008951F920F920FB60F9211242F933F93B1
:101120004F935F936F937F938F939F93AF93BF93EF
:10113000EF93FF938091B900887F803609F49CC0BB
:1011400068F5883209F45BC090F4803109F454C02A
:1011500038F4882309F4F6C0883009F44DC0F6C08D
:10116000883109F44CC0803209F45DC0EFC080348E
:1011700009F468C048F4803309F455C0883309F095
:10118000E5C08093A601D8C0803509F44FC08835EA
:1011900009F45DC0883409F0D9C0D6C0883909F493
:1011A000C7C0A8F4883709F467C038F4883609F452
:1011B00063C0803709F460C0C9C0883809F4B8C07A
:1011C000803909F45FC0803809F0C0C05BC0803B43
:1011D00009F486C038F4803A09F466C0883A09F404
:1011E0007FC0B4C0803C09F4A7C0883C09F4A4C007
:1011F000883B09F48AC0AAC08091830110C09091F5
:10120000A5018091A401981770F5E091A50181E0F6
:101210008E0F8093A501F0E0EC57FE4F8081809304
:10122000BB0085EC86C08093A6018EC0E091A5012D
:1012300081E08E0F8093A5018091BB00F0E0EC5718
:10124000FE4F80839091A5018091A4016EC0E09132
:10125000A50181E08E0F8093A5018091BB00F0E095
:10126000EC57FE4F80838091A70181116DC081E012
:101270008093820184EA61C083E08093A901109287
:10128000E002CFCF8091E002803208F051C0E091BF
:10129000E00281E08E0F8093E0028091BB00F0E0DD
:1012A000E054FD4F8083BDCF85EC8093BC0010924D
:1012B000A9018091E002803230F4E091E002F0E098
:1012C000E054FD4F10826091E00270E0E091BE02B8
:1012D000F091BF0280EC92E009951092E00236C0D6
:1012E00084E08093A9011092BD021092BC02E091AB
:1012F000BA02F091BB0209958091BC02811105C030
:1013000081E08093BC0210929A02E091BD0281E0DC
:101310008E0F8093BD02F0E0E656FD4F80818093F2
:10132000BB009091BD028091BC02981708F479CF60
:1013300085E88093BC000AC085EC8093BC001092C5
:10134000A90104C01092A6010E94CD05FF91EF9162
:10135000BF91AF919F918F917F916F915F914F91CD
:101360003F912F910F900FBE0F901F9018950C94E6
:10137000CF140F931F93CF93DF93CDB7DEB763974F
:101380000FB6F894DEBF0FBECDBF082F1DEF180FAC
:1013900090E0039763E070E00E940515160F82E16C
:1013A0008B8B812F80958370810F0E94EB0280933D
:1013B0009902882311F080E01CC0AE014D5E5F4FA2
:1013C000BE016F5F7F4F812F0E94B302809399020D
:1013D0008111F1CFAFE2B1E0FE01319680E18E0FD5
:1013E00091919D938E13FCCF033011F41092310133
:1013F00081E063960FB6F894DEBF0FBECDBFDF91DC
:10140000CF911F910F9108951F93CF93DF93CDB785
:10141000DEB7A3970FB6F894DEBF0FBECDBFFC01B9
:101420001DEF160F262F30E0C901039763E070E02F
:101430000E940515160F80818B8B81818C8B828198
:101440008D8B83818E8B82E18BA3812F809583701E
:10145000810F0E94EB028093990281112FC080EAD4
:1014600089831A8362E0CE0101960E94C70381112D
:1014700005C060E1CE0143960E94C70380939902A4
:1014800081111CC0AE014D5D5F4FBE016F5F7F4F8C
:10149000812F0E94B3028093990281110FC099811C
:1014A00090932F018A81809330018B818093310149
:1014B0008C818093320181E02B89921380E0A39686
:1014C0000FB6F894DEBF0FBECDBFDF91CF911F9155
:1014D00008952F923F924F925F926F927F928F92D8
:1014E0009F92AF92BF92CF92DF92EF92FF920F93B3
:1014F0001F93CF93DF9300D000D01F92CDB7DEB7FC
:101500008C01F62E84E00E94370383E00E943703AB
:101510002801612C712C9801A0E4BFE10E943B15C9
:1015200028EE33E040E050E00E94191529833A8309
:101530001A018F2D90E09D838C8300E010E03EEC3B
:10154000832E30E0932E49EAE42E40E0F42E5DEB4A
:10155000C52E50E0D52E5C0191E0A91AB1088C810E
:101560009D810817190709F417C161E084E00E9402
:10157000250780910801833019F4F401949172C019
:101580008F3F09F0F5C083E080930801F401949146
:101590009F3F09F4EDC0913009F1923009F440C049
:1015A000911160C014BC15BC84B5826084BD85B542
:1015B000816085BDF7018491E82FF0E0EE0FFF1FF9
:1015C000EE56FF4F859194919093900280938F02F5
:1015D000F601849180938E0290E046C010928000C4
:1015E00010928100809181008860809381008091B9
:1015F0008100816080938100F7018491E82FF0E001
:10160000EE0FFF1FEE56FF4F8591949190938D0240
:1016100080938C02F601849180938B0291E024C028
:101620001092B0001092B1008091B000826080935F
:10163000B0008091B10081608093B100F701849186
:10164000E82FF0E0EE0FFF1FEE56FF4F85919491CB
:101650009093EC028093EB02F60184918093ED026B
:1016600092E002C097FD84C083E09B830E94370311
:101670009B81992319F09230E9F40CC085B5887FDD
:10168000826085BD4114510461047104C1F12CE7ED
:1016900030E02BC08091B100887F82608093B100E0
:1016A000411451046104710491F74FEF5FEFBA01E7
:1016B0002CE74FC0913071F480918100887F816068
:1016C00080938100411451046104710459F127EEA3
:1016D00033E00BC04114510461047104C1F727EEDB
:1016E00033E04FEF5FEFBA0103C049815A81B10186
:1016F0009130E9F0923069F191113AC004C04FEF96
:101700005FEFBA012CE727BD4093950250939602F4
:10171000609397027093980280916E00826080932C
:101720006E0026C04FEF5FEFBA0127EE33E0309333
:101730008900209388004093910250939202609315
:1017400093027093940280916F00826080936F0087
:101750000FC02093B3004093EE025093EF026093CA
:10176000F0027093F10280917000826080937000AB
:10177000C301B2010E94D707A89560E084E00E94EF
:1017800025070A151B052CF4C301B2010E94D707D7
:10179000A8950F5F1F4FE3CE0F900F900F900F9003
:1017A0000F90DF91CF911F910F91FF90EF90DF90FD
:1017B000CF90BF90AF909F908F907F906F905F90F1
:1017C0004F903F902F9008950F931F93CF93DF93E7
:1017D0008C010E94B709C82FC80101960E94B70961
:1017E000D82FC81739F0C80102960E94B709C8134C
:1017F00003C00AC08C2F08C0D81731F062E082E322
:1018000090E00E94690A80E0DF91CF911F910F91D3
:101810000895FF920F931F93CF93DF938C01F62EC1
:10182000C0E0D0E06F2DCE01800F911F0E94D71431
:101830002196C330D105B1F7DF91CF911F910F9160
:10184000FF9008951F920F920FB60F9211242F93BD
:101850003F934F935F936F937F938F939F93AF9338
:10186000BF93EF93FF930FB6F894A8958091600013
:10187000886180936000109260000FBE80913F01EC
:10188000811103C0E0E0F0E00995FF91EF91BF9175
:10189000AF919F918F917F916F915F914F913F9108
:1018A0002F910F900FBE0F901F901895FC01538D34
:1018B000448D252F30E0842F90E0821B930B54172A
:1018C00010F0CF96089501970895FC01918D828DB7
:1018D000981761F0828DDF01A80FB11D5D968C9184
:1018E000928D9F5F9F73928F90E008958FEF9FEF8F
:1018F0000895FC01918D828D981731F0828DE80F4B
:10190000F11D858D90E008958FEF9FEF0895FC0104
:10191000918D228D892F90E0805C9F4F821B9109D1
:101920008F739927089580E090E0892B29F00E9419
:101930009A0681110C9400000895FC01848DDF014A
:10194000A80FB11DA35ABF4F2C91848D90E0019632
:101950008F739927848FA689B7892C93A089B18921
:101960008C9180648C93938D848D981306C002882B
:10197000F389E02D80818F7D80830895CF93DF935D
:10198000EC01888D8823C9F0EA89FB89808185FD77
:1019900005C0A889B9898C9186FD0FC00FB607FCD8
:1019A000F5CF808185FFF2CFA889B9898C9185FF19
:1019B000EDCFCE010E949D0CE7CFDF91CF9108952E
:1019C000CF93DF93CDB7DEB7AF970FB6F894DEBFF6
:1019D0000FBECDBF789484B5826084BD84B581602C
:1019E00084BD85B5826085BD85B5816085BD8091EA
:1019F0006E00816080936E00109281008091810062
:101A00008260809381008091810081608093810059
:101A1000809180008160809380008091B10084601B
:101A20008093B1008091B00081608093B00080917C
:101A30007A00846080937A0080917A00826080933B
:101A40007A0080917A008E7F80937A0080917A006C
:101A5000806880937A001092C1008FEF8093CE014E
:101A60008093CF018093D0018093D1018093D201E4
:101A70008093D30185E00E94370361E085E00E94F6
:101A8000250761E070E080E090E00E94D70781E0E8
:101A90008093AA0188E68093CC011092AB0110924A
:101AA000CD016EE081E792E00E94650664E081E787
:101AB00092E00E94650681E00E9456030E9438046D
:101AC00060E085E00E94250780917801909179017E
:101AD000813E97402CF463E082E390E00E94690A23
:101AE00083B7817F846083BF80E293E00E94E40B30
:101AF0008093470184E893E00E94E40B91E0811118
:101B000001C090E090934B0182E593E00E94E40BCA
:101B1000182F8093480185E593E00E94E40B8093A1
:101B2000490188E593E00E94E40B80934A018BE52C
:101B300093E00E94E40B809344011F3F41F4109214
:101B4000440110924A01109249011092480190916B
:101B50004401892F837029F440E851E561E070E089
:101B600016C0813029F440E05CE86AE070E00FC004
:101B7000823049F41092040110920501109206017E
:101B8000109207010CC041E050E060E070E040932B
:101B9000040150930501609306017093070192FFC1
:101BA00004C081E08093460102C010924601109269
:101BB000450168E873E180E090E00E94D70761E0AA
:101BC00088EE93E00E94690A3E0118E1610E711CE3
:101BD00022273327261937093EA72DA79EE088E143
:101BE0000FB6F894A895809360000FBE90936000A4
:101BF00080915001882351F180914C0190914D01C9
:101C0000A0914E01B0914F010196A11DB11D80938D
:101C10004C0190934D01A0934E01B0934F01409120
:101C20000401509105016091060170910701481768
:101C300059076A077B0750F41092500110924C012B
:101C400010924D0110924E0110924F01BFB6F894C0
:101C500080914001811124C0E0EBF0E08491E4EC3C
:101C6000F0E09491E82FF0E0EE0FFF1FE456FF4FF5
:101C7000A591B491EC91E92321F461E08AE00E94FE
:101C800025078AE00E9437038CB580618CBD8CB536
:101C900080648CBD8DE00E9437038BE00E94370387
:101CA000809140018F5F80934001BFBE8091890287
:101CB0000E94370361E0809189020E94250780918C
:101CC0008A020E94370320918A0230E0F901EE581F
:101CD000FF4F8491F901E654FF4F1491F901EA5541
:101CE000FF4FB490BB2079F081110E94FC06EB2DD0
:101CF000F0E0EE0FFF1FE859FF4FA591B491EC9172
:101D00001E2309F0F4C561E080918A020E94250734
:101D100061E070E080E090E00E94D70760E884E531
:101D20000E94340166E486E50E94340163E088E5A0
:101D30000E94340168EE8AE50E94340160E48AE280
:101D40000E9434016DE382E20E94340160E78CE47A
:101D50000E94340188E20E941001982F9370933002
:101D600029F0682F636088E20E94340182E0888F46
:101D700086E28CA760E88CE10E94240487E0898BCE
:101D8000812CA12CCE0141966C0173018E010F5F55
:101D90001F4F21E0AE01445D5F4F60E38CE00E9485
:101DA0009C01811108C0888D823009F028C589897D
:101DB000811125C503C0823009F021C560E88CE19E
:101DC0000E94240483E9898399249394312CB12CB3
:101DD000E3E02E2E90E2B9121BC0A0E7AA839C81FB
:101DE0008B8189279D8189279E8189278F83AE01D9
:101DF000485F5F4F67E0CE0101960E945F0181114D
:101E0000DEC0188E298AFE0137962F0129E027C0EF
:101E10008B2D877887FF03C08150886F8F5F888FF5
:101E20009B2DB7FE02C097E09B0D959595959595D6
:101E300032E0390F282FF0E13F9F200D11242A8333
:101E400021E0811101C020E0230F44244394512C50
:101E50004C0E5D1E430E511C87E0891B898BA88C9C
:101E60006A2D6295607F6A0D8AE12FA70E94340176
:101E7000812C63018E010F5E1F4F780182012FA517
:101E8000AE014F5F5F4F60E38CE00E949C018230A7
:101E900091F58CE10E94100185FDB1C48F7109F4A8
:101EA00080E2282F30E04B2DBB0C550B4217530717
:101EB0000CF0A5C4B82EC901019787709927259504
:101EC0002595259531E0320F21E0009709F420E0B7
:101ED000230FE1E0F0E0EC0FFD1FE20FF11D21E028
:101EE00030E002C0220F331F8A95E2F7C9019081CA
:101EF000892B80836FCF811162C030E2B31619F055
:101F000070E2B72E6ACF8B81883819F052E044E036
:101F100002C053E043E080E090E0232D30E0FC017C
:101F2000E20FF31FE358FD4F652F680FA1E0B0E00B
:101F3000AC0FBD1FA60FB11D6C9161830196841774
:101F400070F38989833009F05AC4888D811157C490
:101F5000AE014D5F5F4F61E0C2010E945F018111E0
:101F60002EC09B81D20111968C911197981347C472
:101F70009C8112968C911297981341C48C9182FF88
:101F800015C09394B2E09B1205C085E98983A3E054
:101F90003A2E1DCFE3E09E1205C087E98983F6E063
:101FA0003F2E15CFF1E09F122AC40CCF80938802F8
:101FB000892D880F980E939490927D0202C0811112
:101FC0001EC461E085E00E94250761E070E080E0CA
:101FD00090E00E94D7070E94380460E085E00E94EC
:101FE000250780914B01882309F468C010924B01AA
:101FF00060E084E893E00E94090C99E288E10FB662
:10200000F894A895809360000FBE90936000A89507
:1020100084E00E94370361E084E00E94250768E8BD
:1020200073E180E090E00E94D7071AE0812C912CA8
:1020300054010EE480917A00806880937A000093C6
:102040007C006BE470E080E090E00E94D707809114
:102050007A00806480937A0080917A0086FDFCCFBC
:10206000209178008091790030E0382B032E000C0D
:10207000440B550B64EB7BE281E190E00E94191563
:10208000820E931EA41EB51E1150A1F608E1801603
:1020900009E79006A104B10420F465E082E390E032
:1020A00003C061E084EF91E00E94690A60E084E08F
:1020B0000E942507A895E0E0F0E0099584E00E94E1
:1020C000B909882309F49BC3809131018F3F09F03E
:1020D000D1C190912F019983909130019A838B8384
:1020E000809132018C8385E00E94B909882309F42C
:1020F00086C380912F018D83809130018E838091E2
:1021000031018F8380913201888786E00E94B9096E
:10211000882309F474C380912F018987809130014D
:102120008A87809131018B87809132018C8787E08B
:102130000E94B909882309F462C380912F018D8719
:10214000809130018E87809131018F87809132019B
:10215000888BAFE2B1E0FE01319680E18E0F919164
:102160009D938E13FCCF809130012091340190918A
:1021700035014091480130913301431308C030913B
:102180004901321304C020914A01291711F064E07B
:10219000B6C08A3F09F08CC08091370180937701E7
:1021A0008091380190E08053984F9093790180930B
:1021B0007801809139018093760180913B01809371
:1021C000750180913C018093740180913D01809361
:1021D000730118A619A61AA61BA664E0CE0188965C
:1021E0000E94040A882309F40AC361E085E00E9482
:1021F000250761E070E080E090E00E94D7077091D1
:1022000073016091740150917501309176012091B4
:102210007701809178019091790140917A01813D17
:10222000F7E09F071CF0805D10E802C08C5610E0BC
:10223000798B6A8B5B8B4C8B3D8B2E8B8F8B81E0EC
:102240008093AA0188E68093CC011092AB01109292
:10225000CD0160E081E792E00E9465069E012F5E5D
:102260003F4F290100E05AE0B52EF20180816B2D2D
:102270000E94E51430E1839F900D11249083053076
:1022800019F48E89810F8E8B4FEF441A540A6081A6
:1022900081E792E00E9465060F5F073031F781E029
:1022A0000E94560360E085E00E94250763E01EC09F
:1022B0008B3F41F5109137011CA21DA21EA21FA247
:1022C00064E0CE0184960E94040A882309F497C230
:1022D0001123A1F080914701811739F01093470134
:1022E000612F80E293E00E94090C65E084EF91E0A9
:1022F0000E94690AE0E0F0E0099581C266E082E3AD
:1023000090E0E6C08C3F09F052C018A219A21AA2B0
:102310001BA264E0CE0180960E94040A882309F47F
:102320006EC248E4A42E41E0B42E02E513E0D501CC
:102330001D925D0160E0C8010E94090C0D5F1F4FF6
:102340000E35B3E01B0799F780914501882329F0EA
:1023500060E08BE593E00E94090C81E080934B01E3
:102360006FEF84E893E00E94090C64E084EF91E051
:102370000E94690A00E010E034E6A32EB12CC801E7
:10238000B5010E94F114892B09F4A89560E0C801F9
:102390000E94D71465E070E080E090E00E94D707CB
:1023A0000F5F1F4F0E3EE2E01E0749F7A3CF8D3FA0
:1023B00081F5198A1A8A1B8A1C8A80914701898BA8
:1023C00064E0CE0141960E94040A882309F417C2F2
:1023D0008DA49EA415E004E0060DA8955301C50147
:1023E000880D991D0E94B709D5018D935D010A13CF
:1023F000F6CF612FC3010E94040A811102C063E07D
:102400007ECF1F5FB4E08B0E911C123331F766E074
:102410005DC08E3F09F0F3C16091370160934801C0
:1024200082E593E00E94090C6091380160934901B4
:1024300085E593E00E94090C6091390160934A019F
:1024400088E593E00E94090C60913A016093440191
:102450008BE593E00E94090C1C8E1D8E1E8E1F8E34
:1024600064E0CE014C960E94040A882309F4C7C197
:1024700062E03CCF10914701193F09F080C0909174
:10248000430180912F01981326C0909142018091C1
:102490003001981320C0809141018823E1F088E049
:1024A0000E94B909882309F4AAC180912F018111E2
:1024B00012C08091300181110EC0809131018111D3
:1024C0000AC080913201811106C061E084EF91E081
:1024D0000E94690A94C11092410180912F0180935A
:1024E0004301809130018093420184E00E943703D0
:1024F00061E084E00E9425078FEF888F898F8A8FA3
:102500008B8F18E0A895612FC3010E94040A8823CD
:1025100009F475C11F5F1233A9F7198A1A8A1B8A39
:102520001C8A11E3A895612FCE0141960E94040AEE
:10253000882309F464C111501730A1F780917E01FE
:1025400090917F01209180013091810139832A830C
:102550009B838C8365E0CE0101960E94040A882348
:1025600009F44DC160E084E00E94250761E088EC39
:1025700090E00E94690A81E08093410140C1183FC8
:1025800009F050C08091330190E0A0E0B0E0BA2F94
:10259000A92F982F882720913401820F911DA11D0A
:1025A000B11DBA2FA92F982F882720913501820FAE
:1025B000911DA11DB11D2091360140917E015091C8
:1025C0007F016091800170918101421B5109610975
:1025D0007109BA2FA92F982F88278A019B01081B00
:1025E000190B2A0B3B0BD901C801813A9542A6422F
:1025F000B10510F063E013C017E088E00E94B9094C
:10260000882309F4FCC01150C1F7EFE2F1E080E14A
:102610008E0F91919111EECF8E13FBCF61E088EC7C
:1026200090E056CF1092000140902F01512C542C75
:10263000442480913001480E511C4114510409F486
:10264000DEC068E002E3202E312CA62EB12CC101A1
:102650008A0D9B1D959587956FA70E94B9096FA557
:10266000811109C010920001109201011092020123
:1026700010920301C4C020912F01C1018A199B0946
:1026800021110BC097FD019695958795062F080F90
:102690000613D9CF011116C0B2C0209300012091BA
:1026A00030012093010120913101209302012091FA
:1026B00032012093030197FD019695958795602F30
:1026C000681BE6CF80910001181709F4FECE623333
:1026D00008F095C090914601992361F0683021F48B
:1026E000103F09F08CC018C1853F09F488C0103F25
:1026F00009F485C0812F90E0A0E0B0E0382F2227B8
:102700001127002780917E0190917F01A091800187
:10271000B0918101BB27800F911FA21FB31FB98306
:10272000AA839B838C83CE0101960E94040A88238E
:1027300009F465C061E088EC90E00E94690AC2017A
:1027400001978B3D9540E0F4820143E01695079593
:102750004A95E1F7C8010E94B70937E043225524A2
:1027600041E050E060E070E004C0440F551F661F78
:10277000771F4A94D2F7682F642BC8010E94D714A0
:1027800081E08093500110924C0110924D01109203
:102790004E0110924F0180E589831A82AE014D5F90
:1027A0005F4F62E0CE0101960E945F01811110C06F
:1027B000812CA12CC12CD12CE12CF12C00E010E0BB
:1027C00024E0AE014F5F5F4F60E38CE00E949C010C
:1027D00068E080E10E9424049FB7F8948091400152
:1027E000882319F08150809340018091400181112C
:1027F00005C08CB58F7B8CBD10922E019FBF809140
:10280000040190910501A0910601B0910701009784
:10281000A105B10519F41092500107C00197A10557
:10282000B10519F481E0809350010091500181E0DD
:1028300080933F0110E0812F0E94370360E0812FD9
:102840000E9425071F5F1431B1F710927A00002310
:1028500009F45DC014BE88E18093600084E4809335
:102860006000A895F89483B7816083BF80E685BF38
:1028700080E485BF7894889583B78E7F83BF10925C
:102880003F0180914B01882379F103E05524539453
:1028900088E1882E91E6992E20E6A22E30E4B32E10
:1028A00050923F0110E0812F0E94370360E0812F9A
:1028B0000E9425071F5F1431B1F710927A0014BEF1
:1028C0008092600090926000A895F89483B7816030
:1028D00083BFA5BEB5BE7894889583B78E7F83BF2E
:1028E00010923F010150E1F60E94930C77C96FE00E
:1028F00082E00E94340161E070E080E090E00E949C
:10290000D70782E00E94100184FDFBCF07CA88E14F
:102910008093600086E4A3CF853F09F0EBCE6FCFB4
:10292000E4EDF1E01382128288EE93E0A0E0B0E0E3
:1029300084839583A683B7832DE031E031832083A0
:1029400025EC30E03587248724EC30E03787268774
:1029500020EC30E0318B208B21EC30E0338B228B6C
:1029600022EC30E0358B248B26EC30E0378B268B45
:10297000118E128E138E148EE1E7F2E01382128212
:1029800084839583A683B7838FE191E091838083CD
:10299000EDE7F2E08AE0848789E085870895F99978
:1029A000FECF92BD81BDF89A992780B50895262F54
:1029B000F999FECF1FBA92BD81BD20BD0FB6F89424
:1029C000FA9AF99A0FBE01960895991B79E004C00E
:1029D000991F961708F0961B881F7A95C9F780955E
:1029E0000895AA1BBB1B51E107C0AA1FBB1FA61756
:1029F000B70710F0A61BB70B881F991F5A95A9F7A8
:102A000080959095BC01CD01089597FB072E16F493
:102A1000009407D077FD09D00E94F11407FC05D07F
:102A20003EF4909581959F4F0895709561957F4FE5
:102A30000895A1E21A2EAA1BBB1BFD010DC0AA1FFF
:102A4000BB1FEE1FFF1FA217B307E407F50720F017
:102A5000A21BB30BE40BF50B661F771F881F991F92
:102A60001A9469F760957095809590959B01AC01DB
:102A7000BD01CF010895A29FB001B39FC001A39FE4
:102A8000700D811D1124911DB29F700D811D1124A7
:102A9000911D08950E943B15A59F900DB49F900D28
:102AA000A49F800D911D11240895EE0FFF1F059026
:102AB000F491E02D099481E090E0F8940C9469156C
:102AC000FB01DC0102C001900D9241505040D8F74B
:062AD0000895F894FFCF09
:102AD600FF00000080510100FF00000000C9007DDA
:102AE60005560CBE0C870C650C790C0000000065C1
:0E2AF600063506950609062D0619060A060085
:00000001FF
