:100000000C9469000C9491000C9491000C94910054
:100010000C9491000C9491000C94220C0C945507B4
:100020000C9491000C9491000C9491000C9491000C
:100030000C9491000C9491000C9491000C949100FC
:100040000C9411080C9491000C94CA060C94A4060C
:100050000C9491000C9491000C9491000C949100DC
:100060000C9489080C9491000000000023002600E5
:10007000290000000008000201000003040700003E
:100080000000000000001F1C1F1E1F1E1F1F1E1F40
:100090001E1F00000000250028002B0000000000AB
:1000A000240027002A0004040404040404040202B7
:1000B00002020202030303030303010204081020E7
:1000C00040800102040810200102040810200200F0
:1000D000DF1411241FBECFEFD8E0DEBFCDBF11E08B
:1000E000A0E0B1E0E4E7FBE202C005900D92AE3281
:1000F000B107D9F722E0AEE2B1E001C01D92A33F03
:10010000B207E1F710E0C9E6D0E004C02197FE0194
:100110000E94A415C836D107C9F70E94E00C0C94C0
:10012000B8150C940000CF92DF92FF920F931F93AB
:10013000CF93DF931F92CDB7DEB7082F162F83E53D
:1001400090E079830E94730860E080918A020E94A7
:10015000250782E10E946C08F12EC12E7981D72EED
:100160008C2D8F19801730F4F60181916F010E9458
:100170006C08F6CF61E080918A020E9425070F90FB
:10018000DF91CF911F910F91FF90DF90CF900C9452
:100190005B08EF92FF920F931F93CF93DF93EC01D5
:1001A00081E0888F9B8D8C8D981305C0E889F98933
:1001B000808185FD24C0F62E0B8D10E00F5F1F4F50
:1001C0000F731127E02E8C8DE8120CC00FB607FCC0
:1001D000FACFE889F989808185FFF5CFCE010E94A9
:1001E0009D0CF1CF8B8DFE01E80FF11DE35AFF4FFF
:1001F000F0820B8FEA89FB898081806207C0EE89DB
:10020000FF896083E889F98980818064808381E047
:1002100090E0DF91CF911F910F91FF90EF900895A3
:100220000F931F93CF93C82F83E590E00E9473082C
:100230000EE712E060E0F80184850E9425078C2F0C
:100240008E7780680E946C0880E00E946C08C82F3E
:1002500061E0F80184850E9425070E945B088C2FCD
:10026000CF911F910F9108950F931F93CF93DF9319
:10027000082F162F83E590E00E947308CEE7D2E0A6
:1002800060E08C850E942507802F8E770E946C0885
:10029000812F0E946C0861E08C850E942507DF9108
:1002A000CF911F910F910C945B08CF93C82F0E94A0
:1002B0001001682F60688C2FCF910C943401EF925D
:1002C000FF920F931F93CF93DF937C01C62F8A0178
:1002D00060E082E00E94340164E08AE00E94340120
:1002E00084E10E945501B7018C2F0E94930063E0C6
:1002F00082E00E943401C8E8D3E18AE00E94100144
:1003000082FD04C02197C9F783E00FC060E082E05E
:100310000E94340184E40E941001F801808382E489
:100320000E941001F801818380E0DF91CF911F913D
:100330000F91FF90EF9008952F923F924F925F920E
:100340006F927F928F929F92AF92BF92CF92DF92E5
:10035000EF92FF920F931F93CF93DF9300D01F92E2
:10036000CDB7DEB7982E762E2A01C114D10419F02C
:10037000F601608101C060E0662EF0E1AF9E600C86
:10038000112460E082E02B830E9434016FE788E053
:100390000E94340184E10E945501B2012B81822F19
:1003A0000E949300662D8AE10E943401692D82E04B
:1003B0000E9434018CE0981203C08AE10E9455012A
:1003C00090ED492E97E0592E88E00E941001982F59
:1003D000972139F480FDA8C0E1E04E1A5108A1F739
:1003E000A3C08CE00E941001382E837109F09EC0DA
:1003F0000115110509F465C0E114F10409F461C0A7
:1004000084E10E941001982EF7018081891508F47B
:100410008FC09082992009F44AC083E590E00E9441
:10042000730860E080918A020E9425079A9482E90D
:100430000E946C08202E380144244394512C862DB0
:100440008219891528F581111AC0AA20C1F08A2DB8
:10045000B12C883048F49201082E01C0220F0A9472
:10046000EAF7B22A8F5FF5CF82E90E946C082B2D44
:100470002095F801908192238B21892B04C082E979
:100480000E946C08F3018083FFEF6F1A7F0AD7CFB9
:100490005801A90CB11C80E00E946C08F501808312
:1004A00061E080918A020E9425070E945B0888E132
:1004B0000E9410018770B82EC114D10411F0F6010A
:1004C000808333FC37C001151105B1F1E114F1044B
:1004D00099F1882089F1F7016081613021F4F4E01D
:1004E000BF1203C01FC0623010F487E026C0B110F5
:1004F000FCCF6250AE014F5F5F4FC8010E945F01A9
:1005000081111BC0F7018081080F111DF80132977E
:10051000908189819813E9CF319690818A819813CF
:10052000E4CF0AC08FEF09C083E007C081E005C0B7
:1005300084E003C082E001C080E00F900F900F9034
:10054000DF91CF911F910F91FF90EF90DF90CF90AF
:10055000BF90AF909F908F907F906F905F904F90E3
:100560003F902F9008958F92AF92CF92DF92EF92AB
:10057000FF920F931F93CF93DF9361157105F9F0ED
:10058000FA0190819231D8F07A01EB0190E39883DF
:100590008983AB014E5F5F4F62E0CE010E945F0135
:1005A00081110EC088248394A12CC12CD12C8E01E2
:1005B00024E0AE0160E38CE00E949C0101C084E075
:1005C000DF91CF911F910F91FF90EF90DF90CF902F
:1005D000AF908F9008958F92AF92CF92DF92EF926B
:1005E000FF920F931F93CF93DF93CDB7DEB72C9776
:1005F0000FB6F894DEBF0FBECDBF90E699838A8315
:10060000DE011396EFECF1E086E08E0F91919D9361
:100610008E13FCCF80917F028987809180028A8728
:10062000809181028B87809182028C87812CA12C02
:10063000C12CD12CE12CF12C00E010E02CE0AE011B
:100640004F5F5F4F60E18EE00E949C012C960FB6D9
:10065000F894DEBF0FBECDBFDF91CF911F910F91F8
:10066000FF90EF90DF90CF90AF908F90089590E043
:10067000FC01E654FF4F2491FC01EA55FF4F8491A1
:10068000882399F090E0880F991FFC01E456FF4FF2
:10069000A591B491FC01EE56FF4F859194918FB7CF
:1006A000F894EC91E22BEC938FBF0895482F2091A2
:1006B000CE019091CD01213208F05DC01092A901C8
:1006C0008091A9018091AA01882331F03091A9017C
:1006D0003F5F3093A901F4CF32E03093AA014093F9
:1006E000A8013FEF3093A7011092A6012093A50126
:1006F000ADEAB1E045E851E0FA013E2F341B321774
:1007000018F43D913193F9CF109284012091840126
:10071000990F922B9093840190918301913061F411
:1007200010928301909184019093BB009091BC0042
:1007300093FDF8CF95EC01C095EE9093BC0010921C
:10074000A9019091A9019091AA01923031F4909160
:10075000A9019F5F9093A901F4CF9091A7019F3FBA
:1007600079F08091A701803241F08091A701803318
:1007700031F084E005C081E003C082E001C083E085
:100780001092AC011092CE011092AB0108958F929D
:10079000AF92CF92DF92EF92FF920F931F93CF937E
:1007A000DF93CDB7DEB764970FB6F894DEBF0FBE08
:1007B000CDBF162FE62EF12CA701BC01CE0101966C
:1007C0000E94AF1541E050E04C0F5D1F4E0D5F1DC4
:1007D000612FCE0101960E945F01811124C082E148
:1007E0008C8B1B8A22E0210F812CA12CCE014396F9
:1007F0006C0101967C018E010F5F1F4FA80160E321
:100800008CE00E949C0181110EC08C89813051F4D2
:100810008B89843039F481E099819A3009F480E041
:10082000819501C081E064960FB6F894DEBF0FBEDB
:10083000CDBFDF91CF911F910F91FF90EF90DF908F
:10084000CF90AF908F9008951F93CF93DF931F9217
:10085000CDB7DEB7182F69830E94100169816095BA
:100860006823812F0F90DF91CF911F910C94340159
:10087000CF92DF92EF92FF920F931F93CF93DF936C
:10088000CDB7DEB727970FB6F894DEBF0FBECDBF4A
:1008900081E08093AB0188E68093CD011092AC019A
:1008A0001092CE0160E082E792E00E94650681E04E
:1008B0000E9456031092A9018091A9018091AA017A
:1008C000882331F08091A9018F5F8093A901F4CF33
:1008D00081E08093AA018093A8019FEF9093A701E4
:1008E0001092A60196E09093A501809384018091D7
:1008F0008401806D8093840180918301813061F453
:1009000010928301809184018093BB008091BC0090
:1009100083FDF8CF85EC01C085EE8093BC0010927A
:10092000A9018091A9018091AA01813031F48091BF
:10093000A9018F5F8093A901F4CF8091A601873030
:1009400018F48091A60101C087E0A5E8B1E024E594
:1009500031E0F9019E2F921B981718F49D91919305
:10096000F9CF10925301809352019E012F5F3F4FA8
:10097000790100E010E082E792E00E941906982FCA
:100980009F70153079F484FB222720F9220F322F33
:10099000330F330F230F920F9E83082F001F002762
:1009A000001F08C082958F703AE0839F900D11243C
:1009B000F70190831F5FFFEFEF1AFF0A1730D9F698
:1009C0003F81832F90E0013019F48053984F02C08B
:1009D0008459984F6981609374011A81109375014D
:1009E0000B81009376012D81209377017E81709396
:1009F000780190937A01809379014C8140937B0137
:100A000030937E01803D37E0930708F45CC0DC0141
:100A1000A05DB74030E0A90141505109E6E8F0E09F
:100A200021E02E1B322F3E0F371728F43491430F4D
:100A3000511D3196F7CF733038F09D012370332765
:100A4000232B11F44F5F5F4FEDE6F1E0AE9F900175
:100A5000AF9F300DBE9F300D11248D5C9740959552
:100A6000879595958795820F931F9A01280F391FB7
:100A7000862F90E0A0E0B0E06C017D0140E8C41A50
:100A80004CEBD40A42E9E40A47ECF40AA8E1B0E0EE
:100A90000E948A159B01AC01200F311D411D511D83
:100AA000ACE3B0E00E9499159B01AC01210F311D10
:100AB000411D511D0E949915DC01CB018C0D9D1D1E
:100AC000AE1DBF1D03C080E090E0DC0180937F017C
:100AD00090938001A0938101B093820127960FB675
:100AE000F894DEBF0FBECDBFDF91CF911F910F9164
:100AF000FF90EF90DF90CF900895CF92DF92EF922A
:100B0000FF920F931F93CF93DF936C017A018B01B8
:100B1000C0E0D0E0CE15DF0589F0D8016D918D01E0
:100B2000D601ED91FC910190F081E02DC60109956F
:100B3000892B11F47E0102C02196ECCFC701DF9111
:100B4000CF911F910F91FF90EF90DF90CF9008957C
:100B50003FB7F8948091E8029091E902A091EA02EF
:100B6000B091EB0226B5A89B05C02F3F19F0019666
:100B7000A11DB11D3FBFBA2FA92F982F8827820F23
:100B8000911DA11DB11DBC01CD0143E0660F771F72
:100B9000881F991F4A95D1F7089585ED8093BC0071
:100BA0001092A9018091A9018091BC0084FF06C028
:100BB0008091A9018F5F8093A901F4CF1092AA01BF
:100BC00008954091BD02262F30E0240F311D2132BF
:100BD0003105DCF42091AA012430C9F4FC0180E045
:100BE00090E0861758F43091BD022191DC01A556A2
:100BF000BD4FA30FB11D2C930196F3CF8091BD0281
:100C0000680F6093BD0280E0089581E0089582E05E
:100C100008950895E091530180915201E81730F44E
:100C2000F0E0EC5AFE4F808190E008958FEF9FEF47
:100C300008959091530180915201981750F4E92F33
:100C4000F0E0EC5AFE4F208130E09F5F909353011B
:100C500002C02FEF3FEFC90108958091520190E04B
:100C600020915301821B91090895CF92DF92EF9258
:100C7000FF920F931F93CF93DF937C01262F972F23
:100C80008A018091AB01882391F0C62FD72F6E0186
:100C9000C40ED51ECC15DD0571F06991D701ED911B
:100CA000FC910190F081E02DC7010995F3CF642FED
:100CB000822F0E94E105C801DF91CF911F910F9112
:100CC000FF90EF90DF90CF900895CF93DF931F9226
:100CD000CDB7DEB769832091AB012223D1F02091FB
:100CE000CE01203240F021E030E0FC01338322834A
:100CF00080E090E015C08091AC01E82FF0E0E35572
:100D0000FE4F998190838F5F8093AC018093CE01D9
:100D100005C061E0CE0101960E94E10581E090E00E
:100D20000F90DF91CF910895089580E090E00895AD
:100D30000E94AA1585ED91E00E94870C21E0892B85
:100D400009F420E0822F08951F920F920FB60F92A0
:100D500011242F933F934F935F936F937F938F93C0
:100D60009F93AF93BF93EF93FF9385ED91E00E9424
:100D70009D0CFF91EF91BF91AF919F918F917F91CA
:100D80006F915F914F913F912F910F900FBE0F90F8
:100D90001F9018951F920F920FB60F9211242F9348
:100DA0008F939F93EF93FF93E091E501F091E6011C
:100DB0008081E091EB01F091EC0182FD12C0908105
:100DC0008091EE018F5F8F732091EF01821751F0B8
:100DD000E091EE01F0E0EB52FE4F958F8093EE0133
:100DE00001C08081FF91EF919F918F912F910F9082
:100DF0000FBE0F901F901895833081F028F481303A
:100E000099F08230A1F008958730A9F08830B9F0C8
:100E10008430D1F4809180008F7D03C08091800068
:100E20008F7780938000089584B58F7702C084B552
:100E30008F7D84BD08958091B0008F7703C080912D
:100E4000B0008F7D8093B00008951F93CF93DF9300
:100E5000282F30E0F901EE58FF4F8491F901E65454
:100E6000FF4FD491F901EA55FF4FC491CC23C9F04B
:100E7000162F81110E94FC06EC2FF0E0EE0FFF1FF1
:100E8000EE56FF4FA591B4918FB7F894111105C09C
:100E90009C91ED2FE095E92302C0EC91ED2BEC93B2
:100EA0008FBFDF91CF911F9108951F920F920FB6C0
:100EB0000F9211242F933F934F935F936F937F93E0
:100EC0008F939F93AF93BF93EF93FF938091EF0224
:100ED0009091F002A091F102B091F202892B8A2B3D
:100EE0008B2B59F18091EE02E091EC02F091ED0232
:100EF0009081892780838091EF029091F002A091E8
:100F0000F102B091F202181619061A061B060CF02F
:100F10003DC08091EF029091F002A091F102B0915A
:100F2000F2020197A109B1098093EF029093F002B8
:100F3000A093F102B093F20229C080910801EEEC77
:100F4000F0E0E4919FEF90930801E130B9F098F060
:100F5000E230C9F4909170009D7F9093700091E011
:100F60009093B0009091B100987F94609093B100FD
:100F70001092B30008C010926E0005C090916F00EF
:100F80009D7F90936F0060E00E942507FF91EF9195
:100F9000BF91AF919F918F917F916F915F914F9191
:100FA0003F912F910F900FBE0F901F9018958F9229
:100FB0009F92AF92BF92CF92DF92EF92FF926B011E
:100FC0007C010E94A8054B015C01C114D104E1041D
:100FD000F104F1F00E94A805DC01CB018819990900
:100FE000AA09BB09883E9340A105B10570F321E031
:100FF000C21AD108E108F10888EE880E83E0981E35
:10100000A11CB11CC114D104E104F10419F7DDCF16
:10101000FF90EF90DF90CF90BF90AF909F908F9018
:1010200008951F920F920FB60F9211242F933F93A2
:101030008F939F93AF93BF938091E4029091E502C9
:10104000A091E602B091E7023091E30226E0230F7F
:101050002D3720F40296A11DB11D05C029E8230FEC
:101060000396A11DB11D2093E3028093E4029093A7
:10107000E502A093E602B093E7028091E802909126
:10108000E902A091EA02B091EB020196A11DB11D07
:101090008093E8029093E902A093EA02B093EB02F6
:1010A000BF91AF919F918F913F912F910F900FBE64
:1010B0000F901F90189580912E01882361F09FB7A3
:1010C000F89420912E018091E202213019F48DBB19
:1010D0009FBF08958FBF08958EBD00000DB407FE19
:1010E000FDCF8EB5089520912E01222379F02FB7E0
:1010F000F89430912E01313039F43DB33093E2024F
:101100003DB33DBB2FBF02C02093E2028CBD9DBD0D
:1011100008951F920F920FB60F9211242F933F93B1
:101120004F935F936F937F938F939F93AF93BF93EF
:10113000EF93FF938091B900887F803609F49CC0BB
:1011400068F5883209F45BC090F4803109F454C02A
:1011500038F4882309F4F6C0883009F44DC0F6C08D
:10116000883109F44CC0803209F45DC0EFC080348E
:1011700009F468C048F4803309F455C0883309F095
:10118000E5C08093A701D8C0803509F44FC08835E9
:1011900009F45DC0883409F0D9C0D6C0883909F493
:1011A000C7C0A8F4883709F467C038F4883609F452
:1011B00063C0803709F460C0C9C0883809F4B8C07A
:1011C000803909F45FC0803809F0C0C05BC0803B43
:1011D00009F486C038F4803A09F466C0883A09F404
:1011E0007FC0B4C0803C09F4A7C0883C09F4A4C007
:1011F000883B09F48AC0AAC08091840110C09091F4
:10120000A6018091A501981770F5E091A60181E0F3
:101210008E0F8093A601F0E0EB57FE4F8081809304
:10122000BB0085EC86C08093A7018EC0E091A6012B
:1012300081E08E0F8093A6018091BB00F0E0EB5718
:10124000FE4F80839091A6018091A5016EC0E09130
:10125000A60181E08E0F8093A6018091BB00F0E093
:10126000EB57FE4F80838091A80181116DC081E012
:101270008093830184EA61C083E08093AA01109285
:10128000E102CFCF8091E102803208F051C0E091BD
:10129000E10281E08E0F8093E1028091BB00F0E0DB
:1012A000EF53FD4F8083BDCF85EC8093BC0010923F
:1012B000AA018091E102803230F4E091E102F0E095
:1012C000EF53FD4F10826091E10270E0E091BF02A8
:1012D000F091C00281EC92E009951092E10236C0D3
:1012E00084E08093AA011092BE021092BD02E091A8
:1012F000BB02F091BC0209958091BD02811105C02D
:1013000081E08093BD0210929B02E091BE0281E0D9
:101310008E0F8093BE02F0E0E556FD4F80818093F2
:10132000BB009091BE028091BD02981708F479CF5E
:1013300085E88093BC000AC085EC8093BC001092C5
:10134000AA0104C01092A7010E94CD05FF91EF9160
:10135000BF91AF919F918F917F916F915F914F91CD
:101360003F912F910F900FBE0F901F9018950C94E6
:101370001E150F931F93CF93DF93CDB7DEB76397FF
:101380000FB6F894DEBF0FBECDBF082F1DEF180FAC
:1013900090E0039763E070E00E945415160F82E11D
:1013A0008B8B812F80958370810F0E94EB0280933D
:1013B0009A02882311F080E01CC0AE014D5E5F4FA1
:1013C000BE016F5F7F4F812F0E94B30280939A020C
:1013D0008111F1CFAFE2B1E0FE01319680E18E0FD5
:1013E00091919D938E13FCCF033011F41092310133
:1013F00081E063960FB6F894DEBF0FBECDBFDF91DC
:10140000CF911F910F9108951F93CF93DF93CDB785
:10141000DEB7A3970FB6F894DEBF0FBECDBFFC01B9
:101420001DEF160F262F30E0C901039763E070E02F
:101430000E945415160F80818B8B81818C8B828149
:101440008D8B83818E8B82E18BA3812F809583701E
:10145000810F0E94EB0280939A0281112FC080EAD3
:1014600089831A8362E0CE0101960E94C70381112D
:1014700005C060E1CE0143960E94C70380939A02A3
:1014800081111CC0AE014D5D5F4FBE016F5F7F4F8C
:10149000812F0E94B30280939A0281110FC099811B
:1014A00090932F018A81809330018B818093310149
:1014B0008C818093320181E02B89921380E0A39686
:1014C0000FB6F894DEBF0FBECDBFDF91CF911F9155
:1014D00008952F923F924F925F926F927F928F92D8
:1014E0009F92AF92BF92CF92DF92EF92FF920F93B3
:1014F0001F93CF93DF9300D000D01F92CDB7DEB7FC
:101500008C01F62E84E00E94370383E00E943703AB
:101510002801612C712C9801A0E4BFE10E948A157A
:1015200028EE33E040E050E00E94681529833A83BA
:101530001A018F2D90E09D838C8300E010E03EEC3B
:10154000832E30E0932E49EAE42E40E0F42E5DEB4A
:10155000C52E50E0D52E5C0191E0A91AB1088C810E
:101560009D810817190709F417C161E084E00E9402
:10157000250780910801833019F4F401949172C019
:101580008F3F09F0F5C083E080930801F401949146
:101590009F3F09F4EDC0913009F1923009F440C049
:1015A000911160C014BC15BC84B5826084BD85B542
:1015B000816085BDF7018491E82FF0E0EE0FFF1FF9
:1015C000EE56FF4F859194919093910280939002F3
:1015D000F601849180938F0290E046C010928000C3
:1015E00010928100809181008860809381008091B9
:1015F0008100816080938100F7018491E82FF0E001
:10160000EE0FFF1FEE56FF4F8591949190938E023F
:1016100080938D02F601849180938C0291E024C026
:101620001092B0001092B1008091B000826080935F
:10163000B0008091B10081608093B100F701849186
:10164000E82FF0E0EE0FFF1FEE56FF4F85919491CB
:101650009093ED028093EC02F60184918093EE0268
:1016600092E002C097FD84C083E09B830E94370311
:101670009B81992319F09230E9F40CC085B5887FDD
:10168000826085BD4114510461047104C1F12CE7ED
:1016900030E02BC08091B100887F82608093B100E0
:1016A000411451046104710491F74FEF5FEFBA01E7
:1016B0002CE74FC0913071F480918100887F816068
:1016C00080938100411451046104710459F127EEA3
:1016D00033E00BC04114510461047104C1F727EEDB
:1016E00033E04FEF5FEFBA0103C049815A81B10186
:1016F0009130E9F0923069F191113AC004C04FEF96
:101700005FEFBA012CE727BD4093960250939702F2
:10171000609398027093990280916E00826080932A
:101720006E0026C04FEF5FEFBA0127EE33E0309333
:101730008900209388004093920250939302609313
:1017400094027093950280916F00826080936F0085
:101750000FC02093B3004093EF025093F0026093C8
:10176000F1027093F20280917000826080937000A9
:10177000C301B2010E94D707A89560E084E00E94EF
:1017800025070A151B052CF4C301B2010E94D707D7
:10179000A8950F5F1F4FE3CE0F900F900F900F9003
:1017A0000F90DF91CF911F910F91FF90EF90DF90FD
:1017B000CF90BF90AF909F908F907F906F905F90F1
:1017C0004F903F902F9008950F931F93CF93DF93E7
:1017D0008C010E94B709C82FC80101960E94B70961
:1017E000D82FC81739F0C80102960E94B709C8134C
:1017F00003C00AC08C2F08C0D81731F062E082E322
:1018000090E00E94690A80E0DF91CF911F910F91D3
:101810000895FF920F931F93CF93DF938C01F62EC1
:10182000C0E0D0E06F2DCE01800F911F0E942615E1
:101830002196C330D105B1F7DF91CF911F910F9160
:10184000FF9008951F920F920FB60F9211242F93BD
:101850003F934F935F936F937F938F939F93AF9338
:10186000BF93EF93FF930FB6F894A8958091600013
:10187000886180936000109260000FBE80913F01EC
:10188000811103C0E0E0F0E00995FF91EF91BF9175
:10189000AF919F918F917F916F915F914F913F9108
:1018A0002F910F900FBE0F901F901895FC01538D34
:1018B000448D252F30E0842F90E0821B930B54172A
:1018C00010F0CF96089501970895FC01918D828DB7
:1018D000981761F0828DDF01A80FB11D5D968C9184
:1018E000928D9F5F9F73928F90E008958FEF9FEF8F
:1018F0000895FC01918D828D981731F0828DE80F4B
:10190000F11D858D90E008958FEF9FEF0895FC0104
:10191000918D228D892F90E0805C9F4F821B9109D1
:101920008F739927089580E090E0892B29F00E9419
:101930009A0681110C9400000895FC01848DDF014A
:10194000A80FB11DA35ABF4F2C91848D90E0019632
:101950008F739927848FA689B7892C93A089B18921
:101960008C9180648C93938D848D981306C002882B
:10197000F389E02D80818F7D80830895CF93DF935D
:10198000EC01888D8823C9F0EA89FB89808185FD77
:1019900005C0A889B9898C9186FD0FC00FB607FCD8
:1019A000F5CF808185FFF2CFA889B9898C9185FF19
:1019B000EDCFCE010E949D0CE7CFDF91CF9108952E
:1019C000CF93DF93CDB7DEB7AF970FB6F894DEBFF6
:1019D0000FBECDBF789484B5826084BD84B581602C
:1019E00084BD85B5826085BD85B5816085BD8091EA
:1019F0006E00816080936E00109281008091810062
:101A00008260809381008091810081608093810059
:101A1000809180008160809380008091B10084601B
:101A20008093B1008091B00081608093B00080917C
:101A30007A00846080937A0080917A00826080933B
:101A40007A0080917A008E7F80937A0080917A006C
:101A5000806880937A001092C1008FEF8093CF014D
:101A60008093D0018093D1018093D2018093D301E0
:101A70008093D40185E00E94370361E085E00E94F5
:101A8000250761E070E080E090E00E94D70781E0E8
:101A90008093AB0188E68093CD011092AC01109247
:101AA000CE016EE082E792E00E94650664E082E784
:101AB00092E00E94650681E00E9456030E9438046D
:101AC00060E085E00E9425078091790190917A017C
:101AD000813E97402CF463E082E390E00E94690A23
:101AE00083B7817F846083BF80E293E00E94E40B30
:101AF0008093480184E893E00E94E40B91E0811117
:101B000001C090E090934C0182E593E00E94E40BC9
:101B1000182F8093490185E593E00E94E40B8093A0
:101B20004A0188E593E00E94E40B80934B018BE52A
:101B300093E00E94E40B809344011F3F41F4109214
:101B4000440110924B0110924A0110924901809178
:101B50004401982F937029F440E851E561E070E06A
:101B600016C0913029F440E05CE86AE070E00FC0F4
:101B7000923049F41092040110920501109206016E
:101B8000109207010CC041E050E060E070E040932B
:101B9000040150930501609306017093070182FFD1
:101BA00004C091E09093460102C01092460183FF69
:101BB00003C091E09093470186FF03C081E08093CA
:101BC000450168E873E180E090E00E94D70761E09A
:101BD00088EE93E00E94690A3E0118E1610E711CD3
:101BE00022273327261937093EA72DA79EE088E133
:101BF0000FB6F894A895809360000FBE9093600094
:101C000080915101882351F180914D0190914E01B5
:101C1000A0914F01B09150010196A11DB11D80937B
:101C20004D0190934E01A0934F01B093500140910C
:101C30000401509105016091060170910701481758
:101C400059076A077B0750F41092510110924D0119
:101C500010924E0110924F01109250011FB7F8944C
:101C600080914001811124C0E0EBF0E08491E4EC2C
:101C7000F0E09491E82FF0E0EE0FFF1FE456FF4FE5
:101C8000A591B491EC91E92321F461E08AE00E94EE
:101C900025078AE00E9437038CB580618CBD8CB526
:101CA00080648CBD8DE00E9437038BE00E94370377
:101CB000809140018F5F809340011FBF80918A0215
:101CC0000E94370361E080918A020E94250780917B
:101CD0008B020E94370320918B0230E0F901EE580D
:101CE000FF4F8491F901E654FF4F1491F901EA5531
:101CF000FF4FB490BB2079F081110E94FC06EB2DC0
:101D0000F0E0EE0FFF1FE859FF4FA591B491EC9161
:101D10001E2309F03BC661E080918B020E942507DB
:101D200061E070E080E090E00E94D70760E884E521
:101D30000E94340166E486E50E94340163E088E590
:101D40000E94340168EE8AE50E94340160E48AE270
:101D50000E9434016DE382E20E94340160E78CE46A
:101D60000E94340188E20E941001982F93709330F2
:101D700029F0682F636088E20E94340182E0888F36
:101D800086E28CA760E88CE10E94240487E0898BBE
:101D9000812CA12CCE0141966C0173018E010F5F45
:101DA0001F4F21E0AE01445D5F4F60E38CE00E9475
:101DB0009C01811108C0888D823009F06FC5898926
:101DC00081116CC503C0823009F068C560E88CE100
:101DD0000E94240483E9898399249394312CB12CA3
:101DE00063E0262E90E2B9121BC0A0E7AA839C8173
:101DF0008B8189279D8189279E8189278F83AE01C9
:101E0000485F5F4F67E0CE0101960E945F0181113C
:101E1000DEC0188E298AFE0137962F0129E027C0DF
:101E20008B2D877887FF03C08150886F8F5F888FE5
:101E30009B2DB7FE02C097E09B0D959595959595C6
:101E400032E0390F282FF0E13F9F200D11242A8323
:101E500021E0811101C020E0230F44244394512C40
:101E60004C0E5D1E430E511C87E0891B898BA88C8C
:101E70006A2D6295607F6A0D8AE12FA70E94340166
:101E8000812C63018E010F5E1F4F780182012FA507
:101E9000AE014F5F5F4F60E38CE00E949C01823097
:101EA00091F58CE10E94100185FDF8C48F7109F451
:101EB00080E2282F30E04B2DBB0C550B4217530707
:101EC0000CF0ECC4B82EC9010197877099272595AD
:101ED0002595259531E0320F21E0009709F420E0A7
:101EE000230FE1E0F0E0EC0FFD1FE20FF11D21E018
:101EF00030E002C0220F331F8A95E2F7C9019081BA
:101F0000892B80836FCF811162C030E2B31619F044
:101F100050E2B52E6ACF8B81883819F052E044E048
:101F200002C053E043E080E090E0232D30E0FC016C
:101F3000E20FF31FE258FD4F652F680FA1E0B0E0FC
:101F4000AC0FBD1FA60FB11D6C9161830196841764
:101F500070F38989833009F0A1C4888D81119EC4F2
:101F6000AE014D5F5F4F61E0C2010E945F018111D0
:101F70002EC09B81D20111968C91119798138EC41B
:101F80009C8112968C911297981388C48C9182FF31
:101F900015C09394B2E09B1205C085E98983E3E004
:101FA0003E2E1DCFE3E09E1205C087E9898376E0CF
:101FB000372E15CFF1E09F1271C40CCF80938902A8
:101FC000892D880F980E939490927E0202C0811101
:101FD00065C461E085E00E94250761E070E080E073
:101FE00090E00E94D7070E94380460E085E00E94DC
:101FF000250780914C01882309F468C010924C0198
:1020000060E084E893E00E94090C99E288E10FB651
:10201000F894A895809360000FBE90936000A895F7
:1020200084E00E94370361E084E00E94250768E8AD
:1020300073E180E090E00E94D7071AE0812C912C98
:1020400054010EE480917A00806880937A000093B6
:102050007C006BE470E080E090E00E94D707809104
:102060007A00806480937A0080917A0086FDFCCFAC
:10207000209178008091790030E0382B032E000CFD
:10208000440B550B64EB7BE281E190E00E94681504
:10209000820E931EA41EB51E1150A1F608E18016F3
:1020A00009E79006A104B10420F465E082E390E022
:1020B00003C061E084EF91E00E94690A60E084E07F
:1020C0000E942507A895E0E0F0E0099584E00E94D1
:1020D000B909882309F4E2C3809131018F3F09F0E7
:1020E000D1C190912F019983909130019A838B8374
:1020F000809132018C8385E00E94B909882309F41C
:10210000CDC380912F018D83809130018E8380918A
:1021100031018F8380913201888786E00E94B9095E
:10212000882309F4BBC380912F01898780913001F6
:102130008A87809131018B87809132018C8787E07B
:102140000E94B909882309F4A9C380912F018D87C2
:10215000809130018E87809131018F87809132018B
:10216000888BAFE2B1E0FE01319680E18E0F919154
:102170009D938E13FCCF809130012091340190917A
:1021800035014091490130913301431308C030912A
:102190004A01321304C020914B01291711F064E069
:1021A00035C18A3F09F08CC0809137018093780156
:1021B0008091380190E08053984F90937A018093FA
:1021C0007901809139018093770180913B0180935F
:1021D000760180913C018093750180913D0180934F
:1021E000740118A619A61AA61BA664E0CE0188964B
:1021F0000E94040A882309F451C361E085E00E942B
:10220000250761E070E080E090E00E94D7077091C0
:1022100074016091750150917601309177012091A0
:1022200078018091790190917A0140917B01813D03
:10223000F7E09F071CF0805D10E802C08C5610E0AC
:10224000798B6A8B5B8B4C8B3D8B2E8B8F8B81E0DC
:102250008093AB0188E68093CD011092AC0110927F
:10226000CE0160E082E792E00E9465069E012F5E4B
:102270003F4F290100E02AE0B22EF20180816B2D50
:102280000E94341530E1839F900D11249083053016
:1022900019F48E89810F8E8B4FEF441A540A608196
:1022A00082E792E00E9465060F5F073031F781E018
:1022B0000E94560360E085E00E94250763E01EC08F
:1022C0008B3F31F5109137011CA21DA21EA21FA247
:1022D00064E0CE0184960E94040A882309F4DEC2D9
:1022E0001123A1F080914801811739F01093480122
:1022F000612F80E293E00E94090C65E084EF91E099
:102300000E94690AE0E0F0E00995C8C266E07EC07C
:102310008C3F09F052C018A219A21AA21BA264E0B5
:10232000CE0180960E94040A882309F4B7C299E47A
:10233000A92E91E0B92E02E513E0D5011D925D01B1
:1023400060E0C8010E94090C0D5F1F4F0E35B3E01D
:102350001B0799F780914501882329F060E08BE500
:1023600093E00E94090C81E080934C016FEF84E8B8
:1023700093E00E94090C64E084EF91E00E94690AF6
:1023800000E010E084E6A82EB12CC801B5010E943F
:102390004015892B09F4A89560E0C8010E94261514
:1023A00065E070E080E090E00E94D7070F5F1F4F6C
:1023B0000E3EE2E01E0749F7A5CF8D3F91F5198A41
:1023C0001A8A1B8A1C8A80914801898B64E0CE019D
:1023D00041960E94040A882309F460C28DA49EA439
:1023E00015E004E0060DA8955301C501880D991D5F
:1023F0000E94B709D5018D935D010A13F6CF612FB5
:10240000C3010E94040A811104C063E082E390E0EA
:10241000F8C01F5FB4E08B0E911C123321F766E009
:10242000A2C18E3F09F03AC2609137016093490121
:1024300082E593E00E94090C6091380160934A01A3
:1024400085E593E00E94090C6091390160934B018E
:1024500088E593E00E94090C60913A016093440181
:102460008BE593E00E94090C1C8E1D8E1E8E1F8E24
:1024700064E0CE014C960E94040A882309F40EC23F
:1024800062E03CCF10914801193F09F07BC0909168
:10249000430180912F01981321C0909142018091B6
:1024A000300198131BC0809141018823B9F088E066
:1024B0000E94B909882309F4F1C180912F0181118B
:1024C0000DC080913001811109C0809131018111CD
:1024D00005C080913201882309F444C11092410162
:1024E00080912F01809343018091300180934201BC
:1024F00084E00E94370361E084E00E9425078FEFAB
:10250000888F898F8A8F8B8F18E0A895612FC301E0
:102510000E94040A882309F4C1C11F5F1233A9F77E
:10252000198A1A8A1B8A1C8A11E3A895612FCE0189
:1025300041960E94040A882309F4B0C11150173053
:10254000A1F780917F0190918001209181013091CC
:10255000820139832A839B838C8365E0CE010196B7
:102560000E94040A882309F499C160E084E00E9473
:10257000250761E088EC90E00E94690A81E0809381
:1025800041018CC1183F09F053C08091330190E0A4
:10259000A0E0B0E0BA2FA92F982F8827209134010E
:1025A000820F911DA11DB11DBA2FA92F982F882729
:1025B00020913501820F911DA11DB11D2091360181
:1025C00040917F0150918001609181017091820161
:1025D000421B510961097109BA2FA92F982F882729
:1025E0006A017B01C81AD90AEA0AFB0A01EAC01685
:1025F00005E2D00606E2E006F10430F063E088EC84
:1026000090E00E94690A4AC117E088E00E94B90977
:10261000882309F443C11150C1F7EFE2F1E080E1F2
:102620008E0F91919111EACF8E13FBCF61E0E7CF2E
:1026300080914701882309F441C080913301409182
:10264000340130913501209136016091790170910A
:102650007A01613E774094F190E0A0E0B0E0BA2FBB
:10266000A92F982F8827840F911DA11DB11DBA2F66
:10267000A92F982F8827830F911DA11DB11D40916F
:102680007F01509180016091810170918201421B14
:10269000510961097109BA2FA92F982F88276A015A
:1026A0007B01C81AD90AEA0AFB0A01EAC01605E248
:1026B000D00606E2E006F10408F0F0C01092000136
:1026C00040902F01512C542C442480913001480E0D
:1026D000511C4114510409F4E1C068E002E3202ECA
:1026E000312CA62EB12CC1018A0D9B1D9595879585
:1026F0006FA70E94B9096FA5811109C0109200014E
:10270000109201011092020110920301C7C02091A2
:102710002F01C1018A199B0921110BC097FD019658
:1027200095958795062F080F0613D9CF011116C06E
:10273000B5C0209300012091300120930101209128
:10274000310120930201209132012093030197FD72
:10275000019695958795602F681BE6CF80910001C3
:10276000181304C061E084EF91E04BCF623308F0AE
:1027700095C090914601992361F0683021F4103F93
:1027800009F08CC018C1853F09F488C0103F09F4D6
:1027900085C0812F90E0A0E0B0E0382F22271127DC
:1027A000002780917F0190918001A0918101B091DB
:1027B0008201BB27800F911FA21FB31FB983AA8379
:1027C0009B838C83CE0101960E94040A882309F41E
:1027D00065C061E088EC90E00E94690AC20101973F
:1027E0008B3D9540E0F4820143E0169507954A95AC
:1027F000E1F7C8010E94B70927E04222552441E0D1
:1028000050E060E070E004C0440F551F661F771F62
:102810004A94D2F7682F642BC8010E94261581E0E4
:102820008093510110924D0110924E0110924F0170
:102830001092500180E589831A82AE014D5F5F4F8F
:1028400062E0CE0101960E945F01811110C0812CCF
:10285000A12CC12CD12CE12CF12C00E010E024E0C3
:10286000AE014F5F5F4F60E38CE00E949C0168E027
:1028700080E10E9424049FB7F8948091400188234E
:1028800019F081508093400180914001811105C071
:102890008CB58F7B8CBD10922E019FBF809104015F
:1028A00090910501A0910601B09107010097A10543
:1028B000B10519F41092510107C00197A105B105A6
:1028C00019F481E0809351010091510181E08093DE
:1028D0003F0110E0812F0E94370360E0812F0E94AA
:1028E00025071F5F1431B1F710927A00002309F415
:1028F0005DC014BE88E18093600084E48093600032
:10290000A895F89483B7816083BF80E685BF80E493
:1029100085BF7894889583B78E7F83BF10923F01DF
:1029200080914C01882379F103E05524539488E188
:10293000882E91E6992E20E6A22E30E4B32E5092F6
:102940003F0110E0812F0E94370360E0812F0E9439
:1029500025071F5F1431B1F710927A0014BE8092E0
:10296000600090926000A895F89483B7816083BF5F
:10297000A5BEB5BE7894889583B78E7F83BF10922D
:102980003F010150E1F60E94930C30C96FE082E0F4
:102990000E94340161E070E080E090E00E94D7077F
:1029A00082E00E94100184FDFBCFC0C988E18093C2
:1029B000600086E4A3CF853F09F0EBCE6FCFE5ED55
:1029C000F1E01382128288EE93E0A0E0B0E084830D
:1029D0009583A683B7832DE031E03183208325ECF6
:1029E00030E03587248724EC30E03787268720ECD9
:1029F00030E0318B208B21EC30E0338B228B22ECCA
:102A000030E0358B248B26EC30E0378B268B118E13
:102A1000128E138E148EE2E7F2E013821282848308
:102A20009583A683B7838FE191E091838083EEE75E
:102A3000F2E08AE0848789E085870895F999FECFDE
:102A400092BD81BDF89A992780B50895262FF999EE
:102A5000FECF1FBA92BD81BD20BD0FB6F894FA9A81
:102A6000F99A0FBE01960895991B79E004C0991F49
:102A7000961708F0961B881F7A95C9F780950895D8
:102A8000AA1BBB1B51E107C0AA1FBB1FA617B70794
:102A900010F0A61BB70B881F991F5A95A9F78095B0
:102AA0009095BC01CD01089597FB072E16F4009474
:102AB00007D077FD09D00E94401507FC05D03EF4F1
:102AC000909581959F4F0895709561957F4F0895DA
:102AD000A1E21A2EAA1BBB1BFD010DC0AA1FBB1F22
:102AE000EE1FFF1FA217B307E407F50720F0A21B94
:102AF000B30BE40BF50B661F771F881F991F1A9401
:102B000069F760957095809590959B01AC01BD012A
:102B1000CF010895A29FB001B39FC001A39F700D84
:102B2000811D1124911DB29F700D811D1124911DD5
:102B300008950E948A15A59F900DB49F900DA49FA3
:102B4000800D911D11240895EE0FFF1F0590F49143
:102B5000E02D099481E090E0F8940C94B815FB0105
:102B6000DC0102C001900D9241505040D8F7089509
:042B7000F894FFCF07
:102B7400FF00000080510100FF00000000C9007D3B
:102B840005560CBE0C870C650C790C000000006522
:0E2B9400063506950609062D0619060A0600E6
:107E0000112484B714BE83FF04C09091FE089F33F1
:107E100008F4282E8D7029F080E0C9D0E0E0FF271B
:107E2000099400D01F92CDB7DEB785E08093810022
:107E300082E08093C00088E18093C10086E0809357
:107E4000C20080E18093C4008EE0B1D0259A26E084
:107E500080E39CEF31E0909385008093840036BBF3
:107E6000B09BFECF1D9AA8952150A9F7812C912C8B
:107E700093E0F92EEE24E39425E0D22E31E1C32ED7
:107E80008AD0813479F487D0898397D089818238E8
:107E900011F482E005C0813811F486E001C083E06E
:107EA00073D06FC0823411F484E103C0853419F4B7
:107EB00085E08BD066C0853541F46DD0882E6BD0BF
:107EC000912C982A880C991C5BC0863521F484E09B
:107ED0007CD080E0E5CF843609F036C05CD05BD042
:107EE000B82E59D0A82E00E011E055D0F8018193AA
:107EF0008F01BE12FACF61D0F5E4AF1201C0FFCFFF
:107F0000F401F7BEE89507B600FCFDCFB401A0E090
:107F1000B1E02C911296AD0141505109FA018081D6
:107F200030E0382BFB010901E7BEE89511246E5FB4
:107F30007F4FBA12EECFF401D7BEE89507B600FC2A
:107F4000FDCFC7BEE8951DC0843769F424D023D087
:107F5000B82E21D032D08401F80185918F0114D040
:107F6000BA94D1F70EC0853739F427D08EE10CD002
:107F700085E90AD08FE094CF813511F488E017D0DD
:107F80001CD080E101D07CCF9091C00095FFFCCF48
:107F90008093C60008958091C00087FFFCCF809138
:107FA000C00084FD01C0A8958091C6000895E0E658
:107FB000F0E098E1908380830895EDDF803219F03E
:107FC00088E0F5DFFFCF84E1DFCFCF93C82FE3DF79
:087FD000C150E9F7CF91F1CF98
:027FFE00020679
:0400000300007E007B
:00000001FF
