:100000000C9469000C9491000C9491000C94910054
:100010000C9491000C9491000C94220C0C945507B4
:100020000C9491000C9491000C9491000C9491000C
:100030000C9491000C9491000C9491000C949100FC
:100040000C9411080C9491000C94CA060C94A4060C
:100050000C9491000C9491000C9491000C949100DC
:100060000C9489080C9491000000000023002600E5
:10007000290000000008000201000003040700003E
:100080000000000000001F1C1F1E1F1E1F1F1E1F40
:100090001E1F00000000250028002B0000000000AB
:1000A000240027002A0004040404040404040202B7
:1000B00002020202030303030303010204081020E7
:1000C00040800102040810200102040810200200F0
:1000D000651411241FBECFEFD8E0DEBFCDBF11E005
:1000E000A0E0B1E0E0E8FAE202C005900D92AE3285
:1000F000B107D9F722E0AEE2B1E001C01D92A13F05
:10010000B207E1F710E0C9E6D0E004C02197FE0194
:100110000E942A15C836D107C9F70E94E00C0C943A
:100120003E150C940000CF92DF92FF920F931F9325
:10013000CF93DF931F92CDB7DEB7082F162F83E53D
:1001400090E079830E94730860E0809188020E94A9
:10015000250782E10E946C08F12EC12E7981D72EED
:100160008C2D8F19801730F4F60181916F010E9458
:100170006C08F6CF61E0809188020E9425070F90FD
:10018000DF91CF911F910F91FF90DF90CF900C9452
:100190005B08EF92FF920F931F93CF93DF93EC01D5
:1001A00081E0888F9B8D8C8D981305C0E889F98933
:1001B000808185FD24C0F62E0B8D10E00F5F1F4F50
:1001C0000F731127E02E8C8DE8120CC00FB607FCC0
:1001D000FACFE889F989808185FFF5CFCE010E94A9
:1001E0009D0CF1CF8B8DFE01E80FF11DE35AFF4FFF
:1001F000F0820B8FEA89FB898081806207C0EE89DB
:10020000FF896083E889F98980818064808381E047
:1002100090E0DF91CF911F910F91FF90EF900895A3
:100220000F931F93CF93C82F83E590E00E9473082C
:100230000CE712E060E0F80184850E9425078C2F0E
:100240008E7780680E946C0880E00E946C08C82F3E
:1002500061E0F80184850E9425070E945B088C2FCD
:10026000CF911F910F9108950F931F93CF93DF9319
:10027000082F162F83E590E00E947308CCE7D2E0A8
:1002800060E08C850E942507802F8E770E946C0885
:10029000812F0E946C0861E08C850E942507DF9108
:1002A000CF911F910F910C945B08CF93C82F0E94A0
:1002B0001001682F60688C2FCF910C943401EF925D
:1002C000FF920F931F93CF93DF937C01C62F8A0178
:1002D00060E082E00E94340164E08AE00E94340120
:1002E00084E10E945501B7018C2F0E94930063E0C6
:1002F00082E00E943401C8E8D3E18AE00E94100144
:1003000082FD04C02197C9F783E00FC060E082E05E
:100310000E94340184E40E941001F801808382E489
:100320000E941001F801818380E0DF91CF911F913D
:100330000F91FF90EF9008952F923F924F925F920E
:100340006F927F928F929F92AF92BF92CF92DF92E5
:10035000EF92FF920F931F93CF93DF9300D01F92E2
:10036000CDB7DEB7982E762E2A01C114D10419F02C
:10037000F601608101C060E0662EF0E1AF9E600C86
:10038000112460E082E02B830E9434016FE788E053
:100390000E94340184E10E945501B2012B81822F19
:1003A0000E949300662D8AE10E943401692D82E04B
:1003B0000E9434018CE0981203C08AE10E9455012A
:1003C00090ED492E97E0592E88E00E941001982F59
:1003D000972139F480FDA8C0E1E04E1A5108A1F739
:1003E000A3C08CE00E941001382E837109F09EC0DA
:1003F0000115110509F465C0E114F10409F461C0A7
:1004000084E10E941001982EF7018081891508F47B
:100410008FC09082992009F44AC083E590E00E9441
:10042000730860E0809188020E9425079A9482E90F
:100430000E946C08202E380144244394512C862DB0
:100440008219891528F581111AC0AA20C1F08A2DB8
:10045000B12C883048F49201082E01C0220F0A9472
:10046000EAF7B22A8F5FF5CF82E90E946C082B2D44
:100470002095F801908192238B21892B04C082E979
:100480000E946C08F3018083FFEF6F1A7F0AD7CFB9
:100490005801A90CB11C80E00E946C08F501808312
:1004A00061E0809188020E9425070E945B0888E134
:1004B0000E9410018770B82EC114D10411F0F6010A
:1004C000808333FC37C001151105B1F1E114F1044B
:1004D00099F1882089F1F7016081613021F4F4E01D
:1004E000BF1203C01FC0623010F487E026C0B110F5
:1004F000FCCF6250AE014F5F5F4FC8010E945F01A9
:1005000081111BC0F7018081080F111DF80132977E
:10051000908189819813E9CF319690818A819813CF
:10052000E4CF0AC08FEF09C083E007C081E005C0B7
:1005300084E003C082E001C080E00F900F900F9034
:10054000DF91CF911F910F91FF90EF90DF90CF90AF
:10055000BF90AF909F908F907F906F905F904F90E3
:100560003F902F9008958F92AF92CF92DF92EF92AB
:10057000FF920F931F93CF93DF9361157105F9F0ED
:10058000FA0190819231D8F07A01EB0190E39883DF
:100590008983AB014E5F5F4F62E0CE010E945F0135
:1005A00081110EC088248394A12CC12CD12C8E01E2
:1005B00024E0AE0160E38CE00E949C0101C084E075
:1005C000DF91CF911F910F91FF90EF90DF90CF902F
:1005D000AF908F9008958F92AF92CF92DF92EF926B
:1005E000FF920F931F93CF93DF93CDB7DEB72C9776
:1005F0000FB6F894DEBF0FBECDBF90E699838A8315
:10060000DE011396EDECF1E086E08E0F91919D9363
:100610008E13FCCF80917D02898780917E028A872C
:1006200080917F028B87809180028C87812CA12C06
:10063000C12CD12CE12CF12C00E010E02CE0AE011B
:100640004F5F5F4F60E18EE00E949C012C960FB6D9
:10065000F894DEBF0FBECDBFDF91CF911F910F91F8
:10066000FF90EF90DF90CF90AF908F90089590E043
:10067000FC01E654FF4F2491FC01EA55FF4F8491A1
:10068000882399F090E0880F991FFC01E456FF4FF2
:10069000A591B491FC01EE56FF4F859194918FB7CF
:1006A000F894EC91E22BEC938FBF0895482F2091A2
:1006B000CC019091CB01213208F05DC01092A701CE
:1006C0008091A7018091A801882331F03091A70182
:1006D0003F5F3093A701F4CF32E03093A8014093FD
:1006E000A6013FEF3093A5011092A4012093A3012E
:1006F000ABEAB1E043E851E0FA013E2F341B321778
:1007000018F43D913193F9CF10928201209182012A
:10071000990F922B9093820190918101913061F415
:1007200010928101909182019093BB009091BC0046
:1007300093FDF8CF95EC01C095EE9093BC0010921C
:10074000A7019091A7019091A801923031F4909166
:10075000A7019F5F9093A701F4CF9091A5019F3FC0
:1007600079F08091A501803241F08091A50180331C
:1007700031F084E005C081E003C082E001C083E085
:100780001092AA011092CC011092A90108958F92A3
:10079000AF92CF92DF92EF92FF920F931F93CF937E
:1007A000DF93CDB7DEB764970FB6F894DEBF0FBE08
:1007B000CDBF162FE62EF12CA701BC01CE0101966C
:1007C0000E94351541E050E04C0F5D1F4E0D5F1D3E
:1007D000612FCE0101960E945F01811124C082E148
:1007E0008C8B1B8A22E0210F812CA12CCE014396F9
:1007F0006C0101967C018E010F5F1F4FA80160E321
:100800008CE00E949C0181110EC08C89813051F4D2
:100810008B89843039F481E099819A3009F480E041
:10082000819501C081E064960FB6F894DEBF0FBEDB
:10083000CDBFDF91CF911F910F91FF90EF90DF908F
:10084000CF90AF908F9008951F93CF93DF931F9217
:10085000CDB7DEB7182F69830E94100169816095BA
:100860006823812F0F90DF91CF911F910C94340159
:10087000CF92DF92EF92FF920F931F93CF93DF936C
:10088000CDB7DEB727970FB6F894DEBF0FBECDBF4A
:1008900081E08093A90188E68093CB011092AA01A0
:1008A0001092CC0160E080E792E00E94650681E052
:1008B0000E9456031092A7018091A7018091A80180
:1008C000882331F08091A7018F5F8093A701F4CF37
:1008D00081E08093A8018093A6019FEF9093A501EA
:1008E0001092A40196E09093A301809382018091DD
:1008F0008201806D8093820180918101813061F459
:1009000010928101809182018093BB008091BC0094
:1009100083FDF8CF85EC01C085EE8093BC0010927A
:10092000A7018091A7018091A801813031F48091C5
:10093000A7018F5F8093A701F4CF8091A401873036
:1009400018F48091A40101C087E0A3E8B1E022E59A
:1009500031E0F9019E2F921B981718F49D91919305
:10096000F9CF10925101809350019E012F5F3F4FAC
:10097000790100E010E080E792E00E941906982FCC
:100980009F70153079F484FB222720F9220F322F33
:10099000330F330F230F920F9E83082F001F002762
:1009A000001F08C082958F703AE0839F900D11243C
:1009B000F70190831F5FFFEFEF1AFF0A1730D9F698
:1009C0003F81832F90E0013019F48053984F02C08B
:1009D0008459984F6981609372011A811093730151
:1009E0000B81009374012D81209375017E8170939A
:1009F000760190937801809377014C81409379013F
:100A000030937C01803D37E0930708F45CC0DC0143
:100A1000A05DB74030E0A90141505109E6E8F0E09F
:100A200021E02E1B322F3E0F371728F43491430F4D
:100A3000511D3196F7CF733038F09D012370332765
:100A4000232B11F44F5F5F4FEDE6F1E0AE9F900175
:100A5000AF9F300DBE9F300D11248D5C9740959552
:100A6000879595958795820F931F9A01280F391FB7
:100A7000862F90E0A0E0B0E06C017D0140E8C41A50
:100A80004CEBD40A42E9E40A47ECF40AA8E1B0E0EE
:100A90000E9410159B01AC01200F311D411D511DFD
:100AA000ACE3B0E00E941F159B01AC01210F311D8A
:100AB000411D511D0E941F15DC01CB018C0D9D1D98
:100AC000AE1DBF1D03C080E090E0DC0180937D017E
:100AD00090937E01A0937F01B093800127960FB67B
:100AE000F894DEBF0FBECDBFDF91CF911F910F9164
:100AF000FF90EF90DF90CF900895CF92DF92EF922A
:100B0000FF920F931F93CF93DF936C017A018B01B8
:100B1000C0E0D0E0CE15DF0589F0D8016D918D01E0
:100B2000D601ED91FC910190F081E02DC60109956F
:100B3000892B11F47E0102C02196ECCFC701DF9111
:100B4000CF911F910F91FF90EF90DF90CF9008957C
:100B50003FB7F8948091E6029091E702A091E802F5
:100B6000B091E90226B5A89B05C02F3F19F0019668
:100B7000A11DB11D3FBFBA2FA92F982F8827820F23
:100B8000911DA11DB11DBC01CD0143E0660F771F72
:100B9000881F991F4A95D1F7089585ED8093BC0071
:100BA0001092A7018091A7018091BC0084FF06C02C
:100BB0008091A7018F5F8093A701F4CF1092A801C5
:100BC00008954091BB02262F30E0240F311D2132C1
:100BD0003105DCF42091A8012430C9F4FC0180E047
:100BE00090E0861758F43091BB022191DC01A756A2
:100BF000BD4FA30FB11D2C930196F3CF8091BB0283
:100C0000680F6093BB0280E0089581E0089582E060
:100C100008950895E091510180915001E81730F452
:100C2000F0E0EE5AFE4F808190E008958FEF9FEF45
:100C300008959091510180915001981750F4E92F37
:100C4000F0E0EE5AFE4F208130E09F5F909351011B
:100C500002C02FEF3FEFC90108958091500190E04D
:100C600020915101821B91090895CF92DF92EF925A
:100C7000FF920F931F93CF93DF937C01262F972F23
:100C80008A018091A901882391F0C62FD72F6E0188
:100C9000C40ED51ECC15DD0571F06991D701ED911B
:100CA000FC910190F081E02DC7010995F3CF642FED
:100CB000822F0E94E105C801DF91CF911F910F9112
:100CC000FF90EF90DF90CF900895CF93DF931F9226
:100CD000CDB7DEB769832091A9012223D1F02091FD
:100CE000CC01203240F021E030E0FC01338322834C
:100CF00080E090E015C08091AA01E82FF0E0E55572
:100D0000FE4F998190838F5F8093AA018093CC01DD
:100D100005C061E0CE0101960E94E10581E090E00E
:100D20000F90DF91CF910895089580E090E00895AD
:100D30000E94301583ED91E00E94870C21E0892B01
:100D400009F420E0822F08951F920F920FB60F92A0
:100D500011242F933F934F935F936F937F938F93C0
:100D60009F93AF93BF93EF93FF9383ED91E00E9426
:100D70009D0CFF91EF91BF91AF919F918F917F91CA
:100D80006F915F914F913F912F910F900FBE0F90F8
:100D90001F9018951F920F920FB60F9211242F9348
:100DA0008F939F93EF93FF93E091E301F091E40120
:100DB0008081E091E901F091EA0182FD12C0908109
:100DC0008091EC018F5F8F732091ED01821751F0BC
:100DD000E091EC01F0E0ED52FE4F958F8093EC0135
:100DE00001C08081FF91EF919F918F912F910F9082
:100DF0000FBE0F901F901895833081F028F481303A
:100E000099F08230A1F008958730A9F08830B9F0C8
:100E10008430D1F4809180008F7D03C08091800068
:100E20008F7780938000089584B58F7702C084B552
:100E30008F7D84BD08958091B0008F7703C080912D
:100E4000B0008F7D8093B00008951F93CF93DF9300
:100E5000282F30E0F901EE58FF4F8491F901E65454
:100E6000FF4FD491F901EA55FF4FC491CC23C9F04B
:100E7000162F81110E94FC06EC2FF0E0EE0FFF1FF1
:100E8000EE56FF4FA591B4918FB7F894111105C09C
:100E90009C91ED2FE095E92302C0EC91ED2BEC93B2
:100EA0008FBFDF91CF911F9108951F920F920FB6C0
:100EB0000F9211242F933F934F935F936F937F93E0
:100EC0008F939F93AF93BF93EF93FF938091ED0226
:100ED0009091EE02A091EF02B091F002892B8A2B43
:100EE0008B2B59F18091EC02E091EA02F091EB0238
:100EF0009081892780838091ED029091EE02A091EC
:100F0000EF02B091F002181619061A061B060CF033
:100F10003DC08091ED029091EE02A091EF02B09160
:100F2000F0020197A109B1098093ED029093EE02BE
:100F3000A093EF02B093F00229C080910801EEEC7B
:100F4000F0E0E4919FEF90930801E130B9F098F060
:100F5000E230C9F4909170009D7F9093700091E011
:100F60009093B0009091B100987F94609093B100FD
:100F70001092B30008C010926E0005C090916F00EF
:100F80009D7F90936F0060E00E942507FF91EF9195
:100F9000BF91AF919F918F917F916F915F914F9191
:100FA0003F912F910F900FBE0F901F9018958F9229
:100FB0009F92AF92BF92CF92DF92EF92FF926B011E
:100FC0007C010E94A8054B015C01C114D104E1041D
:100FD000F104F1F00E94A805DC01CB018819990900
:100FE000AA09BB09883E9340A105B10570F321E031
:100FF000C21AD108E108F10888EE880E83E0981E35
:10100000A11CB11CC114D104E104F10419F7DDCF16
:10101000FF90EF90DF90CF90BF90AF909F908F9018
:1010200008951F920F920FB60F9211242F933F93A2
:101030008F939F93AF93BF938091E2029091E302CD
:10104000A091E402B091E5023091E10226E0230F85
:101050002D3720F40296A11DB11D05C029E8230FEC
:101060000396A11DB11D2093E1028093E2029093AB
:10107000E302A093E402B093E5028091E60290912E
:10108000E702A091E802B091E9020196A11DB11D0D
:101090008093E6029093E702A093E802B093E902FE
:1010A000BF91AF919F918F913F912F910F900FBE64
:1010B0000F901F90189580912E01882361F09FB7A3
:1010C000F89420912E018091E002213019F48DBB1B
:1010D0009FBF08958FBF08958EBD00000DB407FE19
:1010E000FDCF8EB5089520912E01222379F02FB7E0
:1010F000F89430912E01313039F43DB33093E00251
:101100003DB33DBB2FBF02C02093E0028CBD9DBD0F
:1011100008951F920F920FB60F9211242F933F93B1
:101120004F935F936F937F938F939F93AF93BF93EF
:10113000EF93FF938091B900887F803609F49CC0BB
:1011400068F5883209F45BC090F4803109F454C02A
:1011500038F4882309F4F6C0883009F44DC0F6C08D
:10116000883109F44CC0803209F45DC0EFC080348E
:1011700009F468C048F4803309F455C0883309F095
:10118000E5C08093A501D8C0803509F44FC08835EB
:1011900009F45DC0883409F0D9C0D6C0883909F493
:1011A000C7C0A8F4883709F467C038F4883609F452
:1011B00063C0803709F460C0C9C0883809F4B8C07A
:1011C000803909F45FC0803809F0C0C05BC0803B43
:1011D00009F486C038F4803A09F466C0883A09F404
:1011E0007FC0B4C0803C09F4A7C0883C09F4A4C007
:1011F000883B09F48AC0AAC08091820110C09091F6
:10120000A4018091A301981770F5E091A40181E0F9
:101210008E0F8093A401F0E0ED57FE4F8081809304
:10122000BB0085EC86C08093A5018EC0E091A4012F
:1012300081E08E0F8093A4018091BB00F0E0ED5718
:10124000FE4F80839091A4018091A3016EC0E09134
:10125000A40181E08E0F8093A4018091BB00F0E097
:10126000ED57FE4F80838091A60181116DC081E012
:101270008093810184EA61C083E08093A801109289
:10128000DF02CFCF8091DF02803208F051C0E091C1
:10129000DF0281E08E0F8093DF028091BB00F0E0DF
:1012A000E154FD4F8083BDCF85EC8093BC0010924C
:1012B000A8018091DF02803230F4E091DF02F0E09B
:1012C000E154FD4F10826091DF0270E0E091BD02B9
:1012D000F091BE028FEB92E009951092DF0236C0CA
:1012E00084E08093A8011092BC021092BB02E091AE
:1012F000B902F091BA0209958091BB02811105C033
:1013000081E08093BB0210929902E091BC0281E0DF
:101310008E0F8093BC02F0E0E756FD4F80818093F2
:10132000BB009091BC028091BB02981708F479CF62
:1013300085E88093BC000AC085EC8093BC001092C5
:10134000A80104C01092A5010E94CD05FF91EF9164
:10135000BF91AF919F918F917F916F915F914F91CD
:101360003F912F910F900FBE0F901F9018950C94E6
:10137000A4140F931F93CF93DF93CDB7DEB763977A
:101380000FB6F894DEBF0FBECDBF082F1DEF180FAC
:1013900090E0039763E070E00E94DA14160F82E198
:1013A0008B8B812F80958370810F0E94EB0280933D
:1013B0009802882311F080E01CC0AE014D5E5F4FA3
:1013C000BE016F5F7F4F812F0E94B302809398020E
:1013D0008111F1CFAFE2B1E0FE01319680E18E0FD5
:1013E00091919D938E13FCCF033011F41092310133
:1013F00081E063960FB6F894DEBF0FBECDBFDF91DC
:10140000CF911F910F9108951F93CF93DF93CDB785
:10141000DEB7A3970FB6F894DEBF0FBECDBFFC01B9
:101420001DEF160F262F30E0C901039763E070E02F
:101430000E94DA14160F80818B8B81818C8B8281C4
:101440008D8B83818E8B82E18BA3812F809583701E
:10145000810F0E94EB028093980281112FC080EAD5
:1014600089831A8362E0CE0101960E94C70381112D
:1014700005C060E1CE0143960E94C70380939802A5
:1014800081111CC0AE014D5D5F4FBE016F5F7F4F8C
:10149000812F0E94B3028093980281110FC099811D
:1014A00090932F018A81809330018B818093310149
:1014B0008C818093320181E02B89921380E0A39686
:1014C0000FB6F894DEBF0FBECDBFDF91CF911F9155
:1014D00008952F923F924F925F926F927F928F92D8
:1014E0009F92AF92BF92CF92DF92EF92FF920F93B3
:1014F0001F93CF93DF9300D000D01F92CDB7DEB7FC
:101500008C01F62E84E00E94370383E00E943703AB
:101510002801612C712C9801A0E4BFE10E941015F4
:1015200028EE33E040E050E00E94EE1429833A8335
:101530001A018F2D90E09D838C8300E010E03EEC3B
:10154000832E30E0932E49EAE42E40E0F42E5DEB4A
:10155000C52E50E0D52E5C0191E0A91AB1088C810E
:101560009D810817190709F417C161E084E00E9402
:10157000250780910801833019F4F401949172C019
:101580008F3F09F0F5C083E080930801F401949146
:101590009F3F09F4EDC0913009F1923009F440C049
:1015A000911160C014BC15BC84B5826084BD85B542
:1015B000816085BDF7018491E82FF0E0EE0FFF1FF9
:1015C000EE56FF4F8591949190938F0280938E02F7
:1015D000F601849180938D0290E046C010928000C5
:1015E00010928100809181008860809381008091B9
:1015F0008100816080938100F7018491E82FF0E001
:10160000EE0FFF1FEE56FF4F8591949190938C0241
:1016100080938B02F601849180938A0291E024C02A
:101620001092B0001092B1008091B000826080935F
:10163000B0008091B10081608093B100F701849186
:10164000E82FF0E0EE0FFF1FEE56FF4F85919491CB
:101650009093EB028093EA02F60184918093EC026E
:1016600092E002C097FD84C083E09B830E94370311
:101670009B81992319F09230E9F40CC085B5887FDD
:10168000826085BD4114510461047104C1F12CE7ED
:1016900030E02BC08091B100887F82608093B100E0
:1016A000411451046104710491F74FEF5FEFBA01E7
:1016B0002CE74FC0913071F480918100887F816068
:1016C00080938100411451046104710459F127EEA3
:1016D00033E00BC04114510461047104C1F727EEDB
:1016E00033E04FEF5FEFBA0103C049815A81B10186
:1016F0009130E9F0923069F191113AC004C04FEF96
:101700005FEFBA012CE727BD4093940250939502F6
:10171000609396027093970280916E00826080932E
:101720006E0026C04FEF5FEFBA0127EE33E0309333
:101730008900209388004093900250939102609317
:1017400092027093930280916F00826080936F0089
:101750000FC02093B3004093ED025093EE026093CC
:10176000EF027093F00280917000826080937000AD
:10177000C301B2010E94D707A89560E084E00E94EF
:1017800025070A151B052CF4C301B2010E94D707D7
:10179000A8950F5F1F4FE3CE0F900F900F900F9003
:1017A0000F90DF91CF911F910F91FF90EF90DF90FD
:1017B000CF90BF90AF909F908F907F906F905F90F1
:1017C0004F903F902F9008950F931F93CF93DF93E7
:1017D0008C010E94B709C82FC80101960E94B70961
:1017E000D82FC81739F0C80102960E94B709C8134C
:1017F00003C00AC08C2F08C0D81731F063E082E321
:1018000090E00E94690A80E0DF91CF911F910F91D3
:101810000895FF920F931F93CF93DF938C01F62EC1
:10182000C0E0D0E06F2DCE01800F911F0E94AC145C
:101830002196C330D105B1F7DF91CF911F910F9160
:10184000FF9008951F920F920FB60F9211242F93BD
:101850003F934F935F936F937F938F939F93AF9338
:10186000BF93EF93FF930FB6F894A8958091600013
:10187000886180936000109260000FBE80913F01EC
:10188000811103C0E0E0F0E00995FF91EF91BF9175
:10189000AF919F918F917F916F915F914F913F9108
:1018A0002F910F900FBE0F901F901895FC01538D34
:1018B000448D252F30E0842F90E0821B930B54172A
:1018C00010F0CF96089501970895FC01918D828DB7
:1018D000981761F0828DDF01A80FB11D5D968C9184
:1018E000928D9F5F9F73928F90E008958FEF9FEF8F
:1018F0000895FC01918D828D981731F0828DE80F4B
:10190000F11D858D90E008958FEF9FEF0895FC0104
:10191000918D228D892F90E0805C9F4F821B9109D1
:101920008F739927089580E090E0892B29F00E9419
:101930009A0681110C9400000895FC01848DDF014A
:10194000A80FB11DA35ABF4F2C91848D90E0019632
:101950008F739927848FA689B7892C93A089B18921
:101960008C9180648C93938D848D981306C002882B
:10197000F389E02D80818F7D80830895CF93DF935D
:10198000EC01888D8823C9F0EA89FB89808185FD77
:1019900005C0A889B9898C9186FD0FC00FB607FCD8
:1019A000F5CF808185FFF2CFA889B9898C9185FF19
:1019B000EDCFCE010E949D0CE7CFDF91CF9108952E
:1019C000CF93DF93CDB7DEB7AB970FB6F894DEBFFA
:1019D0000FBECDBF789484B5826084BD84B581602C
:1019E00084BD85B5826085BD85B5816085BD8091EA
:1019F0006E00816080936E00109281008091810062
:101A00008260809381008091810081608093810059
:101A1000809180008160809380008091B10084601B
:101A20008093B1008091B00081608093B00080917C
:101A30007A00846080937A0080917A00826080933B
:101A40007A0080917A008E7F80937A0080917A006C
:101A5000806880937A001092C1008FEF8093CD014F
:101A60008093CE018093CF018093D0018093D101E8
:101A70008093D20185E00E94370361E085E00E94F7
:101A8000250761E070E080E090E00E94D70781E0E8
:101A90008093A90188E68093CB011092AA0110924D
:101AA000CC016EE080E792E00E94650664E080E78A
:101AB00092E00E94650681E00E9456030E9438046D
:101AC00060E085E00E942507809177019091780180
:101AD000813E97402CF463E082E390E00E94690A23
:101AE00083B7817F846083BF80E293E00E94E40B30
:101AF0008093460184E893E00E94E40B91E0811119
:101B000001C090E090934A0182E593E00E94E40BCB
:101B1000182F8093470185E593E00E94E40B8093A2
:101B2000480188E593E00E94E40B809349018BE52E
:101B300093E00E94E40B809344011F3F41F4109214
:101B4000440110924901109248011092470190916E
:101B50004401892F837029F440E851E561E070E089
:101B600016C0813029F440E05CE86AE070E00FC004
:101B7000823049F41092040110920501109206017E
:101B8000109207010CC041E050E060E070E040932B
:101B9000040150930501609306017093070192FFC1
:101BA00004C081E08093450102C01092450168E8BD
:101BB00073E180E090E00E94D70761E080E293E06B
:101BC0000E94690A3E0118E1610E711C2227332729
:101BD000261937093AA729A79EE088E10FB6F8949D
:101BE000A895809360000FBE9093600080914F0194
:101BF000882351F180914B0190914C01A0914D01AE
:101C0000B0914E010196A11DB11D80934B0190939F
:101C10004C01A0934D01B0934E01409104015091AD
:101C200005016091060170910701481759076A077D
:101C30007B0750F410924F0110924B0110924C010F
:101C400010924D0110924E01BFB6F8948091400160
:101C5000811124C0E0EBF0E08491E4ECF0E0949199
:101C6000E82FF0E0EE0FFF1FE456FF4FA591B4916F
:101C7000EC91E92321F461E08AE00E9425078AE0E3
:101C80000E9437038CB580618CBD8CB580648CBD9F
:101C90008DE00E9437038BE00E9437038091400162
:101CA0008F5F80934001BFBE809188020E943703FE
:101CB00061E0809188020E942507809189020E943C
:101CC00037032091890230E0F901EE58FF4F8491EB
:101CD000F901E654FF4F1491F901EA55FF4FB49012
:101CE000BB2079F081110E94FC06EB2DF0E0EE0F95
:101CF000FF1FE859FF4FA591B491EC911E2309F005
:101D0000CBC561E0809189020E94250761E070E007
:101D100080E090E00E94D70760E884E50E943401EB
:101D200066E486E50E94340163E088E50E943401A0
:101D300068EE8AE50E94340160E48AE20E94340180
:101D40006DE382E20E94340160E78CE40E9434017A
:101D500088E20E941001982F9370933029F0682F29
:101D6000636088E20E94340182E0888F86E288A75F
:101D700060E88CE10E94240487E0898B812CA12CEF
:101D8000CE0141966C0173018E010F5F1F4F21E060
:101D9000AE01485D5F4F60E38CE00E949C018111C1
:101DA00008C0888D823009F0FFC489898111FCC484
:101DB00003C0823009F0F8C460E88CE10E9424047A
:101DC00083E9898399249394312CB12C73E0272ED5
:101DD00090E2B9121BC0A0E7AA839C818B8189275E
:101DE0009D8189279E8189278F83AE01485F5F4F40
:101DF00067E0CE0101960E945F018111DEC0188E5E
:101E0000298AFE0137962F0129E027C08B2D87787C
:101E100087FF03C08150886F8F5F888F9B2DB7FE2F
:101E200002C097E09B0D95959595959532E0390FF9
:101E3000282FF0E13F9F200D11242A8321E08111FA
:101E400001C020E0230F44244394512C4C0E5D1E0E
:101E5000430E511C87E0891B898BA88C6A2D6295E3
:101E6000607F6A0D8AE12BA70E943401812C6301F7
:101E70008E010F5E1F4F780182012BA5AE014F5FCF
:101E80005F4F60E38CE00E949C01823091F58CE111
:101E90000E94100185FD88C48F7109F480E2282F0B
:101EA00030E04B2DBB0C550B421753070CF07CC494
:101EB000B82EC901019787709927259525952595F5
:101EC00031E0320F21E0009709F420E0230FE1E038
:101ED000F0E0EC0FFD1FE20FF11D21E030E002C049
:101EE000220F331F8A95E2F7C9019081892B8083E5
:101EF0006FCF811162C030E2B31619F060E2B62EE6
:101F00006ACF8B81883819F052E044E002C053E078
:101F100043E080E090E0232D30E0FC01E20FF31F6E
:101F2000E458FD4F652F680FA1E0B0E0AC0FBD1F76
:101F3000A60FB11D6C9161830196841770F3898996
:101F4000833009F031C4888D81112EC4AE014D5FFC
:101F50005F4F61E0C2010E945F0181112EC09B8131
:101F6000D20111968C91119798131EC49C811296E0
:101F70008C911297981318C48C9182FF15C093947A
:101F8000B2E09B1205C085E98983F3E03F2E1DCFA7
:101F9000E3E09E1205C087E98983E6E03E2E15CF77
:101FA000F1E09F1201C40CCF80938702892D880F26
:101FB000980E939490927C0202C08111F5C361E067
:101FC00085E00E94250761E070E080E090E00E94DB
:101FD000D7070E94380460E085E00E9425078091C1
:101FE0004A01882309F466C010924A0160E084E83F
:101FF00093E00E94090C99E288E10FB6F894A89545
:10200000809360000FBE90936000A89584E00E94CA
:10201000370361E084E00E94250768E873E180E00F
:1020200090E00E94D7071AE0812C912C54010EE415
:1020300080917A00806880937A0000937C006BE442
:1020400070E080E090E00E94D70780917A00806481
:1020500080937A0080917A0086FDFCCF20917800F1
:102060008091790030E0382B032E000C440B550B87
:1020700064EB7BE281E190E00E94EE14820E931EFD
:10208000A41EB51E1150A1F608E1801609E79006BE
:10209000A104B10410F463E001C061E088EE93E0B4
:1020A0000E94690A60E084E00E942507A895E0E0AC
:1020B000F0E0099584E00E94B909882309F474C30B
:1020C000809131018F3F09F0C5C190912F01998313
:1020D000909130019A838B83809132018C8385E0CB
:1020E0000E94B909882309F45FC380912F018D8371
:1020F000809130018E83809131018F8380913201F4
:10210000888786E00E94B909882309F44DC380912D
:102110002F018987809130018A87809131018B87D7
:10212000809132018C8787E00E94B909882309F4E5
:102130003BC380912F018D87809130018E878091E4
:1021400031018F8780913201888BAFE2B1E0FE01CF
:10215000319680E18E0F91919D938E13FCCF8091EB
:102160003001209134019091350140914701309127
:10217000330143131CC130914801321318C120911F
:102180004901291314C18A3F09F08BC0809137019E
:10219000809376018091380190E08053984F90931E
:1021A0007801809377018091390180937501809146
:1021B0003B018093740180913C0180937301809175
:1021C0003D01809372011CA21DA21EA21FA264E009
:1021D000CE0184960E94040A882309F4E8C061E0D5
:1021E00085E00E94250761E070E080E090E00E94B9
:1021F000D707709172016091730150917401309111
:10220000750120917601809177019091780140913C
:102210007901813DF7E09F071CF0805D10E802C066
:102220008C5610E0798B6A8B5B8B4C8B3D8B2E8BA5
:102230008F8B81E08093A90188E68093CB01109277
:10224000AA011092CC0160E080E792E00E9465064E
:102250009E012F5E3F4F290100E04AE0B42EF201BB
:1022600080816B2D0E94BA1430E1839F900D112460
:102270009083053019F48E89810F8E8B4FEF441AAD
:10228000540A608180E792E00E9465060F5F073084
:1022900031F781E00E94560360E085E00E94250747
:1022A0001FC08B3F31F510913701198A1A8A1B8A9A
:1022B0001C8A64E0CE0141960E94040A882309F436
:1022C00076C080914601811709F471C0112309F489
:1022D0006EC010934601612F80E293E00E94090CCA
:1022E00065E08CE291E00E94690AE0E0F0E0099587
:1022F0005BC28C3F09F04BC018A219A21AA21BA204
:1023000064E0CE0180960E94040A882309F44FC03D
:102310001092470160E082E593E00E94090C109260
:10232000480160E085E593E00E94090C10924901A4
:1023300060E088E593E00E94090C81E080934A0107
:102340006FEF84E893E00E94090C63E084E690E07C
:102350000E94690A00E010E034E6A32EB12CC80107
:10236000B5010E94C614892B09F4A89560E0C80144
:102370000E94AC1465E070E080E090E00E94D70716
:102380000F5F1F4F0E3EF2E01F0749F7AECF8D3FA4
:1023900081F5198A1A8A1B8A1C8A80914601898BC9
:1023A00064E0CE0141960E94040A811104C063E0FA
:1023B00082E390E006C189A49AA415E004E0060D2A
:1023C000A8955301C501880D991D0E94B709D50133
:1023D0008D935D010A13F6CF612FC3010E94040A99
:1023E000882329F31F5FB4E08B0E911C123341F751
:1023F0003FC18E3F09F0D8C160913701609347011A
:1024000082E593E00E94090C6091380160934801D5
:1024100085E593E00E94090C6091390160934901C0
:1024200088E593E00E94090C60913A0160934401B1
:102430008BE593E00E94090C1C8E1D8E1E8E1F8E54
:1024400064E0CE014C960E94040A882309F4ACC1D2
:1024500062E047CF10914601193F09F060C09091AA
:102460002F012091430180913001291308C0209150
:102470004201281304C0209141012111F9C010929A
:102480004101909343018093420184E00E9437030D
:1024900061E084E00E9425078FEF888F898F8A8F03
:1024A0008B8F18E0A895612FC3010E94040A88232E
:1024B00009F47AC11F5F1233A9F7198A1A8A1B8A95
:1024C0001C8A18E0A895612FCE0141960E94040A4B
:1024D000882309F469C11F5F1233A1F780917D0140
:1024E00090917E0120917F013091800139832A8370
:1024F0009B838C8365E0CE0101960E94040A8823A9
:1025000009F452C160E084E00E94250761E084EF95
:1025100091E00E94690A81E08093410145C1183F22
:1025200009F052C08091330190E0A0E0B0E0BA2FF2
:10253000A92F982F882720913401820F911DA11D6A
:10254000B11DBA2FA92F982F882720913501820F0E
:10255000911DA11DB11D2091360140917D01509129
:102560007E0160917F0170918001421B51096109D8
:102570007109BA2FA92F982F88278A019B01081B60
:10258000190B2A0B3B0BD901C801813A9542A6428F
:10259000B10510F063E013C017E088E00E94B909AC
:1025A000882309F401C11150C1F7EFE2F1E080E1A5
:1025B0008E0F91919111EECF8E13FBCF61E088ECDD
:1025C00090E00E94690AF0C01092000140902F0133
:1025D000512C542C442480913001480E511C41143C
:1025E000510409F4E1C068E002E3202E312CA62E4C
:1025F000B12CC1018A0D9B1D959587956BA70E94F3
:10260000B9096BA5811109C0109200011092010156
:102610001092020110920301C7C020912F01C10145
:102620008A199B0921110BC097FD019695958795F5
:10263000062F080F0613D9CF011116C0B5C020937D
:10264000000120913001209301012091310120935C
:102650000201209132012093030197FD0196959587
:102660008795602F681BE6CF80910001181304C086
:1026700061E084EF91E0A5CF623308F095C09091BE
:102680004501992361F0683021F4103F09F08CC0B6
:1026900018C1853F09F488C0103F09F485C0812F17
:1026A00090E0A0E0B0E0382F22271127002780918A
:1026B0007D0190917E01A0917F01B0918001BB27A7
:1026C000800F911FA21FB31FB983AA839B838C83A2
:1026D000CE0101960E94040A882309F465C061E0D6
:1026E00088EC90E00E94690AC20101978B3D9540F9
:1026F000E0F4820143E0169507954A95E1F7C80199
:102700000E94B70937E04322552441E050E060E0E1
:1027100070E004C0440F551F661F771F4A94D2F71C
:10272000682F642BC8010E94AC1481E080934F0194
:1027300010924B0110924C0110924D0110924E01DB
:1027400080E589831A82AE014D5F5F4F62E0CE0162
:1027500001960E945F01811110C0812CA12CC12C17
:10276000D12CE12CF12C00E010E024E0AE014F5F11
:102770005F4F60E38CE00E949C0168E080E10E9472
:1027800024049FB7F89480914001882319F0815068
:102790008093400180914001811105C08CB58F7BF1
:1027A0008CBD10922E019FBF809104019091050174
:1027B000A0910601B09107010097A105B10519F498
:1027C00010924F0107C00197A105B10519F481E0EE
:1027D00080934F0100914F0181E080933F0110E011
:1027E000812F0E94370360E0812F0E9425071F5F21
:1027F0001431B1F710927A00002309F45DC014BEC1
:1028000088E18093600084E480936000A895F89448
:1028100083B7816083BF80E685BF80E485BF7894FD
:10282000889583B78E7F83BF10923F0180914A01C4
:10283000882379F103E05524539488E1882E91E6AA
:10284000992E20E6A22E30E4B32E50923F0110E0E4
:10285000812F0E94370360E0812F0E9425071F5FB0
:102860001431B1F710927A0014BE809260009092F9
:102870006000A895F89483B7816083BFA5BEB5BEFC
:102880007894889583B78E7F83BF10923F01015063
:10289000E1F60E94930CA0C96FE082E00E9434012F
:1028A00061E070E080E090E00E94D70782E00E9443
:1028B000100184FDFBCF30CA88E18093600086E47C
:1028C000A3CF853F09F0EBCE6FCFE3EDF1E01382AC
:1028D000128288EE93E0A0E0B0E084839583A68323
:1028E000B7832DE031E03183208325EC30E035875C
:1028F000248724EC30E03787268720EC30E0318BCA
:10290000208B21EC30E0338B228B22EC30E0358BB6
:10291000248B26EC30E0378B268B118E128E138E93
:10292000148EE0E7F2E01382128284839583A683FB
:10293000B7838FE191E091838083ECE7F2E08AE056
:10294000848789E085870895F999FECF92BD81BD7E
:10295000F89A992780B50895262FF999FECF1FBAC6
:1029600092BD81BD20BD0FB6F894FA9AF99A0FBEB8
:1029700001960895991B79E004C0991F961708F0F5
:10298000961B881F7A95C9F780950895AA1BBB1BD3
:1029900051E107C0AA1FBB1FA617B70710F0A61B5F
:1029A000B70B881F991F5A95A9F780959095BC0180
:1029B000CD01089597FB072E16F4009407D077FDFC
:1029C00009D00E94C61407FC05D03EF4909581956D
:1029D0009F4F0895709561957F4F0895A1E21A2E3B
:1029E000AA1BBB1BFD010DC0AA1FBB1FEE1FFF1FB3
:1029F000A217B307E407F50720F0A21BB30BE40B03
:102A0000F50B661F771F881F991F1A9469F7609549
:102A10007095809590959B01AC01BD01CF01089503
:102A2000A29FB001B39FC001A39F700D811D11240F
:102A3000911DB29F700D811D1124911D08950E945A
:102A40001015A59F900DB49F900DA49F800D911D12
:102A500011240895EE0FFF1F0590F491E02D0994C5
:102A600081E090E0F8940C943E15FB01DC0102C07B
:102A700001900D9241505040D8F70895F894FFCF3F
:102A8000FF00000080510100FF00000000C9007D30
:102A900005560CBE0C870C650C790C000000006517
:0E2AA000063506950609062D0619060A0600DB
:107E0000112484B714BE83FF04C09091FE089F33F1
:107E100008F4282E8D7029F080E0C9D0E0E0FF271B
:107E2000099400D01F92CDB7DEB785E08093810022
:107E300082E08093C00088E18093C10086E0809357
:107E4000C20080E18093C4008EE0B1D0259A26E084
:107E500080E39CEF31E0909385008093840036BBF3
:107E6000B09BFECF1D9AA8952150A9F7812C912C8B
:107E700093E0F92EEE24E39425E0D22E31E1C32ED7
:107E80008AD0813479F487D0898397D089818238E8
:107E900011F482E005C0813811F486E001C083E06E
:107EA00073D06FC0823411F484E103C0853419F4B7
:107EB00085E08BD066C0853541F46DD0882E6BD0BF
:107EC000912C982A880C991C5BC0863521F484E09B
:107ED0007CD080E0E5CF843609F036C05CD05BD042
:107EE000B82E59D0A82E00E011E055D0F8018193AA
:107EF0008F01BE12FACF61D0F5E4AF1201C0FFCFFF
:107F0000F401F7BEE89507B600FCFDCFB401A0E090
:107F1000B1E02C911296AD0141505109FA018081D6
:107F200030E0382BFB010901E7BEE89511246E5FB4
:107F30007F4FBA12EECFF401D7BEE89507B600FC2A
:107F4000FDCFC7BEE8951DC0843769F424D023D087
:107F5000B82E21D032D08401F80185918F0114D040
:107F6000BA94D1F70EC0853739F427D08EE10CD002
:107F700085E90AD08FE094CF813511F488E017D0DD
:107F80001CD080E101D07CCF9091C00095FFFCCF48
:107F90008093C60008958091C00087FFFCCF809138
:107FA000C00084FD01C0A8958091C6000895E0E658
:107FB000F0E098E1908380830895EDDF803219F03E
:107FC00088E0F5DFFFCF84E1DFCFCF93C82FE3DF79
:087FD000C150E9F7CF91F1CF98
:027FFE00020679
:0400000300007E007B
:00000001FF
