:107E000001C0C9C01F92CDB7DEB7112484B7882343
:107E100061F0982F9A70923041F081FF02C097EF85
:107E200094BF282E80E0A2D0EBC082E08093C000F7
:107E300088E18093C10086E08093C20089E180934D
:107E4000C4008EE093D093E0D92ECC24C39425E0D7
:107E5000B22E31E1A32E7ED0813469F47BD08983A8
:107E60008BD089818238E9F0813811F488E001C033
:107E700083E069D065C0823411F484E103C08534A5
:107E800019F485E081D05CC0853539F463D0882E43
:107E900061D0982E880C991C52C0863521F484E05C
:107EA00073D080E0E6CF843609F02DC053D052D095
:107EB000F82E50D0E82E00E011E04CD0F80181936C
:107EC0008F01FE12FACF58D0F5E4EF1201C0FFCFB8
:107ED000F401D7BEE89507B600FCFDCFF401A0E0A1
:107EE000B1E08D919D910C01C7BEE89511243296A9
:107EF000FA12F7CFF401B7BEE89507B600FCFDCF44
:107F0000A7BEE8951DC0843769F424D023D0182F6C
:107F100021D032D07401F70185917F0114D0115026
:107F2000D1F70EC0853739F427D08EE10CD085E922
:107F30000AD08FE09ECF813511F488E017D01CD095
:107F400080E101D088CF9091C00095FFFCCF809355
:107F5000C60008958091C00087FFFCCF8091C000CB
:107F600084FD01C0A8958091C6000895E0E6F0E088
:107F700098E1908380830895EDDF803219F088E0E6
:107F8000F5DFFFCF84E1DFCFCF93C82FE3DFC15010
:107F9000E9F7CF91F1CFFC010A0167BFE895112401
:107FA00007B600FCFDCF667029F0452B19F481E17E
:067FB00087BFE89508956B
:027FFE00000879
:0400000300007E007B
:00000001FF
